:100000000000042059020000B1020000B302000009
:10001000B5020000B7020000B902000000000000B5
:10002000000000000000000000000000BB02000013
:10003000BD02000000000000BF020000C10200007D
:10004000D933000005350300311F03001964000097
:1000500031640000CF020000FD370000E9490000D4
:10006000115600002956000041560000DB02000036
:10007000DD020000E11B0300E1020000E3020000DA
:10008000E5020000111F0000E9020000EB02000081
:10009000511F0000EF020000F1020000F302000017
:1000A000F5020000F70200005956000071560000EA
:1000B00025480000FF020000C3020000C302000048
:1000C000010300003D480000554800000703000000
:1000D000551403000B0300000D0300000F03000084
:1000E00011030000130300001503000017030000B4
:0800F000C30200001903000027
:1000F800364937480A1A02D0072291438D463549B6
:1001080035480A1A06D00722914381F3098802224A
:1001180082F3148831483249324A00F045F83248AF
:100128003249334A00F040F832483349334A00F044
:100138003BF833483349344A00F036F833483449F9
:10014800344A00F031F834483449354A00F02CF884
:1001580034483549354A00F027F8354835490022F2
:1001680000F02DF834483549002200F028F83448CA
:100178003449091A082903DB0022026004300160AF
:10018800314A90471F482049884205D00268043008
:1001980003B4904703BCF7E700208646EC460020EE
:1001A80000212A4A9047FEE7884207D0521A05D014
:1001B800037801300B700131013AF9D17047884258
:1001C80002D002700130FAE77047000000000420F6
:1001D80000E003200000042000000420DCD7040015
:1001E8006C000020380400201C0300001C030000E1
:1001F800B83E0400DCD704006C0000206C0000202E
:100208006C3F04006C3F04006C3F04006C3F04002A
:100218006C3F04006C3F04006C3F04006C3F04001A
:10022800DCD70400A8DB04003804002038040020D0
:1002380038040020D8F20020D8F20020DCF2002098
:10024800DCF20020DCF400207D020000C16900001F
:100258000F484FF00701884385460E4880470E48EF
:10026800016841F470010160BFF34F8FBFF36F8FD6
:10027800FFF73EBF09480A490A4A884207D0521A7E
:1002880005D0037801300B700131013AF9D170477C
:1002980000000420856E000088ED00E0003F0400A7
:1002A800000000206C000020FEE7FEE7FEE7FEE706
:1002B800FEE7FEE7FEE7FEE7FEE7FEE7FEE7FEE70E
:1002C800FEE7FEE7FEE7FEE7FEE7FEE7FEE7FEE7FE
:1002D800FEE7FEE7FEE7FEE7FEE7FEE7FEE7FEE7EE
:1002E800FEE7FEE7FEE7FEE7FEE7FEE7FEE7FEE7DE
:1002F800FEE7FEE7FEE7FEE7FEE7FEE7FEE7FEE7CE
:10030800FEE7FEE7FEE7FEE7FEE7FEE7FEE7FEE7BD
:04031800FEE700BF3D
:10031C0000487047D0F20020FEE708B506F08AFDD1
:10032C0000BF08BD00B589B0039002910192019BFA
:10033C00002B22D0002307930A230693029A079BD3
:10034C001344019A1946002006F0C0FC0590079A48
:10035C00059B13440793019A059BD31A0193059BA4
:10036C00002B05D1069B013B0693069B002B03D06B
:10037C00019B002BE2D100E000BF00BF09B05DF88B
:10038C0004FB000000B585B003900291054B00936F
:10039C004023054A0299039800F012F800BF05B0FB
:1003AC005DF804FB310300003804002082B001909A
:1003BC0000BF02B0704782B0019000BF02B070471E
:1003CC0000B5A1B00590049103920293049802F039
:1003DC0070FC039B1593029B169300231793002329
:1003EC008DF8603000231993229B1A9300231F93DE
:1003FC000FA91F9B0822049802F016FD08231F93D7
:10040C00119B1293109B9BB2ADF84C3000238DF8CE
:10041C0050309DF83C3003F00303DBB2012B32D19A
:10042C000F9BC3F395231D939DF83C30C3F3C2037C
:10043C00DBB28DF84E309DF83C30C3F38003DBB259
:10044C00002B14BF01230023DBB28DF84F30BDF815
:10045C003C30C3F38313DBB21C931C9B9A0009A999
:10046C001F9B049802F0E0FC1C9B9B001F9A1344FA
:10047C001F9312AA09A915AB009313461C9A1D9839
:10048C0000F06EFE3BE09DF83C3003F00303DBB262
:10049C00022B34D1BDF83E30C3F389139BB21E93AB
:1004AC009DF83C30C3F3C203DBB28DF84E309DF89F
:1004BC003C30C3F38003DBB2002B14BF01230023B9
:1004CC00DBB28DF84F301E9B082B28BF08231B93E3
:1004DC0007A91F9B1B9A049802F0A6FC1F9A1B9B52
:1004EC0013441F931E9A1B9BD31A1E9315AB12AA6F
:1004FC0007A81B9900F0D6FE1E9B002BE3D1049895
:10050C0002F0E6FB00BF21B05DF804FB82B0019065
:10051C00019B01225A7200BF02B0704700B583B034
:10052C004FF0FF330193FFF7F8FE0421084800F069
:10053C0051FD0190019B002B03DA0649412001F08B
:10054C00BAFD0348FFF7E2FF00BF03B05DF804FB00
:10055C006C000020783F040000B583B0019000913E
:10056C00019B1B681B6800990198984700BF03B05A
:10057C005DF804FB00B583B00190019B1B685B68C0
:10058C000198984700BF03B05DF804FB82B001905E
:10059C000B468DF80330019B9DF803201A7200BFA7
:1005AC0002B0704782B00190019B1B7A184602B0D2
:1005BC00704782B00190019B01225A7200BF02B0B9
:1005CC00704782B00190019B5B7A184602B070476D
:1005DC0010B487B001900091019B009A53E8004F32
:1005EC0044EA020043E8000191F0000FF6D10594B3
:1005FC0004900391049B184607B05DF8044B7047B8
:10060C0010B487B001900091019B009A53E8004F01
:10061C0004EA020043E8000191F0000FF6D10594C2
:10062C0004900391059B184607B05DF8044B704786
:10063C0000B583B0019001210198FFF7C9FF034673
:10064C00184603B05DF804FB00B583B0019000219F
:10065C000198FFF7D5FF0346184603B05DF804FB7D
:10066C0000B587B001901F4BFF229A601D4B0022F2
:10067C001A601C4B00225A601A4B0022C3F8182433
:10068C00184B0022C3F81424164B002283F81C24A8
:10069C00154802F073FA0490049B002B01D0049BC4
:1006AC001CE0124A124BD31ADB0803930023059368
:1006BC000FE0059A13465B0013449B001A460D4B42
:1006CC0013440293059B9AB2029B1A80059B01333B
:1006DC000593059A039B9A42EBD30023184607B067
:1006EC005DF804FB48050020CC3F0400003F0400EB
:1006FC00B83E040000000020024A034BD31ADB086A
:10070C0018467047003F0400B83E040000B587B09F
:10071C0001900B468DF803309DF80330002B23D04D
:10072C00FFF7EAFF04900023059317E0059A1346A0
:10073C005B0013449B001A460E4B13440393039B1C
:10074C005B881A46019B1B689A4204D1019B059A4F
:10075C001A60002309E0059B01330593059A049B5D
:10076C009A42E3D3052300E00023184607B05DF856
:10077C0004FB00BF0000002000B585B001900B46C3
:10078C008DF803309DF8032001AB11461846FFF796
:10079C00BDFF0346002B07D1019BDB00054A134428
:1007AC000393039B1B6800E00023184605B05DF81B
:1007BC0004FB00BFB83E040084B001900B468DF8DA
:1007CC000330019BDB00174A134402939DF803305E
:1007DC00013B032B1CD801A252F823F0F9070000AF
:1007EC0001080000090800001308000000238DF820
:1007FC000F3011E000238DF80F300DE0029B1B79B8
:10080C008DF80F3008E0029B5B798DF80F3003E018
:10081C0000238DF80F3000BF9DF80F30184604B040
:10082C00704700BFB83E040000B589B04148FFF7DF
:10083C00FFFE4148FFF7FCFE404B5B6807933F4BC4
:10084C009B680493079A049B134002339B003B4A1A
:10085C001344043306931BE0079B01330793069B59
:10086C005B88C3F389139BB21A46069B1B88C3F3A0
:10087C0089139BB213441A46079B13440793079A98
:10088C00049B134002339B002C4A134404330693FD
:10089C00069B1B7803F00303DBB2002BDCD0002398
:1008AC00059311E0059B9B006A461A44079B591C53
:1008BC00079104990B40214902339B000B445B6860
:1008CC001360059B01330593059B012BEAD99DF819
:1008DC000030C3F30103DBB2012B0CD0022B14D17B
:1008EC00BDF80230C3F389139BB203339B08079AFC
:1008FC00134407930FE0BDF80030C3F38313DBB24E
:10090C001A46079B1344079305E00D4940F24D101E
:10091C0001F0D1FB00BF0848FFF796FE0390039B44
:10092C00002B02D0054A079B536000BF09B05DF84D
:10093C0004FB00BF600900205C0900204805002072
:10094C00F03F040010B586B0039002910192009321
:10095C00009B5A1C0092089A134002339B00294AB0
:10096C00134404330593059A1378012161F30103B1
:10097C001370039B03F01003002B14BF01230023FF
:10098C00D9B2059A137861F382031370039BDBB21F
:10099C0003F00703D9B2059A137861F3C5031370FA
:1009AC00019BDBB203F00F03D9B2059A138861F3F4
:1009BC0089131380029BC3F31501059A136861F325
:1009CC009F231360039B1B0CADF81230BDF8124033
:1009DC00FFF792FE03469C4204D30B4940F2691088
:1009EC0001F069FB009B5A1C0092089A1340BDF859
:1009FC001220044902339B000B445A60009B18469A
:100A0C0006B010BD48050020F03F040000B589B0C9
:100A1C0001900091019B023306930223059301235D
:100A2C008DF81330002001F0FFFA194B1A68009B67
:100A3C001A60174B9A68164B5968154B1B68CB1AE2
:100A4C00134401330793069A059B134403930BE05D
:100A5C00FFF7EAFE0E4B9A680D4B59680C4B1B685E
:100A6C00CB1A134401330793039A079B9A42EFD88E
:100A7C00074B1A68069B1344054A1360002001F0CB
:100A8C00E7FA9DF81330184609B05DF804FB00BF77
:100A9C004805002000B58BB0059004910392029399
:100AAC001E4B9B68089307AB19460298FFF7AEFFE5
:100ABC000346002B23D0079A089B00931346029AF7
:100ACC0004990598FFF73EFF03460793002309930B
:100ADC0011E0079B5A1C0792089A1340099A92003E
:100AEC0003990A4412680D4902339B000B445A6067
:100AFC00099B01330993099A029B9A42E9D3074B4C
:100B0C0093F81C34002B05D000BF00F07FF803468F
:100B1C00002BFAD100BF0BB05DF804FB4805002098
:100B2C0000B583B001900091002300220099019838
:100B3C00FFF7B0FF00BF03B05DF804FB00B587B052
:100B4C00039002910192019B059305AA012302993E
:100B5C000398FFF79FFF00BF07B05DF804FB00B5DB
:100B6C0087B00390029101920093019B0493009B28
:100B7C00059304AA022302990398FFF78BFF00BF89
:100B8C0007B05DF804FB00B589B0039002910192A7
:100B9C000093019B0493009B05930A9B06930B9B6C
:100BAC00079304AA042302990398FFF773FF00BF6D
:100BBC0009B05DF804FB00B58BB003900291019273
:100BCC000093019B0493009B05930C9B06930D9B38
:100BDC0007930E9B08930F9B099304AA0623029973
:100BEC000398FFF757FF00BF0BB05DF804FB000044
:100BFC00054B5A68044B1B689A420CBF0123002317
:100C0C00DBB21846704700BF4805002000B597B00E
:100C1C00FFF7EEFF0346002B01D000239FE19D4B15
:100C2C000022C3F81824BFF34F8F9A4B5B681593BF
:100C3C00984B9B680E93159A0E9B134002339B00A6
:100C4C00944A1344043314930023139300231293F4
:100C5C0000230D931BE0159B01331593149B5B88AC
:100C6C00C3F389139BB21A46149B1B88C3F38913D5
:100C7C009BB213441A46159B13441593159A0E9B5D
:100C8C00134002339B00834A134404331493149B84
:100C9C001B7803F00303DBB2002BDCD00023119391
:100CAC0011E0119B9B006A461A44159B591C159127
:100CBC000E990B40774902339B000B445B68136021
:100CCC00119B01331193119B012BEAD99DF8003034
:100CDC0003F00303DBB2022B40F09C80BDF8023022
:100CEC00C3F389139BB20C93BDF80230C3F3891381
:100CFC009BB2502BA8BF50230B930B9B9BB2C3F3FF
:100D0C0009039AB2BDF8023062F38F13ADF80230CA
:100D1C000B9B08330A939DF80030C3F3C203DBB27C
:100D2C000D930A995C4801F034FF1390139B002B30
:100D3C0000F0D480139801F0BCFF6946129B082286
:100D4C00139802F05FF8129B08331293159BDA4349
:100D5C000E9B134001339B0009930B9A099B9A42FB
:100D6C0042D9099B002B08D0159A0E9B13400233D5
:100D7C009B00484A1344043300E0484B0893099BFA
:100D8C00002B02D0099BDBB201E00B9BDBB28DF890
:100D9C001F30099B002B01D0404B00E00023069331
:100DAC00099B002B06D00B9BDAB2099BDBB2D31A42
:100DBC00DBB200E000238DF817309DF81F20129B4A
:100DCC000899139802F01EF89DF81F30129A1344DC
:100DDC001293069B002B16D09DF81720129B069998
:100DEC00139802F00FF80EE0159A0E9B1340023385
:100DFC009B00284A134404330493129B0B9A0499C6
:100E0C00139801F0FFFF0C9B03339B08159A1344B6
:100E1C00159363E09DF8003003F00303DBB2012B64
:100E2C005CD1BDF80030C3F38313DBB2062B28BFB3
:100E3C000623DBB203F00F03DAB2BDF8003062F325
:100E4C008913ADF80030BDF80030C3F38313DBB267
:100E5C00023303939DF80030C3F3C203DBB20D934E
:100E6C00039B9B0019460C4801F093FE1390139BB7
:100E7C00002B33D0139801F01CFF6946129B0822FB
:100E8C00139801F0BFFF129B0833129300231193A8
:100E9C001BE000BF48050020CC3F04005405002097
:100EAC00159B5A1C15920E9A134002339B002E4A26
:100EBC001344191D129B0422139801F0A3FF129BDB
:100ECC0004331293119B01331193BDF80030C3F31B
:100EDC008313DBB21A46119B9A42E1D8139B002B69
:100EEC0037D0214BD3F8103410931F4BD3F8183450
:100EFC00002B1AD0139801F0EBFE2AE000238DF89A
:100F0C003F301098FFF75DFB0346002B02D0012306
:100F1C008DF83F309DF83F30002B03D0139910987B
:100F2C00FFF71AFB109B5B681093109B002BE5D10D
:100F3C00139801F0CDFE002001F076F80A4BD3F89F
:100F4C001834002B02D1084A159B5360002001F085
:100F5C007FF8FFF74DFE034683F00103DBB2184622
:100F6C0017B05DF804FB00BF4805002000B585B044
:100F7C000023039322E0164BD3F810340293012381
:100F8C008DF807300EE00298FFF70CFB03461A466B
:100F9C00039B9A4203D100238DF8073005E0029B96
:100FAC005B680293029B002BEDD19DF80730002B60
:100FBC0001D0039B07E0039B01330393039B092B95
:100FCC00D9DD4FF0FF33184605B05DF804FB00BFC8
:100FDC004805002000B585B001900B468DF8033014
:100FEC00FFF7C4FF0390039BB3F1FF3F01D1039BB9
:100FFC001EE0039BDBB219460198FFF7C7FA0E4BB4
:10100C00D3F81034002B07D10B4A019BC2F81034D3
:10101C00019B00225A600AE0074BD3F810345A683F
:10102C00019B5A60044BD3F81034019A5A60039B0D
:10103C00184605B05DF804FB4805002000B583B0E8
:10104C000C4BD3F8103401930A4B012283F81C2467
:10105C0008E00198FFF7ADFA0198FFF78BFA019BB6
:10106C005B680193019B002BF3D100BF03B05DF8CB
:10107C0004FB00BF4805002010B582B00190009120
:10108C00019BDB7983F00103DBB2002B28D0019BA1
:10109C001B7A002B12D0019B9B881A46019B9B79D3
:1010AC0019461046FFF788FB03461A460E4B53F8B9
:1010BC0022301A460D49009801F032F9019B9B79B8
:1010CC001A460B4B53F82240019B9B880021184673
:1010DC00FFF752FB034622460649009801F020F91F
:1010EC0000BF02B010BD00BF8C000020A440040063
:1010FC0078000020A840040000B585B00390029150
:10110C0013468DF80730039BDB7983F00103DBB2C8
:10111C00002B0FD0039B1B7A002B06D00D4B1B68AA
:10112C001A460D49029801F0FBF80C49029801F09F
:10113C00F7F807E09DF80730002B03D00749029819
:10114C0001F0EEF8029801F0C9F800BF05B05DF8A7
:10115C0004FB00BF8C000020A4400400B440040039
:10116C0030B58BB007900691059204930E9B1B7BB8
:10117C008DF827300E9B00221A730E990498FFF7F6
:10118C007BFF059B062B7FD801A252F823F000BFF2
:10119C00B9110000C3110000D3110000E7110000C9
:1011AC00051200002D1200005D12000007990E9828
:1011BC0001F0B6F869E0069B1B681A4607990E9871
:1011CC0001F0AEF861E0069B1A68069B04331B68BD
:1011DC0007990E9801F0A4F857E0069B1A68069B35
:1011EC0004331968069B08331B6800930B46079958
:1011FC000E9801F095F848E0069B1968069B04339D
:10120C001868069B08331B68069A0C321268019208
:10121C00009303460A4607990E9801F081F834E0D2
:10122C00069B1868069B04331C68069B08331B68D6
:10123C00069A0C32126806991031096802910192D3
:10124C0000932346024607990E9801F069F81CE0BA
:10125C00069B1C68069B04331D68069B08331B68A1
:10126C00069A0C32126806991031096806981430E7
:10127C00006803900291019200932B462246079935
:10128C000E9801F04DF800E000BF00220E99049872
:10129C00FFF732FF0E9B9DF827201A7300BF0BB08F
:1012AC0030BD00BF00B587B003900291019200934E
:1012BC00029B082B5CD8009B1B7B8DF81330009B8A
:1012CC0000221A7300990198FFF7D6FE00230593AC
:1012DC0014E0059A029B9A4209D2039A059B134487
:1012EC001B781A462449009801F01AF803E02349A8
:1012FC00009801F015F8059B01330593059B072B0E
:10130C00E7D91F49009801F00BF80023059322E060
:10131C00059A029B9A4217D2039A059B13441B7899
:10132C008DF812309DF8123018460DF0ADFC0346C6
:10133C00002B02D09DF8123000E02E231A461149E2
:10134C00009800F0EDFF03E00F49009800F0E8FF73
:10135C00059B01330593059B072BD9D901220099D5
:10136C000198FFF7C9FE009B9DF813201A7300E04B
:10137C0000BF07B05DF804FBB8400400C040040097
:10138C00C4400400C8400400CC40040000B589B03F
:10139C00039002910192029B9BB2ADF81430019B19
:1013AC000693039B079305AB1A46002144F20100F8
:1013BC0000F050F800BF09B05DF804FB86B0039054
:1013CC000291019201238DF817309DF81730204AB5
:1013DC00039B13601E4A029B53601D4A019B936042
:1013EC00039B44F20102934212D044F20202934254
:1013FC0022D1019B164AD360154BDB681B881A4619
:10140C00134B9A61124BDB685B68114AD36113E092
:10141C00019B0F4A13610E4B1B699B680C4A53616D
:10142C000B4B1B691B881A46094B9A61084B1B69AD
:10143C005B68074AD36100BF72B600BF9DF81730D6
:10144C00DBB2002BFAD162B600BF06B0704700BF0A
:10145C006809002030B589B0059004910392FFF71C
:10146C00EDFD00BFFFF7D2FB0346002BFAD1059B25
:10147C0044F20102934213D044F2020293422DD162
:10148C00039B0793224B1B881B0443F00100079B13
:10149C005B681A46079B1B881E49FFF760FB28E018
:1014AC00039B06931A4B1B881B0443F00104069BF9
:1014BC009D68069B9B68184601F0C8FC03461946BC
:1014CC00069B5B681A46069B1B88019300920B4691
:1014DC002A4611492046FFF756FB0AE00C4B1B88A5
:1014EC001B0443F00103049A0C491846FFF726FB32
:1014FC0000BF0B4B1B6803F00103002B00D0FFDE79
:10150C00039A04990598FFF759FF00BF09B030BD45
:10151C0000000020D0400400EC4004000441040012
:10152C00F0ED00E082B003468DF8073007499DF9D5
:10153C0007305B099DF8072002F01F02012000FA1A
:10154C0002F241F8232000BF02B0704700E100E036
:10155C0082B003468DF8073008499DF907305B09C6
:10156C009DF8072002F01F02012000FA02F220333E
:10157C0041F8232000BF02B0704700BF00E100E03B
:10158C0082B003468DF8073008499DF907305B0996
:10159C009DF8072002F01F02012000FA02F24033EE
:1015AC0041F8232000BF02B0704700BF00E100E00B
:1015BC0082B003468DF8073008499DF907305B0966
:1015CC009DF8072002F01F02012000FA02F260339E
:1015DC0041F8232000BF02B0704700BF00E100E0DB
:1015EC0084B00190244B0393019B002B40D0234BE0
:1015FC001A680399019B00BF00BF00BF00BF00BF6A
:10160C0000BF00BF00BF8A422FD000BF00BF00BF89
:10161C0000BF00BF00BF00BF00BF00BF00BF00BFC6
:10162C0000BF00BF00BF00BF00BF00BF00BF00BFB6
:10163C0000BF00BF00BF00BF00BF00BF00BF00BFA6
:10164C0000BF00BF00BF00BF00BF00BF00BF00BF96
:10165C0000BF00BF00BF00BF00BF00BF00BF00BF86
:10166C0000BF00BF00BF00BF00BF013BC3D101934F
:10167C0000BF04B0704700BF0024F400CC00002071
:10168C0008B50D4B4FF48032C3F844230A4B4FF48A
:10169C008032C3F804231120FFF78AFF1120FFF7D3
:1016AC0041FF054B01221A602F20FFF799FF034BD6
:1016BC0001221A7000BF08BD00100140A60A0020CC
:1016CC0008B51120FFF744FF0E4B4FF48032C3F8DE
:1016DC0048230C4B4FF48032C3F80823094B0122EA
:1016EC005A602F20FFF77CFF064B01229A60064BB5
:1016FC0000221A602F20FFF773FF044B00221A7090
:10170C0000BF08BD00100140980A0020A60A002066
:10171C00024BD3F804351846704700BF0010014047
:10172C0082B001900091019A009BD31A23F07F4361
:10173C00184602B07047000082B00190034A019B2A
:10174C00C2F8403500BF02B0704700BF0010014026
:10175C0086B00190284B1B68002B03D1264A019BB5
:10176C00136045E0019B1A68234B1B681B689A4267
:10177C0010D8214B1B68204A12681168019A126814
:10178C008A1A1A601C4B1A68019BDA611A4A019B6F
:10179C0013602DE0019B1B680393174B1B6805938B
:1017AC00154B1B68049309E0049B1B68039AD31A1E
:1017BC000393049B0593049BDB690493049B002B0C
:1017CC0004D0049B1A68039B9A42EDD3049B002B14
:1017DC0005D0049B1A68039BD21A049B1A60019BC8
:1017EC00039A1A60019B049ADA61059B019ADA61EB
:1017FC0000BF06B0704700BF940A002000B587B048
:10180C0001902A4B1B680393284B1B680593059B7F
:10181C00049308E0049A019B9A4208D0049B059318
:10182C00049BDB690493049B002BF3D100E000BF05
:10183C00049B002B01D1002333E0059A049B9A42B0
:10184C0014D11A4B1B68DB69184A1360174B1B68C1
:10185C00002B0BD1164B01229A60164B00221A60FA
:10186C00154B01221A702F20FFF7BAFE049B1B6840
:10187C000293049BDA69059BDA61059BDB6904938F
:10188C00049B002B05D0049B1A68029B1A44049BF2
:10189C001A60064B1B68039A9A4214BF012300235B
:1018AC00DBB2184607B05DF804FB00BF940A0020B9
:1018BC0000100140980A0020A70A002008B511204A
:1018CC00FFF75EFE00BF08BD08B51420FFF758FEF9
:1018DC0000BF08BD00B583B00190019B5B69019A04
:1018EC0092691046984700BF03B05DF804FB0000F6
:1018FC0000B585B02B4B1B68002B4ED000230193F9
:10190C00FFF706FF0246284B1B6819461046FFF7E7
:10191C0007FF0290234B1B6803931DE0039B1A687F
:10192C00029B9A421CD8039B1B68029AD31A0293FF
:10193C00039B1B68019A13440193039B0093039B25
:10194C00DB690393009B1B7C002B05D0009B0022C2
:10195C001A740098FFF7BEFF039B002BDED100E04A
:10196C0000BF124B1A78124B1B789A420CD1104BB9
:10197C001B780133DAB20E4B1A700D4B1B78022B0D
:10198C0002D10B4B00221A70094B1B781946094ADD
:10199C00019B42F82130FFF797FF00BF05B05DF8BF
:1019AC0004FB00BF940A0020980A0020A40A00201F
:1019BC00A50A00209C0A002082B00190184B1A78CE
:1019CC00184B1B789A4223D0154B1B780133DAB293
:1019DC00134B1A70124B1B78022B02D1104B0022A6
:1019EC001A700F4B1B781A460F4B53F82220019B91
:1019FC001A60019B1A680D4B1B6813440B4A136049
:101A0C000A4B1B6823F07F43084A1360012303E051
:101A1C00019B00221A600023184602B0704700BFD9
:101A2C00A40A0020A50A00209C0A0020980A002085
:101A3C0088B00390029101920023079338E0204B69
:101A4C001B680693069B1A68039B9A4206D9069B51
:101A5C001A68039BD21A069B1A602DE0069B1B6822
:101A6C00039AD31A0393069B1B68079A1344079394
:101A7C00069B00221A60124B1B680593069BDB69C0
:101A8C000F4A1360069BDB68002B11D0029A079B50
:101A9C00134423F07F42069B5A60069BDA68069B30
:101AAC009A60019B1A68069BDA61019B059A1A6081
:101ABC00034B1B68002BC2D100BF08B0704700BF9E
:101ACC00940A002000B589B0019000238DF81F30D6
:101ADC00664B1B680593AAE0019B002B05D0019B6C
:101AEC000693069BDB69019361E0614B1B781A46F8
:101AFC0013465B001344DB005D4A13440433049328
:101B0C005B4B1B780133DAB2594B1A70584B1A786D
:101B1C00574B9B789A4202D1554B00221A70049B6A
:101B2C005B680693049B1B78022B04D0032B1BD001
:101B3C00012B1FD01DE0049B5B681846FFF75EFE6F
:101B4C000346002B02D001238DF81F30069B002288
:101B5C001A746CE0454B1B680393039B00221A74A8
:101B6C00039BDB69414A1360404B1B68002BF1D18E
:101B7C005DE05CE000BF069B1B7C002B00D056E0B8
:101B8C00049B9A68069B5A60049BDA68069B9A60D1
:101B9C00049B1A69069BDA60049B5A69069B9A613E
:101BAC00344B1B78002B02D0069B00225A60069BFC
:101BBC005A68314B1B68D31A23F07F432F4A934248
:101BCC000ED8069B5A682C4B1B6819461046FFF71B
:101BDC00A7FD0246069B9B681A44069B1A6017E0F9
:101BEC00254B1A68069B5B6819461046FFF798FD53
:101BFC000290069B9A68029B9A4206D9069B9A68A9
:101C0C00029BD21A069B1A6002E0069B00221A6005
:101C1C00069B00225A60069B00229A60069B0122BA
:101C2C001A74069B0022DA610698FFF791FD019B5E
:101C3C00002B7FF451AF0E4B1A780D4B5B789A4208
:101C4C007FF44AAF9DF81F30002B04D1074B1A6864
:101C5C00059B9A4201D0012300E0002303F001030D
:101C6C00DBB2184609B05DF804FB00BF940A0020F3
:101C7C0088090020A70A0020980A0020FEFF7F0098
:101C8C0010B588B00190274B1B68002B44D0254B16
:101C9C001B681B680793FFF73BFD0690224B1B68E4
:101CAC00059305990698FFF73BFD03460333049310
:101CBC001E4B1B7883F00103DBB2002B01D0FFF726
:101CCC00DFFC049A079B934238BF1346059A1344D2
:101CDC000593059B23F07F4305930598FFF72CFD97
:101CEC00FFF716FD039006990398FFF719FD0346BD
:101CFC00DC1C06990598FFF713FD03469C420DD991
:101D0C00FFF706FD03461846FFF716FD2F20FFF7D9
:101D1C0067FCFFF7D3FD01E0FFF7D2FC00BF08B072
:101D2C0010BD00BF940A0020980A0020A60A0020CB
:101D3C0000B587B00023019300238DF81730194BA1
:101D4C001B680493184B1B6803936B461846FFF7EC
:101D5C0033FE03468DF80B309DF80B30002B08D06A
:101D6C00009B01AA04991846FFF762FE01238DF827
:101D7C001730019B1846FFF7A5FE0346002B02D037
:101D8C0001238DF817309DF81730002B02D00398E3
:101D9C00FFF776FF054B00221A7000BF07B05DF805
:101DAC0004FB00BF980A0020940A0020A70A002018
:101DBC0082B003468DF80730034A9DF80730537004
:101DCC0000BF02B0704700BF8809002084B00190AA
:101DDC00144B5B7801338DF80F30124B9B789DF8C8
:101DEC000F209A4202D100238DF80F300D4B1B7837
:101DFC009DF80F209A4201D100230FE0019B9DF822
:101E0C000F201A70074B5B781A4613465B0013447D
:101E1C00DB00044A134404330293029B184604B0BB
:101E2C00704700BF8809002000B589B0039002916B
:101E3C000192009300230793002000F0F5F80DF1B8
:101E4C0017031846FFF7C2FF0690069B002B02D122
:101E5C000423079318E0069B01221A70069B039A31
:101E6C005A60FFF755FC0246069B9A60069B029A45
:101E7C00DA60069B019A1A61069B009A5A619DF8DA
:101E8C0017301846FFF794FF002000F0E1F8079B8D
:101E9C00002B01D1FFF718FD079B184609B05DF820
:101EAC0004FB00B587B001900B468DF8033000237E
:101EBC000593002000F0B8F80DF10F031846FFF75A
:101ECC0085FF0490049B002B02D1042305930BE0A7
:101EDC00049B9DF803201A70049B019A5A609DF88C
:101EEC000F301846FFF764FF002000F0B1F8059B97
:101EFC00002B01D1FFF7E8FC059B184607B05DF8F5
:101F0C0004FB000008B50E4B0022C3F840210C4B1B
:101F1C000022C3F844210A4B0022C3F84821084B85
:101F2C000022C3F84C21064B0022C3F80021044BBD
:101F3C000022C3F80421FFF7DBFC00BF08BD00BF83
:101F4C000010014008B5FFF7F3FE00BF08BD00000C
:101F5C0000B587B0039002910192039B0593144B3B
:101F6C009B78002B01D108231EE0039B002B01D191
:101F7C00082319E0029B042B01D8072314E0059BCE
:101F8C005B69002B01D108230EE0059B5B7C012BC8
:101F9C0001D1029B00E000230493019B049A029957
:101FAC000598FFF741FF0346184607B05DF804FBA0
:101FBC008809002000B585B00190019B03930D4B5F
:101FCC009B78002B01D1082310E0019B002B03D040
:101FDC00039B5B69002B01D1082307E0039B0022C4
:101FEC001A7402210398FFF75CFF0346184605B0EC
:101FFC005DF804FB8809002072B6034B1B680133A3
:10200C00014A136000BF7047A80A0020054B1B68EB
:10201C00013B044A1360034B1B68002B00D162B6D2
:10202C0000BF7047A80A002000B583B0019000F0F3
:10203C0025F80346012B03D00449432000F03BF85C
:10204C00FFF7DAFF00BF03B05DF804FB1C4104008E
:10205C0000B583B003468DF8073000F00FF8034647
:10206C00012B03D00449512000F025F8FFF7CEFFD7
:10207C0000BF03B05DF804FB1C41040084B0EFF317
:10208C0005830193019BC3F308030393039B002B6C
:10209C000DD1EFF314830093009B0293029B03F08A
:1020AC000103002B0CBF01230023DBB200E0012352
:1020BC00184604B0704700B585B003460091ADF8E2
:1020CC000630BDF80630ADF80830009B039302AB28
:1020DC001A46002144F20200FFF7BCF900BF05B01C
:1020EC005DF804FB00B583B001900B468DF803300E
:1020FC00019B002B03D10849AF20FFF7DCFF019BAC
:10210C00DA689DF803300199098A01FB03F3134443
:10211C00184603B05DF804FB6041040000B583B0C1
:10212C0001900091019B002B03D10849BC20FFF7C3
:10213C00C2FF009B019AD2689B1A019A128AB3FBC8
:10214C00F2F3DBB2184603B05DF804FB6041040007
:10215C0000B585B00190019B002B01D10E2349E005
:10216C00019B1B68002B03D12449C620FFF7A3FF5A
:10217C00019B5B68002B03D12049C720FFF79BFF15
:10218C00019B9B68002B03D11C49C820FFF793FFD0
:10219C00019BDB68002B03D11849C920FFF78BFF8B
:1021AC00019B1B8A002B03D11449CA20FFF783FF24
:1021BC00019B9B681A46019B5B68D31A8DF80F3004
:1021CC00019B1B68019A52681A6007E0019B1A6810
:1021DC001368591C11609DF80F201A709DF80F3070
:1021EC005A1E8DF80F20002BF0D1019B1B6800228A
:1021FC001A710023184605B05DF804FB6041040019
:10220C0000B585B00190019B002B03D11C49EC203B
:10221C00FFF751FF002303930020FFF705FF019BFD
:10222C001B681A68019B5B689A4220D9019B1B684A
:10223C001A68013A1A601B681B7819460198FFF757
:10224C0051FF0390019B9B681A46019B1B681B68FE
:10225C00D31A8DF80B30019B1B681B799DF80B2052
:10226C009A4204D9019B1B689DF80B201A7100201F
:10227C00FFF7EEFE039B184605B05DF804FB00BFAC
:10228C006041040010B584B001900091019B002BBB
:10229C0004D111494FF48870FFF70DFF009B002B00
:1022AC0004D10D4940F21110FFF705FF009B039379
:1022BC000020FFF7B9FE019B1B681C68621C1A60AA
:1022CC0003990198FFF72AFF034623700020FFF7BC
:1022DC00BFFE00BF04B010BD6041040000B583B068
:1022EC000190019B002B03D10C493120FFF7E3FE39
:1022FC00019B9B68002B0CD0019B5B69019A1069B8
:10230C00019A1168019A92689847019B00229A6081
:10231C0000E000BF03B05DF804FB00BF984104006F
:10232C000EB400B584B00190019B002B03D1184969
:10233C004220FFF7C0FE019B5B69002B03D11449BF
:10234C004320FFF7B8FE019B1B68002B03D11049FB
:10235C004420FFF7B0FE019B5B68002B03D10C49B6
:10236C004520FFF7A8FE059B002B0AD00023039302
:10237C0006AB039303AB1A460599019800F0B0F92C
:10238C0000E000BF04B05DF804EB03B0704700BF81
:10239C009841040000B583B001900B468DF80330D2
:1023AC00019B1A68019B9B68581C01998860134417
:1023BC009DF803201A70019B9A68019B5B689A42F6
:1023CC0002D30198FFF78AFF00BF03B05DF804FB4E
:1023DC0000B587B0039002910192009300230593FE
:1023EC00009B03F00103002B24D00BE0029B013374
:1023FC000293059B013305939DF8133019460398FE
:10240C00FFF7C8FF029B1B788DF813309DF8133033
:10241C00002BEBD106E0019B013B0193202103989B
:10242C00FFF7B8FF019A059B9A422ED9019B002B0E
:10243C00F1D12AE0029B002B0BD002980CF0D4FEB9
:10244C00059006E0019B013B019320210398FFF7C7
:10245C00A1FF019A059B9A420FD9019B002BF1D148
:10246C000BE0029B01330293059B013305939DF80E
:10247C00133019460398FFF78DFF029B1B788DF8DC
:10248C0013309DF81330002BEBD100BF07B05DF873
:10249C0004FB000000B589B00390029101920093F7
:1024AC00029B07930123069307E0079A019BB2FB5B
:1024BC00F3F30793069B01330693079A019B9A4209
:1024CC00F3D2009A069B9A4201D9009B06930B9B70
:1024DC0003F00103002B22D10A9B002B1FD00B9B76
:1024EC0003F00203002B06D0009B002B03D13023FA
:1024FC008DF8173002E020238DF8173008E00A9B86
:10250C00013B0A939DF8173019460398FFF742FFD9
:10251C000A9B002B03D0069A0A9B9A42EFD3012305
:10252C000793009B012B03D9009B013B009309E00F
:10253C00029A079BB2FBF3F30493049A019B9A4211
:10254C0000D205E0079B019A02FB03F30793E8E72F
:10255C00029A079BB2FBF3F30493049B079A02FBCA
:10256C0003F3029AD31A0293154A049B13441B7863
:10257C0019460398FFF70EFF079A019BB2FBF3F382
:10258C000793079B002BE3D10B9B03F00103002B5C
:10259C0011D00A9B002B0ED006E00A9B013B0A933C
:1025AC0020210398FFF7F6FE0A9B002B03D0069A16
:1025BC000A9B9A42F1D300BF09B05DF804FB00BF3F
:1025CC00F841040000B589B0059004910392029380
:1025DC00049B002BB8BF5B4206930123079307E0D3
:1025EC00039B069A92FBF3F30693079B0133079325
:1025FC00039B069A9A42F3DA029A079B9A4201D9F4
:10260C00029B07930A9B002B0AD0049B002B04DB34
:10261C000B9B03F00403002B02D00A9B013B0A9393
:10262C000B9B03F00203002B02D0029B002B16D055
:10263C000B9B03F00103002B11D10A9B002B0ED036
:10264C0006E00A9B013B0A9320210598FFF7A2FEA6
:10265C000A9B002B03D0079A0A9B9A42F1D3049B46
:10266C00002B07DA049B5B4204932D210598FFF79E
:10267C0091FE08E00B9B03F00403002B03D02B21ED
:10268C000598FFF787FE0B9B03F00203002B19D074
:10269C000B9B03F00103002B14D1029B002B11D1D7
:1026AC000A9B002B0ED006E00A9B013B0A933021BB
:1026BC000598FFF76FFE0A9B002B03D0079A0A9B25
:1026CC009A42F1D304990B9B01930A9B0093029BB2
:1026DC00039A0598FFF7DEFE00BF09B05DF804FB16
:1026EC0000B58FB0059004910392059B002B04D18B
:1026FC00C8494FF49F70FFF7DEFC059B5B69002B0C
:10270C0004D1C4494FF4A070FFF7D5FC059B1B689E
:10271C00002B04D1BF4940F24110FFF7CCFC059BC4
:10272C005B68002B04D1BB494FF4A170FFF7C3FCCD
:10273C00049B002B00F0ED81049B1B788DF8373047
:10274C00049B013304939DF83730002B00F0D881A3
:10275C009DF83730252B40F0C78100230A930123C5
:10276C000C93049B1B788DF837309DF837302D2B4C
:10277C0004D0302B0AD02B2B10D017E00A9B43F03F
:10278C0001030A93049B0133049312E00A9B43F068
:10279C0002030A93049B013304930AE00A9B43F05F
:1027AC0004030A93049B0133049302E000230C936B
:1027BC0000BF0C9B002BD4D1002309939DF837301C
:1027CC002A2B0CD1039B1B68191D039A11601B68E3
:1027DC00099A13440993049B013304931AE0049B54
:1027EC001B788DF837309DF837302F2B12D99DF888
:1027FC003730392B0ED8049B01330493099A1346B6
:10280C009B0013445B001A469DF837301344303B51
:10281C000993D3E700230B93049B1B788DF8373077
:10282C009DF837302E2B1DD1049B01330493049B50
:10283C001B788DF837309DF837302F2B12D99DF837
:10284C003730392B0ED8049B013304930B9A134663
:10285C009B0013445B001A469DF837301344303B01
:10286C000B93E4E7049B1B788DF837309DF83730D9
:10287C006C2B03D09DF83730682B07D1049B0133A8
:10288C000493049B1B788DF83730EFE79DF83730B5
:10289C00253B532B00F2238101A252F823F000BFF9
:1028AC00E12A0000EB2A0000EB2A0000EB2A0000D2
:1028BC00EB2A0000EB2A0000EB2A0000EB2A0000B8
:1028CC00EB2A0000EB2A0000EB2A0000EB2A0000A8
:1028DC00EB2A0000EB2A0000EB2A0000EB2A000098
:1028EC00EB2A0000EB2A0000EB2A0000EB2A000088
:1028FC00EB2A0000EB2A0000EB2A0000EB2A000078
:10290C00EB2A0000EB2A0000EB2A0000EB2A000067
:10291C00EB2A0000EB2A0000EB2A0000EB2A000057
:10292C00EB2A0000EB2A0000EB2A0000EB2A000047
:10293C00EB2A0000EB2A0000EB2A0000EB2A000037
:10294C00EB2A0000EB2A0000EB2A0000EB2A000027
:10295C00EB2A0000EB2A0000EB2A0000EB2A000017
:10296C00EB2A0000EB2A0000EB2A00006D2A000085
:10297C00EB2A0000EB2A0000EB2A0000EB2A0000F7
:10298C00EB2A0000EB2A0000EB2A0000EB2A0000E7
:10299C00EB2A0000EB2A0000FD290000252A00008C
:1029AC00EB2A0000EB2A0000EB2A0000EB2A0000C7
:1029BC00252A0000EB2A0000EB2A0000EB2A00007D
:1029CC00EB2A0000EB2A0000EB2A0000AD2A0000E5
:1029DC00EB2A0000EB2A0000912A0000EB2A0000F1
:1029EC00492A0000EB2A0000EB2A00006D2A0000A7
:1029FC00039B1B68191D039A11601B680C930C9B9D
:102A0C008DF823309DF8233019460598FFF7C2FC4A
:102A1C0066E000BFC4410400039B1B68191D039AA8
:102A2C0011601B680C930A9B0193099B00930B9BF1
:102A3C000A220C990598FFF7C5FD51E0039B1B6812
:102A4C00191D039A11601B680C930C990A9B019336
:102A5C00099B00930B9B0A220598FFF71BFD3FE097
:102A6C00039B1B68191D039A11601B680C930C992E
:102A7C000A9B0193099B00930B9B10220598FFF76F
:102A8C0009FD2DE0039B1B68191D039A11601B683F
:102A9C0007930A9B099A07990598FFF799FC1FE081
:102AAC00039B1B68191D039A11601B680C93302142
:102ABC000598FFF76FFC78210598FFF76BFC0C99D4
:102ACC000023019308230093082310220598FFF795
:102ADC00E1FC05E025210598FFF75CFC00E000BF58
:102AEC00049B0133049305E09DF837301946059893
:102AFC00FFF750FC049B1B78002B7FF41DAE00E00D
:102B0C0000BF059B1B7B002B04D00598FFF7E6FB51
:102B1C0000E000BF0FB05DF804FB00BF10B487B03D
:102B2C0001900091019B009A53E8004F04EB0200C6
:102B3C0043E8000191F0000FF6D105940490039145
:102B4C00049B184607B05DF8044B704710B487B06F
:102B5C0001900091019B009A53E8004FA4EB0200F6
:102B6C0043E8000191F0000FF6D105940490039115
:102B7C00049B184607B05DF8044B704700B583B052
:102B8C0001900198FFF7E4FA0346184603B05DF88C
:102B9C0004FB00B58BB001900091019B1B8A043B98
:102BAC000793009A079B1344DA1C079BB2FBF3F3C1
:102BBC008DF81B300198FFF723FB0590059B002B2C
:102BCC0001D1002338E0059B00221A71059B0122DC
:102BDC005A71079B9AB2059BDA80059B09939DF865
:102BEC001B30013B0493099B019A1A600023089344
:102BFC001DE00198FFF704FB0390039B002B0ED004
:102C0C00059B5B790133DAB2059B5A71099B039AD8
:102C1C001A60039B019A1A60039B099304E00598C0
:102C2C0000F00EF8002307E0089B01330893089A84
:102C3C00049B9A42DDD3059B18460BB05DF804FB50
:102C4C0000B58BB00190019B0793079B5B798DF8C6
:102C5C001B30019B08939DF81B30013B059300230F
:102C6C00099305E0089B1B680893099B01330993A2
:102C7C00099A059B9A42F5D3089B1B680493019B08
:102C8C000893002309930BE0089B1B680393089996
:102C9C000498FFF7F7FA039B0893099B01330993F8
:102CAC009DF81B20099B9A42EED800BF0BB05DF833
:102CBC0004FB00B585B00190019B0393039B043387
:102CCC0001211846FFF72AFF00BF05B05DF804FB91
:102CDC0000B587B00190019B0593059B043301213E
:102CEC001846FFF733FF0346039303AB0493049B8F
:102CFC001B78002B02D10198FFF7A2FF00BF07B091
:102D0C005DF804FB00B58DB0039002910192009325
:102D1C00039B0693069BDB880593039B0B93009BFD
:102D2C001A1D059BB2FBF3F30A93009B0433059A1F
:102D3C00B3FBF2F2059901FB02F29B1A0993009A7C
:102D4C00019B1A44059B1344DA1C059BB2FBF3F35D
:102D5C008DF81330069B5B799DF813209A420AD9A3
:102D6C002749BA20FFF7A7F905E00B9B1B680B93CB
:102D7C000A9B013B0A930A9B002BF6D10023089374
:102D8C00059A099BD31A0793079A019B934228BF74
:102D9C00134607932DE09DF83830002B0BD0029A88
:102DAC00089BD0180B9A099B13440433079A1946B5
:102DBC000CF072F90AE00B9A099B1344181D029A45
:102DCC00089B1344079A19460CF066F900230993E3
:102DDC000B9B1B680B93019A079BD31A0193089AC0
:102DEC00079B13440893059A019B934228BF1346F3
:102DFC000793019B002BCED100BF0DB05DF804FBF7
:102E0C000842040000B587B0059004910392029328
:102E1C0000230093029B039A04990598FFF772FF15
:102E2C0000BF07B05DF804FB00B587B005900491B6
:102E3C000392029301230093029B039A0499059831
:102E4C00FFF760FF00BF07B05DF804FB00B585B06D
:102E5C000190019800F00EF80390039B002B01D019
:102E6C00039B00E0024B184605B05DF804FB00BF65
:102E7C004C42040086B00190164B0593164B0493FC
:102E8C001FE0049A059BD31ADB10DA0F13445B1076
:102E9C00DB00059A13440393039B1B680293029A6D
:102EAC00019B9A4202D9039B04930AE0029A019B6C
:102EBC009A4203D2039B0833059302E0039B5B68A1
:102ECC0004E0059A049B9A42DBD30023184606B013
:102EDC00704700BF684504005846040082B001905A
:102EEC004FF08042019BC2F8043300BF02B0704720
:102EFC0082B001904FF08042019BC2F8083300BFB2
:102F0C0002B0704782B003468DF807309DF8073049
:102F1C0003F1804301221A6000BF02B0704784B0F5
:102F2C000346ADF80630BDF8063003F180430022AD
:102F3C001A60BDF8063003F180431B680393039BB2
:102F4C0000BF04B0704782B00346ADF80630BDF840
:102F5C00063003F180431B68002B14BF01230023B0
:102F6C00DBB2184602B0704782B003468DF80730CA
:102F7C004FF080429DF8073003F00303C2F8183578
:102F8C0000BF02B070474FF08043D3F818341B0CCD
:102F9C0003F00103002B14BF01230023DBB21846FE
:102FAC00704782B003468DF807304FF08043D3F85A
:102FBC000C3403F001129DF8073043F480339A422D
:102FCC000CBF01230023DBB2184602B0704700008F
:102FDC0082B003468DF807300A4A9DF907305B0929
:102FEC0052F823209DF8073003F01F03012101FA4A
:102FFC0003F31340002B14BF01230023DBB218464C
:10300C0002B0704700E100E008B50020FFF7E0FFD8
:10301C00034683F00103DBB2002B03D00721002011
:10302C0000F058FA00BF08BD08B54FF48270FFF7E6
:10303C0076FF0220FFF752FF0820FFF763FF00BF67
:10304C0008BD000008B50C20FFF75CFF00BFFFF7C0
:10305C009AFF0346002BFAD1024B00229A7000BF54
:10306C0008BD00BFAC0A002008B54FF48070FFF714
:10307C0056FF0120FFF732FF0020FFF743FF00BF90
:10308C0008BD000008B50420FFF73CFF00BF01207D
:10309C00FFF787FF0346002BF9D1024B00225A7031
:1030AC0000BF08BDAC0A002000B583B0002301931B
:1030BC000F4B1B78002B02D08523019313E00C4B94
:1030CC0000229A600A4B00225A60094B00221A61B6
:1030DC00074B0022DA60FFF797FF0120FFF744FF50
:1030EC00034B01221A70019B184603B05DF804FBD8
:1030FC00AC0A002084B001900091019B1B680393E3
:10310C0006E0039A009B9A420DD0039B1B68039325
:10311C00039B002BF5D1019B1A68009B1A60019B45
:10312C00009A1A6000E000BF04B0704784B00190B0
:10313C00019B1B680393039B002B03D0039B1A6812
:10314C00019B1A60039B184604B0704700B583B00E
:10315C000190224B1B78002B03D12149FC20FEF758
:10316C00AAFF1E4B9B78DBB2002B12D0019B002BCD
:10317C0003D0019B5B68012098470020FEF754FFA9
:10318C00164BDB680133154AD3600020FEF760FF55
:10319C0017E00020FEF748FF019B002B03D001999C
:1031AC001048FFF7A7FF0D4BDB68002B01D1FFF791
:1031BC003BFF0A4BDB680133084AD3600020FEF763
:1031CC0047FF064BDB68002B04D105494FF48C708C
:1031DC00FEF771FF00BF03B05DF804FBAC0A0020E2
:1031EC0060460400BC0A002008B5124B1B78002B6B
:1031FC0004D1114940F21D10FEF75DFF0D4BDB6849
:10320C00002B04D10C494FF48F70FEF754FF0020B3
:10321C00FEF70AFF074BDB68013B064AD360054B00
:10322C00DB68002B01D1FFF70DFF0020FEF710FF2C
:10323C0000BF08BDAC0A00206046040008B5074B6F
:10324C001B78002B04D1064940F22B10FEF733FFFC
:10325C00FFF799FE0346184608BD00BFAC0A0020D4
:10326C006046040000B583B00190234B1B78002B03
:10327C0004D1224940F23910FEF71DFF1E4B5B783A
:10328C00DBB2002B12D0019B002B03D0019B5B689F
:10329C00002098470020FEF7C7FE174B5B680133F0
:1032AC00154A53600020FEF7D3FE17E00020FEF70E
:1032BC00BBFE019B002B03D001991148FFF71AFFAD
:1032CC000D4B5B68002B01D1FFF7CEFE0A4B5B6800
:1032DC000133094A53600020FEF7BAFE064B5B68C7
:1032EC00002B04D1054940F25510FEF7E4FE00BF57
:1032FC0003B05DF804FB00BFAC0A0020604604007C
:10330C00B40A002008B5124B1B78002B04D11149CC
:10331C004FF4AD70FEF7CFFE0D4B5B68002B04D164
:10332C000C4940F25B10FEF7C6FE0020FEF77CFE57
:10333C00074B5B68013B064A5360054B5B68002BEF
:10334C0001D1FFF79FFE0020FEF782FE00BF08BDF3
:10335C00AC0A00206046040008B5074B1B78002B14
:10336C0004D106494FF4B470FEF7A5FE0120FFF717
:10337C0018FE0346184608BDAC0A0020604604003F
:10338C0000B585B003468DF807309DF80730002B4B
:10339C0002D10C4B039301E00B4B03930398FFF703
:1033AC00C5FE0290029B002B06D0029B5B689DF829
:1033BC00072010469847F1E700BF00BF05B05DF845
:1033CC0004FB00BFB40A0020BC0A002008B54FF46F
:1033DC008070FFF7B8FD0346002B0CD04FF48070C3
:1033EC00FFF79DFD0120FFF783FD0E4B01225A7064
:1033FC000020FFF7C5FF4FF48270FFF7A4FD0346D2
:10340C00002B0CD04FF48270FFF789FD0220FFF7E0
:10341C006FFD044B01229A700120FFF7B1FF00BF32
:10342C0008BD00BFAC0A002082B003468DF80730FF
:10343C0007499DF907305B099DF8072002F01F0230
:10344C00012000FA02F241F8232000BF02B07047BD
:10345C0000E100E082B003468DF8073008499DF981
:10346C0007305B099DF8072002F01F02012000FACB
:10347C0002F2603341F8232000BF02B0704700BF56
:10348C0000E100E082B0034600918DF807309DF911
:10349C000730002B0CDA0D499DF8073003F00F03B1
:1034AC00043B009AD2B25201D2B20B441A7609E014
:1034BC0007499DF90730009AD2B25201D2B20B449F
:1034CC0083F8002300BF02B0704700BF00ED00E09E
:1034DC0000E100E000B583B003460A468DF80730E2
:1034EC0013468DF806309DF80630072B04D90D498C
:1034FC004FF49270FEF7DFFD9DF806209DF9073022
:10350C0011461846FFF7BEFF9DF907301846FFF726
:10351C00A1FF9DF907301846FFF786FF00BF03B0E7
:10352C005DF804FB9C46040000B583B00346ADF87F
:10353C000630BDF80630184600F026F803461B6826
:10354C00012B0CBF01230023DBB2184603B05DF83E
:10355C0004FB00B585B00346ADF80630BDF8063067
:10356C00184600F011F803461A4600231360BDF804
:10357C000630184600F008F803461B680393039BBB
:10358C0000BF05B05DF804FB82B00346ADF8063011
:10359C00BDF8063003F1804303F5C043184602B072
:1035AC007047000082B00190034BD3F80423019BB9
:1035BC001340184602B070470060004082B0019082
:1035CC00054A019B03F5A27352F823301B0A03F042
:1035DC003F03184602B070470060004082B0019073
:1035EC00064A019B03F5A27352F823301B0C03F01F
:1035FC000303DBB2184602B0704700BF0060004006
:10360C0000B583B00190019B1B682F2B04D90B498B
:10361C004FF4E870FEF74FFD019B1B681F2B02D87F
:10362C004FF0A04306E0019B1B6803F01F02019BB7
:10363C001A60034B184603B05DF804FBD84604002F
:10364C000003005000B585B001900B468DF8033097
:10365C0001AB1846FFF7D4FF0390019A0199039B25
:10366C0001F5E07153F8213023F44031039B02F54E
:10367C00E07243F82210019A0199039B01F5E07165
:10368C0053F821309DF8031009041943039B02F5EC
:10369C00E07243F8221000BF05B05DF804FB00B5E2
:1036AC0085B0019001AB1846FFF7AAFF0390019A71
:1036BC00039B02F5E07253F822301B0C03F003035A
:1036CC00DBB2184605B05DF804FB82B00190019B9B
:1036DC00D3F81035184602B07047000000B589B019
:1036EC00039002910192174A05AB92E8030083E81C
:1036FC000300039A029B1344022B04D912494FF482
:10370C003A70FEF7D8FC039B079311E0079B9B00D4
:10371C0008AA134453F80C3C1846FFF7D6FF024690
:10372C00019B1A60019B04330193079B01330793A0
:10373C00039A029B1A44079B9A42E7D800BF09B030
:10374C005DF804FB0C470400D846040084B00190DB
:10375C000091009B0393019BDB080293019B03F0F8
:10376C00070301930122019B02FA03F30399029AC6
:10377C000A4412781340184604B0704784B0019084
:10378C000091009B0393019BDB080293019B03F0C8
:10379C0007030193039A029B13440399029A0A4468
:1037AC00127851B20120019A00FA02F252B20A4385
:1037BC0052B2D2B21A7000BF04B0704782B00190FE
:1037CC00044A019B1344303393F90030184602B07D
:1037DC00704700BFC00A002082B00190034A019BD1
:1037EC0052F82330184602B0704700BFC00A0020C0
:1037FC0000B599B00023179306AB00221A605A60EB
:10380C004FF48073ADF856300123149300231693B4
:10381C0021E0BDF856301846FFF786FE0346002B14
:10382C000ED01498FFF7BEFE0346002B08D0BDF84F
:10383C0056301846FFF78DFE179A149B13431793B7
:10384C00149B5B001493BDF856300433ADF856301E
:10385C00169B01331693169B072BDAD94FF4BE70C7
:10386C00FFF762FE0346002B0DD04FF4BE70FFF73E
:10387C0070FE179B43F00043179306AB1A460221C8
:10388C000020FFF72BFF179BDBB2002B29D0012365
:10389C0014930023169321E0149A179B1340002BCA
:1038AC0016D01698FFF78AFE11901698FFF796FE21
:1038BC0003468DF843301698FFF78EFF0F900F9B41
:1038CC00002B05D09DF843200F9B1146119898476B
:1038DC00149B5B001493169B01331693169B072BBA
:1038EC00DAD9179B002B80F2F08000238DF84B3037
:1038FC0004AB00221A605A60002313930AE0139B56
:10390C009B0018AA13444FF0FF3243F8582C139B1A
:10391C0001331393139B012BF1D900238DF84B30FA
:10392C000023169378E06B4A169B1344603393F98B
:10393C0000308DF83B309DF83B3023F0C0030D93E5
:10394C00644A169B1344603393F90030B3F1FF3F84
:10395C005FD002AB19460D98FFF7F8FE0346002B1B
:10396C0057D09DF83B309B098DF833300D98FFF7FD
:10397C0025FF03461846FFF72FFF0B900B9B002BE0
:10398C0003D19DF83330032B43D19DF83330032BF7
:10399C0004D104AB19460D98FFF7F0FE0D98FFF714
:1039AC007EFE03468DF82B3006AB19460D98FFF7BB
:1039BC00CDFE0990099B002B03D09DF82B30022BD8
:1039CC0006D0099B002B24D19DF82B30032B20D142
:1039DC009DF83330032B13D19DF82B30022B01D1E2
:1039EC00032300E002238DF823309DF82330194681
:1039FC000D98FFF727FE9DF84B3001338DF84B30B7
:103A0C000B9B002B05D09DF833200B9B11460D987A
:103A1C009847169B01331693169B032B83D99DF85D
:103A2C004B30002B4CD001238DF84A306B461A4694
:103A3C0002210020FFF752FE0023139314E0139B86
:103A4C009B0018AA134453F8602C139B9B0018A9D5
:103A5C000B4453F8483C9A4203D000238DF84A306B
:103A6C0005E0139B01331393139B012BE7D99DF8AE
:103A7C004A30002B03D000238DF84B3020E000237C
:103A8C0013931AE0139B9B0018AA134453F8602C51
:103A9C00139B9B0018A90B4443F8482C139B9B00C9
:103AAC0018AA134453F8502C139B9B0018A90B44D1
:103ABC0043F8582C139B01331393139B012BE1D91F
:103ACC009DF84B30002B7FF428AF00BF19B05DF888
:103ADC0004FB00BFC00A002000BF034BD3F8003426
:103AEC00002BFAD000BF704700E0014000B583B056
:103AFC0001900D4B0222C3F80425BFF36F8FBFF367
:103B0C004F8F094A019BC2F80835FFF7E5FF064BBA
:103B1C000022C3F80425BFF36F8FBFF34F8F00BF94
:103B2C0003B05DF804FB00BF00E0014000B587B0B6
:103B3C0001900B468DF80330019B03F003030593B2
:103B4C00059BDA43019B13400493049B1A68059B65
:103B5C00DB00FF2101FA03F3DB43134003939DF8D1
:103B6C000320059BDB0002FA03F3039A134403932F
:103B7C000C4B0122C3F80425BFF36F8FBFF34F8F9B
:103B8C00049B039A1A60FFF7A7FF064B0022C3F8A9
:103B9C000425BFF36F8FBFF34F8F00BF07B05DF8E5
:103BAC0004FB00BF00E0014000B587B00390029118
:103BBC000192002305930CE0039A059BD018029AFE
:103BCC00059B13441B781946FFF7B0FF059B013387
:103BDC000593059A019B9A42EED300BF07B05DF89E
:103BEC0004FB000082B003468DF80730054A9DF8AF
:103BFC000730012101FA03F3C2F8043500BF02B00B
:103C0C00704700BF00F0014084B00346029101925E
:103C1C008DF80F3008499DF80F30A233029A41F805
:103C2C003320054A9DF80F30A233DB001344019A70
:103C3C005A6000BF04B0704700F0014082B00346E8
:103C4C008DF807309DF80730012202FA03F318466D
:103C5C0002B0704700B583B003468DF807309DF86D
:103C6C0007301846FFF7EAFF0346C3F31303002B94
:103C7C0014BF01230023DBB2184603B05DF804FB2C
:103C8C0082B001900123184602B0704700B583B092
:103C9C0003468DF807309DF807301846FFF7CEFF26
:103CAC0003461846FFF7ECFF0346184603B05DF8D1
:103CBC0004FB000000B583B003468DF807309DF877
:103CCC0007301846FFF7BAFF0246064B1B68134035
:103CDC00002B14BF01230023DBB2184603B05DF8A0
:103CEC0004FB00BF2C0B002000B583B003468DF8FD
:103CFC0007309DF807301846FFF7A0FF0246044B2B
:103D0C001B681343024A136000BF03B05DF804FB49
:103D1C002C0B002082B0084B1B78002B05D1064BD6
:103D2C0001221A700023019301E085230193019B6A
:103D3C00184602B0704700BF280B002000B587B0B2
:103D4C000190002305930023039304230593244B34
:103D5C00039300238DF8133037E00020FEF764F94D
:103D6C009DF813301846FFF769FF0246039B13407A
:103D7C00002B15D09DF813301846FFF79BFF034618
:103D8C0083F00103DBB2002B0AD09DF813301846E8
:103D9C00FFF7AAFF019B9DF813201A7000230593CF
:103DAC000020FEF755F9059B002B12D09DF813301F
:103DBC001846FFF743FF0346DB43039A1340039374
:103DCC009DF8133001338DF81330039B002BC4D1B5
:103DDC0000E000BF059B184607B05DF804FB00BF70
:103DEC00FFFF0F0000B587B00346029101928DF8DA
:103DFC000F30029B002B01D10E232AE0019B002BDC
:103E0C0001D10E2325E0002305939DF80F301846B1
:103E1C00FFF720FF034683F00103DBB2002B02D037
:103E2C000723059314E09DF80F301846FFF742FF67
:103E3C00034683F00103DBB2002B02D00823059369
:103E4C0006E09DF80F30019A02991846FFF7DCFE48
:103E5C00059B184607B05DF804FB00B585B003461A
:103E6C008DF80730002303939DF807301846FFF7B1
:103E7C000DFF034683F00103DBB2002B02D00723B6
:103E8C0003931AE09DF807301846FFF7E3FE03464C
:103E9C00002B0DD09DF807301846FFF70BFF03469B
:103EAC0083F00103DBB2002B02D00823039304E060
:103EBC009DF807301846FFF795FE039B184605B092
:103ECC005DF804FB82B001900B468DF803309DF831
:103EDC000330019A134401221A6000BF02B07047EC
:103EEC0082B001900B468DF803309DF80320019BA6
:103EFC001344184602B0704784B001900B46ADF8DD
:103F0C000230BDF80230019A134400221A60BDF849
:103F1C000230019A13441B680393039B00BF04B047
:103F2C00704782B001900B46ADF80230BDF80230FC
:103F3C00019A13441B68002B14BF01230023DBB22E
:103F4C00184602B0704782B001900091019B009A14
:103F5C00C3F8002200BF02B0704782B001900091FC
:103F6C00019B009AC3F8002300BF02B0704782B0D7
:103F7C000190019B0122C3F8002500BF02B07047DD
:103F8C0084B00190009100238DF80F3011E09DF862
:103F9C000F209DF80F309B0000990B441968019B72
:103FAC0002F5AC7243F822109DF80F3001338DF8F6
:103FBC000F309DF80F30032BE9D900BF04B07047C8
:103FCC0000B583B00190084611461A4603468DF899
:103FDC0003300B468DF802301346ADF80030BDF9B6
:103FEC000030002B04DA0C4940F26E20FEF763F827
:103FFC009DF80320019BC3F80C259DF80220019B22
:10400C00C3F80425BDF80020019BC3F8082500BFA8
:10401C0003B05DF804FB00BF5C47040000B585B03D
:10402C0003900B4601928DF80B30019B002B04D1B1
:10403C00144940F27920FEF73EF8019B1A689DF86E
:10404C000B301946039800F01FF8019B9A889DF8D5
:10405C000B301946039800F03DF8019B9A689DF8C7
:10406C000B301946039800F069F8019BDA689DF84B
:10407C000B301946039800F089F800BF05B05DF8C5
:10408C0004FB00BF5C47040000B585B003900B46F1
:10409C0001928DF80B309DF80B30012B04D90C4993
:1040AC0040F28520FEF707F8019B002B04D108494C
:1040BC0040F28620FDF7FFFF9DF80B30019A039923
:1040CC0029335B010B441A6000BF05B05DF804FB9B
:1040DC005C47040000B583B001900B468DF80330AB
:1040EC001346ADF800309DF80330012B04D912496A
:1040FC0040F28E20FDF7DFFFBDF80030002B04D11D
:10410C000D4940F28F20FDF7D6FFBDF90030002B92
:10411C0004DA09494FF42470FDF7CDFF9DF8033004
:10412C00BDF80020019929335B010B4404331A605C
:10413C0000BF03B05DF804FB5C47040000B585B01C
:10414C0003900B4601928DF80B309DF80B30012B30
:10415C0004D90D494FF42670FDF7ADFF019BB3F167
:10416C00807F04D3084940F29920FDF7A4FF9DF805
:10417C000B30039A5B01134403F5A563019A1A6093
:10418C0000BF05B05DF804FB5C47040000B585B0CA
:10419C0003900B4601928DF80B309DF80B30012BE0
:1041AC0004D90D4940F2A120FDF785FF019BB3F125
:1041BC00807F04D3084940F2A220FDF77CFF9DF8D4
:1041CC000B30039A5B01134403F22C53019A1A60CF
:1041DC0000BF05B05DF804FB5C47040082B00190A1
:1041EC000B468DF8033013468DF802309DF80320F2
:1041FC009DF802301B021A43019BC3F8102500BF27
:10420C0002B0704782B001900B46ADF80230BDF899
:10421C000220019BC3F8142500BF02B0704784B084
:10422C000190019B1B0B8DF80F309DF90F30184638
:10423C0004B0704782B00190019B03F06043B3F16E
:10424C00005F0CBF01230023DBB2184602B070479D
:10425C0000B583B00190019B1B682F2B04D90B492F
:10426C004FF4E870FDF727FF019B1B681F2B02D84A
:10427C004FF0A04306E0019B1B6803F01F02019B5B
:10428C001A60034B184603B05DF804FB904704001A
:10429C000003005000B585B00190084611461A463F
:1042AC0003468DF803300B468DF8023013468DF81B
:1042BC00013001AB1846FFF7CBFF0390019A9DF834
:1042CC0003109DF802305B0019439DF801309B00F0
:1042DC0019439DF818301B0219439DF81C301B0420
:1042EC001943039B02F5E07243F8221000BF05B09E
:1042FC005DF804FB00B585B0039000230193002307
:10430C0000930023012201210398FFF7C3FF00BF94
:10431C0005B05DF804FB00B585B0019001AB184603
:10432C00FFF796FF0390019B012202FA03F3194653
:10433C00039800F018F800BF05B05DF804FB00B559
:10434C0085B0019001AB1846FFF782FF0390019BEB
:10435C00012202FA03F31946039800F00EF800BF8D
:10436C0005B05DF804FB82B001900091019B009AAE
:10437C00C3F8082500BF02B0704782B001900091CD
:10438C00019B009AC3F80C2500BF02B0704700B522
:10439C0089B00190009100238DF81F3050E09DF8FA
:1043AC001F30009AD35C8DF81E309DF81E30FF2B09
:1043BC0038D09DF81E3003F08003002B14BF01236E
:1043CC0000238DF81D309DF81F309DF81E2022F023
:1043DC0080029B0008A90B4443F8142C9DF81D3057
:1043EC00002B0AD09DF81F309B0008AA134453F8E9
:1043FC00143C1846FFF78FFF09E09DF81F309B0017
:10440C0008AA134453F8143C1846FFF798FF9DF87C
:10441C001F309B0008AA134453F8143C1846FFF7AE
:10442C0069FF08E09DF81F309B0008AA13444FF069
:10443C00FF3243F8142C9DF81F3001338DF81F30D8
:10444C009DF81F30032BAAD9019B1B6803AA1146A8
:10445C001846FFF795FD00BF09B05DF804FB00009E
:10446C0000B587B0039002910192029B002B03D1FF
:10447C003A498620FDF71FFE039B1B79DB00384A67
:10448C0013440593059B1B79DBB2002B03D0082347
:10449C000493049B5DE0059B019A1A6002990398B2
:1044AC00FFF775FF039B1B681846FFF760FD039B26
:1044BC001868029B5979029B9A79029B1B89FFF71A
:1044CC007FFD039B1868029B997A029BDB7A1A4644
:1044DC00FFF784FE039B1B6800211846FFF733FD92
:1044EC00039B1B6800211846FFF737FD039B1B68D5
:1044FC004FF48E711846FFF7FFFC039B1B684FF4BB
:10450C0088711846FFF7F8FC039B1B684FF48A71FF
:10451C001846FFF7F1FC039B1B684FF48271184699
:10452C00FFF7EAFC059B1B68002B0CD0039B1B6858
:10453C001846FFF774FE03461A46029B1B79194670
:10454C001046FEF7C7FF059B01221A710023049346
:10455C00049B184607B05DF804FB00BFC847040075
:10456C00300B002000B587B00390029111461A461B
:10457C000B468DF8073013468DF80630029B02224D
:10458C001A71029B9DF807205A71029B1B68002B25
:10459C0025D0822305939DF8073003F00403002BEC
:1045AC0003D0059B43F0100305939DF8073003F0EF
:1045BC000803002B03D0059B43F0200305939DF8C3
:1045CC00073003F01003002B03D0059B23F080036E
:1045DC000593039B1B6805991846FFF7BEFC039BCC
:1045EC001B684FF482711846FFF786FC9DF9073063
:1045FC00002B0ADA039B1B689DF80620114618460F
:10460C00FFF76EFC0490049B08E0039B1B689DF86D
:10461C00062011461846FFF755FC0023184607B034
:10462C005DF804FB00B589B003900291009313462A
:10463C00ADF80630039B1B79DB003C4A1344069310
:10464C00069B1B79DBB2002B04D139494FF48F70D8
:10465C00FDF731FDBDF80630002B04D1344940F292
:10466C001F10FDF728FD029B1B681846FFF7E2FDA3
:10467C000346002B04D12E494FF49070FDF71BFD1F
:10468C00039B1B68029A00211846FFF7C7FC039B8B
:10469C001B68029A01211846FFF7C0FCBDF80630D2
:1046AC0003F00103002B14BF012300238DF81730F6
:1046BC00039B1868BDF806305B089AB29DF817305A
:1046CC009BB213449BB21946FFF79CFD009B03F071
:1046DC000103002B02D0102307930FE0009B03F083
:1046EC000203002B08D09DF81730002B01D00823B3
:1046FC0000E00423079301E000230793039B1B684E
:10470C0007991846FFF71FFC009BDAB29DF817308B
:10471C00002B01D00C2300E0082306990398FFF727
:10472C0021FF0346184609B05DF804FB300B00204E
:10473C00C847040000B583B0019000914FF4887114
:10474C000198FFF7EEFB0346002B12D04FF4887153
:10475C000198FFF7D1FB009B5B7903F00403002B5E
:10476C0007D0009B1B68002B03D0009B1B6801200B
:10477C0098474FF48A710198FFF7D3FB0346002B3F
:10478C0012D04FF48A710198FFF7B6FB009B5B794E
:10479C0003F00803002B07D0009B1B68002B03D0F1
:1047AC00009B1B68022098474FF48E710198FFF70D
:1047BC00B8FB0346002B12D04FF48E710198FFF713
:1047CC009BFB009B5B7903F01003002B07D1009B34
:1047DC001B68002B03D0009B1B68002098474FF4EC
:1047EC0082710198FFF79DFB0346002B0FD04FF40D
:1047FC0082710198FFF780FB009B01221A71009BCC
:10480C001B68002B03D0009B1B680320984700BF3C
:10481C0003B05DF804FB000008B503490348FFF73B
:10482C0089FF00BF08BD00BF300B002000C0014055
:10483C0008B503490348FFF77DFF00BF08BD00BF63
:10484C00380B00200010024008B503490348FFF75D
:10485C0071FF00BF08BD00BF400B002000200240CC
:10486C0082B003468DF807309DF8073003F1804382
:10487C0003F5E04301221A6000BF02B0704782B01A
:10488C0003468DF807309DF8073003F1804303F59C
:10489C00E043184602B0704782B00346ADF80630CC
:1048AC00BDF8063003F1804303F5E0431B68002B91
:1048BC0014BF01230023DBB2184602B0704784B04A
:1048CC000346ADF80630BDF8063003F1804303F51E
:1048DC00E04300221A60BDF8063003F1804303F573
:1048EC00E0431B680393039B00BF04B070470000B8
:1048FC0082B003468DF807300B468DF80630134610
:10490C008DF805300A499DF807309DF80520513384
:10491C001B010B4404331A6005499DF807309DF8C0
:10492C00062051331B010B441A6000BF02B07047C4
:10493C000070004082B00190034A019BC2F804331E
:10494C0000BF02B0704700BF0070004082B0019001
:10495C00034A019BC2F8083300BF02B0704700BF86
:10496C0000700040024B0122C3F8002500BF7047C5
:10497C000070004082B001900091054A019BC2F882
:10498C002C36034A009BC2F8303600BF02B0704789
:10499C000070004082B003468DF80730034A9DF842
:1049AC000730C2F8F03500BF02B07047007000400D
:1049BC0082B003468DF80730034A9DF80730C2F8E1
:1049CC00F43500BF02B0704700700040024BD3F8C2
:1049DC00F435DBB2184670470070004000B58DB05E
:1049EC004FF48270FFF758FF0346002B46D04FF46C
:1049FC008270FFF764FF8C4B93F82E3083F0010329
:104A0C00DBB2002B04D1884B93F82F30002B35D020
:104A1C0000238DF81830844B5B680793824B1B89FD
:104A2C009BB2ADF82030804BDB68002B03D17E4B62
:104A3C0000221A7419E07C4B1A8B7B4B5A837A4BED
:104A4C00DB68794A5360784B1A8B774B1A81764B1B
:104A5C000022DA60744B93F82E3083F00103DBB242
:104A6C00002B02D00020FFF7FBFE6F4B1B6806AA41
:104A7C00104698476C4B002283F82F206A4B93F812
:104A8C002E30002B62D04FF48070FFF705FF0346E9
:104A9C00002B5BD04FF48070FFF711FF624B5A8BE9
:104AAC00614B93F82D309BB29A421CD95E4B5A8BBA
:104ABC005D4B93F82D309BB2D31A9AB25A4B5A8352
:104ACC00594B5A68584B1B899BB21946564B5B8BFA
:104ADC00CB1A5B001A44544B93F82D3019461046F0
:104AEC00FFF748FF2BE0504B5A8B4F4B93F82D3070
:104AFC009BB29A4214D14C4BDB68002B10D04A4B22
:104B0C00012283F82F20484B00225A83464BDA6847
:104B1C00454B93F82D3019461046FFF72BFF0EE04E
:104B2C00414B5A8B404B93F82D309BB29A4206D195
:104B3C003D4B012283F82F203B4B00225A834FF42C
:104B4C008270FFF7BCFE0420FFF78AFE4FF48870DA
:104B5C00FFF7A2FE0346002B0ED04FF48870FFF730
:104B6C00AEFE314B00221A7402238DF80C302E4B02
:104B7C001B6803AA104698474FF48A70FFF78CFE07
:104B8C000346002B07D04FF48A70FFF798FE264B94
:104B9C0000221A7444E0244B5B690B933DE00B9BA1
:104BAC00B3FA83F30A934FF000420A9B22FA03F301
:104BBC00DB430B9A13400B930A9B9BB246339BB27D
:104BCC009B00ADF82630BDF826301846FFF764FE82
:104BDC000346002B21D0BDF826301846FFF76FFE98
:104BEC0001238DF80030BDF82630A3F58C73DB085B
:104BFC00DBB28DF80430BDF82630A3F58C7303F0CE
:104C0C000403002B0CBF01230023DBB28DF805300D
:104C1C00054B1B686A46104698470B9B002BBED170
:104C2C0000BF0DB05DF804FB480B002000B585B04B
:104C3C00019000912F4B93F82C30002B03D00823BC
:104C4C000393039B51E0009B002B03D10723039399
:104C5C00039B4AE0019B002B01D1274B0193254A72
:104C6C00009B1360019B1B781846FFF793FE019B7A
:104C7C005B781846FFF79CFE019BDA781D4B83F896
:104C8C002E201C4B012283F82C201A4B00221A7464
:104C9C00184B002283F82D20164B00225A61154B1D
:104CAC00002283F82F206FF00040FFF74FFE4FF4E7
:104CBC008270FFF704FE4FF48070FFF700FE019B3B
:104CCC009B7819460720FEF705FC0220FFF732FE01
:104CDC00084B93F82E30002B02D00120FFF72AFE50
:104CEC00FFF740FE00230393039B184605B05DF8C5
:104CFC0004FB00BF480B00207848040000B585B0C9
:104D0C00034600918DF807303D4B93F82C30002B67
:104D1C0004D13C494FF49C70FDF7CDF99DF8073058
:104D2C00072B04D9374940F23910FDF7C4F9FFF7C6
:104D3C004DFE0346002B09D0314B93F82D30002B40
:104D4C0004D030494FF49E70FDF7B5F9009BDB7928
:104D5C00092B03D8009BDB79002B04D129494FF494
:104D6C009F70FDF7A8F9009B1B7A092B04D92549E4
:104D7C0040F23F10FDF79FF9214B1B7CDBB2002B5F
:104D8C0003D011230393039B36E09DF807301C4A94
:104D9C000C335B0013441B79002B07D1184B93F891
:104DAC002D300133DAB2164B83F82D209DF80730E5
:104DBC00009AD179124A0C335B0013440A461A71DB
:104DCC009DF80730009A117A0D4A0C335B0013449E
:104DDC000A465A719DF807300099184601F04EFBAF
:104DEC00009BD979009B1A7A9DF807301846FFF77B
:104DFC007FFD00230393039B184605B05DF804FB6D
:104E0C00480B00203C48040008B5074B93F82E30A3
:104E1C00002B01D0002300E004231846FFF72FFDE0
:104E2C000346184608BD00BF480B002000B585B0EE
:104E3C0001900B46ADF802304C4B93F82C30002B04
:104E4C0004D14B4940F2D110FDF735F9BDF80230D1
:104E5C00464A92F82D2093FBF2F102FB01F29B1AC9
:104E6C00002B04D042494FF4E970FDF724F91220CD
:104E7C00FFF76CFD3D4B1B7CDBB2022B06D11220E5
:104E8C00FFF758FD11230393039B6BE0374B1B7CFF
:104E9C00DBB2012B35D1354BDB68002B06D0022061
:104EAC00FFF748FD11230393039B5BE02F4A019B03
:104EBC00D3602E4ABDF8023013832C4B93F82E305E
:104ECC0083F00103DBB2002B14D000BF4FF48070D1
:104EDC00FFF7E2FC034683F00103DBB2002BF5D1B4
:104EEC004FF48070FFF7EBFCBDF8023019460198C7
:104EFC00FFF740FD0220FFF71DFD00230393039BEA
:104F0C0030E00220FFF716FD184B01221A74174AE5
:104F1C00019B5360154ABDF802301381134B0022DC
:104F2C00DA60124B93F82E30002B0BD00F4ABDF8E1
:104F3C00023053830D4B93F82D3019460198FFF72F
:104F4C0019FD0CE0BDF8023019460198FFF712FD6F
:104F5C004FF48070FFF7B3FC0020FFF781FC0023B7
:104F6C000393039B184605B05DF804FB480B002027
:104F7C003C48040082B001900B468DF803309DF83C
:104F8C000330019A134401221A6000BF02B070472B
:104F9C0084B001900B46ADF80230BDF80230019A96
:104FAC00134400221A60BDF80230019A13441B68A6
:104FBC000393039B00BF04B0704782B001900B4673
:104FCC00ADF80230BDF80230019A13441B68002B77
:104FDC0014BF01230023DBB2184602B0704782B025
:104FEC0001900091019BD3F80022009B1A43019B76
:104FFC00C3F8002200BF02B0704782B0019000914C
:10500C00019BD3F80022009BDB431A40019BC3F8A1
:10501C00002200BF02B0704782B001900091019B4A
:10502C00009AC3F8042300BF02B0704782B001900D
:10503C000091019B009AC3F8082300BF02B070478F
:10504C0082B001900091019BD3F80423009B134084
:10505C00002B14BF01230023DBB2184602B07047AB
:10506C0082B001900B468DF80330019BD3F80435C8
:10507C0023F003029DF8033003F003031A43019B52
:10508C00C3F8042500BF02B0704782B001900B46F4
:10509C008DF80330019BD3F8083523F003029DF8FB
:1050AC00033003F003031A43019BC3F8082500BF28
:1050BC0002B0704782B001900B468DF80330019B13
:1050CC00D3F8103523F00F029DF8033003F00F03D3
:1050DC001A43019BC3F8102500BF02B0704784B07F
:1050EC0003900B4601928DF80B309DF80B20039B1F
:1050FC0002F5A872019943F8221000BF04B0704762
:10510C0082B001900B468DF803309DF80320019B73
:10511C0002F5A87253F82230184602B0704782B0DC
:10512C000190019BDBB21033DBB29B00DBB2184663
:10513C0002B0704782B00190019B9BB250339BB27E
:10514C009B009BB2184602B0704782B001904FF49E
:10515C008032019B02FA03F3184602B0704784B008
:10516C000190019B1B0B8DF80F309DF90F301846E9
:10517C0004B0704710B588B0039002910192039B64
:10518C001B791A4613465B0013449B008E4A13444A
:10519C000693039B1B688D4A934208D0039B1B68A4
:1051AC008A4A934203D18A494B20FCF784FF039B24
:1051BC001B68884A934208D0039B1B68854A93421C
:1051CC0003D183494C20FCF776FF039B1B68824A72
:1051DC00934208D0039B1B687F4A934203D17C49BE
:1051EC004D20FCF768FF039B1B687C4A934208D058
:1051FC00039B1B68794A934203D175494F20FCF7F6
:10520C005AFF039B1B68764A934208D0039B1B688A
:10521C00734A934203D16E495220FCF74CFF029B18
:10522C00002B03D16A495720FCF745FF069B1B7ADC
:10523C00002B03D008230593059BC2E0019B002B98
:10524C0003D107230593059BBBE0039B1B685F4AB7
:10525C0093420FD1029B9B78012B64D0029B9B78CD
:10526C00002B60D0029B9B78022B5CD0029B9B781E
:10527C00032B58D0039B1B68564A93420FD1029BB9
:10528C009B78012B4FD0029B9B78002B4BD0029B21
:10529C009B78022B47D0029B9B78032B43D0039B1C
:1052AC001B684D4A93420FD1029B9B78012B3AD03D
:1052BC00029B9B78002B36D0029B9B78022B32D022
:1052CC00029B9B78032B2ED0039B1B68434A934273
:1052DC000FD1029B9B78012B25D0029B9B78002B36
:1052EC0021D0029B9B78022B1DD0029B9B78032B19
:1052FC0019D0039B1B683A4A93420FD1029B9B78AF
:10530C00012B10D0029B9B78002B0CD0029B9B781E
:10531C00022B08D0029B9B78032B04D02C497020C5
:10532C00FCF7C9FE00E000BF069B019A1A60029BC5
:10533C005A68069B5A6000238DF81F3010E0039BBF
:10534C001C689DF81F301846FFF7F4FE03461946FB
:10535C002046FFF71DFE9DF81F3001338DF81F30DE
:10536C00039B5B799DF81F209A42E8D3039B1B6833
:10537C001846FFF7F4FE03461A46029BDB781946E3
:10538C001046FEF7A7F8039B1A68029B5B78194638
:10539C001046FFF765FE039B1A68029B9B78194623
:1053AC001046FFF772FE039B1A68029B1B78194686
:1053BC001046FFF77FFE069B01221A72002305930D
:1053CC00059B184608B010BD780B002000800040EB
:1053DC00844804000090004000A0004000A0014060
:1053EC0000B0014000B583B00190019B1B791946B8
:1053FC00114A0B465B000B449B00134408331B788B
:10540C00012B03D00D49A020FCF755FE019B1B6816
:10541C0000211846FFF7AEFD019B1B791946064A81
:10542C000B465B000B449B001344083302221A709A
:10543C0000BF03B05DF804FB780B00208448040027
:10544C0010B582B001900B468DF80330019B1B798F
:10545C001946184A0B465B000B449B001344083357
:10546C001B78022B03D01449CD20FCF724FE019BA2
:10547C005B799DF803209A4203D30F49CE20FCF7A9
:10548C001AFE019B1C689DF803301846FFF747FE77
:10549C00034619462046FFF76DFD019B1B689DF8DE
:1054AC00032011461846FFF72BFE0346184602B0A0
:1054BC0010BD00BF780B00208448040000B587B0F5
:1054CC00039001921A460B468DF80B3013468DF85B
:1054DC000A309DF80B301846FFF737FE05909DF803
:1054EC000A30002B06D0039B1B6805991846FFF762
:1054FC0093FD05E0039B1B6805991846FFF796FD85
:10550C00039B1B689DF80B10019A1846FFF7E7FDEB
:10551C0000BF07B05DF804FB00B585B003900192A5
:10552C001A460B468DF80B301346ADF80830039B2A
:10553C0018689DF80B304FF480729A409DF80B3030
:10554C00012101FA03F313431946FFF756FD039BA0
:10555C001B68BDF8082011461846FFF740FD9DF862
:10556C0018309DF80B10019A0398FFF7A7FF00BFA6
:10557C0005B05DF804FB00B587B0039002911346AB
:10558C008DF8073000238DF8173030E09DF8173078
:10559C001846FFF7CFFD0346ADF814309DF81730D1
:1055AC001846FFF7D2FD0490BDF814301946039845
:1055BC00FFF703FD0346002B14D004990398FFF763
:1055CC003FFD0346002B0DD0BDF81430194603984F
:1055DC00FFF7DEFC029B1B68029A5168BDF8142091
:1055EC00104698479DF8173001338DF817309DF809
:1055FC0017209DF807309A42C8D300BF07B05DF85A
:10560C0004FB000008B5042202490348FFF7B3FF6E
:10561C0000BF08BD780B00200080004008B50422B4
:10562C0002490348FFF7A7FF00BF08BD840B002009
:10563C000090004008B5042202490348FFF79BFF85
:10564C0000BF08BD900B002000A0004008B506224A
:10565C0002490348FFF78FFF00BF08BD9C0B0020D9
:10566C0000A0014008B5062202490348FFF783FF5A
:10567C0000BF08BDA80B002000B0014082B0019013
:10568C000B468DF803309DF80330019A1344012228
:10569C001A6000BF02B0704784B001900B46ADF8A1
:1056AC000230BDF80230019A134400221A60BDF892
:1056BC000230019A13441B680393039B00BF04B090
:1056CC00704782B001900B46ADF80230BDF8023045
:1056DC00019A13441B68002B14BF01230023DBB277
:1056EC00184602B0704782B001900091019B009A5D
:1056FC00C3F8042300BF02B0704782B00190009140
:10570C00019B009AC3F8082300BF02B0704782B017
:10571C000190019B0522C3F8002500BF02B0704721
:10572C0082B00190019B0022C3F8002500BF02B09B
:10573C00704784B0039002910192039B029AC3F8C4
:10574C000825039B019AC3F80C2500BF04B07047D1
:10575C0082B001900091019B009AC3F8242500BFF0
:10576C0002B0704784B00190019BD3F8C43403930A
:10577C00019B039AC3F8C424039B184604B07047DA
:10578C0082B001900B468DF803309DF80320019BED
:10579C00C3F8882500BF02B0704782B00190019B0E
:1057AC00D3F81835DBB2184602B0704782B00190BE
:1057BC000B468DF803309DF80320019BC3F81C2584
:1057CC0000BF02B0704782B001900091019B009A1B
:1057DC00C3F8002200BF02B0704784B00190019B57
:1057EC001B0B8DF80F309DF90F30184604B0704725
:1057FC0000B583B00190019B1B682F2B04D90B497A
:10580C004FF4E870FCF757FC019B1B681F2B02D868
:10581C004FF0A04306E0019B1B6803F01F02019BA5
:10582C001A60034B184603B05DF804FBC048040033
:10583C000003005000B585B0019001AB1846FFF78E
:10584C00D7FF0390019B012202FA03F31946039838
:10585C0000F035F800BF05B05DF804FB00B585B06D
:10586C00019001AB1846FFF7C3FF0390019B012287
:10587C0002FA03F31946039800F02BF800BF05B0A9
:10588C005DF804FB00B585B0019001AB1846FFF73D
:10589C00AFFF0390039800F00AF80246019B22FA2E
:1058AC0003F303F00103184605B05DF804FB82B066
:1058BC000190019BD3F81035184602B0704782B0A6
:1058CC0001900091019B009AC3F8082500BF02B01B
:1058DC00704782B001900091019B009AC3F80C258F
:1058EC0000BF02B07047000084B00190244B0393BA
:1058FC00019B002B40D0234B1A680399019B00BFDE
:10590C0000BF00BF00BF00BF00BF00BF00BF8A4286
:10591C002FD000BF00BF00BF00BF00BF00BF00BF43
:10592C0000BF00BF00BF00BF00BF00BF00BF00BF73
:10593C0000BF00BF00BF00BF00BF00BF00BF00BF63
:10594C0000BF00BF00BF00BF00BF00BF00BF00BF53
:10595C0000BF00BF00BF00BF00BF00BF00BF00BF43
:10596C0000BF00BF00BF00BF00BF00BF00BF00BF33
:10597C0000BF013BC3D1019300BF04B0704700BF0F
:10598C000024F400CC00002084B001900323039386
:10599C00019B03F00103002B02D04FF4024303934D
:1059AC00019B03F00203002B02D048F20123039366
:1059BC00019B03F00403002B02D048F20223039353
:1059CC00039B184604B0704700B585B001904FF0AA
:1059DC00A042019B1B6803F5E07340F20C6142F896
:1059EC0023104FF0A042019B5B6803F5E07340F27B
:1059FC000C6142F82310019B1B681846FFF71AFF35
:105A0C00019B5B681846FFF715FF4FF0A042019B06
:105A1C001B6803F5E07340F20D6142F823104FF060
:105A2C00A042019B5B6803F5E07340F20D6142F804
:105A3C0023100420FFF758FF002303931EE0019B63
:105A4C005B681846FFF71EFF0346002B03D0039B31
:105A5C00002B17D124E0019B1B681846FFF7FEFEB4
:105A6C000420FFF741FF019B1B681846FFF7E2FE7D
:105A7C000420FFF739FF039B01330393039B082B8F
:105A8C00DDDD00E000BF019B5B681846FFF7E6FE1A
:105A9C000420FFF729FF019B5B681846FFF7CAFE3D
:105AAC0005B05DF804FB000000B589B003900291CD
:105ABC0001920093029B002B03D13F49F520FCF788
:105ACC00FAFA029B1A68029B5B689A4203D13A4924
