:100000000000042059020000B1020000B302000009
:10001000B5020000B7020000B902000000000000B5
:10002000000000000000000000000000BB02000013
:10003000BD02000000000000BF020000C10200007D
:10004000E54A0000393A000059360000E97A00001C
:10005000017B0000CF020000094F0000095D000095
:10006000316900004969000061690000DB0200009D
:10007000DD020000E9350000E1020000E3020000BB
:10008000E502000001240000E9020000EB0200008C
:1000900041240000EF020000F1020000F302000022
:1000A000F5020000F7020000796900009169000084
:1000B000455B0000FF020000C3020000C302000015
:1000C000010300005D5B0000755B0000070300009A
:1000D000513400000B0300000D0300000F0300006B
:1000E00011030000130300001503000017030000B4
:0800F000C30200001903000027
:1000F800364937480A1A02D0072291438D463549B6
:1001080035480A1A06D00722914381F3098802224A
:1001180082F3148831483249324A00F045F83248AF
:100128003249334A00F040F832483349334A00F044
:100138003BF833483349344A00F036F833483449F9
:10014800344A00F031F834483449354A00F02CF884
:1001580034483549354A00F027F8354835490022F2
:1001680000F02DF834483549002200F028F83448CA
:100178003449091A082903DB0022026004300160AF
:10018800314A90471F482049884205D00268043008
:1001980003B4904703BCF7E700208646EC460020EE
:1001A80000212A4A9047FEE7884207D0521A05D014
:1001B800037801300B700131013AF9D17047884258
:1001C80002D002700130FAE77047000000000420F6
:1001D80000E003200000042000000420F0130100C8
:1001E80078000020DC0300201C0300001C03000032
:1001F80088F10000F013010078000020780000204A
:1002080050F2000050F2000050F2000050F20000DE
:1002180050F2000050F2000050F2000050F20000CE
:10022800F013010054170100DC030020DC03002058
:10023800DC03002038250020382500203825002040
:1002480038250020382700207D020000ED18000026
:100258000F484FF00701884385460E4880470E48EF
:10026800016841F470010160BFF34F8FBFF36F8FD6
:10027800FFF73EBF09480A490A4A884207D0521A7E
:1002880005D0037801300B700131013AF9D170477C
:1002980000000420FD7D000088ED00E0D8F100009A
:1002A8000000002078000020FEE7FEE7FEE7FEE7FA
:1002B800FEE7FEE7FEE7FEE7FEE7FEE7FEE7FEE70E
:1002C800FEE7FEE7FEE7FEE7FEE7FEE7FEE7FEE7FE
:1002D800FEE7FEE7FEE7FEE7FEE7FEE7FEE7FEE7EE
:1002E800FEE7FEE7FEE7FEE7FEE7FEE7FEE7FEE7DE
:1002F800FEE7FEE7FEE7FEE7FEE7FEE7FEE7FEE7CE
:10030800FEE7FEE7FEE7FEE7FEE7FEE7FEE7FEE7BD
:04031800FEE700BF3D
:10031C0008B507F04BFD00BF08BD00B589B00390D0
:10032C0002910192019B002B22D0002307930A23F8
:10033C000693029A079B1344019A1946002007F072
:10034C00E7FC0590079A059B13440793019A059BBC
:10035C00D31A0193059B002B05D1069B013B0693F9
:10036C00069B002B03D0019B002BE2D100E000BFC9
:10037C0000BF09B05DF804FB00B585B00390029195
:10038C00054B00934023054A0299039800F012F89C
:10039C0000BF05B05DF804FB27030000DC03002060
:1003AC0082B0019000BF02B0704782B0019000BFD4
:1003BC0002B0704700B5A1B005900491039202936E
:1003CC00049802F09AFE039B1593029B169300234C
:1003DC00179300238DF8603000231993229B1A93F6
:1003EC0000231F930FA91F9B0822049802F040FFC3
:1003FC0008231F93119B1293109B9BB2ADF84C30AA
:10040C0000238DF850309DF83C3003F00303DBB231
:10041C00012B32D10F9BC3F395231D939DF83C30D8
:10042C00C3F3C203DBB28DF84E309DF83C30C3F3FE
:10043C008003DBB2002B14BF01230023DBB28DF849
:10044C004F30BDF83C30C3F38313DBB21C931C9BC1
:10045C009A0009A91F9B049802F00AFF1C9B9B00A1
:10046C001F9A13441F9312AA09A915AB00931346A4
:10047C001C9A1D9800F084FE3BE09DF83C3003F084
:10048C000303DBB2022B34D1BDF83E30C3F3891326
:10049C009BB21E939DF83C30C3F3C203DBB28DF8C4
:1004AC004E309DF83C30C3F38003DBB2002B14BFFD
:1004BC0001230023DBB28DF84F301E9B082B28BF85
:1004CC0008231B9307A91F9B1B9A049802F0D0FECC
:1004DC001F9A1B9B13441F931E9A1B9BD31A1E938C
:1004EC0015AB12AA07A81B9900F0ECFE1E9B002B63
:1004FC00E3D1049802F010FE00BF21B05DF804FBBC
:10050C0082B00190019B01225A7200BF02B0704769
:10051C0000B583B04FF0FF330193FFF7F9FE0421D0
:10052C00084800F067FD0190019B002B03DA064997
:10053C00412001F0E4FF0348FFF7E2FF00BF03B0E6
:10054C005DF804FB780000205CF2000000B583B07D
:10055C0001900091019B1B681B68009901989847BA
:10056C0000BF03B05DF804FB00B583B00190019BA4
:10057C001B685B680198984700BF03B05DF804FBEB
:10058C0082B001900B468DF80330019B9DF803203F
:10059C001A7200BF02B0704782B00190019B1B7AA7
:1005AC00184602B0704782B00190019B01225A722A
:1005BC0000BF02B0704782B00190019B5B7A184675
:1005CC0002B0704710B487B001900091019B009A63
:1005DC0053E8004F44EA020043E8000191F0000F99
:1005EC00F6D1059404900391049B184607B05DF86E
:1005FC00044B704710B487B001900091019B009A96
:10060C0053E8004F04EA020043E8000191F0000FA8
:10061C00F6D1059404900391059B184607B05DF83C
:10062C00044B704700B583B0019001210198FFF78E
:10063C00C9FF0346184603B05DF804FB00B583B050
:10064C00019000210198FFF7D5FF0346184603B02F
:10065C005DF804FB00B587B001901F4BFF229A6038
:10066C001D4B00221A601C4B00225A601A4B0022B0
:10067C00C3F81824184B0022C3F81424164B00227C
:10068C0083F81C24154802F09DFC0490049B002B5D
:10069C0001D0049B1CE0124A124BD31ADB080393C3
:1006AC00002305930FE0059A13465B0013449B004F
:1006BC001A460D4B13440293059B9AB2029B1A8067
:1006CC00059B01330593059A039B9A42EBD30023B8
:1006DC00184607B05DF804FBEC040020B0F20000F3
:1006EC00D8F1000088F1000000000020024A034B02
:1006FC00D31ADB0818467047D8F1000088F10000C7
:10070C0000B587B001900B468DF803309DF803308F
:10071C00002B23D0FFF7EAFF04900023059317E08A
:10072C00059A13465B0013449B001A460E4B134468
:10073C000393039B5B881A46019B1B689A4204D166
:10074C00019B059A1A60002309E0059B0133059370
:10075C00059A049B9A42E3D3052300E00023184634
:10076C0007B05DF804FB00BF0000002000B585B0A9
:10077C0001900B468DF803309DF8032001AB114618
:10078C001846FFF7BDFF0346002B07D1019BDB008A
:10079C00054A13440393039B1B6800E0002318468F
:1007AC0005B05DF804FB00BF88F1000084B0019037
:1007BC000B468DF80330019BDB00174A1344029360
:1007CC009DF80330013B032B1CD801A252F823F0F7
:1007DC00ED070000F5070000FD070000070800000A
:1007EC0000238DF80F3011E000238DF80F300DE051
:1007FC00029B1B798DF80F3008E0029B5B798DF81A
:10080C000F3003E000238DF80F3000BF9DF80F3040
:10081C00184604B0704700BF88F1000000B589B0DD
:10082C004148FFF7FFFE4148FFF7FCFE404B5B6879
:10083C0007933F4B9B680493079A049B1340023326
:10084C009B003B4A1344043306931BE0079B013384
:10085C000793069B5B88C3F389139BB21A46069BCE
:10086C001B88C3F389139BB213441A46079B13448A
:10087C000793079A049B134002339B002C4A1344A2
:10088C0004330693069B1B7803F00303DBB2002BA7
:10089C00DCD00023059311E0059B9B006A461A44AB
:1008AC00079B591C079104990B40214902339B006B
:1008BC000B445B681360059B01330593059B012B6F
:1008CC00EAD99DF80030C3F30103DBB2012B0CD045
:1008DC00022B14D1BDF80230C3F389139BB203333E
:1008EC009B08079A134407930FE0BDF80030C3F33D
:1008FC008313DBB21A46079B1344079305E00D499B
:10090C0040F24D1001F0FBFD00BF0848FFF796FECA
:10091C000390039B002B02D0054A079B536000BF3A
:10092C0009B05DF804FB00BF040900200009002099
:10093C00EC040020D4F2000010B586B003900291B4
:10094C0001920093009B5A1C0092089A13400233A8
:10095C009B00294A134404330593059A137801210B
:10096C0061F301031370039B03F01003002B14BFFE
:10097C0001230023D9B2059A137861F38203137013
:10098C00039BDBB203F00703D9B2059A137861F32A
:10099C00C5031370019BDBB203F00F03D9B2059AA8
:1009AC00138861F389131380029BC3F31501059A15
:1009BC00136861F39F231360039B1B0CADF812307B
:1009CC00BDF81240FFF792FE03469C4204D30B493C
:1009DC0040F2691001F093FD009B5A1C0092089A9A
:1009EC001340BDF81220044902339B000B445A609B
:1009FC00009B184606B010BDEC040020D4F2000099
:100A0C0000B589B001900091019B0233069302233B
:100A1C00059301238DF81330002001F029FD194BAB
:100A2C001A68009B1A60174B9A68164B5968154B3D
:100A3C001B68CB1A134401330793069A059B134486
:100A4C0003930BE0FFF7EAFE0E4B9A680D4B5968C7
:100A5C000C4B1B68CB1A134401330793039A079B67
:100A6C009A42EFD8074B1A68069B1344054A136049
:100A7C00002001F011FD9DF81330184609B05DF807
:100A8C0004FB00BFEC04002000B58BB00590049172
:100A9C00039202931E4B9B68089307AB194602986E
:100AAC00FFF7AEFF0346002B23D0079A089B009359
:100ABC001346029A04990598FFF73EFF03460793E5
:100ACC000023099311E0079B5A1C0792089A1340C4
:100ADC00099A920003990A4412680D4902339B004B
:100AEC000B445A60099B01330993099A029B9A4261
:100AFC00E9D3074B93F81C34002B05D000BF00F052
:100B0C0095F80346002BFAD100BF0BB05DF804FB3F
:100B1C00EC04002000B583B001900091002300226A
:100B2C0000990198FFF7B0FF00BF03B05DF804FB1C
:100B3C0000B587B0039002910192019B059305AA21
:100B4C00012302990398FFF79FFF00BF07B05DF8E0
:100B5C0004FB00B587B00390029101920093019BB6
:100B6C000493009B059304AA022302990398FFF7B0
:100B7C008BFF00BF07B05DF804FB00B589B0039094
:100B8C00029101920093019B0593009B06930A9B93
:100B9C00079305AA032302990398FFF775FF00BF7B
:100BAC0009B05DF804FB00B589B003900291019285
:100BBC000093019B0493009B05930A9B06930B9B4C
:100BCC00079304AA042302990398FFF75DFF00BF63
:100BDC0009B05DF804FB00B58BB003900291019253
:100BEC000093019B0493009B05930C9B06930D9B18
:100BFC0007930E9B08930F9B099304AA0623029953
:100C0C000398FFF741FF00BF0BB05DF804FB000039
:100C1C00054B5A68044B1B689A420CBF01230023F6
:100C2C00DBB21846704700BFEC04002000B597B04B
:100C3C00FFF7EEFF0346002B01D000239FE19D4BF5
:100C4C000022C3F81824BFF34F8F9A4B5B6815939F
:100C5C00984B9B680E93159A0E9B134002339B0086
:100C6C00944A1344043314930023139300231293D4
:100C7C0000230D931BE0159B01331593149B5B888C
:100C8C00C3F389139BB21A46149B1B88C3F38913B5
:100C9C009BB213441A46159B13441593159A0E9B3D
:100CAC00134002339B00834A134404331493149B64
:100CBC001B7803F00303DBB2002BDCD00023119371
:100CCC0011E0119B9B006A461A44159B591C159107
:100CDC000E990B40774902339B000B445B68136001
:100CEC00119B01331193119B012BEAD99DF8003014
:100CFC0003F00303DBB2022B40F09C80BDF8023002
:100D0C00C3F389139BB20C93BDF80230C3F3891360
:100D1C009BB2502BA8BF50230B930B9B9BB2C3F3DE
:100D2C0009039AB2BDF8023062F38F13ADF80230AA
:100D3C000B9B08330A939DF80030C3F3C203DBB25C
:100D4C000D930A995C4802F048F91390139B002B01
:100D5C0000F0D480139802F0D0F96946129B082257
:100D6C00139802F073FA129B08331293159BDA4313
:100D7C000E9B134001339B0009930B9A099B9A42DB
:100D8C0042D9099B002B08D0159A0E9B13400233B5
:100D9C009B00484A1344043300E0484B0893099BDA
:100DAC00002B02D0099BDBB201E00B9BDBB28DF870
:100DBC001F30099B002B01D0404B00E00023069311
:100DCC00099B002B06D00B9BDAB2099BDBB2D31A22
:100DDC00DBB200E000238DF817309DF81F20129B2A
:100DEC000899139802F032FA9DF81F30129A1344A6
:100DFC001293069B002B16D09DF81720129B069978
:100E0C00139802F023FA0EE0159A0E9B134002334E
:100E1C009B00284A134404330493129B0B9A0499A5
:100E2C00139802F013FA0C9B03339B08159A134486
:100E3C00159363E09DF8003003F00303DBB2012B44
:100E4C005CD1BDF80030C3F38313DBB2062B28BF93
:100E5C000623DBB203F00F03DAB2BDF8003062F305
:100E6C008913ADF80030BDF80030C3F38313DBB247
:100E7C00023303939DF80030C3F3C203DBB20D932E
:100E8C00039B9B0019460C4802F0A7F81390139B88
:100E9C00002B33D0139802F030F96946129B0822CC
:100EAC00139802F0D3F9129B083312930023119379
:100EBC001BE000BFEC040020B0F20000F80400209E
:100ECC00159B5A1C15920E9A134002339B002E4A06
:100EDC001344191D129B0422139802F0B7F9129BAC
:100EEC0004331293119B01331193BDF80030C3F3FB
:100EFC008313DBB21A46119B9A42E1D8139B002B49
:100F0C0037D0214BD3F8103410931F4BD3F818342F
:100F1C00002B1AD0139802F0FFF82AE000238DF86A
:100F2C003F301098FFF747FB0346002B02D00123FC
:100F3C008DF83F309DF83F30002B03D0139910985B
:100F4C00FFF704FB109B5B681093109B002BE5D103
:100F5C00139802F0E1F8002001F08AFA0A4BD3F85A
:100F6C001834002B02D1084A159B5360002001F065
:100F7C0093FAFFF74DFE034683F00103DBB21846EC
:100F8C0017B05DF804FB00BFEC04002000B585B081
:100F9C000023039322E0164BD3F810340293012361
:100FAC008DF807300EE00298FFF7F6FA03461A4662
:100FBC00039B9A4203D100238DF8073005E0029B76
:100FCC005B680293029B002BEDD19DF80730002B40
:100FDC0001D0039B07E0039B01330393039B092B75
:100FEC00D9DD4FF0FF33184605B05DF804FB00BFA8
:100FFC00EC04002000B585B001900B468DF8033051
:10100C00FFF7C4FF0390039BB3F1FF3F01D1039B98
:10101C001EE0039BDBB219460198FFF7B1FA0E4BA9
:10102C00D3F81034002B07D10B4A019BC2F81034B3
:10103C00019B00225A600AE0074BD3F810345A681F
:10104C00019B5A60044BD3F81034019A5A60039BED
:10105C00184605B05DF804FBEC04002000B583B025
:10106C000C4BD3F8103401930A4B012283F81C2447
:10107C0008E00198FFF797FA0198FFF775FA019BC2
:10108C005B680193019B002BF3D100BF03B05DF8AB
:10109C0004FB00BFEC04002010B582B0019000915D
:1010AC00019BDB7983F00103DBB2002B28D0019B81
:1010BC001B7A002B12D0019B9B881A46019B9B79B3
:1010CC0019461046FFF772FB03461A460E4B53F8AF
:1010DC0022301A460D49009801F046FB019B9B7982
:1010EC001A460B4B53F82240019B9B880021184653
:1010FC00FFF73CFB034622460649009801F034FBFF
:10110C0000BF02B010BD00BF9800002088F30000A3
:10111C00840000208CF3000000B585B00390029190
:10112C0013468DF80730039BDB7983F00103DBB2A8
:10113C00002B0FD0039B1B7A002B06D00D4B1B688A
:10114C001A460D49029801F00FFB0C49029801F068
:10115C000BFB07E09DF80730002B03D007490298E2
:10116C0001F002FB029801F0DDFA00BF05B05DF85A
:10117C0004FB00BF9800002088F3000098F30000E7
:10118C0030B58BB007900691059204930E9B1B7B98
:10119C008DF827300E9B00221A730E990498FFF7D6
:1011AC007BFF059B062B7FD801A252F823F000BFD2
:1011BC00D9110000E3110000F31100000712000028
:1011CC00251200004D1200007D12000007990E98A8
:1011DC0001F0CAFA69E0069B1B681A4607990E983B
:1011EC0001F0C2FA61E0069B1A68069B04331B6887
:1011FC0007990E9801F0B8FA57E0069B1A68069BFF
:10120C0004331968069B08331B6800930B46079937
:10121C000E9801F0A9FA48E0069B1968069B043366
:10122C001868069B08331B68069A0C3212680192E8
:10123C00009303460A4607990E9801F095FA34E09C
:10124C00069B1868069B04331C68069B08331B68B6
:10125C00069A0C32126806991031096802910192B3
:10126C0000932346024607990E9801F07DFA1CE084
:10127C00069B1C68069B04331D68069B08331B6881
:10128C00069A0C32126806991031096806981430C7
:10129C00006803900291019200932B462246079915
:1012AC000E9801F061FA00E000BF00220E9904983C
:1012BC00FFF732FF0E9B9DF827201A7300BF0BB06F
:1012CC0030BD00BF00B587B003900291019200932E
:1012DC00029B082B5CD8009B1B7B8DF81330009B6A
:1012EC0000221A7300990198FFF7D6FE002305938C
:1012FC0014E0059A029B9A4209D2039A059B134467
:10130C001B781A462449009801F02EFA03E0234971
:10131C00009801F029FA059B01330593059B072BD7
:10132C00E7D91F49009801F01FFA0023059322E02A
:10133C00059A029B9A4217D2039A059B13441B7879
:10134C008DF812309DF8123018460DF02DFE034624
:10135C00002B02D09DF8123000E02E231A461149C2
:10136C00009801F001FA03E00F49009801F0FCF934
:10137C00059B01330593059B072BD9D901220099B5
:10138C000198FFF7C9FE009B9DF813201A7300E02B
:10139C0000BF07B05DF804FB9CF30000A4F3000051
:1013AC00A8F30000ACF30000B0F3000000B583B06C
:1013BC000190019B1B682F2B04D90B494FF4E8704B
:1013CC0001F09DF8019B1B681F2B02D84FF0A04326
:1013DC0006E0019B1B6803F01F02019B1A60034B84
:1013EC00184603B05DF804FBB4F300000003005092
:1013FC0000B585B00190084611461A4603468DF893
:10140C0003300B468DF8023013468DF8013001ABDA
:10141C001846FFF7CBFF0390019A9DF803109DF837
:10142C0002305B0019439DF801309B0019439DF875
:10143C0018301B0219439DF81C301B041943039BE5
:10144C0002F5E07243F8221000BF05B05DF804FB12
:10145C0000B585B003900023019300230093002373
:10146C00012201210398FFF7C3FF00BF05B05DF80F
:10147C0004FB000084B00190244B0393019B002BD0
:10148C0040D0234B1A680399019B00BF00BF00BFDB
:10149C0000BF00BF00BF00BF00BF8A422FD000BFFB
:1014AC0000BF00BF00BF00BF00BF00BF00BF00BF38
:1014BC0000BF00BF00BF00BF00BF00BF00BF00BF28
:1014CC0000BF00BF00BF00BF00BF00BF00BF00BF18
:1014DC0000BF00BF00BF00BF00BF00BF00BF00BF08
:1014EC0000BF00BF00BF00BF00BF00BF00BF00BFF8
:1014FC0000BF00BF00BF00BF00BF00BF00BF013B6B
:10150C00C3D1019300BF04B0704700BF0024F400A6
:10151C00D000002000B583B00190019B4FF47A728B
:10152C0002FB03F31846FFF7A5FF00BF03B05DF8FD
:10153C0004FB82B00190019BD3F81035DBB2184646
:10154C0002B0704700B585B001900B468DF80330A2
:10155C009DF803300393019B094A934204D909492E
:10156C0040F2692000F0CBFF019B4FF47A5202FB52
:10157C0003F2039B22FA03F3184605B05DF804FB53
:10158C0093180400E8F3000000B583B001900091BB
:10159C00019B1B681846FFF7CCFF034619460098C1
:1015AC00FFF7D0FF0346184603B05DF804FB0000BC
:1015BC0000B583B02D4B1B881B0443F013002C4B40
:1015CC00D3ED097AF5EEC07AF1EE10FA0BD5284B73
:1015DC00D3ED097ABFEE007AF4EEC77AF1EE10FA89
:1015EC0001DD244A00E0244A214BD3ED097AFDEEBB
:1015FC00E77A17EE901A1E4BD3ED097AF5EEC07A06
:10160C00F1EE10FA14DD1A4B93ED097A184BD3ED69
:10161C00097AFDEEE77AF8EEE77A77EE677A9FEDD6
:10162C00177A67EE877AFDEEE77A17EE903A13E0B9
:10163C000F4BD3ED097AFDEEE77AB8EEE77A0C4B57
:10164C00D3ED097A77EE677A9FED0C7A67EE877A9D
:10165C00FDEEE77A17EE903A00930B460849FFF738
:10166C008CFA00BF03B05DF804FB00BF0000002043
:10167C00140900201CF4000020F400000000C842F3
:10168C0024F4000000B583B02F4B00932F4B304A4D
:10169C00304931480CF05EFB30480CF081F8F0EE2C
:1016AC00407A2F4BC3ED007A2D4BD3ED007A2D4BA6
:1016BC0093F868202B4B93ED097AF0EE470A10460D
:1016CC00B0EE670A0DF02AFB03461A46254B83F849
:1016DC006820244B93F91310224BD3ED167A214B2F
:1016EC0093ED177A1E4BD3ED006A1F4B0093B0EEAF
:1016FC00661A1E4B144AF0EE470AB0EE670A1C48F5
:10170C000CF066FE174B93F8683083F00103DBB2E4
:10171C00002B03D016480BF0BDFF06E0114B93F8DD
:10172C006830002B01D00BF0A5FFFFF741FF114BE8
:10173C001B6801330F4A13600A4B002283F82820E0
:10174C0000BF03B05DF804FB080A0020D409002098
:10175C00B80900209C09002080090020180A0020EC
:10176C001C0A002014090020200A00207409002003
:10177C00400900202C0A002082B08DED010A034A9A
:10178C00019B536200BF02B0704700BF14090020D8
:10179C0000B583B00020FEF75DFF0190019B009324
:1017AC00009B002B05D0064A40F20721009800F060
:1017BC000FF9FEF7ADFE00BF03B05DF804FB00BFF0
:1017CC0084F6000082B003460091ADF80630034B5E
:1017DC00012283F8282000BF02B0704714090020B2
:1017EC0000B587B0164A1749174804F053FE059008
:1017FC00059B0493049B002B05D0144A40F24A210C
:10180C00049800F0E5F864210F48FFF7BDFE039043
:10181C00012300930123039A00210B4805F00CF8D7
:10182C00094804F06FFF0A4B1B881B0443F0130399
:10183C0008491846FFF76EF900BF07B05DF804FBC6
:10184C00D1170000C40000208CF7000084F60000C3
:10185C0000000020C4F6000008B54FF08053D3F808
:10186C00A430DAB21B4B1A704FF08053D3F8A4306B
:10187C001B0ADAB2174B5A704FF08053D3F8A430CE
:10188C001B0CDAB2134B9A704FF08053D3F8A43080
:10189C001B0EDAB20F4BDA704FF08053D3F8A8302E
:1018AC00DAB20C4B1A714FF08053D3F8A8301B0AE4
:1018BC00DAB2084B5A710622064907480DF0AEFB06
:1018CC00064905480CF016FC0346DAB2024B9A7432
:1018DC0000BF08BD0C090020140900201A090020C3
:1018EC0070B584B0FFF754FFFFF7B6FF304B1B8881
:1018FC001B0443F013032F491846FFF70BF92C4B2D
:10190C001B881B0443F013002B4B5B791D462A4BA1
:10191C001B791E46284BDB781A46274B9B781946B9
:10192C00254B5B781C46244B1B7803930294019146
:10193C00009233462A462149FFF74DF91C4B1B8870
:10194C001B0443F013030A221D491846FFF7F0F855
:10195C000A20FFF7DFFD0CF09DF81A480BF0CEFEC5
:10196C000CF02EFB18480DF0B7F90BF0E9FD0CF05C
:10197C000BFCFFF735FF00234FF47A720021012096
:10198C000BF0C4FF0320FFF763FD094B1B881B04FE
:10199C0043F013030D491846FFF7BCF8FFF746F95F
:1019AC00054B93F82830002BF8D0FFF76BFEF5E7CA
:1019BC0000000020E4F600001409002014F70000D9
:1019CC004CF70000BC0000208517000074F70000E5
:1019DC0000B589B0039002910192029B9BB2ADF8C5
:1019EC001430019B0693039B079305AB1A46002109
:1019FC0044F2010000F050F800BF09B05DF804FBA0
:101A0C0086B003900291019201238DF817309DF856
:101A1C001730204A039B13601E4A029B53601D4AD9
:101A2C00019B9360039B44F20102934212D044F257
:101A3C000202934222D1019B164AD360154BDB68FC
:101A4C001B881A46134B9A61124BDB685B68114A70
:101A5C00D36113E0019B0F4A13610E4B1B699B680A
:101A6C000C4A53610B4B1B691B881A46094B9A6134
:101A7C00084B1B695B68074AD36100BF72B600BF95
:101A8C009DF81730DBB2002BFAD162B600BF06B05E
:101A9C00704700BF300A002030B589B00590049122
:101AAC000392FFF7DBFA00BFFFF7C0F80346002BE9
:101ABC00FAD1059B44F20102934213D044F2020284
:101ACC0093422DD1039B0793224B1B881B0443F09D
:101ADC000100079B5B681A46079B1B881E49FFF792
:101AEC0038F828E0039B06931A4B1B881B0443F021
:101AFC000104069B9D68069B9B68184601F0CAFB77
:101B0C0003461946069B5B681A46069B1B88019385
:101B1C0000920B462A4611492046FFF744F80AE08A
:101B2C000C4B1B881B0443F00103049A0C49184608
:101B3C00FEF7FEFF00BF0B4B1B6803F00103002BED
:101B4C0000D0FFDE039A04990598FFF759FF00BFF8
:101B5C0009B030BD0000002094F70000B0F7000081
:101B6C00C8F70000F0ED00E082B003468DF80730B6
:101B7C0007499DF907305B099DF8072002F01F0209
:101B8C00012000FA02F241F8232000BF02B0704796
:101B9C0000E100E082B003468DF8073008499DF95A
:101BAC0007305B099DF8072002F01F02012000FAA4
:101BBC0002F2203341F8232000BF02B0704700BF6F
:101BCC0000E100E082B003468DF8073008499DF92A
:101BDC0007305B099DF8072002F01F02012000FA74
:101BEC0002F2403341F8232000BF02B0704700BF1F
:101BFC0000E100E082B003468DF8073008499DF9FA
:101C0C0007305B099DF8072002F01F02012000FA43
:101C1C0002F2603341F8232000BF02B0704700BFCE
:101C2C0000E100E084B00190244B0393019B002B56
:101C3C0040D0234B1A680399019B00BF00BF00BF23
:101C4C0000BF00BF00BF00BF00BF8A422FD000BF43
:101C5C0000BF00BF00BF00BF00BF00BF00BF00BF80
:101C6C0000BF00BF00BF00BF00BF00BF00BF00BF70
:101C7C0000BF00BF00BF00BF00BF00BF00BF00BF60
:101C8C0000BF00BF00BF00BF00BF00BF00BF00BF50
:101C9C0000BF00BF00BF00BF00BF00BF00BF00BF40
:101CAC0000BF00BF00BF00BF00BF00BF00BF013BB3
:101CBC00C3D1019300BF04B0704700BF0024F400EF
:101CCC00D000002008B50D4B4FF48032C3F84423EC
:101CDC000A4B4FF48032C3F804231120FFF78AFF1C
:101CEC001120FFF741FF054B01221A602F20FFF74F
:101CFC0099FF034B01221A7000BF08BD0010014070
:101D0C006E0B002008B51120FFF744FF0E4B4FF46B
:101D1C008032C3F848230C4B4FF48032C3F80823AD
:101D2C00094B01225A602F20FFF77CFF064B012242
:101D3C009A60064B00221A602F20FFF773FF044BAA
:101D4C0000221A7000BF08BD00100140600B00207B
:101D5C006E0B0020024BD3F804351846704700BFB9
:101D6C000010014082B001900091019A009BD31A9F
:101D7C0023F07F43184602B07047000082B00190F8
:101D8C00034A019BC2F8403500BF02B0704700BF48
:101D9C000010014086B00190284B1B68002B03D12A
:101DAC00264A019B136045E0019B1A68234B1B6874
:101DBC001B689A4210D8214B1B68204A1268116884
:101DCC00019A12688A1A1A601C4B1A68019BDA6114
:101DDC001A4A019B13602DE0019B1B680393174B60
:101DEC001B680593154B1B68049309E0049B1B6847
:101DFC00039AD31A0393049B0593049BDB69049306
:101E0C00049B002B04D0049B1A68039B9A42EDD3CD
:101E1C00049B002B05D0049B1A68039BD21A049BCD
:101E2C001A60019B039A1A60019B049ADA61059B64
:101E3C00019ADA6100BF06B0704700BF5C0B00204E
:101E4C0000B587B001902A4B1B680393284B1B6885
:101E5C000593059B049308E0049A019B9A4208D0D1
:101E6C00049B0593049BDB690493049B002BF3D127
:101E7C0000E000BF049B002B01D1002333E0059A46
:101E8C00049B9A4214D11A4B1B68DB69184A1360E5
:101E9C00174B1B68002B0BD1164B01229A60164B6B
:101EAC0000221A60154B01221A702F20FFF7BAFE80
:101EBC00049B1B680293049BDA69059BDA61059B02
:101ECC00DB690493049B002B05D0049B1A68029BCE
:101EDC001A44049B1A60064B1B68039A9A4214BF5F
:101EEC0001230023DBB2184607B05DF804FB00BFEA
:101EFC005C0B002000100140600B00206F0B0020D9
:101F0C0008B51120FFF75EFE00BF08BD08B5142010
:101F1C00FFF758FE00BF08BD00B583B00190019BD0
:101F2C005B69019A92691046984700BF03B05DF84F
:101F3C0004FB000000B585B02B4B1B68002B4ED06A
:101F4C0000230193FFF706FF0246284B1B68194636
:101F5C001046FFF707FF0290234B1B6803931DE00D
:101F6C00039B1A68029B9A421CD8039B1B68029A1B
:101F7C00D31A0293039B1B68019A13440193039B8E
:101F8C000093039BDB690393009B1B7C002B05D008
:101F9C00009B00221A740098FFF7BEFF039B002BD6
:101FAC00DED100E000BF124B1A78124B1B789A421C
:101FBC000CD1104B1B780133DAB20E4B1A700D4B4F
:101FCC001B78022B02D10B4B00221A70094B1B7889
:101FDC001946094A019B42F82130FFF797FF00BFD1
:101FEC0005B05DF804FB00BF5C0B0020600B00200B
:101FFC006C0B00206D0B0020640B002082B0019054
:10200C00184B1A78184B1B789A4223D0154B1B7817
:10201C000133DAB2134B1A70124B1B78022B02D11C
:10202C00104B00221A700F4B1B781A460F4B53F8AB
:10203C002220019B1A60019B1A680D4B1B681344EC
:10204C000B4A13600A4B1B6823F07F43084A13604A
:10205C00012303E0019B00221A600023184602B002
:10206C00704700BF6C0B00206D0B0020640B002030
:10207C00600B002088B0039002910192002307931B
:10208C0038E0204B1B680693069B1A68039B9A4208
:10209C0006D9069B1A68039BD21A069B1A602DE080
:1020AC00069B1B68039AD31A0393069B1B68079A1B
:1020BC0013440793069B00221A60124B1B6805936E
:1020CC00069BDB690F4A1360069BDB68002B11D063
:1020DC00029A079B134423F07F42069B5A60069B8F
:1020EC00DA68069B9A60019B1A68069BDA61019B71
:1020FC00059A1A60034B1B68002BC2D100BF08B0B5
:10210C00704700BF5C0B002000B589B00190002324
:10211C008DF81F30664B1B680593AAE0019B002BC2
:10212C0005D0019B0693069BDB69019361E0614B33
:10213C001B781A4613465B001344DB005D4A1344BC
:10214C00043304935B4B1B780133DAB2594B1A708E
:10215C00584B1A78574B9B789A4202D1554B002218
:10216C001A70049B5B680693049B1B78022B04D0AB
:10217C00032B1BD0012B1FD01DE0049B5B68184662
:10218C00FFF75EFE0346002B02D001238DF81F30B3
:10219C00069B00221A746CE0454B1B680393039B4F
:1021AC0000221A74039BDB69414A1360404B1B6885
:1021BC00002BF1D15DE05CE000BF069B1B7C002B8B
:1021CC0000D056E0049B9A68069B5A60049BDA6820
:1021DC00069B9A60049B1A69069BDA60049B5A69F9
:1021EC00069B9A61344B1B78002B02D0069B002275
:1021FC005A60069B5A68314B1B68D31A23F07F43F5
:10220C002F4A93420ED8069B5A682C4B1B681946D2
:10221C001046FFF7A7FD0246069B9B681A44069BD7
:10222C001A6017E0254B1A68069B5B681946104626
:10223C00FFF798FD0290069B9A68029B9A4206D97A
:10224C00069B9A68029BD21A069B1A6002E0069BB8
:10225C0000221A60069B00225A60069B00229A609C
:10226C00069B01221A74069B0022DA610698FFF77E
:10227C0091FD019B002B7FF451AF0E4B1A780D4B47
:10228C005B789A427FF44AAF9DF81F30002B04D143
:10229C00074B1A68059B9A4201D0012300E00023EA
:1022AC0003F00103DBB2184609B05DF804FB00BF74
:1022BC005C0B0020500A00206F0B0020600B0020EC
:1022CC00FEFF7F0010B588B00190274B1B68002BD8
:1022DC0044D0254B1B681B680793FFF73BFD06900A
:1022EC00224B1B68059305990698FFF73BFD0346A7
:1022FC00033304931E4B1B7883F00103DBB2002BDA
:10230C0001D0FFF7DFFC049A079B934238BF1346BA
:10231C00059A13440593059B23F07F430593059879
:10232C00FFF72CFDFFF716FD039006990398FFF7B6
:10233C0019FD0346DC1C06990598FFF713FD0346AF
:10234C009C420DD9FFF706FD03461846FFF716FD14
:10235C002F20FFF767FCFFF7D3FD01E0FFF7D2FC5E
:10236C0000BF08B010BD00BF5C0B0020600B00204C
:10237C006E0B002000B587B00023019300238DF86D
:10238C001730194B1B680493184B1B6803936B464F
:10239C001846FFF733FE03468DF80B309DF80B30D3
:1023AC00002B08D0009B01AA04991846FFF762FE87
:1023BC0001238DF81730019B1846FFF7A5FE034645
:1023CC00002B02D001238DF817309DF81730002B0D
:1023DC0002D00398FFF776FF054B00221A7000BF5E
:1023EC0007B05DF804FB00BF600B00205C0B002005
:1023FC006F0B002008B50E4B0022C3F840210C4B8C
:10240C000022C3F844210A4B0022C3F84821084B90
:10241C000022C3F84C21064B0022C3F80021044BC8
:10242C000022C3F80421FFF785FD00BF08BD00BFE3
:10243C000010014008B5FFF79DFF00BF08BD00006C
:10244C0072B6034B1B680133014A136000BF70471F
:10245C00700B0020054B1B68013B044A1360034BB7
:10246C001B68002B00D162B600BF7047700B0020B8
:10247C0000B583B0019000F025F80346012B03D082
:10248C000449432000F03BF8FFF7DAFF00BF03B02C
:10249C005DF804FBE0F7000000B583B003468DF84F
:1024AC00073000F00FF80346012B03D004495120EC
:1024BC0000F025F8FFF7CEFF00BF03B05DF804FB7A
:1024CC00E0F7000084B0EFF305830193019BC3F3A5
:1024DC0008030393039B002B0DD1EFF3148300939C
:1024EC00009B0293029B03F00103002B0CBF012302
:1024FC000023DBB200E00123184604B0704700B59E
:10250C0085B003460091ADF80630BDF80630ADF845
:10251C000830009B039302AB1A46002144F20200E0
:10252C00FFF7BAFA00BF05B05DF804FB00B583B045
:10253C0001900B468DF80330019B002B03D1084909
:10254C00AF20FFF7DCFF019BDA689DF8033001999F
:10255C00098A01FB03F31344184603B05DF804FB2E
:10256C0030F8000000B583B001900091019B002B66
:10257C0003D10849BC20FFF7C2FF009B019AD26827
:10258C009B1A019A128AB3FBF2F3DBB2184603B022
:10259C005DF804FB30F8000000B585B00190019B9C
:1025AC00002B01D10E2349E0019B1B68002B03D1AA
:1025BC002449C620FFF7A3FF019B5B68002B03D1C6
:1025CC002049C720FFF79BFF019B9B68002B03D181
:1025DC001C49C820FFF793FF019BDB68002B03D13C
:1025EC001849C920FFF78BFF019B1B8A002B03D1D5
:1025FC001449CA20FFF783FF019B9B681A46019B75
:10260C005B68D31A8DF80F30019B1B68019A5268D6
:10261C001A6007E0019B1A681368591C11609DF839
:10262C000F201A709DF80F305A1E8DF80F20002BBA
:10263C00F0D1019B1B6800221A710023184605B0CB
:10264C005DF804FB30F8000000B585B00190019BEB
:10265C00002B03D11C49EC20FFF751FF00230393FF
:10266C000020FFF705FF019B1B681A68019B5B6844
:10267C009A4220D9019B1B681A68013A1A601B68A0
:10268C001B7819460198FFF751FF0390019B9B683B
:10269C001A46019B1B681B68D31A8DF80B30019BE3
:1026AC001B681B799DF80B209A4204D9019B1B686F
:1026BC009DF80B201A710020FFF7EEFE039B1846C5
:1026CC0005B05DF804FB00BF30F8000010B584B015
:1026DC0001900091019B002B04D111494FF488709B
:1026EC00FFF70DFF009B002B04D10D4940F2111098
:1026FC00FFF705FF009B03930020FFF7B9FE019B3A
:10270C001B681C68621C1A6003990198FFF72AFF6A
:10271C00034623700020FFF7BFFE00BF04B010BDBE
:10272C0030F8000000B583B00190019B002B03D161
:10273C000C493120FFF7E3FE019B9B68002B0CD06A
:10274C00019B5B69019A1069019A1168019A926860
:10275C009847019B00229A6000E000BF03B05DF82F
:10276C0004FB00BF68F800000EB400B584B0019003
:10277C00019B002B03D118494220FFF7C0FE019B9F
:10278C005B69002B03D114494320FFF7B8FE019B72
:10279C001B68002B03D110494420FFF7B0FE019BAE
:1027AC005B68002B03D10C494520FFF7A8FE059B65
:1027BC00002B0AD00023039306AB039303AB1A46FA
:1027CC000599019800F0B0F900E000BF04B05DF885
:1027DC0004EB03B0704700BF68F8000000B583B08D
:1027EC0001900B468DF80330019B1A68019B9B6886
:1027FC00581C0199886013449DF803201A70019BA2
:10280C009A68019B5B689A4202D30198FFF78AFF92
:10281C0000BF03B05DF804FB00B587B003900291D4
:10282C000192009300230593009B03F00103002BFE
:10283C0024D00BE0029B01330293059B01330593DB
:10284C009DF8133019460398FFF7C8FF029B1B78BD
:10285C008DF813309DF81330002BEBD106E0019B63
:10286C00013B019320210398FFF7B8FF019A059BC8
:10287C009A422ED9019B002BF1D12AE0029B002B0E
:10288C000BD002980CF04AFC059006E0019B013B32
:10289C00019320210398FFF7A1FF019A059B9A420F
:1028AC000FD9019B002BF1D10BE0029B013302935A
:1028BC00059B013305939DF8133019460398FFF7D8
:1028CC008DFF029B1B788DF813309DF81330002B75
:1028DC00EBD100BF07B05DF804FB000000B589B078
:1028EC000390029101920093029B0793012306939C
:1028FC0007E0079A019BB2FBF3F30793069B0133A6
:10290C000693079A019B9A42F3D2009A069B9A422D
:10291C0001D9009B06930B9B03F00103002B22D1E2
:10292C000A9B002B1FD00B9B03F00203002B06D03D
:10293C00009B002B03D130238DF8173002E02023AD
:10294C008DF8173008E00A9B013B0A939DF817306D
:10295C0019460398FFF742FF0A9B002B03D0069AF7
:10296C000A9B9A42EFD301230793009B012B03D9B7
:10297C00009B013B009309E0029A079BB2FBF3F327
:10298C000493049A019B9A4200D205E0079B019A9A
:10299C0002FB03F30793E8E7029A079BB2FBF3F3FE
:1029AC000493049B079A02FB03F3029AD31A029333
:1029BC00154A049B13441B7819460398FFF70EFF26
:1029CC00079A019BB2FBF3F30793079B002BE3D110
:1029DC000B9B03F00103002B11D00A9B002B0ED094
:1029EC0006E00A9B013B0A9320210398FFF7F6FEB1
:1029FC000A9B002B03D0069A0A9B9A42F1D300BF84
:102A0C0009B05DF804FB00BFC8F8000000B589B040
:102A1C000590049103920293049B002BB8BF5B4278
:102A2C0006930123079307E0039B069A92FBF3F3AB
:102A3C000693079B01330793039B069A9A42F3DA9A
:102A4C00029A079B9A4201D9029B07930A9B002B7F
:102A5C000AD0049B002B04DB0B9B03F00403002B1C
:102A6C0002D00A9B013B0A930B9B03F00203002B41
:102A7C0002D0029B002B16D00B9B03F00103002B02
:102A8C0011D10A9B002B0ED006E00A9B013B0A9346
:102A9C0020210598FFF7A2FE0A9B002B03D0079A72
:102AAC000A9B9A42F1D3049B002B07DA049B5B42EE
:102ABC0004932D210598FFF791FE08E00B9B03F082
:102ACC000403002B03D02B210598FFF787FE0B9BEB
:102ADC0003F00203002B19D00B9B03F00103002B16
:102AEC0014D1029B002B11D10A9B002B0ED006E0B7
:102AFC000A9B013B0A9330210598FFF76FFE0A9B56
:102B0C00002B03D0079A0A9B9A42F1D304990B9B92
:102B1C0001930A9B0093029B039A0598FFF7DEFE34
:102B2C0000BF09B05DF804FB00B58FB005900491AF
:102B3C000392059B002B04D1C8494FF49F70FFF7FB
:102B4C00DEFC059B5B69002B04D1C4494FF4A070DB
:102B5C00FFF7D5FC059B1B68002B04D1BF4940F245
:102B6C004110FFF7CCFC059B5B68002B04D1BB49E3
:102B7C004FF4A170FFF7C3FC049B002B00F0ED8118
:102B8C00049B1B788DF83730049B013304939DF81C
:102B9C003730002B00F0D8819DF83730252B40F0D2
:102BAC00C78100230A9301230C93049B1B788DF897
:102BBC0037309DF837302D2B04D0302B0AD02B2BEF
:102BCC0010D017E00A9B43F001030A93049B0133D6
:102BDC00049312E00A9B43F002030A93049B013313
:102BEC0004930AE00A9B43F004030A93049B013309
:102BFC00049302E000230C9300BF0C9B002BD4D158
:102C0C00002309939DF837302A2B0CD1039B1B68AA
:102C1C00191D039A11601B68099A13440993049BAC
:102C2C00013304931AE0049B1B788DF837309DF820
:102C3C0037302F2B12D99DF83730392B0ED8049BF7
:102C4C0001330493099A13469B0013445B001A4604
:102C5C009DF837301344303B0993D3E700230B9393
:102C6C00049B1B788DF837309DF837302E2B1DD1F7
:102C7C00049B01330493049B1B788DF837309DF82B
:102C8C0037302F2B12D99DF83730392B0ED8049BA7
:102C9C00013304930B9A13469B0013445B001A46B2
:102CAC009DF837301344303B0B93E4E7049B1B78BF
:102CBC008DF837309DF837306C2B03D09DF83730BA
:102CCC00682B07D1049B01330493049B1B788DF86C
:102CDC003730EFE79DF83730253B532B00F223813B
:102CEC0001A252F823F000BF292F0000332F00005F
:102CFC00332F0000332F0000332F0000332F000040
:102D0C00332F0000332F0000332F0000332F00002F
:102D1C00332F0000332F0000332F0000332F00001F
:102D2C00332F0000332F0000332F0000332F00000F
:102D3C00332F0000332F0000332F0000332F0000FF
:102D4C00332F0000332F0000332F0000332F0000EF
:102D5C00332F0000332F0000332F0000332F0000DF
:102D6C00332F0000332F0000332F0000332F0000CF
:102D7C00332F0000332F0000332F0000332F0000BF
:102D8C00332F0000332F0000332F0000332F0000AF
:102D9C00332F0000332F0000332F0000332F00009F
:102DAC00332F0000332F0000332F0000332F00008F
:102DBC00332F0000B52E0000332F0000332F0000FE
:102DCC00332F0000332F0000332F0000332F00006F
:102DDC00332F0000332F0000332F0000332F00005F
:102DEC00452E00006D2E0000332F0000332F000005
:102DFC00332F0000332F00006D2E0000332F000006
:102E0C00332F0000332F0000332F0000332F00002E
:102E1C00332F0000F52E0000332F0000332F00005D
:102E2C00D92E0000332F0000912E0000332F00000C
:102E3C00332F0000B52E0000039B1B68191D039A4D
:102E4C0011601B680C930C9B8DF823309DF823307C
:102E5C0019460598FFF7C2FC66E000BF94F8000025
:102E6C00039B1B68191D039A11601B680C930A9B2A
:102E7C000193099B00930B9B0A220C990598FFF771
:102E8C00C5FD51E0039B1B68191D039A11601B685B
:102E9C000C930C990A9B0193099B00930B9B0A22A0
:102EAC000598FFF71BFD3FE0039B1B68191D039A58
:102EBC0011601B680C930C990A9B0193099B00935E
:102ECC000B9B10220598FFF709FD2DE0039B1B6857
:102EDC00191D039A11601B6807930A9B099A07999D
:102EEC000598FFF799FC1FE0039B1B68191D039ABB
:102EFC0011601B680C9330210598FFF76FFC78214B
:102F0C000598FFF76BFC0C990023019308230093A1
:102F1C00082310220598FFF7E1FC05E02521059810
:102F2C00FFF75CFC00E000BF049B0133049305E059
:102F3C009DF8373019460598FFF750FC049B1B7819
:102F4C00002B7FF41DAE00E000BF059B1B7B002B0C
:102F5C0004D00598FFF7E6FB00E000BF0FB05DF86A
:102F6C0004FB00BF10B487B001900091019B009A44
:102F7C0053E8004F04EB020043E8000191F0000F0E
:102F8C00F6D1059404900391049B184607B05DF8A4
:102F9C00044B704710B487B001900091019B009ACC
:102FAC0053E8004FA4EB020043E8000191F0000F3E
:102FBC00F6D1059404900391049B184607B05DF874
:102FCC00044B704700B583B001900198FFF7E4FA09
:102FDC000346184603B05DF804FB00B58BB00190B6
:102FEC000091019B1B8A043B0793009A079B134497
:102FFC00DA1C079BB2FBF3F38DF81B300198FFF73B
:10300C0023FB0590059B002B01D1002338E0059B89
:10301C0000221A71059B01225A71079B9AB2059BDB
:10302C00DA80059B09939DF81B30013B0493099BA7
:10303C00019A1A60002308931DE00198FFF704FB26
:10304C000390039B002B0ED0059B5B790133DAB206
:10305C00059B5A71099B039A1A60039B019A1A608B
:10306C00039B099304E0059800F00EF8002307E099
:10307C00089B01330893089A049B9A42DDD3059B65
:10308C0018460BB05DF804FB00B58BB00190019BAA
:10309C000793079B5B798DF81B30019B08939DF878
:1030AC001B30013B05930023099305E0089B1B682B
:1030BC000893099B01330993099A059B9A42F5D30E
:1030CC00089B1B680493019B0893002309930BE056
:1030DC00089B1B68039308990498FFF7F7FA039B66
:1030EC000893099B013309939DF81B20099B9A4275
:1030FC00EED800BF0BB05DF804FB00B585B00190B5
:10310C00019B0393039B043301211846FFF72AFF0D
:10311C0000BF05B05DF804FB00B587B00190019BC2
:10312C000593059B043301211846FFF733FF034633
:10313C00039303AB0493049B1B78002B02D10198DF
:10314C00FFF7A2FF00BF07B05DF804FB00B58DB020
:10315C000390029101920093039B0693069BDB88DC
:10316C000593039B0B93009B1A1D059BB2FBF3F37A
:10317C000A93009B0433059AB3FBF2F2059901FB09
:10318C0002F29B1A0993009A019B1A44059B134463
:10319C00DA1C059BB2FBF3F38DF81330069B5B79BD
:1031AC009DF813209A420AD92749BA20FFF7A7F9AC
:1031BC0005E00B9B1B680B930A9B013B0A930A9B34
:1031CC00002BF6D100230893059A099BD31A079379
:1031DC00079A019B934228BF134607932DE09DF855
:1031EC003830002B0BD0029A089BD0180B9A099BF5
:1031FC0013440433079A19460BF010FF0AE00B9A9C
:10320C00099B1344181D029A089B1344079A1946EC
:10321C000BF004FF002309930B9B1B680B93019A83
:10322C00079BD31A0193089A079B13440893059A9A
:10323C00019B934228BF13460793019B002BCED1D1
:10324C0000BF0DB05DF804FBD8F8000000B587B0E6
:10325C00059004910392029300230093029B039A1E
:10326C0004990598FFF772FF00BF07B05DF804FBE7
:10327C0000B587B00590049103920293012300934B
:10328C00029B039A04990598FFF760FF00BF07B0F3
:10329C005DF804FB00B585B00190019800F00EF8C4
:1032AC000390039B002B01D0039B00E0024B1846BC
:1032BC0005B05DF804FB00BF1CF9000086B001905E
:1032CC00164B0593164B04931FE0049A059BD31AD7
:1032DC00DB10DA0F13445B10DB00059A13440393E5
:1032EC00039B1B680293029A019B9A4202D9039B8F
:1032FC0004930AE0029A019B9A4203D2039B08337F
:10330C00059302E0039B5B6804E0059A049B9A42D8
:10331C00DBD30023184606B0704700BF38FC000012
:10332C0028FD000000F1402000F500300023036070
:10333C0082B003680193019B02B0704708B54FF44B
:10334C008270FFF7EFFF0549D1E9002312F5FA224D
:10335C0043F10003C1E9002308BD00BF980B002016
:10336C0019492DE9F041D1F80425BFF35F8F174BB4
:10337C00D3E90067BFF35F8FD1F8048590451C46F5
:10338C0000D362B9042300BF00BF00BF013BFAD1D8
:10339C000F4B1B680BB1FFF7D1FFD4E900674FF45B
:1033AC007A73A6FB030103FB07110A4B47F6FF7464
:1033BC000025E3FB0845E20B42EA4542EB0B801883
:1033CC005941BDE8F08100BF00400240980B00203D
:1033DC000441024040420F002DE9F843164D06010E
:1033EC00AB19044618890F46FFF79CFFFFF7B8FF8F
:1033FC008046894634B94FF47A7200230BF010FDE5
:10340C00804689460D4A37B99319D3E9020189459B
:10341C0008BF80450DD3AB1909495868DB68C1F862
:10342C004803C1F8083301239355BDE8F84300F075
:10343C0033B8BDE8F88300BF28FD0000780B0020EE
:10344C0000400240114B1B6810B50BB1FFF776FF23
:10345C000F4BD3F8042312F4803F1C4607D003F51E
:10346C00A0731B681BB100200146FFF7B5FFD4F811
:10347C0004339B0308D5074B1B682BB1012000219B
:10348C00BDE81040FFF7A8BF10BD00BF04410240CB
:10349C00004002404441024070470000012307B540
:1034AC0003FA00F2084951E8003F0193019B1343D2
:1034BC000193019B41E800300028F3D1FFF7ECFFAA
:1034CC0003B05DF804FB00BFF80C00202DE9F843B5
:1034DC0007468846914600231422114E02FB03F541
:1034EC00A95991B9741920460BF0C2FD7B1C73517C
:1034FC003B78237184F8068084F8079000F000F97B
:10350C006071BDE8F843FFF7C7BF0133102BE3D15F
:10351C000448054A054B40F2972104F00FFE00BF0A
:10352C00B40B00208CFD000048FD0000F8FD0000ED
:10353C00013808B50D4B042811D8DFE800F003055D
:10354C0007090900122204E0112202E0162200E011
:10355C0001221A700520BDE80840FFF79FBF044800
:10356C00044A054B40F2BF2104F0E8FDF40C0020A6
:10357C008CFD000069FD0000F2FD000010B5094C47
:10358C0008B9206008E0431C236003782371A17103
:10359C00E27100F0B5F860710220BDE81040FFF751
:1035AC007DBF00BFA00B00200138032808D8DFE83E
:1035BC0000F002040402032000E00420FFF76EBFB9
:1035CC007047000008B500F09DF8034B1870BDE87B
:1035DC0008400720FFF762BFFC0C0020164B1A684E
:1035EC0013B532B3154AD2F80813C90721D50021F7
:1035FC0019601B680193019BD2F80845104B114AC6
:10360C0019681068091A3F299EBF1968481C186070
:10361C001B6812689CBF0C4801F03F01A3EB02032E
:10362C0098BF44543F2B81BF044A0123C2F808338E
:10363C00536002B010BD00BF00D1004000D000406C
:10364C00000D0020040D0020080D00201FB5214A9C
:10365C00214B116849B10021116012680092009A47
:10366C0019601B680193019B15E01A689AB11960E7
:10367C001B681A4A0293029B1188194B1948D3F8FC
:10368C00184500884B1CDBB2984204D016481380B6
:10369C004454FFF701FF154B1A68CAB100221A6097
:1036AC001B68134A0393039B138853B11148016899
:1036BC004C1C046008780A49013BC1F81C051380B6
:1036CC0006E00D4A012313700C4A1360FFF7E4FE69
:1036DC0004B010BD2421004008210040500D0020F2
:1036EC0000200040480D0020550D00201C210040FA
:1036FC00520D00204C0D0020540D00200C200040D9
:10370C0000F0F8BF5E3840B27047704770477047A2
:10371C0070477047224B70B51C78002C3AD08378D8
:10372C0003F00C02082A04D00C2A36D100F10E0545
:10373C0001E000F10805427803F0C003520658BFBF
:10374C000235802B03D0C02B27D100261BE000268E
:10375C00144BD3F85035DBB2092B1DD11249284636
:10376C00314402220BF025FCB8B10236142EEFD1F5
:10377C0012E00E492846314408220BF01AFC60B1C5
:10378C000836502E08D0074BD3F85035DBB2092B36
:10379C00EFD001E0012400E00024204670BD00BF02
:1037AC00550E002000100040A60E0020560E0020E2
:1037BC0000F1804000F580500023036082B0036864
:1037CC000193019B02B07047034B0022C3F8FC2FFE
:1037DC000122C3F8FC2F704700100040044B1870F6
:1037EC001B78012B01D101F027B801F019B800BFEB
:1037FC00CC00002008B5074B0022C3F844264FF438
:10380C00AE70FFF7D5FF0320FFF7E8FF024B012254
:10381C001A6008BD001000401010004008B501F0FF
:10382C0031F8044B01221A600020BDE8084001F079
:10383C0067B800BF0410004008B5A0F10B030F2BB4
:10384C0006D90748074A084B40F21F1104F076FCD2
:10385C000A38064B00EB8000C3F8080508BD00BF12
:10386C0080010100B7FF00002F0201000010004092
:10387C0008B5094B1A78012A08D01B78032B05D000
:10388C000648074A074BA12104F058FCBFF35F8F91
:10389C00054B00221A7008BDCC00002080010100ED
:1038AC00160001004E020100D00E002008B50120C8
:1038BC00FFF794FF01F050F8BDE80840FFF7D8BFC0
:1038CC0007B5134AD2E84F3FDBB28DF807309DF8AD
:1038DC000730BBB90120C2E8430F002BF1D1BFF375
:1038EC005F8F0C4A1378032B0FD01378DBB2834213
:1038FC000AD01378022B08D00748084A084B9621A7
:10390C0004F01CFC002000E0184603B05DF804FB3A
:10391C00D00E0020CC000020800101000FFF000021
:10392C009602010038B5164B0022C3F80022C3F8EA
:10393C004425D3F85035DBB20C2B054618D801249E
:10394C0004FA03F241F2110313406BB940F60E6313
:10395C0013406BB14FF48870FFF72AFF2846FFF72E
:10396C003DFF084B1C6038BDBDE83840FFF736BF43
:10397C000548064A064B40F28F1104F0DFFB00BFEE
:10398C00001000401010004080010100D9FF000021
:10399C00F2FD0000064B0222C3F88020C3F8802100
:1039AC00002283F80123BFF34F8FBFF36F8F704753
:1039BC0000E100E038B5044601F026F8C009022801
:1039CC000D4D11D9821EE309934239BF00222A60A2
:1039DC00A4EBC214C31E094A28BF2C60C3F3140302
:1039EC00C2F86436012038BDFFF7D4FFFFF7ECFEB8
:1039FC002C60002038BD00BFBC0E00200010004021
:103A0C00084B1868002380F88030074BD3F8481512
:103A1C000378034401F07F01494213F9012C00F0B3
:103A2C008FBF00BFC00E00200010004070B500F02A
:103A3C0029FFB64B1B68002B00F094804FF49C7050
:103A4C00FFF7B6FEB24B1B78023B072B00F28580CA
:103A5C00DFE803F088048383807D7D5DFFF730FF12
:103A6C0060B30420FFF7BAFEAA4BD3F8002244F24D
:103A7C0006039A4204D0A848A84A40F2A5212BE399
:103A8C00A74B1B681B78053B7A2B12D90320FFF739
:103A9C0049FF4FF49470FFF78BFE4FF48670FFF7DD
:103AAC0087FE4FF48070FFF783FE012000F04AFF81
:103ABC0004E09C4B01221A60FFF727FE954BD3F8CC
:103ACC005025D2B20C2A1CD80123934040F21D225F
:103ADC001A40002A46D113F4A05F12D00320FFF73E
:103AEC0021FF4FF49470FFF763FE4FF48670FFF7DD
:103AFC005FFE4FF48070FFF75BFE042000F022FFA6
:103B0C0030E08548854A4FF4347100F07BBD814B21
:103B1C00D3F800322BB18048834A40F2D72100F011
:103B2C0098BD7F4B1B681B78053B7A2B09D902206B
:103B3C0000F00CFFFFF75EFE4FF48670FFF738FEC7
:103B4C0010E0784B01221A60FFF7E2FD0AE0FFF764
:103B5C00DEFD07E0FFF7DAFD04E06F4840F28D511F
:103B6C0000F04FBD714B1B68002B00F0EB804FF445
:103B7C009470FFF71DFE664B1C78E4B2022CC0F06B
:103B8C00BF80032C40F2B280042C40F0B980614914
:103B9C00D1F8002244F206039A4204D05E48644AEB
:103BAC0040F25F3198E2D1F85025D2B20A2A00F2E5
:103BBC0097800123934040F21D221A407AB95E058A
:103BCC0040F18E800320FFF7ADFE4FF48670FFF7B7
:103BDC00EFFD4FF48070FFF7EBFD20467DE0D1F850
:103BEC0060354F4C382B59D0682B57D0102B70D1D7
:103BFC00236818785B7840000C309D0644BF2E304B
:103C0C0080B2000180B200F0EBFE00283DD02368AA
:103C1C005C7804F00704012C02D043D3032C19D197
:103C2C009B7803F00C03082B03D00C2B06D16822D5
:103C3C0000E03822374BC3F8602583E00320FFF700
:103C4C0071FE4FF48670FFF7B3FD4FF48070FFF7F1
:103C5C00AFFD18E000F03EFD40B1364A137843F05A
:103C6C00010313700520FFF7B9FD6BE00320FFF78C
:103C7C0059FE4FF48670FFF79BFD4FF48070FFF7F1
:103C8C0097FD022C5ED0012027E0FFF783FEFFF7A3
:103C9C009BFD0220FFF7A2FD05201EE0206800F02E
:103CAC0037FD28B1234B1A786FF300021A70D9E74D
:103CBC0000F010FD0028D0D10320FFF733FE4FF4A5
:103CCC008670FFF775FD4FF48070FFF771FD0320D0
:103CDC0003E0114840F2763105E000F033FE31E0AC
:103CEC000D484FF46171124A00F08CBC124B1B78DA
:103CFC0043BB0948114A124B40F2A15100F0AABC37
:103D0C00054840F2A55100F07CBC00BF38110040C2
:103D1C00CC000020001000408001010031FF0000A9
:103D2C00C00E002014100040D200010028110040E9
:103D3C0085FF0000CE0E0020D00E0020C3FF000037
:103D4C002F030100AA4C2368002B00F01E814FF4B6
:103D5C008670FFF72DFDA74B1B78023B072B00F25B
:103D6C001081DFE813F012010800270030008400F6
:103D7C00A200AC00DD00A04B1B681B78002B40F0B0
:103D8C000481FFF79DFD002800F0FF809B4BD3F8CA
:103D9C00002244F206039A4204D09948994A40F210
:103DAC00933199E10320FFF7BDFD4FF48070FFF7CD
:103DBC00FFFCEAE00320FFF7B5FD4FF48070FFF73E
:103DCC00F7FC01204BE08D49D1F8002244F20603A8
:103DDC009A4204D08A488C4A40F2AA317CE1D1F84C
:103DEC005025D2B20A2A3DD80123934040F2152225
:103DFC001A4052B9590535D50320FFF793FD4FF4FE
:103E0C008070FFF7D5FC042029E0D1F80034DBB238
:103E1C00012B1CD1784D2B685B789A0609D40320B2
:103E2C00FFF780FD4FF48070FFF7C2FCFFF7E8FD51
:103E3C00ABE000F057FC0028F1D0744B1B78DB078B
:103E4C00EDD42B68DA78724B0620DA7056E003203A
:103E5C00FFF768FD4FF48070FFF7AAFC022000F01A
:103E6C0071FD92E06648684A4FF47571CAE3634B82
:103E7C00D3F80022022A1A460BD0D3F8001244F2CF
:103E8C000303994205D05E48624A634B4FF4777145
:103E9C00E0E30023C2F80032C2F84435FFF7B0FD6E
:103EAC004FF48070FFF784FC27E0544BD3F80032BA
:103EBC00002B6AD05248594A40F2ED31C9E34F4DBC
:103ECC000023C5F80032C5F84435D5F8003223B1CB
:103EDC004B48534A4FF47D71BBE3524E4FF4807004
:103EEC00FFF766FC33685B7803F0200303F0FF00F8
:103EFC003BB90146024600F027FD0320FFF76EFC9C
:103F0C0043E00920FFF76AFC4FF4AE70FFF750FC5A
:103F1C003368DB781B0643F40073C5F8443634E091
:103F2C00364BD3F8001221B135483F4A40F20C41D0
:103F3C008FE3D3F85025D2B2022A04D030483A4A43
:103F4C0040F20D417CE3394A1268A2B1D3F8002447
:103F5C00D2B2012A0FD1284A106880F88010D3F809
:103F6C0048150378034401F07F01494213F9012CF1
:103F7C0000F0EAFC02E0022000F0E8FCFFF73AFC5B
:103F8C0003E01F4840F2D4513BE3294B1B68002B44
:103F9C0000F05F814FF48870FFF70AFC154B1B781B
:103FAC000C2B00F25281DFE813F00D00500154018C
:103FBC004700700070008C00BB00D100ED000E01BA
:103FCC00210134010D4BD3F8002222B10C48194ABF
:103FDC0040F221413DE3D3F8503513F0FF0F04D0EC
:103FEC000748144A40F2224125E1FFF75FFC30E11B
:103FFC000C110040CC000020C00E0020001000402E
:10400C008001010061010100E8FF0000CE0E0020DC
:10401C00C80E00200EFE0000B803010057FE000081
:10402C00FFFF0000C40E0020230001005C110040C3
:10403C00101100403AFE00009D4BD3F8002222B133
:10404C009C489D4A40F22C4103E3D3F85025984CF0
:10405C00D2B20C2AF9D0D4F8503513F0FF0F04D09B
:10406C009448954A40F23441E5E0FFF7D7FBFFF75F
:10407C00FFFB00F08FFB914B186000F043FBC0B2CC
:10408C00C4F80C054FF4887045E023682BB98948B7
:10409C008B4A8C4B40F24741DCE2854BD3F8002233
:1040AC0044F206039A4204D08248854A4FF489614F
:1040BC0012E00320FFF736FC4FF48670FFF778FB15
:1040CC0027E07B4BD3F8001244F20602914205D054
:1040DC0078487D4A40F255417C4BBBE244F20302E6
:1040EC007B4CC3F8002212236370744B1868FFF7E3
:1040FC0011FB08B9022363704FF48870FFF758FB6B
:10410C006B4BD3F85035DBB20A2B07D10320FFF7EA
:10411C0009FC4FF48070FFF74BFB9AE0012091E013
:10412C00634BD3F8002222B162486A4A40F27141D3
:10413C008FE2D3F8503513F0FF0F04D05D48654A79
:10414C0040F2724177E0FFF769FB82E0584CD4F8FB
:10415C00500510F0FF050AD141F20303C4F80032F8
:10416C0000F090FB01232360284600F09DFBD4F85F
:10417C00002241F203039A426BD04E48564A40F259
:10418C008441DDE14A4BD3F8002222B14948534A1D
:10419C0040F28D415DE2D3F8503513F0FF0F04D09F
:1041AC0044484E4A40F28E4145E0FFF737FB434B03
:1041BC001A681C461AB192F88030002B49D100F0D5
:1041CC00E9FA206045E03A4BD3F8002222B1394895
:1041DC00434A40F29F413CE2D3F8503513F0FF0FB5
:1041EC00B1D034483E4A4FF4946124E0304BD3F8BC
:1041FC00002222B12F483B4A40F2AB4129E2D3F8CE
:10420C00503513F0FF0F9ED02A48364A40F2AC418D
:10421C0011E0274DD5F8003223B12648324A4FF42D
:10422C00976116E2D5F8500510F0FF0405D021482F
:10423C002D4A40F2B9412D4B0CE200F023FB012337
:10424C002B60204600F030FB03E01A4840F20F616F
:10425C00D7E1274B1B68002B00F018814FF48070BE
:10426C00FFF7A6FA234B1B78023B0A2B00F20A81BC
:10427C00DFE813F00C010B000801080168007C005A
:10428C009700A300C800DE00F400094CD4F80032FB
:10429C0023B10848184A40F2C441DAE1D4F8503549
:1042AC00DBB2022B2AD00348134A40F2C541C7E1C6
:1042BC00001000408001010073FE0000C00E0020C1
:1042CC003800010074040100540001008C0301004B
:1042DC00C80E002097FE0000B8FE0000D4FE0000BF
:1042EC006E000100840001003B010100420401004A
:1042FC0000110040CC000020EEFE00009F4B1D681A
:10430C00002D00F0C38095F88030002B00F0BE80AB
:10431C00FFF7D6FA002800F0B980C023C4F8443562
:10432C001023C4F8603544F20603C4F80032944BF1
:10433C00C4F8045501221A60924BC4F80435FFF7F7
:10434C0097FAA3E0904BD3F8001244F20302914287
:10435C0005D08E488E4A8F4B40F2D9417AE1022229
:10436C00C3F800220022C3F844258FE0864CD4F811
:10437C00003223B18548884A40F2E34169E1D4F820
:10438C005035DBB2022B04D08048834A40F2E44122
:10439C0056E10820FFF722FA41F20303C4F8003279
:1043AC0059E0794BD3F8002241F203039A426DD0C5
:1043BC0076487A4A40F2F241C2E0734BD3F80022BD
:1043CC0022B17248764A4FF49F6142E1D3F85025EE
:1043DC00D2B2022A04D06D48714A40F2F9412FE161
:1043EC00664A126812B192F8801029B9032000F0C5
:1043FC00ADFAFFF7FFF949E0C3F80425604B012241
:10440C001A6043E0604BD3F8002222B15F48654A42
:10441C0040F209511DE1D3F85035DBB2022B04D028
:10442C005A48604A40F20A510AE101225E4BE7E722
:10443C00554BD3F8002222B154485C4A40F211513A
:10444C0007E1D3F85035DBB2022B04D04F48574A62
:10445C0040F21251F4E00122554BD1E74A4BD3F80C
:10446C00002222B14948534A40F21951F1E0D3F8E5
:10447C005035DBB20A2B09D044484E4A4E4B40F221
:10448C001A51E7E0414840F24161BAE04B4B1B68DE
:10449C00002B34D04FF4A270FFF78AF9484B1B78ED
:1044AC00023B092B27D8DFE803F02A2A26262626EA
:1044BC00052A2609012000F0F7F920E0324BD3F849
:1044CC00002222B131483F4A40F22A51C1E0D3F8D0
:1044DC005035DBB2022B04D02C483A4A40F22B5117
:1044EC00AEE0012000F036FA0320FFF777F9364BE7
:1044FC0001221A6003E025484FF4CD6181E0334B73
:10450C001B68002B00F080804FF4A470FFF750F96B
:10451C002B4B1B78DBB2082B07D00B2B25D0022B97
:10452C0072D01A4840F282616BE0174BD3F800123C
:10453C0041F20302914205D01448254A40F236510B
:10454C00244B87E0D3F85025D2B2022A04D00F486E
:10455C001F4A40F2375173E00022C3F800220120B9
:10456C00C3F8442500F0F2F944E0074BD3F80002FD
:10457C00A0B30648184A40F244516AE0C00E00202D
:10458C0008100040C80E00200010004080010100FF
:10459C001AFF0000E30301009B000100B9000100B9
:1045AC0023FE000057FF0000241000401101010001
:1045BC002C100040EE000100C70401004411004023
:1045CC00CC000020250101001010004048110040D3
:1045DC006AFF00009D040100A1FF0000D3F85035D4
:1045EC00DBB2022B04D02C482C4A40F2455127E078
:1045FC0000F0B0F90320FFF7F1F8294B01221A6003
:10460C0002E0284A284B25E0284B1B68002B42D09F
:10461C004FF49E70FFF7CCF8254B1B780A2B05D076
:10462C001D48244A244B4FF4AA6113E0234BD3F8C2
:10463C005025D2B2022A05D017481E4A40F25151D9
:10464C001F4B07E0D3F8002232B11348194A40F24D
:10465C0052511C4B03F072FDD3F868361A4AD8B28B
:10466C0011781A4B88421B6838BF0846107033B15A
:10467C001846FFF79FF970B10122154B0AE000F0C4
:10468C0067F900F037F8FFF7D7F80320FFF7A6F823
:10469C00034B01221A6070BD80010100A1FF0000D4
:1046AC0010100040C3FF0000F2FD00003C11004060
:1046BC00CC000020CFFF0000F804010000100040E7
:1046CC001104010009030100CF0E0020BC0E0020D4
:1046DC0024100040024B587C00F00100704700BFD2
:1046EC00D10E0020024B587CC0F34000704700BF35
:1046FC00D10E0020024B587CC0F38400704700BFE1
:10470C00D10E0020014B93F900007047D10E002010
:10471C0037B5051D04461B49284602220AF049FC00
:10472C0050B9A37803F00C03082B11D00C2B23D118
:10473C00A01D1549082219E0144B28461B88ADF81A
:10474C000030694602220AF034FC0028E9D013E05C
:10475C00063420460E4902220AF02BFC70B10B4B9A
:10476C001B88ADF80430204601A902220AF021FC76
:10477C00B0FA80F0400902E0002000E0012003B014
:10478C0030BD00BFD20E0020D60E00202105010046
:10479C00D40E00200022064B02EBC210184490F8F5
:1047AC0080301BB90132102AF5D11846704700BF72
:1047BC00281D0020054AD1789278012303FA01F1D3
:1047CC009340034A0B43C2F804357047E30E0020B4
:1047DC0000F00140114B9B799B0003F1804303F5E2
:1047EC00C0430002D3F8102522F4991222F4F85297
:1047FC00C3F81025D3F8102500F47C5042F4403255
:10480C000905104301F480110143C3F81015D3F8C6
:10481C00102542F00302C3F810257047E30E002068
:10482C00044B1A78D20702D45B78DB0701D500F071
:10483C0095B87047E30E002010B5104C2378DA07BA
:10484C0002D46378DB0717D500F094F8A379A1782C
:10485C009B0003F1804303F5C043D3F8102522F0ED
:10486C000302C3F81025E278012303FA02F28B400D
:10487C001343034AC2F8083510BD00BFE30E0020F5
:10488C0000F0014008B5064B1A78D20702D45B78C9
:10489C00DB0703D500F080F8024B186008BD00BFA1
:1048AC00E30E0020EC0E002038B5124B05461878AC
:1048BC00C3071DD580F00201C1F340018008FFF74A
:1048CC0089FFFFF777FF0C4B0C4AD3F84445C4F330
:1048DC0009031468812B8ABF193C7C34E41815B188
:1048EC0000F062F8241A2046BDE8384000F04EB8BB
:1048FC0038BD00BFE30E002000100040EC0E00207D
:10490C0038B50D4B05465878C30714D580F0020115
:10491C00C1F340018008FFF75DFFFFF74BFF074B2A
:10492C001C687C3415B100F03FF8241A2046BDE811
:10493C00384000F02BB838BDE30E0020EC0E002000
:10494C00FEF7C4BDFEF7F4BDFEF718BEFEF72CBE95
:10495C00FEF738BEFEF7DDBE00F028B8034B1A7820
:10496C001AB9034901220A601A707047F00E002030
:10497C0000800040034B01221A60034B00221A7086
:10498C00704700BF04800040F00E0020014BC3F8BC
:10499C004C05704700800040024B01229A64D3F80A
:1049AC0048057047008000400020704708B5084B50
:1049BC001A782AB90748084A084B472103F0BEFB6E
:1049CC0000221A704FF0804301225A6008BD00BFCC
:1049DC00F10E00204105010023050100F405010042
:1049EC0008B5054B1B782BB90448054A054B5121DA
:1049FC0003F0A4FB012008BDF10E002041050100CD
:104A0C0001060100F40501004FF0FF30704782B041
:104A1C0001904FF08042019BC2F8083300BF02B0F6
:104A2C00704784B00346ADF80630BDF8063003F18C
:104A3C00804300221A60BDF8063003F180431B68E6
:104A4C000393039B00BF04B0704782B00346ADF8DC
:104A5C000630BDF8063003F180431B68002B14BFF1
:104A6C0001230023DBB2184602B0704784B00190DA
:104A7C00019B1B680393039B002B03D0039B1A68B9
:104A8C00019B1A60039B184604B0704700B585B0B3
:104A9C0003468DF807309DF80730002B02D10C4BE4
:104AAC00039301E00B4B03930398FFF7DFFF029096
:104ABC00029B002B06D0029B5B689DF807201046DA
:104ACC009847F1E700BF00BF05B05DF804FB00BFDD
:104ADC00FC0E0020040F002008B54FF48070FFF787
:104AEC00B4FF0346002B0CD04FF48070FFF799FFF6
:104AFC000120FFF78CFF0E4B01225A700020FFF7AC
:104B0C00C5FF4FF48270FFF7A0FF0346002B0CD0BB
:104B1C004FF48270FFF785FF0220FFF778FF044BFC
:104B2C0001229A700120FFF7B1FF00BF08BD00BF42
:104B3C00F40E002082B003468DF8073007499DF92A
:104B4C0007305B099DF8072002F01F02012000FAD4
:104B5C0002F241F8232000BF02B0704700E100E0F0
:104B6C0082B003468DF8073008499DF907305B0980
:104B7C009DF8072002F01F02012000FA02F26033B8
:104B8C0041F8232000BF02B0704700BF00E100E0F5
:104B9C0082B0034600918DF807309DF90730002B49
:104BAC000CDA0D499DF8073003F00F03043B009A13
:104BBC00D2B25201D2B20B441A7609E007499DF9E0
:104BCC000730009AD2B25201D2B20B4483F80023C0
:104BDC0000BF02B0704700BF00ED00E000E100E054
:104BEC0000B583B003460A468DF8073013468DF89E
:104BFC0006309DF80630072B04D90D494FF49270FE
:104C0C00FDF77DFC9DF806209DF9073011461846EE
:104C1C00FFF7BEFF9DF907301846FFF7A1FF9DF97E
:104C2C0007301846FFF786FF00BF03B05DF804FBA2
:104C3C006006010000B583B00346ADF80630BDF840
:104C4C000630184600F026F803461B68012B0CBFF3
:104C5C0001230023DBB2184603B05DF804FB00B55A
:104C6C0085B00346ADF80630BDF80630184600F0A6
:104C7C0011F803461A4600231360BDF80630184697
:104C8C0000F008F803461B680393039B00BF05B0B4
:104C9C005DF804FB82B00346ADF80630BDF8063073
:104CAC0003F1804303F5C043184602B0704700007F
:104CBC0082B00190034BD3F80423019B1340184698
:104CCC0002B070470060004082B00190054A019B21
:104CDC0003F5A27352F823301B0A03F03F03184666
:104CEC0002B070470060004082B00190064A019B00
:104CFC0003F5A27352F823301B0C03F00303DBB251
:104D0C00184602B0704700BF0060004000B583B089
:104D1C000190019B1B682F2B04D90B494FF4E870B1
:104D2C00FDF7EDFB019B1B681F2B02D84FF0A04336
:104D3C0006E0019B1B6803F01F02019B1A60034BEA
:104D4C00184603B05DF804FB9C06010000030050FC
:104D5C0000B585B001900B468DF8033001AB1846B9
:104D6C00FFF7D4FF0390019A0199039B01F5E071C1
:104D7C0053F8213023F44031039B02F5E07243F8E1
:104D8C002210019A0199039B01F5E07153F821302F
:104D9C009DF8031009041943039B02F5E07243F8D4
:104DAC00221000BF05B05DF804FB00B585B0019082
:104DBC0001AB1846FFF7AAFF0390019A039B02F57B
:104DCC00E07253F822301B0C03F00303DBB21846DD
:104DDC0005B05DF804FB82B00190019BD3F810354F
:104DEC00184602B07047000000B589B003900291DC
:104DFC000192174A05AB92E8030083E80300039A7B
:104E0C00029B1344022B04D912494FF43A70FDF75C
:104E1C0076FB039B079311E0079B9B0008AA1344A6
:104E2C0053F80C3C1846FFF7D6FF0246019B1A605C
:104E3C00019B04330193079B01330793039A029B55
:104E4C001A44079B9A42E7D800BF09B05DF804FBEF
:104E5C00D00601009C06010084B001900091009BDB
:104E6C000393019BDB080293019B03F0070301935F
:104E7C000122019B02FA03F30399029A0A44127865
:104E8C001340184604B0704784B001900091009B09
:104E9C000393019BDB080293019B03F0070301932F
:104EAC00039A029B13440399029A0A44127851B252
:104EBC000120019A00FA02F252B20A4352B2D2B263
:104ECC001A7000BF04B0704782B00190044A019B75
:104EDC001344303393F90030184602B0704700BFCA
:104EEC00080F002082B00190034A019B52F8233036
:104EFC00184602B0704700BF080F002000B599B0EB
:104F0C000023179306AB00221A605A604FF480738B
:104F1C00ADF85630012314930023169321E0BDF80D
:104F2C0056301846FFF786FE0346002B0ED0149819
:104F3C00FFF7BEFE0346002B08D0BDF856301846CE
:104F4C00FFF78DFE179A149B13431793149B5B006A
:104F5C001493BDF856300433ADF85630169B01331C
:104F6C001693169B072BDAD94FF4BE70FFF762FE2F
:104F7C000346002B0DD04FF4BE70FFF770FE179B4D
:104F8C0043F00043179306AB1A4602210020FFF7AB
:104F9C002BFF179BDBB2002B29D00123149300238A
:104FAC00169321E0149A179B1340002B16D01698D9
:104FBC00FFF78AFE11901698FFF796FE03468DF8C0
:104FCC0043301698FFF78EFF0F900F9B002B05D0E8
:104FDC009DF843200F9B114611989847149B5B003A
:104FEC001493169B01331693169B072BDAD9179B38
:104FFC00002B80F2F08000238DF84B3004AB0022A4
:10500C001A605A60002313930AE0139B9B0018AAA2
:10501C0013444FF0FF3243F8582C139B0133139376
:10502C00139B012BF1D900238DF84B3000231693E1
:10503C0078E06B4A169B1344603393F900308DF87B
:10504C003B309DF83B3023F0C0030D93644A169B14
:10505C001344603393F90030B3F1FF3F5FD002ABE0
:10506C0019460D98FFF7F8FE0346002B57D09DF814
:10507C003B309B098DF833300D98FFF725FF034625
:10508C001846FFF72FFF0B900B9B002B03D19DF8BD
:10509C003330032B43D19DF83330032B04D104ABB5
:1050AC0019460D98FFF7F0FE0D98FFF77EFE0346AC
:1050BC008DF82B3006AB19460D98FFF7CDFE0990F5
:1050CC00099B002B03D09DF82B30022B06D0099B9B
:1050DC00002B24D19DF82B30032B20D19DF833309D
:1050EC00032B13D19DF82B30022B01D1032300E0AD
:1050FC0002238DF823309DF8233019460D98FFF7C5
:10510C0027FE9DF84B3001338DF84B300B9B002B59
:10511C0005D09DF833200B9B11460D989847169B94
:10512C0001331693169B032B83D99DF84B30002B20
:10513C004CD001238DF84A306B461A4602210020D0
:10514C00FFF752FE0023139314E0139B9B0018AA45
:10515C00134453F8602C139B9B0018A90B4453F871
:10516C00483C9A4203D000238DF84A3005E0139B4B
:10517C0001331393139B012BE7D99DF84A30002B75
:10518C0003D000238DF84B3020E0002313931AE05A
:10519C00139B9B0018AA134453F8602C139B9B0081
:1051AC0018A90B4443F8482C139B9B0018AA1344D2
:1051BC0053F8502C139B9B0018A90B4443F8582C04
:1051CC00139B01331393139B012BE1D99DF84B30A7
:1051DC00002B7FF428AF00BF19B05DF804FB00BFB3
:1051EC00080F002082B001900B468DF803309DF81B
:1051FC000330019A134401221A6000BF02B07047B9
:10520C0082B001900B468DF803309DF80320019B72
:10521C001344184602B0704784B001900B46ADF8A9
:10522C000230BDF80230019A134400221A60BDF816
:10523C000230019A13441B680393039B00BF04B014
:10524C00704782B001900B46ADF80230BDF80230C9
:10525C00019A13441B68002B14BF01230023DBB2FB
:10526C00184602B0704782B001900091019B009AE1
:10527C00C3F8002200BF02B0704782B001900091C9
:10528C00019B009AC3F8002300BF02B0704782B0A4
:10529C000190019B0122C3F8002500BF02B07047AA
:1052AC0084B00190009100238DF80F3011E09DF82F
:1052BC000F209DF80F309B0000990B441968019B3F
:1052CC0002F5AC7243F822109DF80F3001338DF8C3
:1052DC000F309DF80F30032BE9D900BF04B0704795
:1052EC0000B583B00190084611461A4603468DF866
:1052FC0003300B468DF802301346ADF80030BDF983
:10530C000030002B04DA0C4940F26E20FDF7F7F860
:10531C009DF80320019BC3F80C259DF80220019BEE
:10532C00C3F80425BDF80020019BC3F8082500BF75
:10533C0003B05DF804FB00BF1C07010000B585B08D
:10534C0003900B4601928DF80B30019B002B04D17E
:10535C00144940F27920FDF7D2F8019B1A689DF8A8
:10536C000B301946039800F01FF8019B9A889DF8A2
:10537C000B301946039800F03DF8019B9A689DF894
:10538C000B301946039800F069F8019BDA689DF818
:10539C000B301946039800F089F800BF05B05DF892
:1053AC0004FB00BF1C07010000B585B003900B4641
:1053BC0001928DF80B309DF80B30012B04D90C4960
:1053CC0040F28520FDF79BF8019B002B04D1084986
:1053DC0040F28620FDF793F89DF80B30019A039963
:1053EC0029335B010B441A6000BF05B05DF804FB68
:1053FC001C07010000B583B001900B468DF80330FB
:10540C001346ADF800309DF80330012B04D9124936
:10541C0040F28E20FDF773F8BDF80030002B04D15C
:10542C000D4940F28F20FDF76AF8BDF90030002BD2
:10543C0004DA09494FF42470FDF761F89DF8033044
:10544C00BDF80020019929335B010B4404331A6029
:10545C0000BF03B05DF804FB1C07010000B585B06C
:10546C0003900B4601928DF80B309DF80B30012BFD
:10547C0004D90D494FF42670FDF741F8019BB3F1A7
:10548C00807F04D3084940F29920FDF738F89DF845
:10549C000B30039A5B01134403F5A563019A1A6060
:1054AC0000BF05B05DF804FB1C07010000B585B01A
:1054BC0003900B4601928DF80B309DF80B30012BAD
:1054CC0004D90D4940F2A120FDF719F8019BB3F165
:1054DC00807F04D3084940F2A220FDF710F89DF814
:1054EC000B30039A5B01134403F22C53019A1A609C
:1054FC0000BF05B05DF804FB1C07010082B00190F1
:10550C000B468DF8033013468DF802309DF80320BE
:10551C009DF802301B021A43019BC3F8102500BFF3
:10552C0002B0704782B001900B46ADF80230BDF866
:10553C000220019BC3F8142500BF02B0704784B051
:10554C000190019B1B0B8DF80F309DF90F30184605
:10555C0004B0704782B00190019B03F06043B3F13B
:10556C00005F0CBF01230023DBB2184602B070476A
:10557C0000B583B00190019B1B682F2B04D90B49FC
:10558C004FF4E870FCF7BBFF019B1B681F2B02D884
:10559C004FF0A04306E0019B1B6803F01F02019B28
:1055AC001A60034B184603B05DF804FB500701006A
:1055BC000003005000B585B00190084611461A460C
:1055CC0003468DF803300B468DF8023013468DF8E8
:1055DC00013001AB1846FFF7CBFF0390019A9DF801
:1055EC0003109DF802305B0019439DF801309B00BD
:1055FC0019439DF818301B0219439DF81C301B04ED
:10560C001943039B02F5E07243F8221000BF05B06A
:10561C005DF804FB00B585B00390002301930023D3
:10562C0000930023012201210398FFF7C3FF00BF61
:10563C0005B05DF804FB00B585B0019001AB1846D0
:10564C00FFF796FF0390019B012202FA03F3194620
:10565C00039800F018F800BF05B05DF804FB00B526
:10566C0085B0019001AB1846FFF782FF0390019BB8
:10567C00012202FA03F31946039800F00EF800BF5A
:10568C0005B05DF804FB82B001900091019B009A7B
:10569C00C3F8082500BF02B0704782B0019000919A
:1056AC00019B009AC3F80C2500BF02B0704700B5EF
:1056BC0089B00190009100238DF81F3050E09DF8C7
:1056CC001F30009AD35C8DF81E309DF81E30FF2BD6
:1056DC0038D09DF81E3003F08003002B14BF01233B
:1056EC0000238DF81D309DF81F309DF81E2022F0F0
:1056FC0080029B0008A90B4443F8142C9DF81D3024
:10570C00002B0AD09DF81F309B0008AA134453F8B5
:10571C00143C1846FFF78FFF09E09DF81F309B00E3
:10572C0008AA134453F8143C1846FFF798FF9DF849
:10573C001F309B0008AA134453F8143C1846FFF77B
:10574C0069FF08E09DF81F309B0008AA13444FF036
:10575C00FF3243F8142C9DF81F3001338DF81F30A5
:10576C009DF81F30032BAAD9019B1B6803AA114675
:10577C001846FFF795FD00BF09B05DF804FB00006B
:10578C0000B587B0039002910192029B002B03D1CC
:10579C003A498620FCF7B3FE039B1B79DB00384AA1
:1057AC0013440593059B1B79DBB2002B03D0082314
:1057BC000493049B5DE0059B019A1A60029903987F
:1057CC00FFF775FF039B1B681846FFF760FD039BF3
:1057DC001868029B5979029B9A79029B1B89FFF7E7
:1057EC007FFD039B1868029B997A029BDB7A1A4611
:1057FC00FFF784FE039B1B6800211846FFF733FD5F
:10580C00039B1B6800211846FFF737FD039B1B68A1
:10581C004FF48E711846FFF7FFFC039B1B684FF487
:10582C0088711846FFF7F8FC039B1B684FF48A71CC
:10583C001846FFF7F1FC039B1B684FF48271184666
:10584C00FFF7EAFC059B1B68002B0CD0039B1B6825
:10585C001846FFF774FE03461A46029B1B7919463D
:10586C001046FFF7BDF9059B01221A710023049322
:10587C00049B184607B05DF804FB00BF88070100C5
:10588C00700F002000B587B00390029111461A46A4
:10589C000B468DF8073013468DF80630029B02221A
:1058AC001A71029B9DF807205A71029B1B68002BF2
:1058BC0025D0822305939DF8073003F00403002BB9
:1058CC0003D0059B43F0100305939DF8073003F0BC
:1058DC000803002B03D0059B43F0200305939DF890
:1058EC00073003F01003002B03D0059B23F080033B
:1058FC000593039B1B6805991846FFF7BEFC039B99
:10590C001B684FF482711846FFF786FC9DF907302F
:10591C00002B0ADA039B1B689DF8062011461846DB
:10592C00FFF76EFC0490049B08E0039B1B689DF83A
:10593C00062011461846FFF755FC0023184607B001
:10594C005DF804FB00B589B00390029100931346F7
:10595C00ADF80630039B1B79DB003C4A13440693DD
:10596C00069B1B79DBB2002B04D139494FF48F70A5
:10597C00FCF7C5FDBDF80630002B04D1344940F2CC
:10598C001F10FCF7BCFD029B1B681846FFF7E2FDDD
:10599C000346002B04D12E494FF49070FCF7AFFD59
:1059AC00039B1B68029A00211846FFF7C7FC039B58
:1059BC001B68029A01211846FFF7C0FCBDF806309F
:1059CC0003F00103002B14BF012300238DF81730C3
:1059DC00039B1868BDF806305B089AB29DF8173027
:1059EC009BB213449BB21946FFF79CFD009B03F03E
:1059FC000103002B02D0102307930FE0009B03F050
:105A0C000203002B08D09DF81730002B01D008237F
:105A1C0000E00423079301E000230793039B1B681A
:105A2C0007991846FFF71FFC009BDAB29DF8173058
:105A3C00002B01D00C2300E0082306990398FFF7F4
:105A4C0021FF0346184609B05DF804FB700F0020D7
:105A5C008807010000B583B0019000914FF4887164
:105A6C000198FFF7EEFB0346002B12D04FF4887120
:105A7C000198FFF7D1FB009B5B7903F00403002B2B
:105A8C0007D0009B1B68002B03D0009B1B680120D8
:105A9C0098474FF48A710198FFF7D3FB0346002B0C
:105AAC0012D04FF48A710198FFF7B6FB009B5B791B
:105ABC0003F00803002B07D0009B1B68002B03D0BE
:105ACC00009B1B68022098474FF48E710198FFF7DA
