:100000000000042059020000B1020000B302000009
:10001000B5020000B7020000B902000000000000B5
:10002000000000000000000000000000BB02000013
:10003000BD02000000000000BF020000C10200007D
:1000400099FB0200152A020041140200A92C0300AA
:10005000C12C0300CF020000BDFF0200C90E030047
:10006000F11A0300091B0300211B0300DB0200003F
:10007000DD020000F1100200E1020000E3020000D6
:10008000E5020000512F0000E9020000EB02000031
:10009000912F0000EF020000F1020000F3020000C7
:1000A000F5020000F7020000391B0300511B03009A
:1000B000050D0300FF020000C3020000C3020000A0
:1000C000010300001D0D0300350D030007030000B0
:1000D000650902000B0300000D0300000F03000080
:1000E00011030000130300001503000017030000B4
:0800F000C30200001903000027
:1000F800364937480A1A02D0072291438D463549B6
:1001080035480A1A06D00722914381F3098802224A
:1001180082F3148831483249324A00F045F83248AF
:100128003249334A00F040F832483349334A00F044
:100138003BF833483349344A00F036F833483449F9
:10014800344A00F031F834483449354A00F02CF884
:1001580034483549354A00F027F8354835490022F2
:1001680000F02DF834483549002200F028F83448CA
:100178003449091A082903DB0022026004300160AF
:10018800314A90471F482049884205D00268043008
:1001980003B4904703BCF7E700208646EC460020EE
:1001A80000212A4A9047FEE7884207D0521A05D014
:1001B800037801300B700131013AF9D17047884258
:1001C80002D002700130FAE77047000000000420F6
:1001D80000E0032000000420000004207453050000
:1001E800780000207C0400201C0300001C03000091
:1001F80030A6040074530500780000207800002021
:10020800F8A60400F8A60400F8A60400F8A604005E
:10021800F8A60400F8A60400F8A60400F8A604004E
:1002280074530500785705007C0400207C040020E6
:100238007C04002044FD002044FD002048FD0020EF
:1002480048FD002048FF00207D02000045220000F4
:100258000F484FF00701884385460E4880470E48EF
:10026800016841F470010160BFF34F8FBFF36F8FD6
:10027800FFF73EBF09480A490A4A884207D0521A7E
:1002880005D0037801300B700131013AF9D170477C
:10029800000004202141030088ED00E080A604004E
:1002A8000000002078000020FEE7FEE7FEE7FEE7FA
:1002B800FEE7FEE7FEE7FEE7FEE7FEE7FEE7FEE70E
:1002C800FEE7FEE7FEE7FEE7FEE7FEE7FEE7FEE7FE
:1002D800FEE7FEE7FEE7FEE7FEE7FEE7FEE7FEE7EE
:1002E800FEE7FEE7FEE7FEE7FEE7FEE7FEE7FEE7DE
:1002F800FEE7FEE7FEE7FEE7FEE7FEE7FEE7FEE7CE
:10030800FEE7FEE7FEE7FEE7FEE7FEE7FEE7FEE7BD
:04031800FEE700BF3D
:10031C00004870473CFD0020FEE708B533F0D8FEDE
:10032C0000BF08BD00B589B0039002910192019BFA
:10033C00002B22D0002307930A230693029A079BD3
:10034C001344019A1946002033F00EFE0590079ACB
:10035C00059B13440793019A059BD31A0193059BA4
:10036C00002B05D1069B013B0693069B002B03D06B
:10037C00019B002BE2D100E000BF00BF09B05DF88B
:10038C0004FB000000B585B003900291054B00936F
:10039C004023054A0299039800F012F800BF05B0FB
:1003AC005DF804FB310300007C04002082B0019056
:1003BC0000BF02B0704782B0019000BF02B070471E
:1003CC0000B5A1B00590049103920293049803F038
:1003DC0080FE039B1593029B169300231793002317
:1003EC008DF8603000231993229B1A9300231F93DE
:1003FC000FA91F9B0822049803F026FF08231F93C4
:10040C00119B1293109B9BB2ADF84C3000238DF8CE
:10041C0050309DF83C3003F00303DBB2012B32D19A
:10042C000F9BC3F395231D939DF83C30C3F3C2037C
:10043C00DBB28DF84E309DF83C30C3F38003DBB259
:10044C00002B14BF01230023DBB28DF84F30BDF815
:10045C003C30C3F38313DBB21C931C9B9A0009A999
:10046C001F9B049803F0F0FE1C9B9B001F9A1344E7
:10047C001F9312AA09A915AB009313461C9A1D9839
:10048C0000F06EFE3BE09DF83C3003F00303DBB262
:10049C00022B34D1BDF83E30C3F389139BB21E93AB
:1004AC009DF83C30C3F3C203DBB28DF84E309DF89F
:1004BC003C30C3F38003DBB2002B14BF01230023B9
:1004CC00DBB28DF84F301E9B082B28BF08231B93E3
:1004DC0007A91F9B1B9A049803F0B6FE1F9A1B9B3F
:1004EC0013441F931E9A1B9BD31A1E9315AB12AA6F
:1004FC0007A81B9900F0D6FE1E9B002BE3D1049895
:10050C0003F0F6FD00BF21B05DF804FB82B0019052
:10051C00019B01225A7200BF02B0704700B583B034
:10052C004FF0FF330193FFF7F8FE0421084800F069
:10053C0051FD0190019B002B03DA0649412002F08A
:10054C00C9FF0348FFF7E2FF00BF03B05DF804FBEF
:10055C007800002004A7040000B583B0019000913E
:10056C00019B1B681B6800990198984700BF03B05A
:10057C005DF804FB00B583B00190019B1B685B68C0
:10058C000198984700BF03B05DF804FB82B001905E
:10059C000B468DF80330019B9DF803201A7200BFA7
:1005AC0002B0704782B00190019B1B7A184602B0D2
:1005BC00704782B00190019B01225A7200BF02B0B9
:1005CC00704782B00190019B5B7A184602B070476D
:1005DC0010B487B001900091019B009A53E8004F32
:1005EC0044EA020043E8000191F0000FF6D10594B3
:1005FC0004900391049B184607B05DF8044B7047B8
:10060C0010B487B001900091019B009A53E8004F01
:10061C0004EA020043E8000191F0000FF6D10594C2
:10062C0004900391059B184607B05DF8044B704786
:10063C0000B583B0019001210198FFF7C9FF034673
:10064C00184603B05DF804FB00B583B0019000219F
:10065C000198FFF7D5FF0346184603B05DF804FB7D
:10066C0000B587B001901F4BFF229A601D4B0022F2
:10067C001A601C4B00225A601A4B0022C3F8182433
:10068C00184B0022C3F81424164B002283F81C24A8
:10069C00154803F083FC0490049B002B01D0049BB1
:1006AC001CE0124A124BD31ADB0803930023059368
:1006BC000FE0059A13465B0013449B001A460D4B42
:1006CC0013440293059B9AB2029B1A80059B01333B
:1006DC000593059A039B9A42EBD30023184607B067
:1006EC005DF804FB8C05002058A7040080A60400CC
:1006FC0030A6040000000020024A034BD31ADB088A
:10070C001846704780A6040030A6040000B587B0D8
:10071C0001900B468DF803309DF80330002B23D04D
:10072C00FFF7EAFF04900023059317E0059A1346A0
:10073C005B0013449B001A460E4B13440393039B1C
:10074C005B881A46019B1B689A4204D1019B059A4F
:10075C001A60002309E0059B01330593059A049B5D
:10076C009A42E3D3052300E00023184607B05DF856
:10077C0004FB00BF0000002000B585B001900B46C3
:10078C008DF803309DF8032001AB11461846FFF796
:10079C00BDFF0346002B07D1019BDB00054A134428
:1007AC000393039B1B6800E00023184605B05DF81B
:1007BC0004FB00BF30A6040084B001900B468DF8FA
:1007CC000330019BDB00174A134402939DF803305E
:1007DC00013B032B1CD801A252F823F0F9070000AF
:1007EC0001080000090800001308000000238DF820
:1007FC000F3011E000238DF80F300DE0029B1B79B8
:10080C008DF80F3008E0029B5B798DF80F3003E018
:10081C0000238DF80F3000BF9DF80F30184604B040
:10082C00704700BF30A6040000B589B04148FFF7FF
:10083C00FFFE4148FFF7FCFE404B5B6807933F4BC4
:10084C009B680493079A049B134002339B003B4A1A
:10085C001344043306931BE0079B01330793069B59
:10086C005B88C3F389139BB21A46069B1B88C3F3A0
:10087C0089139BB213441A46079B13440793079A98
:10088C00049B134002339B002C4A134404330693FD
:10089C00069B1B7803F00303DBB2002BDCD0002398
:1008AC00059311E0059B9B006A461A44079B591C53
:1008BC00079104990B40214902339B000B445B6860
:1008CC001360059B01330593059B012BEAD99DF819
:1008DC000030C3F30103DBB2012B0CD0022B14D17B
:1008EC00BDF80230C3F389139BB203339B08079AFC
:1008FC00134407930FE0BDF80030C3F38313DBB24E
:10090C001A46079B1344079305E00D4940F24D101E
:10091C0002F0E0FD00BF0848FFF796FE0390039B32
:10092C00002B02D0054A079B536000BF09B05DF84D
:10093C0004FB00BFA4090020A00900208C050020A6
:10094C007CA7040010B586B003900291019200932D
:10095C00009B5A1C0092089A134002339B00294AB0
:10096C00134404330593059A1378012161F30103B1
:10097C001370039B03F01003002B14BF01230023FF
:10098C00D9B2059A137861F382031370039BDBB21F
:10099C0003F00703D9B2059A137861F3C5031370FA
:1009AC00019BDBB203F00F03D9B2059A138861F3F4
:1009BC0089131380029BC3F31501059A136861F325
:1009CC009F231360039B1B0CADF81230BDF8124033
:1009DC00FFF792FE03469C4204D30B4940F2691088
:1009EC0002F078FD009B5A1C0092089A1340BDF847
:1009FC001220044902339B000B445A60009B18469A
:100A0C0006B010BD8C0500207CA7040000B589B091
:100A1C0001900091019B023306930223059301235D
:100A2C008DF81330002002F089FB194B1A68009BDB
:100A3C001A60174B9A68164B5968154B1B68CB1AE2
:100A4C00134401330793069A059B134403930BE05D
:100A5C00FFF7EAFE0E4B9A680D4B59680C4B1B685E
:100A6C00CB1A134401330793039A079B9A42EFD88E
:100A7C00074B1A68069B1344054A1360002002F0CA
:100A8C0071FB9DF81330184609B05DF804FB00BFEC
:100A9C008C05002000B58BB0059004910392029355
:100AAC001E4B9B68089307AB19460298FFF7AEFFE5
:100ABC000346002B23D0079A089B00931346029AF7
:100ACC0004990598FFF73EFF03460793002309930B
:100ADC0011E0079B5A1C0792089A1340099A92003E
:100AEC0003990A4412680D4902339B000B445A6067
:100AFC00099B01330993099A029B9A42E9D3074B4C
:100B0C0093F81C34002B05D000BF00F07FF803468F
:100B1C00002BFAD100BF0BB05DF804FB8C05002054
:100B2C0000B583B001900091002300220099019838
:100B3C00FFF7B0FF00BF03B05DF804FB00B587B052
:100B4C00039002910192019B059305AA012302993E
:100B5C000398FFF79FFF00BF07B05DF804FB00B5DB
:100B6C0087B00390029101920093019B0493009B28
:100B7C00059304AA022302990398FFF78BFF00BF89
:100B8C0007B05DF804FB00B589B0039002910192A7
:100B9C000093019B0493009B05930A9B06930B9B6C
:100BAC00079304AA042302990398FFF773FF00BF6D
:100BBC0009B05DF804FB00B58BB003900291019273
:100BCC000093019B0493009B05930C9B06930D9B38
:100BDC0007930E9B08930F9B099304AA0623029973
:100BEC000398FFF757FF00BF0BB05DF804FB000044
:100BFC00054B5A68044B1B689A420CBF0123002317
:100C0C00DBB21846704700BF8C05002000B597B0CA
:100C1C00FFF7EEFF0346002B01D000239FE19D4B15
:100C2C000022C3F81824BFF34F8F9A4B5B681593BF
:100C3C00984B9B680E93159A0E9B134002339B00A6
:100C4C00944A1344043314930023139300231293F4
:100C5C0000230D931BE0159B01331593149B5B88AC
:100C6C00C3F389139BB21A46149B1B88C3F38913D5
:100C7C009BB213441A46159B13441593159A0E9B5D
:100C8C00134002339B00834A134404331493149B84
:100C9C001B7803F00303DBB2002BDCD00023119391
:100CAC0011E0119B9B006A461A44159B591C159127
:100CBC000E990B40774902339B000B445B68136021
:100CCC00119B01331193119B012BEAD99DF8003034
:100CDC0003F00303DBB2022B40F09C80BDF8023022
:100CEC00C3F389139BB20C93BDF80230C3F3891381
:100CFC009BB2502BA8BF50230B930B9B9BB2C3F3FF
:100D0C0009039AB2BDF8023062F38F13ADF80230CA
:100D1C000B9B08330A939DF80030C3F3C203DBB27C
:100D2C000D930A995C4803F044F91390139B002B24
:100D3C0000F0D480139803F0CCF96946129B08227A
:100D4C00139803F06FFA129B08331293159BDA4336
:100D5C000E9B134001339B0009930B9A099B9A42FB
:100D6C0042D9099B002B08D0159A0E9B13400233D5
:100D7C009B00484A1344043300E0484B0893099BFA
:100D8C00002B02D0099BDBB201E00B9BDBB28DF890
:100D9C001F30099B002B01D0404B00E00023069331
:100DAC00099B002B06D00B9BDAB2099BDBB2D31A42
:100DBC00DBB200E000238DF817309DF81F20129B4A
:100DCC000899139803F02EFA9DF81F30129A1344C9
:100DDC001293069B002B16D09DF81720129B069998
:100DEC00139803F01FFA0EE0159A0E9B1340023372
:100DFC009B00284A134404330493129B0B9A0499C6
:100E0C00139803F00FFA0C9B03339B08159A1344A9
:100E1C00159363E09DF8003003F00303DBB2012B64
:100E2C005CD1BDF80030C3F38313DBB2062B28BFB3
:100E3C000623DBB203F00F03DAB2BDF8003062F325
:100E4C008913ADF80030BDF80030C3F38313DBB267
:100E5C00023303939DF80030C3F3C203DBB20D934E
:100E6C00039B9B0019460C4803F0A3F81390139BAB
:100E7C00002B33D0139803F02CF96946129B0822EF
:100E8C00139803F0CFF9129B08331293002311939C
:100E9C001BE000BF8C05002058A70400980500201B
:100EAC00159B5A1C15920E9A134002339B002E4A26
:100EBC001344191D129B0422139803F0B3F9129BCF
:100ECC0004331293119B01331193BDF80030C3F31B
:100EDC008313DBB21A46119B9A42E1D8139B002B69
:100EEC0037D0214BD3F8103410931F4BD3F8183450
:100EFC00002B1AD0139803F0FBF82AE000238DF88E
:100F0C003F301098FFF75DFB0346002B02D0012306
:100F1C008DF83F309DF83F30002B03D0139910987B
:100F2C00FFF71AFB109B5B681093109B002BE5D10D
:100F3C00139803F0DDF8002002F000F90A4BD3F807
:100F4C001834002B02D1084A159B5360002002F084
:100F5C0009F9FFF74DFE034683F00103DBB2184697
:100F6C0017B05DF804FB00BF8C05002000B585B000
:100F7C000023039322E0164BD3F810340293012381
:100F8C008DF807300EE00298FFF70CFB03461A466B
:100F9C00039B9A4203D100238DF8073005E0029B96
:100FAC005B680293029B002BEDD19DF80730002B60
:100FBC0001D0039B07E0039B01330393039B092B95
:100FCC00D9DD4FF0FF33184605B05DF804FB00BFC8
:100FDC008C05002000B585B001900B468DF80330D0
:100FEC00FFF7C4FF0390039BB3F1FF3F01D1039BB9
:100FFC001EE0039BDBB219460198FFF7C7FA0E4BB4
:10100C00D3F81034002B07D10B4A019BC2F81034D3
:10101C00019B00225A600AE0074BD3F810345A683F
:10102C00019B5A60044BD3F81034019A5A60039B0D
:10103C00184605B05DF804FB8C05002000B583B0A4
:10104C000C4BD3F8103401930A4B012283F81C2467
:10105C0008E00198FFF7ADFA0198FFF78BFA019BB6
:10106C005B680193019B002BF3D100BF03B05DF8CB
:10107C0004FB00BF8C05002010B582B001900091DC
:10108C00019BDB7983F00103DBB2002B28D0019BA1
:10109C001B7A002B12D0019B9B881A46019B9B79D3
:1010AC0019461046FFF788FB03461A460E4B53F8B9
:1010BC0022301A460D49009802F042FB019B9B79A5
:1010CC001A460B4B53F82240019B9B880021184673
:1010DC00FFF752FB034622460649009802F030FB0C
:1010EC0000BF02B010BD00BF9800002030A8040063
:1010FC008400002034A8040000B585B00390029150
:10110C0013468DF80730039BDB7983F00103DBB2C8
:10111C00002B0FD0039B1B7A002B06D00D4B1B68AA
:10112C001A460D49029802F00BFB0C49029802F08A
:10113C0007FB07E09DF80730002B03D00749029806
:10114C0002F0FEFA029802F0D9FA00BF05B05DF881
:10115C0004FB00BF9800002030A8040040A8040045
:10116C0030B58BB007900691059204930E9B1B7BB8
:10117C008DF827300E9B00221A730E990498FFF7F6
:10118C007BFF059B062B7FD801A252F823F000BFF2
:10119C00B9110000C3110000D3110000E7110000C9
:1011AC00051200002D1200005D12000007990E9828
:1011BC0002F0C6FA69E0069B1B681A4607990E985E
:1011CC0002F0BEFA61E0069B1A68069B04331B68AA
:1011DC0007990E9802F0B4FA57E0069B1A68069B22
:1011EC0004331968069B08331B6800930B46079958
:1011FC000E9802F0A5FA48E0069B1968069B04338A
:10120C001868069B08331B68069A0C321268019208
:10121C00009303460A4607990E9802F091FA34E0BF
:10122C00069B1868069B04331C68069B08331B68D6
:10123C00069A0C32126806991031096802910192D3
:10124C0000932346024607990E9802F079FA1CE0A7
:10125C00069B1C68069B04331D68069B08331B68A1
:10126C00069A0C32126806991031096806981430E7
:10127C00006803900291019200932B462246079935
:10128C000E9802F05DFA00E000BF00220E9904985F
:10129C00FFF732FF0E9B9DF827201A7300BF0BB08F
:1012AC0030BD00BF00B587B003900291019200934E
:1012BC00029B082B5CD8009B1B7B8DF81330009B8A
:1012CC0000221A7300990198FFF7D6FE00230593AC
:1012DC0014E0059A029B9A4209D2039A059B134487
:1012EC001B781A462449009802F02AFA03E0234995
:1012FC00009802F025FA059B01330593059B072BFB
:10130C00E7D91F49009802F01BFA0023059322E04D
:10131C00059A029B9A4217D2039A059B13441B7899
:10132C008DF812309DF8123018463FF041FA034602
:10133C00002B02D09DF8123000E02E231A461149E2
:10134C00009802F0FDF903E00F49009802F0F8F95B
:10135C00059B01330593059B072BD9D901220099D5
:10136C000198FFF7C9FE009B9DF813201A7300E04B
:10137C0000BF07B05DF804FB44A804004CA80400AF
:10138C0050A8040054A8040058A8040000B583B069
:10139C000190019B1B682F2B04D90B494FF4E8706B
:1013AC0002F098F8019B1B681F2B02D84FF0A0434A
:1013BC0006E0019B1B6803F01F02019B1A60034BA4
:1013CC00184603B05DF804FB5CA804000003005051
:1013DC0000B585B00190084611461A4603468DF8B3
:1013EC0003300B468DF8023013468DF8013001ABFB
:1013FC001846FFF7CBFF0390019A9DF803109DF858
:10140C0002305B0019439DF801309B0019439DF895
:10141C0018301B0219439DF81C301B041943039B05
:10142C0002F5E07243F8221000BF05B05DF804FB32
:10143C0000B585B003900023019300230093002393
:10144C00012201210398FFF7C3FF00BF05B05DF82F
:10145C0004FB00B585B0019001AB1846FFF796FF71
:10146C000390019B012202FA03F31946039800F042
:10147C0018F800BF05B05DF804FB00B585B001900D
:10148C0001AB1846FFF782FF0390019B012202FA81
:10149C0003F31946039800F00EF800BF05B05DF891
:1014AC0004FB82B001900091019B009AC3F80825BF
:1014BC0000BF02B0704782B001900091019B009A6E
:1014CC00C3F80C2500BF02B07047000084B0019037
:1014DC00244B0393019B002B40D0234B1A68039998
:1014EC00019B00BF00BF00BF00BF00BF00BF00BF1B
:1014FC0000BF8A422FD000BF00BF00BF00BF00BF9B
:10150C0000BF00BF00BF00BF00BF00BF00BF00BFD7
:10151C0000BF00BF00BF00BF00BF00BF00BF00BFC7
:10152C0000BF00BF00BF00BF00BF00BF00BF00BFB7
:10153C0000BF00BF00BF00BF00BF00BF00BF00BFA7
:10154C0000BF00BF00BF00BF00BF00BF00BF00BF97
:10155C0000BF00BF00BF013BC3D1019300BF04B06B
:10156C00704700BF0024F4003001002000B583B0A8
:10157C000190019B4FF47A7202FB03F31846FFF7BC
:10158C00A5FF00BF03B05DF804FB82B00190019B86
:10159C00D3F81035DBB2184602B0704700B585B0F1
:1015AC0001900B468DF803309DF803300393019B9B
:1015BC00094A934204D9094940F2692001F08AFF93
:1015CC00019B4FF47A5202FB03F2039B22FA03F3C2
:1015DC00184605B05DF804FB9318040090A80400AD
:1015EC0000B583B001900091019B1B681846FFF772
:1015FC00CCFF034619460098FFF7D0FF0346184668
:10160C0003B05DF804FB000010B5374B1B7883F07A
:10161C000103DBB2002B14D0344B93F82830012B90
:10162C000FD0324833F0A6F90346002B5AD0304B7A
:10163C001B881B0443F013032E491846FFF770FA5E
:10164C0050E0294B1B78002B1FD0284B93F82830E7
:10165C00042B1AD0284B1B7883F00103DBB2002B30
:10166C0013D0264B1A78264B2649204833F0CCF958
:10167C000346002B36D01E4B1B881B0443F0130370
:10168C0021491846FFF74CFA2CE0174B1B78002B1E
:10169C0028D0164B93F82830042B23D1164B1B78EB
:1016AC0083F00103DBB2002B1CD0184B1C681848CC
:1016BC003FF02EFB03469AB2164B21460B4833F0F3
:1016CC009DFA0346002B09D0094B1B881B0443F0E1
:1016DC00130311491846FFF723FA03E0064B0122C6
:1016EC001A70FFE700BF10BD360B0020B4090020B4
:1016FC0000000020C4A80400320B0020CE0A0020F9
:10170C00D00A0020BC0A0020F4A80400CC00002061
:10171C00BC000020340B00202CA9040000BF704733
:10172C0000B583B0274B1B7883F00103DBB2002B91
:10173C0005D0FFF769FF244B0022A3F8E020214BD2
:10174C001B78002B36D0214921483BF0DBFB214B89
:10175C000093214B214A224922483BF0C7FD2248E5
:10176C003BF016F9F0EE407A204BC3ED007A164BA5
:10177C0093F91310144BD3ED157A134B93ED167A92
:10178C001A4BD3ED006A1A4B0093B0EE661A194B44
:10179C00104AF0EE470AB0EE670A17483DF0B2FD6A
:1017AC0015483AF0A9FFFFF7B9FF144B1B6801333A
:1017BC00124A1360044B002283F8242000BF03B0AC
:1017CC005DF804FB320B0020380B00208C0B002042
:1017DC00840B0020240C0020F00B0020D40B0020E4
:1017EC00B80B00209C0B0020340C0020380C00207F
:1017FC003C0C0020940B0020600B0020480C0020B7
:10180C0082B08DED010A034A019B136200BF02B046
:10181C00704700BF380B002010B594B00390039BA9
:10182C001B78303B062B00F2768101A252F823F094
:10183C0059180000CD18000053190000EF190000D2
:10184C004B1A0000AF1A00000B1B0000B34B1B8897
:10185C001B0443F01303B2491846FFF761F9039BCD
:10186C000133039A01321278303AD2B21A70022341
:10187C008DF84F3012E0A94B1B881B0443F013006A
:10188C009DF84F30039A13441B781A46A549FFF76D
:10189C0055F99DF84F3001338DF84F309DF84F209E
:1018AC00039B01331B7802339A42E4DB9B4B1B886E
:1018BC001B0443F013039C491846FFF731F92AE146
:1018CC00039B01331A78994B1B781B09DBB29A42A4
:1018DC0005D0039B01331B78002B40F01B818F4BF1
:1018EC001B881B0443F0130391491846FFF718F9A2
:1018FC00039B02331B78302B0FD1039B03331B78D4
:10190C001B02039A04321278134307EE903AF8EE56
:10191C00E77A864BC3ED177AFCE0039B02331B7806
:10192C00312B40F0F780039B03331B781B02039A87
:10193C0004321278134307EE903AF8EEE77A7B4BB9
:10194C00C3ED187AE6E0754B1B881B0443F01303B8
:10195C0078491846FFF7E4F8744B93F9133018469E
:10196C003EF0E5FE03468DF84B30734B09AC0FCBC4
:10197C0084E80F0033238DF8343020238DF8353074
:10198C000DAB02330C226D4918463FF019F9202398
:10199C008DF842302D238DF8433030238DF84430B0
:1019AC0078238DF845309DF84B301B09DBB214AA17
:1019BC00134413F82C3C8DF846309DF84B3003F053
:1019CC000F0314AA134413F82C3C8DF847305C4BCE
:1019DC0099880DAA0023009314235A4833F082F8F7
:1019EC0099E04E4B1B881B0443F0130356491846D1
:1019FC00FFF796F802238DF84E3012E0474B1B8808
:101A0C001B0443F013009DF84E30039A13441B78CB
:101A1C001A464449FFF792F89DF84E3001338DF881
:101A2C004E309DF84E30132BE8D93C4B1B881B04D1
:101A3C0043F013033C491846FFF772F86BE0374B41
:101A4C001B881B0443F0130340491846FFF768F842
:101A5C0035238DF8143020238DF8153000238DF8A4
:101A6C004D3010E09DF84D3002339DF84D202F493C
:101A7C000A44927914A90B4403F83C2C9DF84D3080
:101A8C0001338DF84D309DF84D300D2BEAD92C4B90
:101A9C00998805AA002300930E232A4833F022F8D4
:101AAC0039E01E4B1B881B0443F0130328491846CE
:101ABC00FFF736F802238DF84C3012E0174B1B88D9
:101ACC001B0443F013009DF84C30039A13441B780D
:101ADC001A461449FFF732F89DF84C3001338DF853
:101AEC004C309DF84C300D2BE8D90C4B1B881B044B
:101AFC0043F013030C491846FFF712F80BE0074BA1
:101B0C001B881B0443F0130312491846FFF708F80F
:101B1C0000BF00E000BF00BF14B010BD00000020EB
:101B2C0040AA040058AA04005CAA0400380B002048
:101B3C0060AA040080AA040058AB04003E0B0020ED
:101B4C00CC000020B4090020C4AA0400DCAA0400C4
:101B5C0014AB040038AB040000B583B00190019BBA
:101B6C001B78012B0CD1164B0022A3F8DA20144B56
:101B7C000022A3F8DC20124B0022A3F8DE200FE099
:101B8C00019B1B78002B0BD10D4B0022A3F8DA2004
:101B9C000B4B0022A3F8DC20094B0022A3F8DE201B
:101BAC00074BB3F8DA10064BB3F8DC20044BB3F850
:101BBC00DE3002203AF0A2FF00BF03B05DF804FB58
:101BCC00380B002000B583B00346ADF806300B4649
:101BDC008DF8053013468DF804300A4A9DF8043010
:101BEC0093779DF804309DF90520BDF80610064842
:101BFC003DF03EFE03461A46024BDA7400BF03B0BA
:101C0C005DF804FB380B00204C0B002000B583B0B2
:101C1C000190019B1A8B094B9B889A4209D1019B1D
:101C2C00DB691846FFF798FF019BDB691846FFF745
:101C3C00F3FD00BF03B05DF804FB00BFCC00002037
:101C4C0030B585B00190224B01221A70019B9B6824
:101C5C00204A14461D4628686968AA68EB680FC4B8
:101C6C002B8A2380019B1A791B4B1A701B4B3C222D
:101C7C001A801A4B01229A70184B0022DA701848FD
:101C8C003FF046F803469AB2144BA3F86020134B6E
:101C9C00B3F860301A46124912483EF091FF0E4BD1
:101CAC001A780E4B0B49104832F0AEFE0390039B92
:101CBC00002B09D00D4B1B881B0443F00103039A26
:101CCC000B491846FEF73AFF00BF05B030BD00BF08
:101CDC00360B0020BC0A0020CE0A0020D00A0020BF
:101CEC00AC090020180B0020B409002000000020D3
:101CFC0068AB040010B582B0154B0022A3F8D420B9
:101D0C00134B0022A3F8D620114B4FF47A72A3F890
:101D1C00D8200F4BB3F8D4100D4BB3F8D6200C4B86
:101D2C00B3F8D83001203AF0E9FE0A4B1C680A4897
:101D3C003EF0EEFF03469AB2084B2146084832F0BB
:101D4C0020FF0190019B002BEFD100BF02B010BD12
:101D5C00380B0020CC000020BC000020340B0020ED
:101D6C00B409002008B50D4B0022A3F8D4200B4B6E
:101D7C004FF47A72A3F8D620084B0022A3F8D8208F
:101D8C00064BB3F8D410054BB3F8D620034BB3F87D
:101D9C00D83001203AF0B2FE00BF08BD380B00204D
:101DAC0000B583B001900B4B9B88002B0ED1019B8F
:101DBC001A8B084B9A80084B1B881B0443F01300AA
:101DCC00019B1B8B1A460549FEF7B8FE00BF03B0FA
:101DDC005DF804FBCC00002000000020A0AB040048
:101DEC0000B583B00190084B1B881B0443F0130013
:101DFC00019B5B791A46019BDB880449FEF7AFFE19
:101E0C0000BF03B05DF804FB00000020E0AB040051
:101E1C0000B583B001900091009B1B780D2B76D8F8
:101E2C0001A252F823F000BF6D1E0000871E0000B7
:101E3C009F1E0000B71E00001B1F00001B1F000090
:101E4C00D11E0000E51E00001B1F00001B1F000020
:101E5C00F91E00001B1F00001B1F0000011F0000CB
:101E6C002D4B1B881B0443F013032C491846FEF71B
:101E7C0057FE0098FFF7E4FE4AE0274B1B881B0433
:101E8C0043F0130326491846FEF74AFEFFF732FFCC
:101E9C003EE0214B1B881B0443F0130321491846D9
:101EAC00FEF73EFEFFF75EFF32E01B4B1B881B0468
:101EBC0043F013031C491846FEF732FE0098FFF757
:101ECC006FFF25E0144B1B881B0443F013031749C9
:101EDC001846FEF725FE1BE00F4B1B881B0443F036
:101EEC00130313491846FEF71BFE11E00098FFF789
:101EFC008DFE0DE0084B1B881B0443F013030D49AA
:101F0C001846FEF70DFE0098FFF76AFF00E000BFD1
:101F1C0000BF03B05DF804FB0000002018AC040007
:101F2C0050AC040074AC04009CAC0400C8AC0400BD
:101F3C00F8AC040028AD040010B582B001900091FB
:101F4C00084B1B881B0443F01304009802F0BBFAE7
:101F5C000346019A04492046FEF701FE00BF02B079
:101F6C0010BD00BF0000002068AD040000B585B0B6
:101F7C0001AB00221A605A609A6001238DF806307A
:101F8C0001AB184634F07AFF35F0A8F8074835F065
:101F9C0001F9074B1B881B0443F013030549184632
:101FAC00FEF7BEFD00BF05B05DF804FB451F000049
:101FBC000000002098AD040000B585B035F0E4F8C1
:101FCC000246114B00931346104A4BF65901104828
:101FDC0032F06AFC0390039B0293029B002B05D00A
:101FEC000C4A40F2F711029800F0B6F90A4B1B8824
:101FFC001B0443F0130309491846FEF791FD00BF7B
:10200C0005B05DF804FB00BFD11B00001D1E0000D5
:10201C00B4090020B4AD040000000020D4AD0400CD
:10202C0000B583B00020FEF71BFB0190019B0093D1
:10203C00009B002B05D0064A4FF40171009800F06C
:10204C008BF9FEF76BFA00BF03B05DF804FB00BF21
:10205C00B4AD040000B583B003460091ADF8063072
:10206C002D4B012283F824202C4B93F82830042B81
:10207C0048D02A4B93F82830012B10D1284B1968E3
:10208C00284BA3FB0123DA0813469B0013445B0087
:10209C00CA1A002A03D1214B052283F82820224B8F
:1020AC001B78002B06D0214B00221A60204B4FF4DA
:1020BC007A721A601A4B19681A4BA3FB0123DA08BF
:1020CC0013469B0013445B00CA1A002A1AD1194B01
:1020DC001B78002B09D000230022002101203AF0AC
:1020EC000DFD144B00221A700CE0104B1B689AB2B9
:1020FC000F4B1B689BB2002101203AF0FFFC0D4BEB
:10210C0001221A70064B1B680133054A136000BF8D
:10211C0003B05DF804FB00BF380B0020B4090020AD
:10212C004C0C0020CDCCCCCC360B0020DC0000209D
:10213C00500C0020540C002000B587B0164A1749EB
:10214C0017482FF087FA0590059B0493049B002BEE
:10215C0005D0144A40F24621049800F0FDF86421A1
:10216C000F48FFF73DFA0390012300930123039AD4
:10217C0000210B482FF040FC09482FF0A3FB0A4B21
:10218C001B881B0443F0130308491846FEF7C8FCD0
:10219C0000BF07B05DF804FB61200000E0000020E8
:1021AC00B8AE0400B4AD040000000020F4AD04008F
:1021BC0008B54FF08053D3F8A430DAB21B4B1A7029
:1021CC004FF08053D3F8A4301B0ADAB2174B5A7075
:1021DC004FF08053D3F8A4301B0CDAB2134B9A7027
:1021EC004FF08053D3F8A4301B0EDAB20F4BDA70D9
:1021FC004FF08053D3F8A830DAB20C4B1A714FF071
:10220C008053D3F8A8301B0ADAB2084B5A71062255
:10221C00064907483EF0D4FC064905483CF08EFEC2
:10222C000346DAB2024B9A7400BF08BDAC09002019
:10223C00380B00203E0B002070B584B0FFF7F0FE89
:10224C00FFF7B6FF3C4B1B881B0443F013033B49C1
:10225C001846FEF765FC384B1B881B0443F0130033
:10226C00374B5B791D46364B1B791E46344BDB785E
:10227C001A46334B9B781946314B5B781C46304BD6
:10228C001B78039302940191009233462A462D4900
:10229C00FEF791FC284B1B881B0443F013030A2206
:1022AC0029491846FEF74AFC0A20FFF75FF93AF075
:1022BC00E9FC26483AF01AFB3AF04AFA3AF0CCFD1F
:1022CC003BF04AF922483BF02FFC3AF07BF93CF00A
:1022DC007FFEFFF731FFFFF749FEFFF76DFE00238E
:1022EC004FF47A72002101203AF008FC0320FFF72A
:1022FC009FF8114B1B881B0443F013031549184618
:10230C00FEF70EFC34F004FFFEF780FC034683F06E
:10231C000103DBB2002B07D00320FFF79AF834F04F
:10232C0017FF0320FFF7A9F8054B93F82430002B77
:10233C00E8D0FFF7F5F9E5E70000002014AE040043
:10234C00380B002040AE040078AE0400D40000200E
:10235C000D180000A0AE040000B589B003900291E6
:10236C000192029B9BB2ADF81430019B0693039B28
:10237C00079305AB1A46002144F2010000F050F817
:10238C0000BF09B05DF804FB86B003900291019286
:10239C0001238DF817309DF81730204A039B1360EA
:1023AC001E4A029B53601D4A019B9360039B44F29F
:1023BC000102934212D044F20202934222D1019BB9
:1023CC00164AD360154BDB681B881A46134B9A616F
:1023DC00124BDB685B68114AD36113E0019B0F4A17
:1023EC0013610E4B1B699B680C4A53610B4B1B69A9
:1023FC001B881A46094B9A61084B1B695B68074A94
:10240C00D36100BF72B600BF9DF81730DBB2002B52
:10241C00FAD162B600BF06B0704700BF580C00205E
:10242C0030B589B0059004910392FEF707FE00BF0A
:10243C00FEF7ECFB0346002BFAD1059B44F201029C
:10244C00934213D044F2020293422DD1039B079383
:10245C00224B1B881B0443F00100079B5B681A4648
:10246C00079B1B881E49FEF77AFB28E0039B06930B
:10247C001A4B1B881B0443F00104069B9D68069BAA
:10248C009B68184601F0F2FE03461946069B5B68F2
:10249C001A46069B1B88019300920B462A4611494B
:1024AC002046FEF770FB0AE00C4B1B881B0443F024
:1024BC000103049A0C491846FEF740FB00BF0B4B76
:1024CC001B6803F00103002B00D0FFDE039A049974
:1024DC000598FFF759FF00BF09B030BD0000002080
:1024EC00C0AE0400DCAE0400F4AE0400F0ED00E07D
:1024FC0082B003468DF8073007499DF907305B0918
:10250C009DF8072002F01F02012000FA02F241F8A8
:10251C00232000BF02B0704700E100E082B0034608
:10252C008DF8073008499DF907305B099DF80720A5
:10253C0002F01F02012000FA02F2203341F823209E
:10254C0000BF02B0704700BF00E100E082B003465C
:10255C008DF8073008499DF907305B099DF8072075
:10256C0002F01F02012000FA02F2403341F823204E
:10257C0000BF02B0704700BF00E100E082B003462C
:10258C008DF8073008499DF907305B099DF8072045
:10259C0002F01F02012000FA02F2603341F82320FE
:1025AC0000BF02B0704700BF00E100E082B00346FC
:1025BC0000918DF807309DF90730002B0CDA0D498E
:1025CC009DF8073003F00F03043B009AD2B252017E
:1025DC00D2B20B441A7609E007499DF90730009AEC
:1025EC00D2B25201D2B20B4483F8002300BF02B026
:1025FC00704700BF00ED00E000E100E084B0019006
:10260C00244B0393019B002B40D0234B1A68039956
:10261C00019B00BF00BF00BF00BF00BF00BF00BFD9
:10262C0000BF8A422FD000BF00BF00BF00BF00BF59
:10263C0000BF00BF00BF00BF00BF00BF00BF00BF96
:10264C0000BF00BF00BF00BF00BF00BF00BF00BF86
:10265C0000BF00BF00BF00BF00BF00BF00BF00BF76
:10266C0000BF00BF00BF00BF00BF00BF00BF00BF66
:10267C0000BF00BF00BF00BF00BF00BF00BF00BF56
:10268C0000BF00BF00BF013BC3D1019300BF04B02A
:10269C00704700BF0024F4003001002000B583B067
:1026AC000190064A019BC2F8083507211120FFF75B
:1026BC007DFF00BF03B05DF804FB00BF00100140BC
:1026CC0008B50D4B4FF48032C3F844230A4B4FF43A
:1026DC008032C3F804231120FFF750FF1120FFF7BD
:1026EC0007FF054B01221A602F20FFF787FF034BD2
:1026FC0001221A7000BF08BD00100140960D002089
:10270C0008B51120FFF70AFF0E4B4FF48032C3F8C7
:10271C0048230C4B4FF48032C3F80823094B012299
:10272C005A602F20FFF76AFF064B01229A60064B76
:10273C0000221A602F20FFF761FF044B00221A7051
:10274C0000BF08BD00100140880D0020960D002030
:10275C00024BD3F804351846704700BF00100140F7
:10276C0082B001900091019A009BD31A23F07F4311
:10277C00184602B07047000082B00190034A019BDA
:10278C00C2F8403500BF02B0704700BF00100140D6
:10279C0086B00190284B1B68002B03D1264A019B65
:1027AC00136045E0019B1A68234B1B681B689A4217
:1027BC0010D8214B1B68204A12681168019A1268C4
:1027CC008A1A1A601C4B1A68019BDA611A4A019B1F
:1027DC0013602DE0019B1B680393174B1B6805933B
:1027EC00154B1B68049309E0049B1B68039AD31ACE
:1027FC000393049B0593049BDB690493049B002BBC
:10280C0004D0049B1A68039B9A42EDD3049B002BC3
:10281C0005D0049B1A68039BD21A049B1A60019B77
:10282C00039A1A60019B049ADA61059B019ADA619A
:10283C0000BF06B0704700BF840D002000B587B004
:10284C0001902A4B1B680393284B1B680593059B2F
:10285C00049308E0049A019B9A4208D0049B0593C8
:10286C00049BDB690493049B002BF3D100E000BFB5
:10287C00049B002B01D1002333E0059A049B9A4260
:10288C0014D11A4B1B68DB69184A1360174B1B6871
:10289C00002B0BD1164B01229A60164B00221A60AA
:1028AC00154B01221A702F20FFF7A8FE049B1B6802
:1028BC000293049BDA69059BDA61059BDB6904933F
:1028CC00049B002B05D0049B1A68029B1A44049BA2
:1028DC001A60064B1B68039A9A4214BF012300230B
:1028EC00DBB2184607B05DF804FB00BF840D002076
:1028FC0000100140880D0020970D002008B5112014
:10290C00FFF724FE00BF08BD08B51420FFF71EFE1C
:10291C0000BF08BD00B583B00190019B5B69019AB3
:10292C0092691046984700BF03B05DF804FB0000A5
:10293C0000B585B02B4B1B68002B4ED000230193A8
:10294C00FFF706FF0246284B1B6819461046FFF797
:10295C0007FF0290234B1B6803931DE0039B1A682F
:10296C00029B9A421CD8039B1B68029AD31A0293AF
:10297C00039B1B68019A13440193039B0093039BD5
:10298C00DB690393009B1B7C002B05D0009B002272
:10299C001A740098FFF7BEFF039B002BDED100E0FA
:1029AC0000BF124B1A78124B1B789A420CD1104B69
:1029BC001B780133DAB20E4B1A700D4B1B78022BBD
:1029CC0002D10B4B00221A70094B1B781946094A8D
:1029DC00019B42F82130FFF797FF00BF05B05DF86F
:1029EC0004FB00BF840D0020880D0020940D0020F6
:1029FC00950D00208C0D002082B00190184B1A7898
:102A0C00184B1B789A4223D0154B1B780133DAB242
:102A1C00134B1A70124B1B78022B02D1104B002255
:102A2C001A700F4B1B781A460F4B53F82220019B40
:102A3C001A60019B1A680D4B1B6813440B4A1360F8
:102A4C000A4B1B6823F07F43084A1360012303E001
:102A5C00019B00221A600023184602B0704700BF89
:102A6C00940D0020950D00208C0D0020880D002069
:102A7C0088B00390029101920023079338E0204B19
:102A8C001B680693069B1A68039B9A4206D9069B01
:102A9C001A68039BD21A069B1A602DE0069B1B68D2
:102AAC00039AD31A0393069B1B68079A1344079344
:102ABC00069B00221A60124B1B680593069BDB6970
:102ACC000F4A1360069BDB68002B11D0029A079B00
:102ADC00134423F07F42069B5A60069BDA68069BE0
:102AEC009A60019B1A68069BDA61019B059A1A6031
:102AFC00034B1B68002BC2D100BF08B0704700BF4E
:102B0C00840D002000B589B0019000238DF81F3092
:102B1C00664B1B680593AAE0019B002B05D0019B1B
:102B2C000693069BDB69019361E0614B1B781A46A7
:102B3C0013465B001344DB005D4A134404330493D7
:102B4C005B4B1B780133DAB2594B1A70584B1A781D
:102B5C00574B9B789A4202D1554B00221A70049B1A
:102B6C005B680693049B1B78022B04D0032B1BD0B1
:102B7C00012B1FD01DE0049B5B681846FFF75EFE1F
:102B8C000346002B02D001238DF81F30069B002238
:102B9C001A746CE0454B1B680393039B00221A7458
:102BAC00039BDB69414A1360404B1B68002BF1D13E
:102BBC005DE05CE000BF069B1B7C002B00D056E068
:102BCC00049B9A68069B5A60049BDA68069B9A6081
:102BDC00049B1A69069BDA60049B5A69069B9A61EE
:102BEC00344B1B78002B02D0069B00225A60069BAC
:102BFC005A68314B1B68D31A23F07F432F4A9342F8
:102C0C000ED8069B5A682C4B1B6819461046FFF7CA
:102C1C00A7FD0246069B9B681A44069B1A6017E0A8
:102C2C00254B1A68069B5B6819461046FFF798FD02
:102C3C000290069B9A68029B9A4206D9069B9A6858
:102C4C00029BD21A069B1A6002E0069B00221A60B5
:102C5C00069B00225A60069B00229A60069B01226A
:102C6C001A74069B0022DA610698FFF791FD019B0E
:102C7C00002B7FF451AF0E4B1A780D4B5B789A42B8
:102C8C007FF44AAF9DF81F30002B04D1074B1A6814
:102C9C00059B9A4201D0012300E0002303F00103BD
:102CAC00DBB2184609B05DF804FB00BF840D0020B0
:102CBC00780C0020970D0020880D0020FEFF7F006F
:102CCC0010B588B00190274B1B68002B44D0254BC6
:102CDC001B681B680793FFF73BFD0690224B1B6894
:102CEC00059305990698FFF73BFD034603330493C0
:102CFC001E4B1B7883F00103DBB2002B01D0FFF7D6
:102D0C00DFFC049A079B934238BF1346059A134481
:102D1C000593059B23F07F4305930598FFF72CFD46
:102D2C00FFF716FD039006990398FFF719FD03466C
:102D3C00DC1C06990598FFF713FD03469C420DD940
:102D4C00FFF706FD03461846FFF716FD2F20FFF789
:102D5C0055FCFFF7D3FD01E0FFF7D2FC00BF08B034
:102D6C0010BD00BF840D0020880D0020960D0020A2
:102D7C0000B587B00023019300238DF81730194B51
:102D8C001B680493184B1B6803936B461846FFF79C
:102D9C0033FE03468DF80B309DF80B30002B08D01A
:102DAC00009B01AA04991846FFF762FE01238DF8D7
:102DBC001730019B1846FFF7A5FE0346002B02D0E7
:102DCC0001238DF817309DF81730002B02D0039893
:102DDC00FFF776FF054B00221A7000BF07B05DF8B5
:102DEC0004FB00BF880D0020840D0020970D0020EF
:102DFC0082B003468DF80730034A9DF807305370B4
:102E0C0000BF02B0704700BF780C002084B0019066
:102E1C00144B5B7801338DF80F30124B9B789DF877
:102E2C000F209A4202D100238DF80F300D4B1B78E6
:102E3C009DF80F209A4201D100230FE0019B9DF8D1
:102E4C000F201A70074B5B781A4613465B0013442D
:102E5C00DB00044A134404330293029B184604B06B
:102E6C00704700BF780C002000B589B00390029128
:102E7C000192009300230793002000F05FF90DF1FD
:102E8C0017031846FFF7C2FF0690069B002B02D1D2
:102E9C000423079318E0069B01221A70069B039AE1
:102EAC005A60FFF755FC0246069B9A60069B029AF5
:102EBC00DA60069B019A1A61069B009A5A619DF88A
:102ECC0017301846FFF794FF002000F04BF9079BD2
:102EDC00002B01D1FFF718FD079B184609B05DF8D0
:102EEC0004FB00B587B001900B468DF8033000232E
:102EFC000593002000F022F90DF10F031846FFF79F
:102F0C0085FF0490049B002B02D1042305930BE056
:102F1C00049B9DF803201A70049B019A5A609DF83B
:102F2C000F301846FFF764FF002000F01BF9059BDB
:102F3C00002B01D1FFF7E8FC059B184607B05DF8A4
:102F4C0004FB000008B50E4B0022C3F840210C4BCB
:102F5C000022C3F844210A4B0022C3F84821084B35
:102F6C000022C3F84C21064B0022C3F80021044B6D
:102F7C000022C3F80421FFF7DBFC00BF08BD00BF33
:102F8C000010014008B5FFF7F3FE00BF08BD0000BC
:102F9C0008B5FFF7B5FB134B00221A70114B00223A
:102FAC005A70104B0B229A700F4B00221A600F4B69
:102FBC0000221A700E4B00221A701420FFF7DEFA52
:102FCC0007211420FFF7F2FA1420FFF791FA0020E2
:102FDC00FFF764FBFFF7BCFB0246064B1A600023AD
:102FEC00184608BD780C0020840D0020940D00209C
:102FFC00950D0020880D002086B003900B460192A1
:10300C008DF80B30134B9B78002B01D108231EE05D
:10301C00019B002B01D1072319E0039B002B01D14D
:10302C00072314E0039B1B681B7C002B01D0082397
:10303C000DE0039B1B680593059B00221A74059BEE
:10304C009DF80B205A74059B019A5A61002318466F
:10305C0006B07047780C002000B587B00390029141
:10306C000192039B0593144B9B78002B01D10823F1
:10307C001EE0039B002B01D1082319E0029B042BBB
:10308C0001D8072314E0059B5B69002B01D10823B1
:10309C000EE0059B5B7C012B01D1029B00E0002321
:1030AC000493019B049A02990598FFF7DDFE0346F1
:1030BC00184607B05DF804FB780C002000B585B00D
:1030CC000190019B03930D4B9B78002B01D108239E
:1030DC0010E0019B002B03D0039B5B69002B01D1FB
:1030EC00082307E0039B00221A7402210398FFF7C0
:1030FC00F8FE0346184605B05DF804FB780C00207A
:10310C0008B5FFF725FB0346184608BD72B6034BFE
:10311C001B680133014A136000BF7047980D0020F3
:10312C00054B1B68013B044A1360034B1B68002BC7
:10313C0000D162B600BF7047980D002000B583B077
:10314C00019000F025F80346012B03D004494320DD
:10315C0000F0C0F9FFF7DAFF00BF03B05DF804FB25
:10316C000CAF040000B583B003468DF8073000F0B7
:10317C000FF80346012B03D00449512000F0AAF9A3
:10318C00FFF7CEFF00BF03B05DF804FB0CAF0400EB
:10319C0084B0EFF305830193019BC3F308030393FE
:1031AC00039B002B0DD1EFF314830093009B029330
:1031BC00029B03F00103002B0CBF01230023DBB2A5
:1031CC0000E00123184604B0704786B003900291CA
:1031DC000192039B5B090593059B5B01039AD31A30
:1031EC000493029B059A1A60019B049A1A6000BF13
:1031FC0006B0704700B585B0019002AA03AB194622
:10320C000198FFF7E2FF039B039A074951F822103C
:10321C00029A012000FA02F20A43034941F82320E2
:10322C0000BF05B05DF804FB9C15002084B0019034
:10323C000091002303931FE0019B002B10D0124A36
:10324C00039B52F82320019B9A4209D30F4A039BFC
:10325C0052F823200E49039B51F823309A4206D191
:10326C000A4A039B52F82320009B9A4201D9039BE4
:10327C0006E0039B01330393039B062BDCD900234D
:10328C00184604B0704700BF54AF04008CAF040064
:10329C0070AF040000B585B0019001990020FFF7D4
:1032AC00C5FF0390034A039B52F82330184605B020
:1032BC005DF804FB54AF040000B585B0019002AA80
:1032CC0003AB19460198FFF780FF039B084A52F89D
:1032DC002320029B22FA03F303F00103002B14BFFB
:1032EC0001230023DBB2184605B05DF804FB00BFD8
:1032FC009C15002000B585B0019002AA03AB1946BD
:10330C000198FFF762FF039B039A084951F82210BA
:10331C00029A012000FA02F2D2430A40034941F812
:10332C00232000BF05B05DF804FB00BF9C150020F6
:10333C0000B583B0002301930023019305E00198AD
:10334C00FFF758FF019B01330193019B0B2BF6D91F
:10335C00034B01221A700023184603B05DF804FBDE
:10336C00A015002000B589B0019000912E4B1B7860
:10337C0083F00103DBB2002B02D048F208134EE0BD
:10338C00019B002B02D148F20E1348E0009B002B4E
:10339C0002D148F20E1342E0009B1B680493049B7D
:1033AC00002B03D0049BB3F5807F02D948F207139E
:1033BC0035E00C210498FFF739FF03901B4A039B5F
:1033CC0052F8233007931A4A039B52F82330069382
:1033DC0048F2041305931EE00798FFF75BFF029079
:1033EC000798FFF769FF0346002B0DD000230593C8
:1033FC000798FFF77FFF069B0E4A1A44019B1A6041
:10340C00009B029A1A6009E0069A029B13440693E9
:10341C00079B01330793079B0B2BDDD9059B1846A4
:10342C0009B05DF804FB00BFA015002070AF0400CC
:10343C00A8AF04009C0D002000B587B001900023BC
:10344C000493019B039303AA04AB11461846FFF7A0
:10345C0089FF0590059B002B01D000230493049B4E
:10346C00184607B05DF804FB00B585B00190174B0A
:10347C001B7883F00103DBB2002B20D1019B002BC6
:10348C001FD0002302930023039313E0029B104AE6
:10349C001A44019B9A4203D10398FFF7ABFE0CE050
:1034AC000398FFF7F7FE0246029B13440293039B1B
:1034BC0001330393039B0B2BE8D900BF02E000BF41
:1034CC0000E000BF05B05DF804FB00BFA0150020B4
:1034DC009C0D002000B585B003460091ADF8063078
:1034EC00BDF80630ADF80830009B039302AB1A46CA
:1034FC00002144F20200FEF793FF00BF05B05DF817
:10350C0004FB000000B583B001900B468DF803302E
:10351C00019B002B03D10849AF20FFF7DBFF019B78
:10352C00DA689DF803300199098A01FB03F313440F
:10353C00184603B05DF804FBCCAF040000B583B0B3
:10354C0001900091019B002B03D10849BC20FFF78F
:10355C00C1FF009B019AD2689B1A019A128AB3FB95
:10356C00F2F3DBB2184603B05DF804FBCCAF0400F9
:10357C0000B585B00190019B002B01D10E2349E0D1
:10358C00019B1B68002B03D12449C620FFF7A2FF27
:10359C00019B5B68002B03D12049C720FFF79AFFE2
:1035AC00019B9B68002B03D11C49C820FFF792FF9D
:1035BC00019BDB68002B03D11849C920FFF78AFF58
:1035CC00019B1B8A002B03D11449CA20FFF782FFF1
:1035DC00019B9B681A46019B5B68D31A8DF80F30D0
:1035EC00019B1B68019A52681A6007E0019B1A68DC
:1035FC001368591C11609DF80F201A709DF80F303C
:10360C005A1E8DF80F20002BF0D1019B1B68002255
:10361C001A710023184605B05DF804FBCCAF04000A
:10362C0000B585B00190019B002B03D11C49EC2007
:10363C00FFF750FF002303930020FFF77FFD019B52
:10364C001B681A68019B5B689A4220D9019B1B6816
:10365C001A68013A1A601B681B7819460198FFF723
:10366C0051FF0390019B9B681A46019B1B681B68CA
:10367C00D31A8DF80B30019B1B681B799DF80B201E
:10368C009A4204D9019B1B689DF80B201A710020EB
:10369C00FFF768FD039B184605B05DF804FB00BFFF
:1036AC00CCAF040010B584B001900091019B002BAD
:1036BC0004D111494FF48870FFF70CFF009B002BCD
:1036CC0004D10D4940F21110FFF704FF009B039346
:1036DC000020FFF733FD019B1B681C68621C1A60FD
:1036EC0003990198FFF72AFF034623700020FFF788
:1036FC0039FD00BF04B010BDCCAF040000B583B0E1
:10370C000190019B002B03D10C493120FFF7E2FE05
:10371C00019B9B68002B0CD0019B5B69019A106983
:10372C00019A1168019A92689847019B00229A604D
:10373C0000E000BF03B05DF804FB00BF04B0040060
:10374C000EB400B584B00190019B002B03D1184935
:10375C004220FFF7BFFE019B5B69002B03D114498C
:10376C004320FFF7B7FE019B1B68002B03D11049C8
:10377C004420FFF7AFFE019B5B68002B03D10C4983
:10378C004520FFF7A7FE059B002B0AD000230393CF
:10379C0006AB039303AB1A460599019800F0B0F9F8
:1037AC0000E000BF04B05DF804EB03B0704700BF4D
:1037BC0004B0040000B583B001900B468DF80330C3
:1037CC00019B1A68019B9B68581C019988601344E3
:1037DC009DF803201A70019B9A68019B5B689A42C2
:1037EC0002D30198FFF78AFF00BF03B05DF804FB1A
:1037FC0000B587B0039002910192009300230593CA
:10380C00009B03F00103002B24D00BE0029B01333F
:10381C000293059B013305939DF8133019460398C9
:10382C00FFF7C8FF029B1B788DF813309DF81330FF
:10383C00002BEBD106E0019B013B01932021039867
:10384C00FFF7B8FF019A059B9A422ED9019B002BDA
:10385C00F1D12AE0029B002B0BD002983DF058FAD4
:10386C00059006E0019B013B019320210398FFF793
:10387C00A1FF019A059B9A420FD9019B002BF1D114
:10388C000BE0029B01330293059B013305939DF8DA
:10389C00133019460398FFF78DFF029B1B788DF8A8
:1038AC0013309DF81330002BEBD100BF07B05DF83F
:1038BC0004FB000000B589B00390029101920093C3
:1038CC00029B07930123069307E0079A019BB2FB27
:1038DC00F3F30793069B01330693079A019B9A42D5
:1038EC00F3D2009A069B9A4201D9009B06930B9B3C
:1038FC0003F00103002B22D10A9B002B1FD00B9B42
:10390C0003F00203002B06D0009B002B03D13023C5
:10391C008DF8173002E020238DF8173008E00A9B51
:10392C00013B0A939DF8173019460398FFF742FFA5
:10393C000A9B002B03D0069A0A9B9A42EFD30123D1
:10394C000793009B012B03D9009B013B009309E0DB
:10395C00029A079BB2FBF3F30493049A019B9A42DD
:10396C0000D205E0079B019A02FB03F30793E8E7FB
:10397C00029A079BB2FBF3F30493049B079A02FB96
:10398C0003F3029AD31A0293154A049B13441B782F
:10399C0019460398FFF70EFF079A019BB2FBF3F34E
:1039AC000793079B002BE3D10B9B03F00103002B28
:1039BC0011D00A9B002B0ED006E00A9B013B0A9308
:1039CC0020210398FFF7F6FE0A9B002B03D0069AE2
:1039DC000A9B9A42F1D300BF09B05DF804FB00BF0B
:1039EC0064B0040000B589B0059004910392029371
:1039FC00049B002BB8BF5B4206930123079307E09F
:103A0C00039B069A92FBF3F30693079B01330793F0
:103A1C00039B069A9A42F3DA029A079B9A4201D9BF
:103A2C00029B07930A9B002B0AD0049B002B04DB00
:103A3C000B9B03F00403002B02D00A9B013B0A935F
:103A4C000B9B03F00203002B02D0029B002B16D021
:103A5C000B9B03F00103002B11D10A9B002B0ED002
:103A6C0006E00A9B013B0A9320210598FFF7A2FE72
:103A7C000A9B002B03D0079A0A9B9A42F1D3049B12
:103A8C00002B07DA049B5B4204932D210598FFF76A
:103A9C0091FE08E00B9B03F00403002B03D02B21B9
:103AAC000598FFF787FE0B9B03F00203002B19D040
:103ABC000B9B03F00103002B14D1029B002B11D1A3
:103ACC000A9B002B0ED006E00A9B013B0A93302187
:103ADC000598FFF76FFE0A9B002B03D0079A0A9BF1
:103AEC009A42F1D304990B9B01930A9B0093029B7E
:103AFC00039A0598FFF7DEFE00BF09B05DF804FBE2
:103B0C0000B58FB0059004910392059B002B04D156
:103B1C00C8494FF49F70FFF7DDFC059B5B69002BD8
:103B2C0004D1C4494FF4A070FFF7D4FC059B1B686B
:103B3C00002B04D1BF4940F24110FFF7CBFC059B91
:103B4C005B68002B04D1BB494FF4A170FFF7C2FC9A
:103B5C00049B002B00F0ED81049B1B788DF8373013
:103B6C00049B013304939DF83730002B00F0D8816F
:103B7C009DF83730252B40F0C78100230A93012391
:103B8C000C93049B1B788DF837309DF837302D2B18
:103B9C0004D0302B0AD02B2B10D017E00A9B43F00B
:103BAC0001030A93049B0133049312E00A9B43F034
:103BBC0002030A93049B013304930AE00A9B43F02B
:103BCC0004030A93049B0133049302E000230C9337
:103BDC0000BF0C9B002BD4D1002309939DF83730E8
:103BEC002A2B0CD1039B1B68191D039A11601B68AF
:103BFC00099A13440993049B013304931AE0049B20
:103C0C001B788DF837309DF837302F2B12D99DF853
:103C1C003730392B0ED8049B01330493099A134681
:103C2C009B0013445B001A469DF837301344303B1D
:103C3C000993D3E700230B93049B1B788DF8373043
:103C4C009DF837302E2B1DD1049B01330493049B1C
:103C5C001B788DF837309DF837302F2B12D99DF803
:103C6C003730392B0ED8049B013304930B9A13462F
:103C7C009B0013445B001A469DF837301344303BCD
:103C8C000B93E4E7049B1B788DF837309DF83730A5
:103C9C006C2B03D09DF83730682B07D1049B013374
:103CAC000493049B1B788DF83730EFE79DF8373081
:103CBC00253B532B00F2238101A252F823F000BFC5
:103CCC00013F00000B3F00000B3F00000B3F0000CA
:103CDC000B3F00000B3F00000B3F00000B3F0000B0
:103CEC000B3F00000B3F00000B3F00000B3F0000A0
:103CFC000B3F00000B3F00000B3F00000B3F000090
:103D0C000B3F00000B3F00000B3F00000B3F00007F
:103D1C000B3F00000B3F00000B3F00000B3F00006F
:103D2C000B3F00000B3F00000B3F00000B3F00005F
:103D3C000B3F00000B3F00000B3F00000B3F00004F
:103D4C000B3F00000B3F00000B3F00000B3F00003F
:103D5C000B3F00000B3F00000B3F00000B3F00002F
:103D6C000B3F00000B3F00000B3F00000B3F00001F
:103D7C000B3F00000B3F00000B3F00000B3F00000F
:103D8C000B3F00000B3F00000B3F00008D3E00007E
:103D9C000B3F00000B3F00000B3F00000B3F0000EF
:103DAC000B3F00000B3F00000B3F00000B3F0000DF
:103DBC000B3F00000B3F00001D3E0000453E000085
:103DCC000B3F00000B3F00000B3F00000B3F0000BF
:103DDC00453E00000B3F00000B3F00000B3F000076
:103DEC000B3F00000B3F00000B3F0000CD3E0000DE
:103DFC000B3F00000B3F0000B13E00000B3F0000EA
:103E0C00693E00000B3F00000B3F00008D3E0000A0
:103E1C00039B1B68191D039A11601B680C930C9B68
:103E2C008DF823309DF8233019460598FFF7C2FC16
:103E3C0066E000BF30B00400039B1B68191D039A99
:103E4C0011601B680C930A9B0193099B00930B9BBD
:103E5C000A220C990598FFF7C5FD51E0039B1B68DE
:103E6C00191D039A11601B680C930C990A9B019302
:103E7C00099B00930B9B0A220598FFF71BFD3FE063
:103E8C00039B1B68191D039A11601B680C930C99FA
:103E9C000A9B0193099B00930B9B10220598FFF73B
:103EAC0009FD2DE0039B1B68191D039A11601B680B
:103EBC0007930A9B099A07990598FFF799FC1FE04D
:103ECC00039B1B68191D039A11601B680C9330210E
:103EDC000598FFF76FFC78210598FFF76BFC0C99A0
:103EEC000023019308230093082310220598FFF761
:103EFC00E1FC05E025210598FFF75CFC00E000BF24
:103F0C00049B0133049305E09DF83730194605985E
:103F1C00FFF750FC049B1B78002B7FF41DAE00E0D8
:103F2C0000BF059B1B7B002B04D00598FFF7E6FB1D
:103F3C0000E000BF0FB05DF804FB00BF10B487B009
:103F4C0001900091019B009A53E8004F04EB020092
:103F5C0043E8000191F0000FF6D105940490039111
:103F6C00049B184607B05DF8044B704710B487B03B
:103F7C0001900091019B009A53E8004FA4EB0200C2
:103F8C0043E8000191F0000FF6D1059404900391E1
:103F9C00049B184607B05DF8044B704700B583B01E
:103FAC0001900198FFF7E4FA0346184603B05DF858
:103FBC0004FB00B58BB001900091019B1B8A043B64
:103FCC000793009A079B1344DA1C079BB2FBF3F38D
:103FDC008DF81B300198FFF723FB0590059B002BF8
:103FEC0001D1002338E0059B00221A71059B0122A8
:103FFC005A71079B9AB2059BDA80059B09939DF831
:10400C001B30013B0493099B019A1A60002308930F
:10401C001DE00198FFF704FB0390039B002B0ED0CF
:10402C00059B5B790133DAB2059B5A71099B039AA4
:10403C001A60039B019A1A60039B099304E005988C
:10404C0000F00EF8002307E0089B01330893089A50
:10405C00049B9A42DDD3059B18460BB05DF804FB1C
:10406C0000B58BB00190019B0793079B5B798DF892
:10407C001B30019B08939DF81B30013B05930023DB
:10408C00099305E0089B1B680893099B013309936E
:10409C00099A059B9A42F5D3089B1B680493019BD4
:1040AC000893002309930BE0089B1B680393089962
:1040BC000498FFF7F7FA039B0893099B01330993C4
:1040CC009DF81B20099B9A42EED800BF0BB05DF8FF
:1040DC0004FB00B585B00190019B0393039B043353
:1040EC0001211846FFF72AFF00BF05B05DF804FB5D
:1040FC0000B587B00190019B0593059B043301210A
:10410C001846FFF733FF0346039303AB0493049B5A
:10411C001B78002B02D10198FFF7A2FF00BF07B05C
:10412C005DF804FB00B58DB00390029101920093F1
:10413C00039B0693069BDB880593039B0B93009BC9
:10414C001A1D059BB2FBF3F30A93009B0433059AEB
:10415C00B3FBF2F2059901FB02F29B1A0993009A48
:10416C00019B1A44059B1344DA1C059BB2FBF3F329
:10417C008DF81330069B5B799DF813209A420AD96F
:10418C002749BA20FFF7A6F905E00B9B1B680B9398
:10419C000A9B013B0A930A9B002BF6D10023089340
:1041AC00059A099BD31A0793079A019B934228BF40
:1041BC00134607932DE09DF83830002B0BD0029A54
:1041CC00089BD0180B9A099B13440433079A194681
:1041DC003CF0F6FC0AE00B9A099B1344181D029A5A
:1041EC00089B1344079A19463CF0EAFC00230993F8
:1041FC000B9B1B680B93019A079BD31A0193089A8C
:10420C00079B13440893059A019B934228BF1346BE
:10421C000793019B002BCED100BF0DB05DF804FBC2
:10422C0074B0040000B587B005900491039202931A
:10423C0000230093029B039A04990598FFF772FFE1
:10424C0000BF07B05DF804FB00B587B00590049182
:10425C000392029301230093029B039A04990598FD
:10426C00FFF760FF00BF07B05DF804FB00B585B039
:10427C000190019800F00EF80390039B002B01D0E5
:10428C00039B00E0024B184605B05DF804FB00BF31
:10429C00B8B0040086B00190164B0593164B0493EE
:1042AC001FE0049A059BD31ADB10DA0F13445B1042
:1042BC00DB00059A13440393039B1B680293029A39
:1042CC00019B9A4202D9039B04930AE0029A019B38
:1042DC009A4203D2039B0833059302E0039B5B686D
:1042EC0004E0059A049B9A42DBD30023184606B0DF
:1042FC00704700BFD4B30400C4B4040044F6C81320
:10430C00C058704700F59140643005F0FDBE00F5D3
:10431C008C401F30704744F6EF0373B5C45C054600
:10432C000E461CBB00F58B40583000F092FA02A9E7
:10433C00FD2301F8083D05F591403368CDF80130B7
:10434C00643033798DF805308DF806408DF80740D0
:10435C0004F0C1F805F58540143002F09EFF05F518
:10436C008740583003F00EF8204600E00D2002B0D4
:10437C0070BD44F6141382B0C35C002218078DF88C
:10438C00042044BF01228DF80420590742BF9DF838
:10439C00042042F002028DF804209A0742BF9DF8D7
:1043AC00042042F004028DF80420DB0742BF9DF884
:1043BC00043043F008038DF804309DF8040002B07B
:1043CC0070470A4612F0010F0CBF00210821930719
:1043DC0044BF41F00403D9B2530748BF41F0020176
:1043EC0000F59140130748BF41F00101643005F01E
:1043FC00C9BE00F58A402C3003F09DBD38B504468B
:10440C00A1B144F6EF03C35C93B900F58A402C309C
:10441C0003F0C0FD054604F58540143002F03DFF65
:10442C0004F58740583002F0ADFF02E0072500E0AC
:10443C000D25284638BD00F59140643004F0F0BBE2
:10444C0000F58C400E30704738B544F6EF03044647
:10445C00C35C83B900F58B40583000F0DEF905469B
:10446C0004F58540143002F018FF04F587405830ED
:10447C0002F088FF00E00D25284638BD44F23C537D
:10448C00C058704700F58A402C3003F03ABE44F215
:10449C009853C058704744F29853C150704700F578
:1044AC009140643005F05DBD00F591406430002111
:1044BC0005F004BD2AB121B100F59140643008F03B
:1044CC00EDBD0720704744F6EF03C05C704721B187
:1044DC0000F59140643004F00CBC0720704700F5E7
:1044EC009140643004F0D4B938B50C4600293CD066
:1044FC0000F59140643007F015F9036823604368B8
:10450C006360838A2381838A9B12A37290F8223082
:10451C00E37290F82330C3F383032373C37FC3F395
:10452C008113637390F82330C3F301030546A3731F
:10453C001CF0F4F9AB68227CC01A4FF47A73B0FB10
:10454C00F3F0E07395F82330C3F3801363F30002A8
:10455C0022742B7F03F00703991F4B424B41D2B2BD
:10456C0063F341022274002038BD072038BD0000DF
:10457C0000487047C4B4040000F5B64070300EF02B
:10458C0041B800F5B64070300EF040B800F5B640BA
:10459C0070300EF063BB69B144F20A63C25A4FF635
:1045AC00FF739A420CD000F5914064300121002237
:1045BC0005F011BE00F591406430012103F03BBFC2
:1045CC000D2070471FB501230024ADF80E300DF1FE
:1045DC000E030093062122460DF10D038DF80D40BC
:1045EC001FF094FC08B18DF80D409DF80D000030C3
:1045FC0018BF012004B010BD07B502AA012302F8B0
:10460C00011D06211FF0D8FC03B05DF804FB00F57A
:10461C009140643007F0B5BD10B500F591409DF8A0
:10462C00084002946430BDE8104004F0E3BF38B594
:10463C000C4605461CF072F9224601462846BDE898
:10464C00384010F0FBBB00BA70470378012B1ABF3F
:10465C00407800F00100184670470378022B1ABF0F
:10466C004078C0F3400001207047F0B510460D466D
:10467C0085B0144600213C223CF0CCFA002D37D0FA
:10468C002B681B785B0701D006265EE0284601A943
:10469C0001F004FC0646002857D19DF80430082B85
:1046AC00F2D104AA04F1320152F80A3D2360536896
:1046BC006360284601F0BBFB6B7984F83630AB792C
:1046CC0084F83730EB7984F83830284601F056FE00
:1046DC000746284601F027FE1D2F36D9028840F6E2
:1046EC00FF739A4231D183787BBBC3786BBB01E0FB
:1046FC0007262AE00379032B27D1427994F8393025
:10470C00121162F3030384F83930427962F34513D2
:10471C0084F83930437994F83920C3F3C00363F338
:10472C00041284F83920831D04F10802163053F862
:10473C00041B42F8041B8342F9D1197811701A68D2
:10474C00C4F819205A68C4F81D20304605B0F0BDD5
:10475C000378022B10B5044613D10FF0ECFD1CF0BE
:10476C00D3FA7F2807D094F96B307F2B01D0984275
:10477C0001DD84F86B0004F17400BDE8104010F00A
:10478C00B6BA10BD08B50FF06BFD00F58B40583074
:10479C00BDE80840FFF7DCBFC36D8B4201D08A68CF
:1047AC0002B1FEE70BB9816500E09960C16500209C
:1047BC00704770B50C464D1ECE1D1CF027FD05F83C
:1047CC00010FB542F9D1237823F0010343F0020322
:1047DC00237070BD37B5044601F108050DF1FF33A8
:1047EC0015F8012D03F8012F8D42F9D120460FF059
:1047FC00A2FD69461CF0FFF92868696804F12803DA
:10480C0003C303B030BD10B50C4601860FF093FD09
:10481C0021461CF0F3F9002010BD38B505460846BA
:10482C000C463CF075FA102807D805F136002146E5
:10483C0011223CF0E5F8002038BD072038BD10B53A
:10484C00044641860FF077FD618E1CF0C8F90020FC
:10485C0010BD0B68C0F847304B68C0F84B300020D7
:10486C0070470000F8B54378002503F0C00365F3EA
:10487C00861343703A4B4360031DC360394B03618D
:10488C0000F110038361384BC36100F11C034362D8
:10489C004FF6FE730B2703864FF6FF7343860570A6
:1048AC0085604561056280F8347080F83550056587
:1048BC0045658565C56504460E461CF0A7FC84F865
:1048CC0060001CF0A3FCFF2363667F233146274A5C
:1048DC0084F8610084F86B3084F86250234684F8C5
:1048EC006350A4F8685084F86A70E566256704F193
:1048FC00740010F0DEF9E567C4F8805004F1840010
:10490C0001F0D8F830461CF0FBF904F12806C4F885
:10491C00C80131462046C4F84C52FFF74AFF8022AA
:10492C00294604F5E6703CF075F920460FF003FDBE
:10493C001CF098F920460E49FFF78BFF20460D49D5
:10494C00FFF76BFF618E2046FFF779FF204631465B
:10495C00FFF740FF2046218EFFF755FF2046F8BD9C
:10496C00275700003B5700000355000091470000FB
:10497C0002B5040022B5040030B5039800240D5D87
:10498C0005550134082CFAD1110E0172110C41722B
:10499C00110A8172C272037330BD10B500220C462D
:1049AC00084640F6030101F0D4FB20464FF6FF7198
:1049BC0001F0B7F920464FF6FF7101F0EAF92046F5
:1049CC000721BDE8104001F09FBC2DE9F7430546D7
:1049DC0000220E4608464FF4404101F0BAFB698EA6
:1049EC00304601F036FA05F12801304601F0A2FA02
:1049FC00304601F098FC4FF0FF3303700F22002378
:104A0C008370C3704270044628460FF09DFC90F8EA
:104A1C00A8341B0732D50323237120236371284646
:104A2C000FF092FC0DF1070100F5806003F04BFADA
:104A3C009DF80720637912B143F0010301E023F0E4
:104A4C00010305F136076371102138463BF0F9FF7D
:104A5C0004F1060881460021102240463CF0DAF8A9
:104A6C00394640464A463CF0ABF855F8473FC4F847
:104A7C0016306B68C4F81A301E2100E00421304651
:104A8C0001F089FC03B0BDE8F08300002DE9F04390
:104A9C00E3B00C4606460FF057FC0023054609A868
:104AAC00049310F048FD23681B78190740F1A68089
:104ABC0020460DF10E0101F0A3FA9DF80E30082BE3
:104ACC0015D0102B2DD0002B42D1637A5A0705F24A
:104ADC00944706F128083CD42046D5F8A41401F0DC
:104AEC00B9FAD5F8A4340133C5F8A43431E0637AAB
:104AFC005B0705F2044905F5856706F1280828D4FB
:104B0C00D5F85814204601F0A5FA484603F0AFFA40
:104B1C00D5F8141401F07F012046013101F0E2FABE
:104B2C0017E0394BD6F84C12186805900131C6F8CD
:104B3C004C12204601F08EFA204605A901F0A8FA85
:104B4C002046FF2101F0CEFADFF8C4802F4F00E0A1
:104B5C00FEE70DF10D01204601F042FA05AD04A966
:104B6C00204601F05DFA9DF80D30049A0095304610
:104B7C004146FFF701FF3946102209A810F028FB27
:104B8C00204601F0C2FA02388DF80F00204601F0E1
:104B9C00E0FB0646204601F0F1FB0D210246019197
:104BAC009DF80F30009509A8314610F018FB00B1A4
:104BBC00FEE72046256801F0CCFB2946024609A8F1
:104BCC0010F0C7FB204601F0AEFB0646204601F074
:104BDC00AAFB0546204601F0D1FB012203463146D3
:104BEC00009209A82A4610F0F4FB204601F0E1FBE4
:104BFC000DF10F02014609A810F073FC09A810F082
:104C0C00ABFC63B0BDE8F083FEB4040012B5040045
:104C1C000AB5040010B50B681B789A06044609D532
:104C2C000FF089FB1CF072F8C30703D4201D102170
:104C3C00FFF7FDFC10BD4AF6FC03C35C23B100F585
:104C4C008B405830FFF7E6BF704710B50C460FF09D
:104C5C0072FB2146BDE810401CF030B810B50C4674
:104C6C000FF069FB2146BDE810401CF015B808B5E3
:104C7C000FF061FBBDE808401BF0FEBF037810B5D8
:104C8C000446C3B943789B0609D4426A00F11C035D
:104C9C009A4204D10FF04FFB1CF03AF830B1204689
:104CAC0094F83410BDE81040FFF7D8BF2046FFF74A
:104CBC00DEFF0D28F3D010BDA1F10B020F2A08B5B1
:104CCC0005D880F83410FFF7D9FF002008BD072065
:104CDC0008BD00002DE9F04FE9B00D461F46934684
:104CEC0082460FF031FB80460FA810F024FC6B7A43
:104CFC006FF300036B722B681B7803F0080303F04F
:104D0C00FF06002B00F0DB8005A9284601F068F9AE
:104D1C0006A9284601F084F928460DF1150101F089
:104D2C006FF99DF81540082C08F204490AD0102C94
:104D3C0049D0002C40F0C08008F2944CBCF1000F1C
:104D4C003ED1B9E0002F00F0B78028460DF11701D5
:104D5C0001F0B4F99DF81730D8F81444013BDBB2DC
:104D6C0004F07F0293428DF8173002D108F5856C60
:104D7C0016E0661E06F07F02934206D14846314685
:104D8C0003F064F9344684460AE0013404F07F02EF
:104D9C00934240F091804846214603F057F98446EF
:104DAC003B7F03F00703062B0AD1BB699C42C0F082
:104DBC00838005D1069BFA68013393427CD37DD066
:104DCC000BF1020103E04149DFF804C1002407AEF6
:104DDC009DF81430069A00965046CDF80CC0FFF79B
:104DEC00CBFD284601F091F9DDF80CC00238614684
:104DFC0010228DF816000FA810F0EAF9284601F0E1
:104E0C00A8FA8246284601F0B9FA0D21024600960E
:104E1C0001919DF816300FA8514610F0E0F90646A6
:104E2C00002849D12846D5F800A001F092FA514645
:104E3C0002460FA810F08DFA284601F074FA83464A
:104E4C00284601F070FA8246284601F097FA594636
:104E5C00034652460FA8009610F0BBFA0BA90DF1B1
:104E6C0016020FA810F03DFB284601F0A2FA9DF89F
:104E7C00162001460BA83BF019FDE8B99DF815303A
:104E8C00082B14D13B7F03F00703062B0FD1BB6912
:104E9C00A34201D0BC613E61069B0133FB60D8F894
:104EAC0014349C4203D94846214603F02AF96B7A04
:104EBC0043F001036B7202E0082600E01D260FA8E8
:104ECC0010F04AFB304669B0BDE8F08F0AB504001B
:104EDC0012B50400C167C0F88020704708B50FF008
:104EEC002AFABDE808401BF013BF38B50D4604463E
:104EFC000FF021FA29461BF00DFF2046BDE8384083
:104F0C00FFF7BCBE08B50FF016FA1BF0FFFE10F051
:104F1C000C0F14BF0120002008BD08B50FF00BFAD0
:104F2C001BF0F4FEC0F3800008BD38B50446D0F881
:104F3C0024020D46FFF787FBD4F83432C5F8020083
:104F4C00D4F838021844D4F83C321844D4F840321F
:104F5C001844D4F844320344D4F848021844FFF7F8
:104F6C0072FBC5F80600D4F8FC01FFF76CFBC5F822
:104F7C000A00D4F80C02FFF766FBC5F80E00D4F853
:104F8C001002FFF760FBD4F82832C5F81200D4F8F1
:104F9C002C020344D4F830021844FFF754FBC5F834
:104FAC001600D4F8D001FFF74EFBC5F81A00D4F860
:104FBC00D401FFF748FBC5F81E00D4F80402FFF734
:104FCC0042FBC5F8220038BD00F5E67000218022B6
:104FDC003BF020BE08B50FF0AEF9BDE808401CF060
:104FEC0055B82DE9F0430F4685B0044604301E46F3
:104FFC0090460FF0E7FE384601A900F0A1FE3EB93D
:10500C003B681B789B0612D5B8F1000F21D10EE03E
:10501C000B2E05D1D4F800320133C4F8003206E06F
:10502C000F2E02BFD4F8FC310133C4F8FC3100253B
:10503C002046FFF767FF38BB0F2E25D194F862305E
:10504C00032B21D8013384F86230204600F0B6F8E7
:10505C003BE0D8F8003020461D780FF075F901A917
:10506C0000F2BC7007F060FDC5F300158146002806
:10507C00DED02046FFF7AEFF98F90620014609F175
:10508C001E0003F027F9D3E7002384F8623023785D
:10509C00032B04D12046314600F061FA15E0042BB5
:1050AC0010D1002DF6D0384601F014F90028F1D0BB
:1050BC0004F11C006421FFF7BAFA2046052100F028
:1050CC00C0F8E7E7012BE5D0FEE705B0BDE8F083BB
:1050DC0070B5D0F8C841637A43F008036372B0F836
:1050EC0062600546002E46D190F83530A3710378E6
:1050FC00032B13D0042B21D0012B2FD10FF01BF934
:10510C004FF6FF711BF06BFD95F86A306371284602
:10511C002146FFF742FC23689E700CE090F8343077
:10512C0063712146FFF751FC95F860305A1C85F8E5
:10513C006020226893700423237210E090F83430BE
:10514C006371006D21460368984768BB637A5B07FF
:10515C0005D4236895F861209A7000E0FEE721469B
:10516C002846FFF793FC95F8353094F906105AB29F
:10517C009142C8BFA37128466179FFF76FFD00B15A
:10518C00FEE728462146FFF760FD00B1FEE7EB6F16
:10519C009BB1637A43F002036372EB6FD5F8801016
:1051AC002046BDE8704018472846D5F8C81132464D
:1051BC000B23BDE87040FFF714BF70BD38B5044633
:1051CC00FFF7A0FE20B12046BDE83840FFF780BFB6
:1051DC0094F8623094F863501D4403351CF016F8B3
:1051EC00052D28BF05250122AA406378013A1040FD
:1051FC004FF4A0759B0605FB00F514D420460FF068
:10520C009AF81BF085FD70B92046FFF730FD0D288C
:10521C0009D01BF094FB2A46014604F11000BDE8AE
:10522C0038400FF049BE2378013B012B03D82046B0
:10523C0094F86A1002E094F834102046FFF70EFD43
:10524C00E7E7013910B5042918D8DFE801F00307A6
:10525C000B0F1300437843F001030EE0437843F047
:10526C0002030AE0437843F0040306E0437843F07A
:10527C00080302E0437843F0100343700178C9BB84
:10528C004378C3F3001252B161F304134370052346
:10529C00037090F83410BDE81040FFF7DFBC13F03A
:1052AC00010404D062F300034370012312E0C3F342
:1052BC00400141B164F34103437002230370BDE824
:1052CC00104000F081B8C3F3800242B161F3820355
:1052DC00437003230370BDE81040FFF76FBF19073D
:1052EC0004D562F3C30343700423F3E7BDE8104015
:1052FC00FFF7C4BC10BDF8B504460F4615461E4654
:10530C00FFF7A3F918B92046FFF7A7F908B1052054
:10531C00F8BD002D069BE36608BF4FF0FF350B234D
:10532C00002E08BF4FF49676DD40A4F8686084F830
:10533C006A306566636EDA0707D45B08636694F8B7
:10534C006A30013384F86A30F4E720463946FFF7B7
:10535C0078FF0020F8BD73B50E4615460367069B13
:10536C000093012132462B460446FFF7C4FF08B1D7
:10537C000023236702B070BD73B50E461546036754
:10538C00069B0093022132462B460446FFF7B3FFDF
:10539C0008B10023236702B070BD08B5436D8B4282
:1053AC000CD08A6852B9026D0AB9016500E09960A7
:1053BC0041650421FFF745FF002008BD182008BDFA
:1053CC0000210170FFF73DBF10B504460EF0B3FF8E
:1053DC001BF09CFC830712D47F23B4F8681084F86C
:1053EC006B30201DFFF723F904F174000FF07FFCE4
:1053FC00204694F86A10BDE81040FFF72FBC2046F9
:10540C000EF099FF94F86A10B4F868201BF0C4FCF5
:10541C0040B1E06E236F002198472046BDE8104054
:10542C00FFF7CEBF10BD7F2913B5044609D090F805
:10543C006A308DF804308DF80510036FC06E01A929
:10544C009847626E94F86A3001335208DBB20AD185
:10545C0084F86A30E06E6266236F0021984720461C
:10546C00FFF7AEFF09E01A2BF2D8D107ECD5626634
:10547C0084F86A302046FFF7A7FF02B010BD4AF649
:10548C00FC03C35C23B100F58B405830FFF7CBBF56
:10549C00704710B54378C3F340128A42044615D0C6
:1054AC0061F34513437061B1DBB26FF304134370C6
:1054BC000378052B05D11C300FF084FC2046FFF738
:1054CC007FFF2046BDE81040FFF7D8BB10BD037826
:1054DC00052B10B504460AD1FFF772FFA46D2CB151
:1054EC0063680BB120469847A468F8E710BDBDE887
:1054FC001040FFF7C3BB08B50EF0B2FE00F58B40B1
:10550C005830BDE80840FFF7E2BF13B50446084623
:10551C000DF1070100F0CEFE9DF80730042B0ED0E4
:10552C00072B12D1D4F820320133C4F8203263781F
:10553C005B0611D520460321FFF783FE0CE0D4F85F
:10554C0018320133C4F8183204E0D4F82432013391
:10555C00C4F82432002000E0022002B010BD7FB558
:10556C0090F86330D0F8C86101330B2904460D461E
:10557C0080F8633006D001D879B10DE0A1F10E03AB
:10558C00012B09D82046FFF7C8FC30B994F86320EA
:10559C00337A9A427DD300E0FEE7002384F863302F
:1055AC0084F86230D4F8CC31D4F8C80101330F2D13
:1055BC00C4F8CC3102BFD4F804320133C4F804323D
:1055CC0001A900F0BDFBBDF806204FF6FF739A420F
:1055DC000BBFD4F8D431D4F8D031013301330CBF24
:1055EC00C4F8D431C4F8D03133681B789A060BD583
:1055FC00D4F8D8310133C4F8D83155B9D4F8DC31EA
:10560C000133C4F8DC3104E0D4F8E0310133C4F8E0
:10561C00E0312378032B0ED0042B12D0012B37D181
:10562C00D4F8F031B4F868100133C4F8F031201D0F
:10563C00FEF7FDFF35E0D4F8EC310133C4F8EC3162
:10564C0022E0626A206D04F11C039A4215BFD4F863
:10565C00E831D4F8E4310133013314BFC4F8E83134
:10566C00C4F8E4318368236503B963650023836060
:10567C00737A5B075EBF94F86130013384F8613054
:10568C00436831462A4698472046FFF799FE08E0C2
:10569C00FEE72046FFF792FDD4F8F8310133C4F849
:1056AC00F83104B070BD0378022B10B5044628D035
:1056BC00042B2CD0012B2FD1426E90F86A30013381
:1056CC005208DBB211D1626684F86A3020460EF0C3
:1056DC0032FE618E1BF083FAE06E236F0021984737
:1056EC002046BDE81040FFF76BBE1A2BEBD8D10754
:1056FC00E5D5626684F86A302046BDE81040FFF7B5
:10570C005DBD90F96B10BDE81040FFF78CBE0E210B
:10571C00BDE81040FFF723BFFEE708B50EF0A0FD73
:10572C0000F58B405830BDE80840FFF7BCBF08B50A
:10573C000EF096FD00F58B405830BDE80840FFF7A1
:10574C00C7BC10B54AF6FC04045D34B100F58B40BF
:10575C005830BDE81040FFF744BC10BD2DE9F041B6
:10576C0088B07F238DF80530D0F808320133044619
:10577C00C0F808320D461046002A40F0448100293A
:10578C0000F01A814B7A62F300034B72E36F43B162
:10579C004B7A62F341034B720846E36FD4F88010E6
:1057AC009847284600F073FD002840F02C8102A990
:1057BC00284600F073FB20460EF0C6FD02A900F24D
:1057CC00BC7007F0B1F99DF80830022B064605D0E5
:1057DC00082B0FD0002B40F0FB800BE0002800F0D2
:1057EC00F18008238DF808300368CDF80A3043683F
:1057FC00CDF80E3004F128080DF10A0041460822BC
:10580C003BF054F8002800F0E3809DF808307BB1A1
:10581C0004F184000DF10A010DF1050200F036FAD5
:10582C00002840F0F0809DF805307F2B18BFAB713D
:10583C00284605A900F084FA9DF81470022F02D0B6
:10584C00082F1ED031E028460DF1060100F057FA62
:10585C00BDF806304FF6FF72934203D0628E9A4227
:10586C0040F0BC80637813F0200FBDF8163003D0E5
:10587C004FF6FF72934218D0228E934240F0AE80C6
:10588C0013E028460DF1060100F039FABDF80620A8
:10589C00638E9A4240F0A2800DF1160041463A46C2
:1058AC003BF004F8002840F09980BDF816204FF624
:1058BC00FF739A420BBFD4F81032D4F80C32013378
:1058CC0001330CBFC4F81032C4F80C322046294600
:1058DC0002AA3346FFF7FEF9002840F094801EB36D
:1058EC009DF905307F2B06F11E0702D0384602F0D9
:1058FC00B2FC2046FFF76EFB95F9062001463846B0
:10590C0002F0E8FC2B681B781A070DD5337F03F0E7
:10591C000703052B03D0062B06D0012B52D12846AA
:10592C0000F0D8FC00285FD02378022B11D0052B77
:10593C0016D0012B1ED12B681B785B0709D1D4F82C
:10594C001C32E06E0133C4F81C322946236F984791
:10595C00A3E094F86A2094F834309A4226D109E0F6
:10596C009DF8143033B104F11C000FF02BFA2046D3
:10597C00FFF726FD2B681B7803F00703012B0FD0D4
:10598C0008D3032B12D120462946FFF7BEFD02286F
:10599C0030D182E0D4F81C320133C4F81C3229E037
:1059AC00D4F814320133C4F8143223E0D4F824327E
:1059BC000133C4F8243270E0D4F834320133C4F823
:1059CC0034326AE0D4F838320133C4F8383264E047
:1059DC00D4F83C320133C4F83C325EE0D4F82C32BB
:1059EC000133C4F82C3258E0D4F848320133C4F8EF
:1059FC00483252E0A46D002C4FD023682046294633
:105A0C009847A468F7E708381528EDD801A353F890
:105A1C0020F000BF795A0000F5590000F55900003C
:105A2C00F5590000F5590000F5590000F559000032
:105A3C00F5590000F5590000855A0000C5590000C1
:105A4C00D1590000DD590000915A0000E9590000BD
:105A5C00F5590000F5590000F5590000F559000002
:105A6C00F5590000F55900009D5A0000D4F8403259
:105A7C000133C4F8403210E0D4F844320133C4F896
:105A8C0044320AE0D4F828320133C4F8283204E056
:105A9C00D4F830320133C4F8303208B0BDE8F081AC
:105AAC004AF6FC03C35C23B100F58B405830FFF77A
:105ABC0055BE7047002370B580F840317F230546F2
:105ACC0080F84131044600F5A076204600210A22D8
