:100000000000042059020000B1020000B302000009
:10001000B5020000B7020000B902000000000000B5
:10002000000000000000000000000000BB02000013
:10003000BD02000000000000BF020000C10200007D
:100040000933000021E0000041DC00000D630000E6
:1000500025630000CF0200002D3700002D45000071
:10006000555100006D51000085510000DB02000079
:10007000DD020000D1DB0000E1020000E30200002D
:10008000E50200000D230000E9020000EB02000081
:100090004D230000EF020000F1020000F302000017
:1000A000F5020000F70200009D510000B55100006C
:1000B00069430000FF020000C3020000C302000009
:1000C0000103000081430000994300000703000082
:1000D00039DA00000B0300000D0300000F030000DD
:1000E00011030000130300001503000017030000B4
:0800F000C30200001903000027
:1000F800364937480A1A02D0072291438D463549B6
:1001080035480A1A06D00722914381F3098802224A
:1001180082F3148831483249324A00F045F83248AF
:100128003249334A00F040F832483349334A00F044
:100138003BF833483349344A00F036F833483449F9
:10014800344A00F031F834483449354A00F02CF884
:1001580034483549354A00F027F8354835490022F2
:1001680000F02DF834483549002200F028F83448CA
:100178003449091A082903DB0022026004300160AF
:10018800314A90471F482049884205D00268043008
:1001980003B4904703BCF7E700208646EC460020EE
:1001A80000212A4A9047FEE7884207D0521A05D014
:1001B800037801300B700131013AF9D17047884258
:1001C80002D002700130FAE77047000000000420F6
:1001D80000E003200000042000000420D80F0100E4
:1001E80078000020C90300201C0300001C03000045
:1001F80002F00000D80F01007800002078000020ED
:10020800CCF00000CCF00000CCF00000CCF00000F6
:10021800CCF00000CCF00000CCF00000CCF00000E6
:10022800D70F01002C130100CC030020CC030020C1
:10023800CC0300201A2500201C2500201C250020A6
:100248001C2500201C2700207D020000FD1700004F
:100258000F484FF00701884385460E4880470E48EF
:10026800016841F470010160BFF34F8FBFF36F8FD6
:10027800FFF73EBF09480A490A4A884207D0521A7E
:1002880005D0037801300B700131013AF9D170477C
:10029800000004202166000088ED00E054F0000012
:1002A8000000002078000020FEE7FEE7FEE7FEE7FA
:1002B800FEE7FEE7FEE7FEE7FEE7FEE7FEE7FEE70E
:1002C800FEE7FEE7FEE7FEE7FEE7FEE7FEE7FEE7FE
:1002D800FEE7FEE7FEE7FEE7FEE7FEE7FEE7FEE7EE
:1002E800FEE7FEE7FEE7FEE7FEE7FEE7FEE7FEE7DE
:1002F800FEE7FEE7FEE7FEE7FEE7FEE7FEE7FEE7CE
:10030800FEE7FEE7FEE7FEE7FEE7FEE7FEE7FEE7BD
:04031800FEE700BF3D
:10031C0008B506F05DF900BF08BD00B589B00390C3
:10032C0002910192019B002B22D0002307930A23F8
:10033C000693029A079B1344019A1946002006F073
:10034C00F9F80590079A059B13440793019A059BAE
:10035C00D31A0193059B002B05D1069B013B0693F9
:10036C00069B002B03D0019B002BE2D100E000BFC9
:10037C0000BF09B05DF804FB00B585B00390029195
:10038C00054B00934023054A0299039800F012F89C
:10039C0000BF05B05DF804FB27030000CC03002070
:1003AC0082B0019000BF02B0704782B0019000BFD4
:1003BC0002B0704700B5A1B005900491039202936E
:1003CC00049802F020FE039B1593029B16930023C6
:1003DC00179300238DF8603000231993229B1A93F6
:1003EC0000231F930FA91F9B0822049802F0C6FE3E
:1003FC0008231F93119B1293109B9BB2ADF84C30AA
:10040C0000238DF850309DF83C3003F00303DBB231
:10041C00012B32D10F9BC3F395231D939DF83C30D8
:10042C00C3F3C203DBB28DF84E309DF83C30C3F3FE
:10043C008003DBB2002B14BF01230023DBB28DF849
:10044C004F30BDF83C30C3F38313DBB21C931C9BC1
:10045C009A0009A91F9B049802F090FE1C9B9B001C
:10046C001F9A13441F9312AA09A915AB00931346A4
:10047C001C9A1D9800F084FE3BE09DF83C3003F084
:10048C000303DBB2022B34D1BDF83E30C3F3891326
:10049C009BB21E939DF83C30C3F3C203DBB28DF8C4
:1004AC004E309DF83C30C3F38003DBB2002B14BFFD
:1004BC0001230023DBB28DF84F301E9B082B28BF85
:1004CC0008231B9307A91F9B1B9A049802F056FE46
:1004DC001F9A1B9B13441F931E9A1B9BD31A1E938C
:1004EC0015AB12AA07A81B9900F0ECFE1E9B002B63
:1004FC00E3D1049802F096FD00BF21B05DF804FB37
:10050C0082B00190019B01225A7200BF02B0704769
:10051C0000B583B04FF0FF330193FFF7F9FE0421D0
:10052C00084800F067FD0190019B002B03DA064997
:10053C00412001F06AFF0348FFF7E2FF00BF03B060
:10054C005DF804FB78000020D8F0000000B583B003
:10055C0001900091019B1B681B68009901989847BA
:10056C0000BF03B05DF804FB00B583B00190019BA4
:10057C001B685B680198984700BF03B05DF804FBEB
:10058C0082B001900B468DF80330019B9DF803203F
:10059C001A7200BF02B0704782B00190019B1B7AA7
:1005AC00184602B0704782B00190019B01225A722A
:1005BC0000BF02B0704782B00190019B5B7A184675
:1005CC0002B0704710B487B001900091019B009A63
:1005DC0053E8004F44EA020043E8000191F0000F99
:1005EC00F6D1059404900391049B184607B05DF86E
:1005FC00044B704710B487B001900091019B009A96
:10060C0053E8004F04EA020043E8000191F0000FA8
:10061C00F6D1059404900391059B184607B05DF83C
:10062C00044B704700B583B0019001210198FFF78E
:10063C00C9FF0346184603B05DF804FB00B583B050
:10064C00019000210198FFF7D5FF0346184603B02F
:10065C005DF804FB00B587B001901F4BFF229A6038
:10066C001D4B00221A601C4B00225A601A4B0022B0
:10067C00C3F81824184B0022C3F81424164B00227C
:10068C0083F81C24154802F023FC0490049B002BD7
:10069C0001D0049B1CE0124A124BD31ADB080393C3
:1006AC00002305930FE0059A13465B0013449B004F
:1006BC001A460D4B13440293059B9AB2029B1A8067
:1006CC00059B01330593059A039B9A42EBD30023B8
:1006DC00184607B05DF804FBDC0400202CF1000088
:1006EC0054F0000004F0000000000020024A034B0C
:1006FC00D31ADB081846704754F0000004F00000D1
:10070C0000B587B001900B468DF803309DF803308F
:10071C00002B23D0FFF7EAFF04900023059317E08A
:10072C00059A13465B0013449B001A460E4B134468
:10073C000393039B5B881A46019B1B689A4204D166
:10074C00019B059A1A60002309E0059B0133059370
:10075C00059A049B9A42E3D3052300E00023184634
:10076C0007B05DF804FB00BF0000002000B585B0A9
:10077C0001900B468DF803309DF8032001AB114618
:10078C001846FFF7BDFF0346002B07D1019BDB008A
:10079C00054A13440393039B1B6800E0002318468F
:1007AC0005B05DF804FB00BF04F0000084B00190BC
:1007BC000B468DF80330019BDB00174A1344029360
:1007CC009DF80330013B032B1CD801A252F823F0F7
:1007DC00ED070000F5070000FD070000070800000A
:1007EC0000238DF80F3011E000238DF80F300DE051
:1007FC00029B1B798DF80F3008E0029B5B798DF81A
:10080C000F3003E000238DF80F3000BF9DF80F3040
:10081C00184604B0704700BF04F0000000B589B062
:10082C004148FFF7FFFE4148FFF7FCFE404B5B6879
:10083C0007933F4B9B680493079A049B1340023326
:10084C009B003B4A1344043306931BE0079B013384
:10085C000793069B5B88C3F389139BB21A46069BCE
:10086C001B88C3F389139BB213441A46079B13448A
:10087C000793079A049B134002339B002C4A1344A2
:10088C0004330693069B1B7803F00303DBB2002BA7
:10089C00DCD00023059311E0059B9B006A461A44AB
:1008AC00079B591C079104990B40214902339B006B
:1008BC000B445B681360059B01330593059B012B6F
:1008CC00EAD99DF80030C3F30103DBB2012B0CD045
:1008DC00022B14D1BDF80230C3F389139BB203333E
:1008EC009B08079A134407930FE0BDF80030C3F33D
:1008FC008313DBB21A46079B1344079305E00D499B
:10090C0040F24D1001F081FD00BF0848FFF796FE44
:10091C000390039B002B02D0054A079B536000BF3A
:10092C0009B05DF804FB00BFF4080020F0080020BB
:10093C00DC04002050F1000010B586B00390029149
:10094C0001920093009B5A1C0092089A13400233A8
:10095C009B00294A134404330593059A137801210B
:10096C0061F301031370039B03F01003002B14BFFE
:10097C0001230023D9B2059A137861F38203137013
:10098C00039BDBB203F00703D9B2059A137861F32A
:10099C00C5031370019BDBB203F00F03D9B2059AA8
:1009AC00138861F389131380029BC3F31501059A15
:1009BC00136861F39F231360039B1B0CADF812307B
:1009CC00BDF81240FFF792FE03469C4204D30B493C
:1009DC0040F2691001F019FD009B5A1C0092089A14
:1009EC001340BDF81220044902339B000B445A609B
:1009FC00009B184606B010BDDC04002050F100002E
:100A0C0000B589B001900091019B0233069302233B
:100A1C00059301238DF81330002001F0AFFC194B26
:100A2C001A68009B1A60174B9A68164B5968154B3D
:100A3C001B68CB1A134401330793069A059B134486
:100A4C0003930BE0FFF7EAFE0E4B9A680D4B5968C7
:100A5C000C4B1B68CB1A134401330793039A079B67
:100A6C009A42EFD8074B1A68069B1344054A136049
:100A7C00002001F097FC9DF81330184609B05DF882
:100A8C0004FB00BFDC04002000B58BB00590049182
:100A9C00039202931E4B9B68089307AB194602986E
:100AAC00FFF7AEFF0346002B23D0079A089B009359
:100ABC001346029A04990598FFF73EFF03460793E5
:100ACC000023099311E0079B5A1C0792089A1340C4
:100ADC00099A920003990A4412680D4902339B004B
:100AEC000B445A60099B01330993099A029B9A4261
:100AFC00E9D3074B93F81C34002B05D000BF00F052
:100B0C0095F80346002BFAD100BF0BB05DF804FB3F
:100B1C00DC04002000B583B001900091002300227A
:100B2C0000990198FFF7B0FF00BF03B05DF804FB1C
:100B3C0000B587B0039002910192019B059305AA21
:100B4C00012302990398FFF79FFF00BF07B05DF8E0
:100B5C0004FB00B587B00390029101920093019BB6
:100B6C000493009B059304AA022302990398FFF7B0
:100B7C008BFF00BF07B05DF804FB00B589B0039094
:100B8C00029101920093019B0593009B06930A9B93
:100B9C00079305AA032302990398FFF775FF00BF7B
:100BAC0009B05DF804FB00B589B003900291019285
:100BBC000093019B0493009B05930A9B06930B9B4C
:100BCC00079304AA042302990398FFF75DFF00BF63
:100BDC0009B05DF804FB00B58BB003900291019253
:100BEC000093019B0493009B05930C9B06930D9B18
:100BFC0007930E9B08930F9B099304AA0623029953
:100C0C000398FFF741FF00BF0BB05DF804FB000039
:100C1C00054B5A68044B1B689A420CBF01230023F6
:100C2C00DBB21846704700BFDC04002000B597B05B
:100C3C00FFF7EEFF0346002B01D000239FE19D4BF5
:100C4C000022C3F81824BFF34F8F9A4B5B6815939F
:100C5C00984B9B680E93159A0E9B134002339B0086
:100C6C00944A1344043314930023139300231293D4
:100C7C0000230D931BE0159B01331593149B5B888C
:100C8C00C3F389139BB21A46149B1B88C3F38913B5
:100C9C009BB213441A46159B13441593159A0E9B3D
:100CAC00134002339B00834A134404331493149B64
:100CBC001B7803F00303DBB2002BDCD00023119371
:100CCC0011E0119B9B006A461A44159B591C159107
:100CDC000E990B40774902339B000B445B68136001
:100CEC00119B01331193119B012BEAD99DF8003014
:100CFC0003F00303DBB2022B40F09C80BDF8023002
:100D0C00C3F389139BB20C93BDF80230C3F3891360
:100D1C009BB2502BA8BF50230B930B9B9BB2C3F3DE
:100D2C0009039AB2BDF8023062F38F13ADF80230AA
:100D3C000B9B08330A939DF80030C3F3C203DBB25C
:100D4C000D930A995C4802F0CEF81390139B002B7C
:100D5C0000F0D480139802F056F96946129B0822D1
:100D6C00139802F0F9F9129B08331293159BDA438E
:100D7C000E9B134001339B0009930B9A099B9A42DB
:100D8C0042D9099B002B08D0159A0E9B13400233B5
:100D9C009B00484A1344043300E0484B0893099BDA
:100DAC00002B02D0099BDBB201E00B9BDBB28DF870
:100DBC001F30099B002B01D0404B00E00023069311
:100DCC00099B002B06D00B9BDAB2099BDBB2D31A22
:100DDC00DBB200E000238DF817309DF81F20129B2A
:100DEC000899139802F0B8F99DF81F30129A134421
:100DFC001293069B002B16D09DF81720129B069978
:100E0C00139802F0A9F90EE0159A0E9B13400233C9
:100E1C009B00284A134404330493129B0B9A0499A5
:100E2C00139802F099F90C9B03339B08159A134401
:100E3C00159363E09DF8003003F00303DBB2012B44
:100E4C005CD1BDF80030C3F38313DBB2062B28BF93
:100E5C000623DBB203F00F03DAB2BDF8003062F305
:100E6C008913ADF80030BDF80030C3F38313DBB247
:100E7C00023303939DF80030C3F3C203DBB20D932E
:100E8C00039B9B0019460C4802F02DF81390139B02
:100E9C00002B33D0139802F0B6F86946129B082247
:100EAC00139802F059F9129B0833129300231193F3
:100EBC001BE000BFDC0400202CF10000E804002043
:100ECC00159B5A1C15920E9A134002339B002E4A06
:100EDC001344191D129B0422139802F03DF9129B26
:100EEC0004331293119B01331193BDF80030C3F3FB
:100EFC008313DBB21A46119B9A42E1D8139B002B49
:100F0C0037D0214BD3F8103410931F4BD3F818342F
:100F1C00002B1AD0139802F085F82AE000238DF8E4
:100F2C003F301098FFF747FB0346002B02D00123FC
:100F3C008DF83F309DF83F30002B03D0139910985B
:100F4C00FFF704FB109B5B681093109B002BE5D103
:100F5C00139802F067F8002001F010FA0A4BD3F84E
:100F6C001834002B02D1084A159B5360002001F065
:100F7C0019FAFFF74DFE034683F00103DBB2184666
:100F8C0017B05DF804FB00BFDC04002000B585B091
:100F9C000023039322E0164BD3F810340293012361
:100FAC008DF807300EE00298FFF7F6FA03461A4662
:100FBC00039B9A4203D100238DF8073005E0029B76
:100FCC005B680293029B002BEDD19DF80730002B40
:100FDC0001D0039B07E0039B01330393039B092B75
:100FEC00D9DD4FF0FF33184605B05DF804FB00BFA8
:100FFC00DC04002000B585B001900B468DF8033061
:10100C00FFF7C4FF0390039BB3F1FF3F01D1039B98
:10101C001EE0039BDBB219460198FFF7B1FA0E4BA9
:10102C00D3F81034002B07D10B4A019BC2F81034B3
:10103C00019B00225A600AE0074BD3F810345A681F
:10104C00019B5A60044BD3F81034019A5A60039BED
:10105C00184605B05DF804FBDC04002000B583B035
:10106C000C4BD3F8103401930A4B012283F81C2447
:10107C0008E00198FFF797FA0198FFF775FA019BC2
:10108C005B680193019B002BF3D100BF03B05DF8AB
:10109C0004FB00BFDC04002010B582B0019000916D
:1010AC00019BDB7983F00103DBB2002B28D0019B81
:1010BC001B7A002B12D0019B9B881A46019B9B79B3
:1010CC0019461046FFF772FB03461A460E4B53F8AF
:1010DC0022301A460D49009801F0CCFA019B9B79FD
:1010EC001A460B4B53F82240019B9B880021184653
:1010FC00FFF73CFB034622460649009801F0BAFA7A
:10110C0000BF02B010BD00BF9800002004F2000028
:10111C008400002008F2000000B585B00390029115
:10112C0013468DF80730039BDB7983F00103DBB2A8
:10113C00002B0FD0039B1B7A002B06D00D4B1B688A
:10114C001A460D49029801F095FA0C49029801F0E3
:10115C0091FA07E09DF80730002B03D0074902985D
:10116C0001F088FA029801F063FA00BF05B05DF84F
:10117C0004FB00BF9800002004F2000014F20000F1
:10118C0030B58BB007900691059204930E9B1B7B98
:10119C008DF827300E9B00221A730E990498FFF7D6
:1011AC007BFF059B062B7FD801A252F823F000BFD2
:1011BC00D9110000E3110000F31100000712000028
:1011CC00251200004D1200007D12000007990E98A8
:1011DC0001F050FA69E0069B1B681A4607990E98B5
:1011EC0001F048FA61E0069B1A68069B04331B6801
:1011FC0007990E9801F03EFA57E0069B1A68069B79
:10120C0004331968069B08331B6800930B46079937
:10121C000E9801F02FFA48E0069B1968069B0433E0
:10122C001868069B08331B68069A0C3212680192E8
:10123C00009303460A4607990E9801F01BFA34E016
:10124C00069B1868069B04331C68069B08331B68B6
:10125C00069A0C32126806991031096802910192B3
:10126C0000932346024607990E9801F003FA1CE0FE
:10127C00069B1C68069B04331D68069B08331B6881
:10128C00069A0C32126806991031096806981430C7
:10129C00006803900291019200932B462246079915
:1012AC000E9801F0E7F900E000BF00220E990498B7
:1012BC00FFF732FF0E9B9DF827201A7300BF0BB06F
:1012CC0030BD00BF00B587B003900291019200932E
:1012DC00029B082B5CD8009B1B7B8DF81330009B6A
:1012EC0000221A7300990198FFF7D6FE002305938C
:1012FC0014E0059A029B9A4209D2039A059B134467
:10130C001B781A462449009801F0B4F903E02349EC
:10131C00009801F0AFF9059B01330593059B072B52
:10132C00E7D91F49009801F0A5F90023059322E0A5
:10133C00059A029B9A4217D2039A059B13441B7879
:10134C008DF812309DF8123018460CF0F5F9034662
:10135C00002B02D09DF8123000E02E231A461149C2
:10136C00009801F087F903E00F49009801F082F929
:10137C00059B01330593059B072BD9D901220099B5
:10138C000198FFF7C9FE009B9DF813201A7300E02B
:10139C0000BF07B05DF804FB18F2000020F200005B
:1013AC0024F2000028F200002CF2000084B001901E
:1013BC00244B0393019B002B40D0234B1A680399B9
:1013CC00019B00BF00BF00BF00BF00BF00BF00BF3C
:1013DC0000BF8A422FD000BF00BF00BF00BF00BFBC
:1013EC0000BF00BF00BF00BF00BF00BF00BF00BFF9
:1013FC0000BF00BF00BF00BF00BF00BF00BF00BFE9
:10140C0000BF00BF00BF00BF00BF00BF00BF00BFD8
:10141C0000BF00BF00BF00BF00BF00BF00BF00BFC8
:10142C0000BF00BF00BF00BF00BF00BF00BF00BFB8
:10143C0000BF00BF00BF013BC3D1019300BF04B08C
:10144C00704700BF0024F400CC00002000B583B02E
:10145C000190019B4FF47A7202FB03F31846FFF7DD
:10146C00A5FF00BF03B05DF804FB82B00190019BA7
:10147C00D3F81035DBB2184602B0704700B585B012
:10148C0001900B468DF803309DF803300393019BBC
:10149C00094A934204D9094940F2692000F0B5FF8A
:1014AC00019B4FF47A5202FB03F2039B22FA03F3E3
:1014BC00184605B05DF804FB9318040030F20000E8
:1014CC0000B583B001900091019B1B681846FFF793
:1014DC00CCFF034619460098FFF7D0FF0346184689
:1014EC0003B05DF804FB000000B583B02D4B1B88E6
:1014FC001B0443F013002C4BD3ED097AF5EEC07AA4
:10150C00F1EE10FA0BD5284BD3ED097ABFEE007A29
:10151C00F4EEC77AF1EE10FA01DD244A00E0244A19
:10152C00214BD3ED097AFDEEE77A17EE901A1E4B9C
:10153C00D3ED097AF5EEC07AF1EE10FA14DD1A4B00
:10154C0093ED097A184BD3ED097AFDEEE77AF8EEB4
:10155C00E77A77EE677A9FED177A67EE877AFDEE7A
:10156C00E77A17EE903A13E00F4BD3ED097AFDEEC4
:10157C00E77AB8EEE77A0C4BD3ED097A77EE677A17
:10158C009FED0C7A67EE877AFDEEE77A17EE903ACC
:10159C0000930B460849FFF7F0FA00BF03B05DF863
:1015AC0004FB00BF00000020FC08002064F20000D7
:1015BC0068F200000000C8426CF2000000B583B075
:1015CC002F4B00932F4B304A304931480AF0D4FF4F
:1015DC0030480AF0F7FCF0EE407A2F4BC3ED007A5E
:1015EC002D4BD3ED007A2D4B93F868202B4B93EDBC
:1015FC00097AF0EE470A1046B0EE670A0BF0E2FCEF
:10160C0003461A46254B83F86820244B93F9131094
:10161C00224BD3ED167A214B93ED177A1E4BD3ED5B
:10162C00006A1F4B0093B0EE661A1E4B144AF0EE84
:10163C00470AB0EE670A1C480BF092FA174B93F866
:10164C00683083F00103DBB2002B03D016480AF09C
:10165C0033FC06E0114B93F86830002B01D00AF0F4
:10166C001BFCFFF741FF114B1B6801330F4A136042
:10167C000A4B002283F8282000BF03B05DF804FB5E
:10168C00F0090020BC090020A009002084090020DA
:10169C0068090020000A0020040A0020FC08002031
:1016AC00080A00205C09002028090020140A0020E8
:1016BC0082B08DED010A034A019B536200BF02B058
:1016CC00704700BFFC08002000B583B00020FEF777
:1016DC00C1FF0190019B0093009B002B04D0054A95
:1016EC009321009800F0FAF8FEF712FF00BF03B048
:1016FC005DF804FB8CF2000082B003460091ADF85B
:10170C000630034B012283F8282000BF02B070473B
:10171C00FC08002000B587B0164A1749174803F09B
:10172C00CBFA0590059B0493049B002B04D0144A20
:10173C00B321049800F0D2F864211048FFF7C0FEE2
:10174C000390012300930123039A00210B4803F01B
:10175C0085FC0A4803F0E8FB0A4B1B881B0443F08A
:10176C00130309491846FFF7D5F900BF07B05DF818
:10177C0004FB00BF05170000C400002074F3000038
:10178C008CF2000000000020ACF200004FF08053FF
:10179C00D3F8A430DAB2154B1A704FF08053D3F84B
:1017AC00A4301B0ADAB2114B5A704FF08053D3F8A5
:1017BC00A4301B0CDAB20D4B9A704FF08053D3F857
:1017CC00A4301B0EDAB2094BDA704FF08053D3F809
:1017DC00A830DAB2054B1A714FF08053D3F8A83009
:1017EC001B0ADAB2014B5A7100BF7047FC0800208B
:1017FC0070B584B0FFF768FFFFF7C8FF2F4B1B884D
:10180C001B0443F013032E491846FFF783F92B4BA7
:10181C001B881B0443F013002A4B5B791D46294B94
:10182C001B791E46274BDB781A46264B9B781946AC
:10183C00244B5B781C46234B1B7803930294019139
:10184C00009233462A462049FFF7C5F91B4B1B88EB
:10185C001B0443F013030A221C491846FFF768F9CE
:10186C000A20FFF7F3FD0AF027FD19480AF058FB90
:10187C000AF0B8FF17480BF079FE0AF073FA0BF078
:10188C004BF8FFF747FF00234FF47A720021012039
:10189C000AF04EFC094B1B881B0443F013030E4942
:1018AC001846FFF737F9FFF7C1F9064B93F82830C4
:1018BC00002BF8D0FFF782FEF5E700BF00000020F8
:1018CC00CCF20000FC080020FCF2000034F3000015
:1018DC00BC000020BD1600005CF3000000B589B010
:1018EC00039002910192029B9BB2ADF81430019BC4
:1018FC000693039B079305AB1A46002144F20100A3
:10190C0000F050F800BF09B05DF804FB86B00390FE
:10191C000291019201238DF817309DF81730204A5F
:10192C00039B13601E4A029B53601D4A019B9360EC
:10193C00039B44F20102934212D044F202029342FE
:10194C0022D1019B164AD360154BDB681B881A46C3
:10195C00134B9A61124BDB685B68114AD36113E03D
:10196C00019B0F4A13610E4B1B699B680C4A536118
:10197C000B4B1B691B881A46094B9A61084B1B6958
:10198C005B68074AD36100BF72B600BF9DF8173081
:10199C00DBB2002BFAD162B600BF06B0704700BFB5
:1019AC00180A002030B589B0059004910392FFF716
:1019BC0055FB00BFFFF73AF90346002BFAD1059B04
:1019CC0044F20102934213D044F2020293422DD10D
:1019DC00039B0793224B1B881B0443F00100079BBE
:1019EC005B681A46079B1B881E49FFF7B2F828E074
:1019FC00039B06931A4B1B881B0443F00104069BA4
:101A0C009D68069B9B68184601F0CAFB0346194665
:101A1C00069B5B681A46069B1B88019300920B463B
:101A2C002A4611492046FFF7BEF80AE00C4B1B88EA
:101A3C001B0443F00103049A0C491846FFF778F88D
:101A4C0000BF0B4B1B6803F00103002B00D0FFDE23
:101A5C00039A04990598FFF759FF00BF09B030BDF0
:101A6C00000000207CF3000098F30000B0F30000AD
:101A7C00F0ED00E082B003468DF8073007499DF980
:101A8C0007305B099DF8072002F01F02012000FAC5
:101A9C0002F241F8232000BF02B0704700E100E0E1
:101AAC0082B003468DF8073008499DF907305B0971
:101ABC009DF8072002F01F02012000FA02F22033E9
:101ACC0041F8232000BF02B0704700BF00E100E0E6
:101ADC0082B003468DF8073008499DF907305B0941
:101AEC009DF8072002F01F02012000FA02F2403399
:101AFC0041F8232000BF02B0704700BF00E100E0B6
:101B0C0082B003468DF8073008499DF907305B0910
:101B1C009DF8072002F01F02012000FA02F2603348
:101B2C0041F8232000BF02B0704700BF00E100E085
:101B3C0084B00190244B0393019B002B40D0234B8A
:101B4C001A680399019B00BF00BF00BF00BF00BF14
:101B5C0000BF00BF00BF8A422FD000BF00BF00BF34
:101B6C0000BF00BF00BF00BF00BF00BF00BF00BF71
:101B7C0000BF00BF00BF00BF00BF00BF00BF00BF61
:101B8C0000BF00BF00BF00BF00BF00BF00BF00BF51
:101B9C0000BF00BF00BF00BF00BF00BF00BF00BF41
:101BAC0000BF00BF00BF00BF00BF00BF00BF00BF31
:101BBC0000BF00BF00BF00BF00BF013BC3D10193FA
:101BCC0000BF04B0704700BF0024F400CC0000201C
:101BDC0008B50D4B4FF48032C3F844230A4B4FF435
:101BEC008032C3F804231120FFF78AFF1120FFF77E
:101BFC0041FF054B01221A602F20FFF799FF034B81
:101C0C0001221A7000BF08BD00100140560B0020C5
:101C1C0008B51120FFF744FF0E4B4FF48032C3F888
:101C2C0048230C4B4FF48032C3F80823094B012294
:101C3C005A602F20FFF77CFF064B01229A60064B5F
:101C4C0000221A602F20FFF773FF044B00221A703A
:101C5C0000BF08BD00100140480B0020560B0020AF
:101C6C00024BD3F804351846704700BF00100140F2
:101C7C0082B001900091019A009BD31A23F07F430C
:101C8C00184602B07047000082B00190034A019BD5
:101C9C00C2F8403500BF02B0704700BF00100140D1
:101CAC0086B00190284B1B68002B03D1264A019B60
:101CBC00136045E0019B1A68234B1B681B689A4212
:101CCC0010D8214B1B68204A12681168019A1268BF
:101CDC008A1A1A601C4B1A68019BDA611A4A019B1A
:101CEC0013602DE0019B1B680393174B1B68059336
:101CFC00154B1B68049309E0049B1B68039AD31AC9
:101D0C000393049B0593049BDB690493049B002BB6
:101D1C0004D0049B1A68039B9A42EDD3049B002BBE
:101D2C0005D0049B1A68039BD21A049B1A60019B72
:101D3C00039A1A60019B049ADA61059B019ADA6195
:101D4C0000BF06B0704700BF440B002000B587B041
:101D5C0001902A4B1B680393284B1B680593059B2A
:101D6C00049308E0049A019B9A4208D0049B0593C3
:101D7C00049BDB690493049B002BF3D100E000BFB0
:101D8C00049B002B01D1002333E0059A049B9A425B
:101D9C0014D11A4B1B68DB69184A1360174B1B686C
:101DAC00002B0BD1164B01229A60164B00221A60A5
:101DBC00154B01221A702F20FFF7BAFE049B1B68EB
:101DCC000293049BDA69059BDA61059BDB6904933A
:101DDC00049B002B05D0049B1A68029B1A44049B9D
:101DEC001A60064B1B68039A9A4214BF0123002306
:101DFC00DBB2184607B05DF804FB00BF440B0020B3
:101E0C0000100140480B0020570B002008B5112092
:101E1C00FFF75EFE00BF08BD08B51420FFF758FEA3
:101E2C0000BF08BD00B583B00190019B5B69019AAE
:101E3C0092691046984700BF03B05DF804FB0000A0
:101E4C0000B585B02B4B1B68002B4ED000230193A3
:101E5C00FFF706FF0246284B1B6819461046FFF792
:101E6C0007FF0290234B1B6803931DE0039B1A682A
:101E7C00029B9A421CD8039B1B68029AD31A0293AA
:101E8C00039B1B68019A13440193039B0093039BD0
:101E9C00DB690393009B1B7C002B05D0009B00226D
:101EAC001A740098FFF7BEFF039B002BDED100E0F5
:101EBC0000BF124B1A78124B1B789A420CD1104B64
:101ECC001B780133DAB20E4B1A700D4B1B78022BB8
:101EDC0002D10B4B00221A70094B1B781946094A88
:101EEC00019B42F82130FFF797FF00BF05B05DF86A
:101EFC0004FB00BF440B0020480B0020540B0020B7
:101F0C00550B00204C0B002082B00190184B1A7816
:101F1C00184B1B789A4223D0154B1B780133DAB23D
:101F2C00134B1A70124B1B78022B02D1104B002250
:101F3C001A700F4B1B781A460F4B53F82220019B3B
:101F4C001A60019B1A680D4B1B6813440B4A1360F3
:101F5C000A4B1B6823F07F43084A1360012303E0FC
:101F6C00019B00221A600023184602B0704700BF84
:101F7C00540B0020550B00204C0B0020480B00206C
:101F8C0088B00390029101920023079338E0204B14
:101F9C001B680693069B1A68039B9A4206D9069BFC
:101FAC001A68039BD21A069B1A602DE0069B1B68CD
:101FBC00039AD31A0393069B1B68079A134407933F
:101FCC00069B00221A60124B1B680593069BDB696B
:101FDC000F4A1360069BDB68002B11D0029A079BFB
:101FEC00134423F07F42069B5A60069BDA68069BDB
:101FFC009A60019B1A68069BDA61019B059A1A602C
:10200C00034B1B68002BC2D100BF08B0704700BF48
:10201C00440B002000B589B0019000238DF81F30CF
:10202C00664B1B680593AAE0019B002B05D0019B16
:10203C000693069BDB69019361E0614B1B781A46A2
:10204C0013465B001344DB005D4A134404330493D2
:10205C005B4B1B780133DAB2594B1A70584B1A7818
:10206C00574B9B789A4202D1554B00221A70049B15
:10207C005B680693049B1B78022B04D0032B1BD0AC
:10208C00012B1FD01DE0049B5B681846FFF75EFE1A
:10209C000346002B02D001238DF81F30069B002233
:1020AC001A746CE0454B1B680393039B00221A7453
:1020BC00039BDB69414A1360404B1B68002BF1D139
:1020CC005DE05CE000BF069B1B7C002B00D056E063
:1020DC00049B9A68069B5A60049BDA68069B9A607C
:1020EC00049B1A69069BDA60049B5A69069B9A61E9
:1020FC00344B1B78002B02D0069B00225A60069BA7
:10210C005A68314B1B68D31A23F07F432F4A9342F2
:10211C000ED8069B5A682C4B1B6819461046FFF7C5
:10212C00A7FD0246069B9B681A44069B1A6017E0A3
:10213C00254B1A68069B5B6819461046FFF798FDFD
:10214C000290069B9A68029B9A4206D9069B9A6853
:10215C00029BD21A069B1A6002E0069B00221A60B0
:10216C00069B00225A60069B00229A60069B012265
:10217C001A74069B0022DA610698FFF791FD019B09
:10218C00002B7FF451AF0E4B1A780D4B5B789A42B3
:10219C007FF44AAF9DF81F30002B04D1074B1A680F
:1021AC00059B9A4201D0012300E0002303F00103B8
:1021BC00DBB2184609B05DF804FB00BF440B0020ED
:1021CC00380A0020570B0020480B0020FEFF7F0030
:1021DC0010B588B00190274B1B68002B44D0254BC1
:1021EC001B681B680793FFF73BFD0690224B1B688F
:1021FC00059305990698FFF73BFD034603330493BB
:10220C001E4B1B7883F00103DBB2002B01D0FFF7D0
:10221C00DFFC049A079B934238BF1346059A13447C
:10222C000593059B23F07F4305930598FFF72CFD41
:10223C00FFF716FD039006990398FFF719FD034667
:10224C00DC1C06990598FFF713FD03469C420DD93B
:10225C00FFF706FD03461846FFF716FD2F20FFF784
:10226C0067FCFFF7D3FD01E0FFF7D2FC00BF08B01D
:10227C0010BD00BF440B0020480B0020560B002063
:10228C0000B587B00023019300238DF81730194B4C
:10229C001B680493184B1B6803936B461846FFF797
:1022AC0033FE03468DF80B309DF80B30002B08D015
:1022BC00009B01AA04991846FFF762FE01238DF8D2
:1022CC001730019B1846FFF7A5FE0346002B02D0E2
:1022DC0001238DF817309DF81730002B02D003988E
:1022EC00FFF776FF054B00221A7000BF07B05DF8B0
:1022FC0004FB00BF480B0020440B0020570B0020B0
:10230C0008B50E4B0022C3F840210C4B0022C3F839
:10231C0044210A4B0022C3F84821084B0022C3F881
:10232C004C21064B0022C3F80021044B0022C3F8B9
:10233C000421FFF785FD00BF08BD00BF0010014060
:10234C0008B5FFF79DFF00BF08BD000072B6034B38
:10235C001B680133014A136000BF7047580B002003
:10236C00054B1B68013B044A1360034B1B68002B95
:10237C0000D162B600BF7047580B002000B583B087
:10238C00019000F025F80346012B03D004494320AB
:10239C0000F03BF8FFF7DAFF00BF03B05DF804FB79
:1023AC00C8F3000000B583B003468DF8073000F089
:1023BC000FF80346012B03D00449512000F025F8F7
:1023CC00FFF7CEFF00BF03B05DF804FBC8F30000BD
:1023DC0084B0EFF305830193019BC3F308030393CC
:1023EC00039B002B0DD1EFF314830093009B0293FE
:1023FC00029B03F00103002B0CBF01230023DBB273
:10240C0000E00123184604B0704700B585B00346C0
:10241C000091ADF80630BDF80630ADF80830009BE1
:10242C00039302AB1A46002144F20200FFF7BAFAFA
:10243C0000BF05B05DF804FB00B583B001900B46FE
:10244C008DF80330019B002B03D10849AF20FFF717
:10245C00DCFF019BDA689DF803300199098A01FBC6
:10246C0003F31344184603B05DF804FB18F40000A2
:10247C0000B583B001900091019B002B03D108495A
:10248C00BC20FFF7C2FF009B019AD2689B1A019AED
:10249C00128AB3FBF2F3DBB2184603B05DF804FB0F
:1024AC0018F4000000B585B00190019B002B01D100
:1024BC000E2349E0019B1B68002B03D12449C62045
:1024CC00FFF7A3FF019B5B68002B03D12049C720BA
:1024DC00FFF79BFF019B9B68002B03D11C49C82075
:1024EC00FFF793FF019BDB68002B03D11849C92030
:1024FC00FFF78BFF019B1B8A002B03D11449CA20C9
:10250C00FFF783FF019B9B681A46019B5B68D31AFC
:10251C008DF80F30019B1B68019A52681A6007E016
:10252C00019B1A681368591C11609DF80F201A70D2
:10253C009DF80F305A1E8DF80F20002BF0D1019B07
:10254C001B6800221A710023184605B05DF804FBC5
:10255C0018F4000000B585B00190019B002B03D14D
:10256C001C49EC20FFF751FF002303930020FFF7D9
:10257C0005FF019B1B681A68019B5B689A4220D976
:10258C00019B1B681A68013A1A601B681B78194674
:10259C000198FFF751FF0390019B9B681A46019B22
:1025AC001B681B68D31A8DF80B30019B1B681B79B9
:1025BC009DF80B209A4204D9019B1B689DF80B20B7
:1025CC001A710020FFF7EEFE039B184605B05DF86C
:1025DC0004FB00BF18F4000010B584B0019000910A
:1025EC00019B002B04D111494FF48870FFF70DFFAC
:1025FC00009B002B04D10D4940F21110FFF705FF91
:10260C00009B03930020FFF7B9FE019B1B681C681D
:10261C00621C1A6003990198FFF72AFF0346237086
:10262C000020FFF7BFFE00BF04B010BD18F400007F
:10263C0000B583B00190019B002B03D10C493120D4
:10264C00FFF7E3FE019B9B68002B0CD0019B5B69A1
:10265C00019A1069019A1168019A92689847019B36
:10266C0000229A6000E000BF03B05DF804FB00BFDD
:10267C0050F400000EB400B584B00190019B002B07
:10268C0003D118494220FFF7C0FE019B5B69002B68
:10269C0003D114494320FFF7B8FE019B1B68002BA4
:1026AC0003D110494420FFF7B0FE019B5B68002B5F
:1026BC0003D10C494520FFF7A8FE059B002B0AD03F
:1026CC000023039306AB039303AB1A4605990198B9
:1026DC0000F0B0F900E000BF04B05DF804EB03B00B
:1026EC00704700BF50F4000000B583B001900B465A
:1026FC008DF80330019B1A68019B9B68581C01994B
:10270C00886013449DF803201A70019B9A68019B02
:10271C005B689A4202D30198FFF78AFF00BF03B0AF
:10272C005DF804FB00B587B0039002910192009311
:10273C0000230593009B03F00103002B24D00BE036
:10274C00029B01330293059B013305939DF81330D3
:10275C0019460398FFF7C8FF029B1B788DF81330BE
:10276C009DF81330002BEBD106E0019B013B01934C
:10277C0020210398FFF7B8FF019A059B9A422ED9A6
:10278C00019B002BF1D12AE0029B002B0BD002986D
:10279C000BF08CF8059006E0019B013B0193202186
:1027AC000398FFF7A1FF019A059B9A420FD9019B51
:1027BC00002BF1D10BE0029B01330293059B0133FB
:1027CC0005939DF8133019460398FFF78DFF029B74
:1027DC001B788DF813309DF81330002BEBD100BF14
:1027EC0007B05DF804FB000000B589B003900291BE
:1027FC0001920093029B07930123069307E0079A2B
:10280C00019BB2FBF3F30793069B01330693079AE4
:10281C00019B9A42F3D2009A069B9A4201D9009BE3
:10282C0006930B9B03F00103002B22D10A9B002B78
:10283C001FD00B9B03F00203002B06D0009B002B38
:10284C0003D130238DF8173002E020238DF8173098
:10285C0008E00A9B013B0A939DF817301946039830
:10286C00FFF742FF0A9B002B03D0069A0A9B9A4261
:10287C00EFD301230793009B012B03D9009B013B52
:10288C00009309E0029A079BB2FBF3F30493049ABA
:10289C00019B9A4200D205E0079B019A02FB03F3CD
:1028AC000793E8E7029A079BB2FBF3F30493049BAC
:1028BC00079A02FB03F3029AD31A0293154A049B5C
:1028CC0013441B7819460398FFF70EFF079A019BD8
:1028DC00B2FBF3F30793079B002BE3D10B9B03F0A5
:1028EC000103002B11D00A9B002B0ED006E00A9B93
:1028FC00013B0A9320210398FFF7F6FE0A9B002B5D
:10290C0003D0069A0A9B9A42F1D300BF09B05DF836
:10291C0004FB00BFB0F4000000B589B00590049131
:10292C0003920293049B002BB8BF5B4206930123D6
:10293C00079307E0039B069A92FBF3F30693079B1E
:10294C0001330793039B069A9A42F3DA029A079B88
:10295C009A4201D9029B07930A9B002B0AD0049B35
:10296C00002B04DB0B9B03F00403002B02D00A9B0F
:10297C00013B0A930B9B03F00203002B02D0029B3A
:10298C00002B16D00B9B03F00103002B11D10A9BDB
:10299C00002B0ED006E00A9B013B0A9320210598E0
:1029AC00FFF7A2FE0A9B002B03D0079A0A9B9A42C0
:1029BC00F1D3049B002B07DA049B5B4204932D217B
:1029CC000598FFF791FE08E00B9B03F00403002B26
:1029DC0003D02B210598FFF787FE0B9B03F0020316
:1029EC00002B19D00B9B03F00103002B14D1029B7D
:1029FC00002B11D10A9B002B0ED006E00A9B013B49
:102A0C000A9330210598FFF76FFE0A9B002B03D029
:102A1C00079A0A9B9A42F1D304990B9B01930A9B48
:102A2C000093029B039A0598FFF7DEFE00BF09B0E6
:102A3C005DF804FB00B58FB0059004910392059BE3
:102A4C00002B04D1C8494FF49F70FFF7DEFC059BA7
:102A5C005B69002B04D1C4494FF4A070FFF7D5FC7F
:102A6C00059B1B68002B04D1BF4940F24110FFF7B6
:102A7C00CCFC059B5B68002B04D1BB494FF4A170C7
:102A8C00FFF7C3FC049B002B00F0ED81049B1B782B
:102A9C008DF83730049B013304939DF83730002BAD
:102AAC0000F0D8819DF83730252B40F0C7810023EA
:102ABC000A9301230C93049B1B788DF837309DF8F7
:102ACC0037302D2B04D0302B0AD02B2B10D017E005
:102ADC000A9B43F001030A93049B0133049312E015
:102AEC000A9B43F002030A93049B013304930AE00C
:102AFC000A9B43F004030A93049B0133049302E002
:102B0C0000230C9300BF0C9B002BD4D10023099302
:102B1C009DF837302A2B0CD1039B1B68191D039A87
:102B2C0011601B68099A13440993049B01330493A5
:102B3C001AE0049B1B788DF837309DF837302F2B1B
:102B4C0012D99DF83730392B0ED8049B01330493DE
:102B5C00099A13469B0013445B001A469DF83730C4
:102B6C001344303B0993D3E700230B93049B1B784E
:102B7C008DF837309DF837302E2B1DD1049B013347
:102B8C000493049B1B788DF837309DF837302F2B2E
:102B9C0012D99DF83730392B0ED8049B013304938E
:102BAC000B9A13469B0013445B001A469DF8373072
:102BBC001344303B0B93E4E7049B1B788DF83730C0
:102BCC009DF837306C2B03D09DF83730682B07D12C
:102BDC00049B01330493049B1B788DF83730EFE78B
:102BEC009DF83730253B532B00F2238101A252F87C
:102BFC0023F000BF352E00003F2E00003F2E0000BA
:102C0C003F2E00003F2E00003F2E00003F2E000004
:102C1C003F2E00003F2E00003F2E00003F2E0000F4
:102C2C003F2E00003F2E00003F2E00003F2E0000E4
:102C3C003F2E00003F2E00003F2E00003F2E0000D4
:102C4C003F2E00003F2E00003F2E00003F2E0000C4
:102C5C003F2E00003F2E00003F2E00003F2E0000B4
:102C6C003F2E00003F2E00003F2E00003F2E0000A4
:102C7C003F2E00003F2E00003F2E00003F2E000094
:102C8C003F2E00003F2E00003F2E00003F2E000084
:102C9C003F2E00003F2E00003F2E00003F2E000074
:102CAC003F2E00003F2E00003F2E00003F2E000064
:102CBC003F2E00003F2E00003F2E00003F2E000054
:102CCC00C12D00003F2E00003F2E00003F2E0000C3
:102CDC003F2E00003F2E00003F2E00003F2E000034
:102CEC003F2E00003F2E00003F2E0000512D000013
:102CFC00792D00003F2E00003F2E00003F2E0000DB
:102D0C003F2E0000792D00003F2E00003F2E0000CA
:102D1C003F2E00003F2E00003F2E00003F2E0000F3
:102D2C00012E00003F2E00003F2E0000E52D00007C
:102D3C003F2E00009D2D00003F2E00003F2E000076
:102D4C00C12D0000039B1B68191D039A11601B68A1
:102D5C000C930C9B8DF823309DF823301946059865
:102D6C00FFF7C2FC66E000BF7CF40000039B1B680D
:102D7C00191D039A11601B680C930A9B0193099B04
:102D8C0000930B9B0A220C990598FFF7C5FD51E0A7
:102D9C00039B1B68191D039A11601B680C930C99FB
:102DAC000A9B0193099B00930B9B0A220598FFF742
:102DBC001BFD3FE0039B1B68191D039A11601B68E8
:102DCC000C930C990A9B0193099B00930B9B10226B
:102DDC000598FFF709FD2DE0039B1B68191D039A4D
:102DEC0011601B6807930A9B099A07990598FFF7CE
:102DFC0099FC1FE0039B1B68191D039A11601B684B
:102E0C000C9330210598FFF76FFC78210598FFF79C
:102E1C006BFC0C99002301930823009308231022C8
:102E2C000598FFF7E1FC05E025210598FFF75CFC10
:102E3C0000E000BF049B0133049305E09DF837309C
:102E4C0019460598FFF750FC049B1B78002B7FF468
:102E5C001DAE00E000BF059B1B7B002B04D005982A
:102E6C00FFF7E6FB00E000BF0FB05DF804FB00BF0E
:102E7C0010B487B001900091019B009A53E8004F69
:102E8C0004EB020043E8000191F0000FF6D1059429
:102E9C0004900391049B184607B05DF8044B7047EF
:102EAC0010B487B001900091019B009A53E8004F39
:102EBC00A4EB020043E8000191F0000FF6D1059459
:102ECC0004900391049B184607B05DF8044B7047BF
:102EDC0000B583B001900198FFF7E4FA0346184659
:102EEC0003B05DF804FB00B58BB001900091019B21
:102EFC001B8A043B0793009A079B1344DA1C079B1D
:102F0C00B2FBF3F38DF81B300198FFF723FB059010
:102F1C00059B002B01D1002338E0059B00221A7180
:102F2C00059B01225A71079B9AB2059BDA80059B7F
:102F3C0009939DF81B30013B0493099B019A1A607D
:102F4C00002308931DE00198FFF704FB0390039BFB
:102F5C00002B0ED0059B5B790133DAB2059B5A71BD
:102F6C00099B039A1A60039B019A1A60039B0993AD
:102F7C0004E0059800F00EF8002307E0089B0133ED
:102F8C000893089A049B9A42DDD3059B18460BB014
:102F9C005DF804FB00B58BB00190019B0793079B78
:102FAC005B798DF81B30019B08939DF81B30013B1E
:102FBC0005930023099305E0089B1B680893099B64
:102FCC0001330993099A059B9A42F5D3089B1B6818
:102FDC000493019B0893002309930BE0089B1B6847
:102FEC00039308990498FFF7F7FA039B0893099B3E
:102FFC00013309939DF81B20099B9A42EED800BF20
:10300C000BB05DF804FB00B585B00190019B0393F8
:10301C00039B043301211846FFF72AFF00BF05B0BC
:10302C005DF804FB00B587B00190019B0593059BEF
:10303C00043301211846FFF733FF0346039303AB18
:10304C000493049B1B78002B02D10198FFF7A2FF7D
:10305C0000BF07B05DF804FB00B58DB00390029182
:10306C0001920093039B0693069BDB880593039BBD
:10307C000B93009B1A1D059BB2FBF3F30A93009B69
:10308C000433059AB3FBF2F2059901FB02F29B1A89
:10309C000993009A019B1A44059B1344DA1C059B67
:1030AC00B2FBF3F38DF81330069B5B799DF813207C
:1030BC009A420AD92749BA20FFF7A7F905E00B9BDA
:1030CC001B680B930A9B013B0A930A9B002BF6D1BE
:1030DC0000230893059A099BD31A0793079A019B1F
:1030EC00934228BF134607932DE09DF83830002BF0
:1030FC000BD0029A089BD0180B9A099B13440433EB
:10310C00079A19460AF052FB0AE00B9A099B1344E2
:10311C00181D029A089B1344079A19460AF046FB9D
:10312C00002309930B9B1B680B93019A079BD31AE3
:10313C000193089A079B13440893059A019B9342A9
:10314C0028BF13460793019B002BCED100BF0DB0B7
:10315C005DF804FBC0F4000000B587B00590049145
:10316C000392029300230093029B039A04990598FF
:10317C00FFF772FF00BF07B05DF804FB00B587B026
:10318C00059004910392029301230093029B039AEE
:10319C0004990598FFF760FF00BF07B05DF804FBCA
:1031AC0000B585B00190019800F00EF80390039BD8
:1031BC00002B01D0039B00E0024B184605B05DF8D4
:1031CC0004FB00BF04F5000086B00190164B05937C
:1031DC00164B04931FE0049A059BD31ADB10DA0FED
:1031EC0013445B10DB00059A13440393039B1B6889
:1031FC000293029A019B9A4202D9039B04930AE020
:10320C00029A019B9A4203D2039B0833059302E076
:10321C00039B5B6804E0059A049B9A42DBD3002372
:10322C00184606B0704700BF20F8000010F90000E7
:10323C0082B001904FF08042019BC2F8083300BF6E
:10324C0002B0704784B00346ADF80630BDF80630C6
:10325C0003F1804300221A60BDF8063003F180436D
:10326C001B680393039B00BF04B0704782B00346F6
:10327C00ADF80630BDF8063003F180431B68002B17
:10328C0014BF01230023DBB2184602B0704784B090
:10329C000190019B1B680393039B002B03D0039BA2
:1032AC001A68019B1A60039B184604B07047000013
:1032BC0000B585B003468DF807309DF80730002B1C
:1032CC0002D10C4B039301E00B4B03930398FFF7D4
:1032DC00DEFF0290029B002B06D0029B5B689DF8E0
:1032EC00072010469847F1E700BF00BF05B05DF816
:1032FC0004FB00BF640B00206C0B002008B54FF4DE
:10330C008070FFF7B3FF0346002B0CD04FF4807096
:10331C00FFF798FF0120FFF78BFF0E4B01225A702D
:10332C000020FFF7C5FF4FF48270FFF79FFF0346A5
:10333C00002B0CD04FF48270FFF784FF0220FFF7B4
:10334C0077FF044B01229A700120FFF7B1FF00BFF9
:10335C0008BD00BF5C0B002082B003468DF807301F
:10336C0007499DF907305B099DF8072002F01F0201
:10337C00012000FA02F241F8232000BF02B070478E
:10338C0000E100E082B003468DF8073008499DF952
:10339C0007305B099DF8072002F01F02012000FA9C
:1033AC0002F2603341F8232000BF02B0704700BF27
:1033BC0000E100E082B0034600918DF807309DF9E2
:1033CC000730002B0CDA0D499DF8073003F00F0382
:1033DC00043B009AD2B25201D2B20B441A7609E0E5
:1033EC0007499DF90730009AD2B25201D2B20B4470
:1033FC0083F8002300BF02B0704700BF00ED00E06F
:10340C0000E100E000B583B003460A468DF80730B2
:10341C0013468DF806309DF80630072B04D90D495C
:10342C004FF49270FEF7F1FF9DF806209DF90730DE
:10343C0011461846FFF7BEFF9DF907301846FFF7F7
:10344C00A1FF9DF907301846FFF786FF00BF03B0B8
:10345C005DF804FB54F9000000B583B00346ADF8E9
:10346C000630BDF80630184600F026F803461B68F7
:10347C00012B0CBF01230023DBB2184603B05DF80F
:10348C0004FB00B585B00346ADF80630BDF8063038
:10349C00184600F011F803461A4600231360BDF8D5
:1034AC000630184600F008F803461B680393039B8C
:1034BC0000BF05B05DF804FB82B00346ADF80630E2
:1034CC00BDF8063003F1804303F5C043184602B043
:1034DC007047000082B00190034BD3F80423019B8A
:1034EC001340184602B070470060004082B0019053
:1034FC00054A019B03F5A27352F823301B0A03F013
:10350C003F03184602B070470060004082B0019043
:10351C00064A019B03F5A27352F823301B0C03F0EF
:10352C000303DBB2184602B0704700BF00600040D6
:10353C0000B583B00190019B1B682F2B04D90B495C
:10354C004FF4E870FEF761FF019B1B681F2B02D83C
:10355C004FF0A04306E0019B1B6803F01F02019B88
:10356C001A60034B184603B05DF804FB90F9000099
:10357C000003005000B585B001900B468DF8033068
:10358C0001AB1846FFF7D4FF0390019A0199039BF6
:10359C0001F5E07153F8213023F44031039B02F51F
:1035AC00E07243F82210019A0199039B01F5E07136
:1035BC0053F821309DF8031009041943039B02F5BD
:1035CC00E07243F8221000BF05B05DF804FB00B5B3
:1035DC0085B0019001AB1846FFF7AAFF0390019A42
:1035EC00039B02F5E07253F822301B0C03F003032B
:1035FC00DBB2184605B05DF804FB82B00190019B6C
:10360C00D3F81035184602B07047000000B589B0E9
:10361C00039002910192174A05AB92E8030083E8EC
:10362C000300039A029B1344022B04D912494FF452
:10363C003A70FEF7EAFE039B079311E0079B9B0091
:10364C0008AA134453F80C3C1846FFF7D6FF024661
:10365C00019B1A60019B04330193079B0133079371
:10366C00039A029B1A44079B9A42E7D800BF09B001
:10367C005DF804FBC4F9000090F9000084B00190DF
:10368C000091009B0393019BDB080293019B03F0C9
:10369C00070301930122019B02FA03F30399029A97
:1036AC000A4412781340184604B0704784B0019055
:1036BC000091009B0393019BDB080293019B03F099
:1036CC0007030193039A029B13440399029A0A4439
:1036DC00127851B20120019A00FA02F252B20A4356
:1036EC0052B2D2B21A7000BF04B0704782B00190CF
:1036FC00044A019B1344303393F90030184602B04E
:10370C00704700BF700B002082B00190034A019BF0
:10371C0052F82330184602B0704700BF700B0020DF
:10372C0000B599B00023179306AB00221A605A60BB
:10373C004FF48073ADF85630012314930023169385
:10374C0021E0BDF856301846FFF786FE0346002BE5
:10375C000ED01498FFF7BEFE0346002B08D0BDF820
:10376C0056301846FFF78DFE179A149B1343179388
:10377C00149B5B001493BDF856300433ADF85630EF
:10378C00169B01331693169B072BDAD94FF4BE7098
:10379C00FFF762FE0346002B0DD04FF4BE70FFF70F
:1037AC0070FE179B43F00043179306AB1A46022199
:1037BC000020FFF72BFF179BDBB2002B29D0012336
:1037CC0014930023169321E0149A179B1340002B9B
:1037DC0016D01698FFF78AFE11901698FFF796FEF2
:1037EC0003468DF843301698FFF78EFF0F900F9B12
:1037FC00002B05D09DF843200F9B1146119898473C
:10380C00149B5B001493169B01331693169B072B8A
:10381C00DAD9179B002B80F2F08000238DF84B3007
:10382C0004AB00221A605A60002313930AE0139B26
:10383C009B0018AA13444FF0FF3243F8582C139BEB
:10384C0001331393139B012BF1D900238DF84B30CB
:10385C000023169378E06B4A169B1344603393F95C
:10386C0000308DF83B309DF83B3023F0C0030D93B6
:10387C00644A169B1344603393F90030B3F1FF3F55
:10388C005FD002AB19460D98FFF7F8FE0346002BEC
:10389C0057D09DF83B309B098DF833300D98FFF7CE
:1038AC0025FF03461846FFF72FFF0B900B9B002BB1
:1038BC0003D19DF83330032B43D19DF83330032BC8
:1038CC0004D104AB19460D98FFF7F0FE0D98FFF7E5
:1038DC007EFE03468DF82B3006AB19460D98FFF78C
:1038EC00CDFE0990099B002B03D09DF82B30022BA9
:1038FC0006D0099B002B24D19DF82B30032B20D113
:10390C009DF83330032B13D19DF82B30022B01D1B2
:10391C00032300E002238DF823309DF82330194651
:10392C000D98FFF727FE9DF84B3001338DF84B3087
:10393C000B9B002B05D09DF833200B9B11460D984B
:10394C009847169B01331693169B032B83D99DF82E
:10395C004B30002B4CD001238DF84A306B461A4665
:10396C0002210020FFF752FE0023139314E0139B57
:10397C009B0018AA134453F8602C139B9B0018A9A6
:10398C000B4453F8483C9A4203D000238DF84A303C
:10399C0005E0139B01331393139B012BE7D99DF87F
:1039AC004A30002B03D000238DF84B3020E000234D
:1039BC0013931AE0139B9B0018AA134453F8602C22
:1039CC00139B9B0018A90B4443F8482C139B9B009A
:1039DC0018AA134453F8502C139B9B0018A90B44A2
:1039EC0043F8582C139B01331393139B012BE1D9F0
:1039FC009DF84B30002B7FF428AF00BF19B05DF859
:103A0C0004FB00BF700B002082B001900B468DF8B8
:103A1C0003309DF80330019A134401221A6000BF51
:103A2C0002B0704782B001900B468DF803309DF8C0
:103A3C000320019B1344184602B0704784B00190D8
:103A4C000B46ADF80230BDF80230019A1344002247
:103A5C001A60BDF80230019A13441B680393039B50
:103A6C0000BF04B0704782B001900B46ADF8023035
:103A7C00BDF80230019A13441B68002B14BF0123BC
:103A8C000023DBB2184602B0704782B0019000915F
:103A9C00019B009AC3F8002200BF02B0704782B0AD
:103AAC0001900091019B009AC3F8002300BF02B063
:103ABC00704782B00190019B0122C3F8002500BF22
:103ACC0002B0704784B00190009100238DF80F3044
:103ADC0011E09DF80F209DF80F309B0000990B44CE
:103AEC001968019B02F5AC7243F822109DF80F3057
:103AFC0001338DF80F309DF80F30032BE9D900BF3F
:103B0C0004B0704700B583B00190084611461A46C0
:103B1C0003468DF803300B468DF802301346ADF892
:103B2C000030BDF90030002B04DA0C4940F26E2055
:103B3C00FEF76BFC9DF80320019BC3F80C259DF848
:103B4C000220019BC3F80425BDF80020019BC3F89B
:103B5C00082500BF03B05DF804FB00BF10FA00009D
:103B6C0000B585B003900B4601928DF80B30019B8C
:103B7C00002B04D1144940F27920FEF746FC019B3E
:103B8C001A689DF80B301946039800F01FF8019B3A
:103B9C009A889DF80B301946039800F03DF8019B6C
:103BAC009A689DF80B301946039800F069F8019B50
:103BBC00DA689DF80B301946039800F089F800BFBD
:103BCC0005B05DF804FB00BF10FA000000B585B02D
:103BDC0003900B4601928DF80B309DF80B30012BA6
:103BEC0004D90C4940F28520FEF70FFC019B002BF9
:103BFC0004D1084940F28620FEF707FC9DF80B30F3
:103C0C00019A039929335B010B441A6000BF05B07C
:103C1C005DF804FB10FA000000B583B001900B4670
:103C2C008DF803301346ADF800309DF80330012BAE
:103C3C0004D9124940F28E20FEF7E7FBBDF80030A4
:103C4C00002B04D10D4940F28F20FEF7DEFBBDF9AD
:103C5C000030002B04DA09494FF42470FEF7D5FB31
:103C6C009DF80330BDF80020019929335B010B440A
:103C7C0004331A6000BF03B05DF804FB10FA0000B7
:103C8C0000B585B003900B4601928DF80B309DF872
:103C9C000B30012B04D90D494FF42670FEF7B5FB00
:103CAC00019BB3F1807F04D3084940F29920FEF7C1
:103CBC00ACFB9DF80B30039A5B01134403F5A56331
:103CCC00019A1A6000BF05B05DF804FB10FA000001
:103CDC0000B585B003900B4601928DF80B309DF822
:103CEC000B30012B04D90D4940F2A120FEF78DFBBE
:103CFC00019BB3F1807F04D3084940F2A220FEF768
:103D0C0084FB9DF80B30039A5B01134403F22C5394
:103D1C00019A1A6000BF05B05DF804FB10FA0000B0
:103D2C0082B001900B468DF8033013468DF80230AB
:103D3C009DF803209DF802301B021A43019BC3F827
:103D4C00102500BF02B0704782B001900B46ADF851
:103D5C000230BDF80220019BC3F8142500BF02B04D
:103D6C00704784B00190019B1B0B8DF80F309DF9AF
:103D7C000F30184604B0704782B00190019B03F0DD
:103D8C006043B3F1005F0CBF01230023DBB2184684
:103D9C0002B0704700B583B00190019B1B682F2BBC
:103DAC0004D90B494FF4E870FEF72FFB019B1B68FD
:103DBC001F2B02D84FF0A04306E0019B1B6803F0B9
:103DCC001F02019B1A60034B184603B05DF804FBFD
:103DDC0044FA00000003005000B585B0019008467D
:103DEC0011461A4603468DF803300B468DF8023007
:103DFC0013468DF8013001AB1846FFF7CBFF03904B
:103E0C00019A9DF803109DF802305B0019439DF850
:103E1C0001309B0019439DF818301B0219439DF883
:103E2C001C301B041943039B02F5E07243F822106B
:103E3C0000BF05B05DF804FB00B585B0039000230E
:103E4C000193002300930023012201210398FFF723
:103E5C00C3FF00BF05B05DF804FB00B585B0019051
:103E6C0001AB1846FFF796FF0390019B012202FA63
:103E7C0003F31946039800F018F800BF05B05DF87D
:103E8C0004FB00B585B0019001AB1846FFF782FF2B
:103E9C000390019B012202FA03F31946039800F0E8
:103EAC000EF800BF05B05DF804FB82B001900091E4
:103EBC00019B009AC3F8082500BF02B0704782B07E
:103ECC0001900091019B009AC3F80C2500BF02B031
:103EDC00704700B589B00190009100238DF81F3018
:103EEC0050E09DF81F30009AD35C8DF81E309DF881
:103EFC001E30FF2B38D09DF81E3003F08003002BB2
:103F0C0014BF012300238DF81D309DF81F309DF840
:103F1C001E2022F080029B0008A90B4443F8142CAD
:103F2C009DF81D30002B0AD09DF81F309B0008AA6D
:103F3C00134453F8143C1846FFF78FFF09E09DF823
:103F4C001F309B0008AA134453F8143C1846FFF783
:103F5C0098FF9DF81F309B0008AA134453F8143C9B
:103F6C001846FFF769FF08E09DF81F309B0008AA70
:103F7C0013444FF0FF3243F8142C9DF81F300133DB
:103F8C008DF81F309DF81F30032BAAD9019B1B689D
:103F9C0003AA11461846FFF795FD00BF09B05DF85E
:103FAC0004FB000000B587B0039002910192029BC4
:103FBC00002B03D13A498620FEF727FA039B1B7985
:103FCC00DB00384A13440593059B1B79DBB2002BAD
:103FDC0003D008230493049B5DE0059B019A1A60AF
:103FEC0002990398FFF775FF039B1B681846FFF7B0
:103FFC0060FD039B1868029B5979029B9A79029B7E
:10400C001B89FFF77FFD039B1868029B997A029B23
:10401C00DB7A1A46FFF784FE039B1B6800211846C7
:10402C00FFF733FD039B1B6800211846FFF737FD94
:10403C00039B1B684FF48E711846FFF7FFFC039B24
:10404C001B684FF488711846FFF7F8FC039B1B683C
:10405C004FF48A711846FFF7F1FC039B1B684FF471
:10406C0082711846FFF7EAFC059B1B68002B0CD0ED
:10407C00039B1B681846FFF774FE03461A46029B07
:10408C001B7919461046FFF7BDF9059B01221A71E1
:10409C0000230493049B184607B05DF804FB00BF93
:1040AC007CFA0000D80B002000B587B00390029179
:1040BC0011461A460B468DF8073013468DF806301C
:1040CC00029B02221A71029B9DF807205A71029BD7
:1040DC001B68002B25D0822305939DF8073003F035
:1040EC000403002B03D0059B43F0100305939DF8AC
:1040FC00073003F00803002B03D0059B43F020038B
:10410C0005939DF8073003F01003002B03D0059B9B
:10411C0023F080030593039B1B6805991846FFF752
:10412C00BEFC039B1B684FF482711846FFF786FC9C
:10413C009DF90730002B0ADA039B1B689DF80620BB
:10414C0011461846FFF76EFC0490049B08E0039B95
:10415C001B689DF8062011461846FFF755FC0023F6
:10416C00184607B05DF804FB00B589B003900291C6
:10417C0000931346ADF80630039B1B79DB003C4AD9
:10418C0013440693069B1B79DBB2002B04D13949EF
:10419C004FF48F70FEF739F9BDF80630002B04D1BF
:1041AC00344940F21F10FEF730F9029B1B68184689
:1041BC00FFF7E2FD0346002B04D12E494FF490701B
:1041CC00FEF723F9039B1B68029A00211846FFF7A0
:1041DC00C7FC039B1B68029A01211846FFF7C0FC21
:1041EC00BDF8063003F00103002B14BF012300239C
:1041FC008DF81730039B1868BDF806305B089AB22F
:10420C009DF817309BB213449BB21946FFF79CFDE7
:10421C00009B03F00103002B02D0102307930FE047
:10422C00009B03F00203002B08D09DF81730002BE5
:10423C0001D0082300E00423079301E00023079337
:10424C00039B1B6807991846FFF71FFC009BDAB20B
:10425C009DF81730002B01D00C2300E008230699A1
:10426C000398FFF721FF0346184609B05DF804FBDD
:10427C00D80B00207CFA000000B583B001900091AF
:10428C004FF488710198FFF7EEFB0346002B12D018
:10429C004FF488710198FFF7D1FB009B5B7903F019
:1042AC000403002B07D0009B1B68002B03D0009B42
:1042BC001B68012098474FF48A710198FFF7D3FBD4
:1042CC000346002B12D04FF48A710198FFF7B6FB0E
:1042DC00009B5B7903F00803002B07D0009B1B6845
:1042EC00002B03D0009B1B68022098474FF48E7163
:1042FC000198FFF7B8FB0346002B12D04FF48E71D8
:10430C000198FFF79BFB009B5B7903F01003002BDC
:10431C0007D1009B1B68002B03D0009B1B6800205F
:10432C0098474FF482710198FFF79DFB0346002BD1
:10433C000FD04FF482710198FFF780FB009B012294
:10434C001A71009B1B68002B03D0009B1B68032079
:10435C00984700BF03B05DF804FB000008B50349A3
:10436C000348FFF789FF00BF08BD00BFD80B002032
:10437C0000C0014008B503490348FFF77DFF00BFAB
:10438C0008BD00BFE00B00200010024008B5034937
:10439C000348FFF771FF00BF08BD00BFE80B00200A
:1043AC000020024082B003468DF807309DF807309C
:1043BC0003F1804303F5E04301221A6000BF02B011
:1043CC00704782B003468DF807309DF8073003F133
:1043DC00804303F5E043184602B0704782B00346B1
:1043EC00ADF80630BDF8063003F1804303F5E04329
:1043FC001B68002B14BF01230023DBB2184602B04C
:10440C00704784B00346ADF80630BDF8063003F1B2
:10441C00804303F5E04300221A60BDF8063003F137
:10442C00804303F5E0431B680393039B00BF04B078
:10443C007047000082B003468DF807300B468DF8AC
:10444C00063013468DF805300A499DF807309DF863
:10445C00052051331B010B4404331A6005499DF8A8
:10446C0007309DF8062051331B010B441A6000BF26
:10447C0002B070470070004082B00190034A019B6B
:10448C00C2F8043300BF02B0704700BF0070004098
:10449C0082B00190034A019BC2F8083300BF02B0FE
:1044AC00704700BF00700040024B0122C3F800258A
:1044BC0000BF70470070004082B001900091054A27
:1044CC00019BC2F82C36034A009BC2F8303600BF61
:1044DC0002B070470070004082B003468DF8073080
:1044EC00034A9DF80730C2F8F03500BF02B07047A0
:1044FC000070004082B003468DF80730034A9DF8E7
:10450C000730C2F8F43500BF02B0704700700040AD
:10451C00024BD3F8F435DBB21846704700700040FC
:10452C0000B58DB04FF48270FFF758FF0346002B97
:10453C0046D04FF48270FFF764FF8C4B93F82E300B
:10454C0083F00103DBB2002B04D1884B93F82F309E
:10455C00002B35D000238DF81830844B5B68079303
:10456C00824B1B899BB2ADF82030804BDB68002B53
:10457C0003D17E4B00221A7419E07C4B1A8B7B4BB7
:10458C005A837A4BDB68794A5360784B1A8B774B9A
:10459C001A81764B0022DA60744B93F82E3083F03C
:1045AC000103DBB2002B02D00020FFF7FBFE6F4BA8
:1045BC001B6806AA104698476C4B002283F82F20E4
:1045CC006A4B93F82E30002B62D04FF48070FFF7BB
:1045DC0005FF0346002B5BD04FF48070FFF711FFF3
:1045EC00624B5A8B614B93F82D309BB29A421CD97B
:1045FC005E4B5A8B5D4B93F82D309BB2D31A9AB20B
:10460C005A4B5A83594B5A68584B1B899BB21946C3
:10461C00564B5B8BCB1A5B001A44544B93F82D30E2
:10462C0019461046FFF748FF2BE0504B5A8B4F4B67
:10463C0093F82D309BB29A4214D14C4BDB68002B73
:10464C0010D04A4B012283F82F20484B00225A836A
:10465C00464BDA68454B93F82D3019461046FFF758
:10466C002BFF0EE0414B5A8B404B93F82D309BB2F5
:10467C009A4206D13D4B012283F82F203B4B00225E
:10468C005A834FF48270FFF7BCFE0420FFF78AFEBA
:10469C004FF48870FFF7A2FE0346002B0ED04FF4A8
:1046AC008870FFF7AEFE314B00221A7402238DF88E
:1046BC000C302E4B1B6803AA104698474FF48A7097
:1046CC00FFF78CFE0346002B07D04FF48A70FFF7E0
:1046DC0098FE264B00221A7444E0244B5B690B9322
:1046EC003DE00B9BB3FA83F30A934FF000420A9B15
:1046FC0022FA03F3DB430B9A13400B930A9B9BB2F6
:10470C0046339BB29B00ADF82630BDF826301846D8
:10471C00FFF764FE0346002B21D0BDF82630184667
:10472C00FFF76FFE01238DF80030BDF82630A3F59E
:10473C008C73DB08DBB28DF80430BDF82630A3F5A2
:10474C008C7303F00403002B0CBF01230023DBB29A
:10475C008DF80530054B1B686A46104698470B9B35
:10476C00002BBED100BF0DB05DF804FBF00B002098
:10477C0000B585B0019000912F4B93F82C30002B95
:10478C0003D008230393039B51E0009B002B03D120
:10479C0007230393039B4AE0019B002B01D1274B7A
:1047AC000193254A009B1360019B1B781846FFF769
:1047BC0093FE019B5B781846FFF79CFE019BDA7811
:1047CC001D4B83F82E201C4B012283F82C201A4BF6
:1047DC0000221A74184B002283F82D20164B00224D
:1047EC005A61154B002283F82F206FF00040FFF721
:1047FC004FFE4FF48270FFF704FE4FF48070FFF70A
:10480C0000FE019B9B7819460720FEF7FBFD02205A
:10481C00FFF732FE084B93F82E30002B02D001200C
:10482C00FFF72AFEFFF740FE00230393039B184675
:10483C0005B05DF804FB00BFF00B00202CFB000062
:10484C0000B585B0034600918DF807303D4B93F8C9
:10485C002C30002B04D13C494FF49C70FDF7D5FD56
:10486C009DF80730072B04D9374940F23910FDF772
:10487C00CCFDFFF74DFE0346002B09D0314B93F8CE
:10488C002D30002B04D030494FF49E70FDF7BDFD48
:10489C00009BDB79092B03D8009BDB79002B04D11F
:1048AC0029494FF49F70FDF7B0FD009B1B7A092B33
:1048BC0004D9254940F23F10FDF7A7FD214B1B7C85
:1048CC00DBB2002B03D011230393039B36E09DF83E
:1048DC0007301C4A0C335B0013441B79002B07D1A7
:1048EC00184B93F82D300133DAB2164B83F82D2088
:1048FC009DF80730009AD179124A0C335B001344AF
:10490C000A461A719DF80730009A117A0D4A0C3339
:10491C005B0013440A465A719DF8073000991846FB
:10492C0000F0E0FD009BD979009B1A7A9DF80730C6
:10493C001846FFF77FFD00230393039B184605B031
:10494C005DF804FBF00B0020F0FA000008B5074BF3
:10495C0093F82E30002B01D0002300E004231846DE
:10496C00FFF72FFD0346184608BD00BFF00B0020D3
:10497C0000B585B001900B46ADF802304C4B93F866
:10498C002C30002B04D14B4940F2D110FDF73DFDEA
:10499C00BDF80230464A92F82D2093FBF2F102FB4F
:1049AC0001F29B1A002B04D042494FF4E970FDF739
:1049BC002CFD1220FFF76CFD3D4B1B7CDBB2022B58
:1049CC0006D11220FFF758FD11230393039B6BE0D4
:1049DC00374B1B7CDBB2012B35D1354BDB68002B05
:1049EC0006D00220FFF748FD11230393039B5BE0E5
:1049FC002F4A019BD3602E4ABDF8023013832C4BF7
:104A0C0093F82E3083F00103DBB2002B14D000BFDF
:104A1C004FF48070FFF7E2FC034683F00103DBB236
:104A2C00002BF5D14FF48070FFF7EBFCBDF8023092
:104A3C0019460198FFF740FD0220FFF71DFD0023EA
:104A4C000393039B30E00220FFF716FD184B012265
:104A5C001A74174A019B5360154ABDF80230138132
:104A6C00134B0022DA60124B93F82E30002B0BD034
:104A7C000F4ABDF8023053830D4B93F82D30194675
:104A8C000198FFF719FD0CE0BDF8023019460198AA
:104A9C00FFF712FD4FF48070FFF7B3FC0020FFF717
:104AAC0081FC00230393039B184605B05DF804FBBF
:104ABC00F00B0020F0FA000082B001900B468DF84C
:104ACC0003309DF80330019A134401221A6000BF91
:104ADC0002B0704784B001900B46ADF80230BDF8BF
:104AEC000230019A134400221A60BDF80230019A78
:104AFC0013441B680393039B00BF04B0704782B040
:104B0C0001900B46ADF80230BDF80230019A134407
:104B1C001B68002B14BF01230023DBB2184602B024
:104B2C00704782B001900091019BD3F80022009B4A
:104B3C001A43019BC3F8002200BF02B0704782B039
:104B4C0001900091019BD3F80022009BDB431A409B
:104B5C00019BC3F8002200BF02B0704782B00190E5
:104B6C000091019B009AC3F8042300BF02B0704768
:104B7C0082B001900091019B009AC3F8082300BFFA
:104B8C0002B0704782B001900091019BD3F80423CE
:104B9C00009B1340002B14BF01230023DBB21846EB
:104BAC0002B0704782B001900B468DF80330019B28
:104BBC00D3F8043523F003029DF8033003F003030C
:104BCC001A43019BC3F8042500BF02B0704782B0A2
:104BDC0001900B468DF80330019BD3F8083523F078
:104BEC0003029DF8033003F003031A43019BC3F83F
:104BFC00082500BF02B0704782B001900B468DF8BB
:104C0C000330019BD3F8103523F00F029DF80330CD
:104C1C0003F00F031A43019BC3F8102500BF02B029
:104C2C00704784B003900B4601928DF80B309DF8C1
:104C3C000B20039B02F5A872019943F8221000BFC8
:104C4C0004B0704782B001900B468DF803309DF88C
:104C5C000320019B02F5A87253F82230184602B0CB
:104C6C00704782B00190019BDBB21033DBB29B002A
:104C7C00DBB2184602B0704782B00190019B9BB228
:104C8C0050339BB29B009BB2184602B0704782B067
:104C9C0001904FF48032019B02FA03F3184602B0E4
:104CAC00704784B00190019B1B0B8DF80F309DF960
:104CBC000F30184604B0704710B588B003900291BD
:104CCC000192039B1B791A4613465B0013449B000D
:104CDC008E4A13440693039B1B688D4A934208D05B
:104CEC00039B1B688A4A934203D18A494B20FDF7E8
:104CFC008CFB039B1B68884A934208D0039B1B6860
:104D0C00854A934203D183494C20FDF77EFB039BDC
:104D1C001B68824A934208D0039B1B687F4A9342CC
:104D2C0003D17C494D20FDF770FB039B1B687C4A2B
:104D3C00934208D0039B1B68794A934203D175496F
:104D4C004F20FDF762FB039B1B68764A934208D009
:104D5C00039B1B68734A934203D16E495220FDF7A3
:104D6C0054FB029B002B03D16A495720FDF74DFBE6
:104D7C00069B1B7A002B03D008230593059BC2E0EE
:104D8C00019B002B03D107230593059BBBE0039BE1
:104D9C001B685F4A93420FD1029B9B78012B64D016
:104DAC00029B9B78002B60D0029B9B78022B5CD0E3
:104DBC00029B9B78032B58D0039B1B68564A93424B
:104DCC000FD1029B9B78012B4FD0029B9B78002B21
:104DDC004BD0029B9B78022B47D0029B9B78032BDA
:104DEC0043D0039B1B684D4A93420FD1029B9B7887
:104DFC00012B3AD0029B9B78002B36D0029B9B78E0
:104E0C00022B32D0029B9B78032B2ED0039B1B686A
:104E1C00434A93420FD1029B9B78012B25D0029BD6
:104E2C009B78002B21D0029B9B78022B1DD0029BE0
:104E3C009B78032B19D0039B1B683A4A93420FD1E2
:104E4C00029B9B78012B10D0029B9B78002B0CD0E3
:104E5C00029B9B78022B08D0029B9B78032B04D0DF
:104E6C002C497020FDF7D1FA00E000BF069B019A97
:104E7C001A60029B5A68069B5A6000238DF81F30FB
:104E8C0010E0039B1C689DF81F301846FFF7F4FEDA
:104E9C00034619462046FFF71DFE9DF81F300133CF
:104EAC008DF81F30039B5B799DF81F209A42E8D345
:104EBC00039B1B681846FFF7F4FE03461A46029B39
:104ECC00DB7819461046FEF79DFA039B1A68029B85
:104EDC005B7819461046FFF765FE039B1A68029B28
:104EEC009B7819461046FFF772FE039B1A68029BCB
:104EFC001B7819461046FFF77FFE069B01221A729B
:104F0C0000230593059B184608B010BD200C00200B
:104F1C000080004038FB00000090004000A00040E2
:104F2C0000A0014000B0014000B583B00190019B8E
:104F3C001B791946114A0B465B000B449B0013442A
:104F4C0008331B78012B03D00D49A020FDF75DFA27
:104F5C00019B1B6800211846FFF7AEFD019B1B79D6
:104F6C001946064A0B465B000B449B00134408335E
:104F7C0002221A7000BF03B05DF804FB200C002065
:104F8C0038FB000010B582B001900B468DF8033051
:104F9C00019B1B791946184A0B465B000B449B007E
:104FAC00134408331B78022B03D01449CD20FDF792
:104FBC002CFA019B5B799DF803209A4203D30F498D
:104FCC00CE20FDF722FA019B1C689DF80330184691
:104FDC00FFF747FE034619462046FFF76DFD019B80
:104FEC001B689DF8032011461846FFF72BFE03465D
:104FFC00184602B010BD00BF200C002038FB00008A
:10500C0000B587B0039001921A460B468DF80B3011
:10501C0013468DF80A309DF80B301846FFF737FE13
:10502C0005909DF80A30002B06D0039B1B68059950
:10503C001846FFF793FD05E0039B1B68059918467E
:10504C00FFF796FD039B1B689DF80B10019A184601
:10505C00FFF7E7FD00BF07B05DF804FB00B585B0B6
:10506C00039001921A460B468DF80B301346ADF89F
:10507C000830039B18689DF80B304FF480729A40EF
:10508C009DF80B30012101FA03F313431946FFF786
:10509C0056FD039B1B68BDF8082011461846FFF708
:1050AC0040FD9DF818309DF80B10019A0398FFF7FE
:1050BC00A7FF00BF05B05DF804FB00B587B00390F7
:1050CC00029113468DF8073000238DF8173030E02D
:1050DC009DF817301846FFF7CFFD0346ADF8143096
:1050EC009DF817301846FFF7D2FD0490BDF8143028
:1050FC0019460398FFF703FD0346002B14D00499BF
:10510C000398FFF73FFD0346002B0DD0BDF814307C
:10511C0019460398FFF7DEFC029B1B68029A516844
:10512C00BDF81420104698479DF8173001338DF8C0
:10513C0017309DF817209DF807309A42C8D300BF4E
:10514C0007B05DF804FB000008B5042202490348CF
:10515C00FFF7B3FF00BF08BD200C0020008000400B
:10516C0008B5042202490348FFF7A7FF00BF08BD9A
:10517C002C0C00200090004008B504220249034882
:10518C00FFF79BFF00BF08BD380C002000A00040BB
:10519C0008B5062202490348FFF78FFF00BF08BD80
:1051AC00440C002000A0014008B506220249034827
:1051BC00FFF783FF00BF08BD500C002000B001407A
:1051CC0082B003468DF80730054A9DF8073001215F
:1051DC0001FA03F3C2F8043500BF02B0704700BFF8
:1051EC0000F0014084B00346029101928DF80F301B
:1051FC0008499DF80F30A233029A41F83320054A32
:10520C009DF80F30A233DB001344019A5A6000BFA3
:10521C0004B0704700F0014082B003468DF80730AF
:10522C009DF80730012202FA03F3184602B07047CA
:10523C0000B583B003468DF807309DF8073018464B
:10524C00FFF7EAFF0346C3F31303002B14BF01233C
:10525C000023DBB2184603B05DF804FB82B001906A
:10526C000123184602B0704700B583B003468DF891
:10527C0007309DF807301846FFF7CEFF0346184657
:10528C00FFF7ECFF0346184603B05DF804FB000083
:10529C0000B583B003468DF807309DF807301846EB
:1052AC00FFF7BAFF0246064B1B681340002B14BFD6
:1052BC0001230023DBB2184603B05DF804FB00BFEA
:1052CC00600C002000B583B003468DF807309DF8C4
:1052DC0007301846FFF7A0FF0246044B1B68134328
:1052EC00024A136000BF03B05DF804FB600C0020A1
:1052FC0082B0084B1B78002B05D1064B01221A708B
:10530C000023019301E085230193019B184602B011
:10531C00704700BF5C0C002000B587B001900023E3
:10532C0005930023039304230593244B0393002339
:10533C008DF8133037E00020FDF720F89DF813307E
:10534C001846FFF769FF0246039B1340002B15D04C
:10535C009DF813301846FFF79BFF034683F00103BB
:10536C00DBB2002B0AD09DF813301846FFF7AAFFCA
:10537C00019B9DF813201A70002305930020FDF764
:10538C0011F8059B002B12D09DF813301846FFF72F
:10539C0043FF0346DB43039A134003939DF81330FA
:1053AC0001338DF81330039B002BC4D100E000BFF8
:1053BC00059B184607B05DF804FB00BFFFFF0F000C
:1053CC0000B587B00346029101928DF80F30029B15
:1053DC00002B01D10E232AE0019B002B01D10E23BF
:1053EC0025E0002305939DF80F301846FFF720FFAA
:1053FC00034683F00103DBB2002B02D00723059395
:10540C0014E09DF80F301846FFF742FF034683F077
:10541C000103DBB2002B02D00823059306E09DF8B4
:10542C000F30019A02991846FFF7DCFE059B1846CF
:10543C0007B05DF804FB00B585B003468DF8073066
:10544C00002303939DF807301846FFF70DFF034622
:10545C0083F00103DBB2002B02D0072303931AE085
:10546C009DF807301846FFF7E3FE0346002B0DD0DE
:10547C009DF807301846FFF70BFF034683F0010336
:10548C00DBB2002B02D00823039304E09DF8073015
:10549C001846FFF795FE039B184605B05DF804FB14
:1054AC0082B003468DF807300B468DF80630134654
:1054BC008DF805300A499DF807309DF805205133C9
:1054CC001B010B4404331A6005499DF807309DF805
:1054DC00062051331B010B441A6000BF02B0704709
:1054EC000070004000B583B0034600918DF8073082
:1054FC001E489DF80730009A127802F00301009ABA
:10550C005278120102F030021143009A9278120282
:10551C0002F4E0621143009AD278120302F4805232
:10552C001143009A1279120402F4E0221143009AFA
:10553C005279120502F480121143009A92791206E4
:10554C0002F080720A431B01034403F5A3631A6043
:10555C00009BD979009B1A7A9DF807301846FFF703
:10556C009FFF00BF03B05DF804FB00BF007000405C
:10557C0082B001900B468DF803309DF80330019AF0
:10558C00134401221A6000BF02B0704784B001902E
:10559C000B46ADF80230BDF80230019A13440022DC
:1055AC001A60BDF80230019A13441B680393039BE5
:1055BC0000BF04B0704782B001900B46ADF80230CA
:1055CC00BDF80230019A13441B68002B14BF012351
:1055DC000023DBB2184602B0704782B001900091F4
:1055EC00019B009AC3F8042300BF02B0704782B03D
:1055FC0001900091019B009AC3F8082300BF02B0F0
:10560C00704782B00190019B0522C3F8002500BFB2
:10561C0002B0704782B00190019B0022C3F80025B4
:10562C0000BF02B0704784B0039002910192039BBB
:10563C00029AC3F80825039B019AC3F80C2500BFF6
:10564C0004B0704782B001900091019B009AC3F89E
:10565C00242500BF02B0704784B00190019BD3F8A1
:10566C00C4340393019B039AC3F8C424039B1846C8
:10567C0004B0704782B001900B468DF803309DF852
:10568C000320019BC3F8882500BF02B0704782B08D
:10569C000190019BD3F81835DBB2184602B0704765
:1056AC0082B001900B468DF803309DF80320019BCE
:1056BC00C3F81C2500BF02B0704782B00190009166
:1056CC00019B009AC3F8002200BF02B0704784B05F
:1056DC000190019B1B0B8DF80F309DF90F30184674
:1056EC0004B0704700B583B00190019B1B682F2B51
:1056FC0004D90B494FF4E870FCF787FE019B1B683B
:10570C001F2B02D84FF0A04306E0019B1B6803F04F
:10571C001F02019B1A60034B184603B05DF804FB93
:10572C0078FB00000003005000B585B0019001AB80
:10573C001846FFF7D7FF0390019B012202FA03F3EF
:10574C001946039800F035F800BF05B05DF804FB6E
:10575C0000B585B0019001AB1846FFF7C3FF03906D
:10576C00019B012202FA03F31946039800F02BF86F
:10577C0000BF05B05DF804FB00B585B0019001AB2E
:10578C001846FFF7AFFF0390039800F00AF80246A3
:10579C00019B22FA03F303F00103184605B05DF8F0
:1057AC0004FB82B00190019BD3F81035184602B06F
:1057BC00704782B001900091019B009AC3F80825B4
:1057CC0000BF02B0704782B001900091019B009A1B
:1057DC00C3F80C2500BF02B07047000084B00190E4
:1057EC00244B0393019B002B40D0234B1A68039945
:1057FC00019B00BF00BF00BF00BF00BF00BF00BFC8
:10580C0000BF8A422FD000BF00BF00BF00BF00BF47
:10581C0000BF00BF00BF00BF00BF00BF00BF00BF84
:10582C0000BF00BF00BF00BF00BF00BF00BF00BF74
:10583C0000BF00BF00BF00BF00BF00BF00BF00BF64
:10584C0000BF00BF00BF00BF00BF00BF00BF00BF54
:10585C0000BF00BF00BF00BF00BF00BF00BF00BF44
:10586C0000BF00BF00BF013BC3D1019300BF04B018
:10587C00704700BF0024F400CC00002084B00190DD
:10588C0003230393019B03F00103002B02D04FF47D
:10589C0002430393019B03F00203002B02D048F256
:1058AC0001230393019B03F00403002B02D048F265
:1058BC0002230393039B184604B0704700B585B0D0
:1058CC0001904FF0A042019B1B6803F5E07340F27E
:1058DC000C6142F823104FF0A042019B5B6803F56A
:1058EC00E07340F20C6142F82310019B1B681846D0
:1058FC00FFF71AFF019B5B681846FFF715FF4FF087
:10590C00A042019B1B6803F5E07340F20D6142F865
:10591C0023104FF0A042019B5B6803F5E07340F24B
:10592C000D6142F823100420FFF758FF0023039366
:10593C001EE0019B5B681846FFF71EFF0346002B19
:10594C0003D0039B002B17D124E0019B1B68184646
:10595C00FFF7FEFE0420FFF741FF019B1B68184672
:10596C00FFF7E2FE0420FFF739FF039B013303939B
:10597C00039B082BDDDD00E000BF019B5B68184634
:10598C00FFF7E6FE0420FFF729FF019B5B68184632
:10599C00FFF7CAFE05B05DF804FB000000B589B046
:1059AC000390029101920093029B002B03D13F497B
:1059BC00F520FCF72AFD029B1A68029B5B689A4251
:1059CC0003D13A49F620FCF720FD039B1B791A46BC
:1059DC0013469B001344DB00354A13440793079B83
:1059EC0093F82230002B03D008230693069B59E032
:1059FC00079B019A1A60079B009A5A60079B00222A
:105A0C009A60079B002283F82520079B002283F8CD
:105A1C002420029B9A7B079B83F82720029B5B7BAD
:105A2C00002B02D00298FFF749FF4FF0A042029BD7
:105A3C001B6803F5E07340F20C6142F823104FF041
:105A4C00A042029B5B6803F5E07340F20C6142F8E4
:105A5C002310039B1B680593029B1968029B5B68D0
:105A6C001A460598FFF7DFFD029B9B6819460598BF
:105A7C00FFF7E8FD079B1B68002B0CD0039B1B68F2
:105A8C001846FFF724FE03461A46029B1B7B194659
:105A9C001046FDF7B7FC079B012283F82220002358
:105AAC000693069B184609B05DF804FBB0FB00009A
:105ABC00640C002000B585B00190019B1B791A463F
:105ACC0013469B001344DB000D4A13440393039BC2
