:100000000000042059020000B1020000192600007F
:10001000B5020000B7020000B902000000000000B5
:10002000000000000000000000000000BB02000013
:10003000BD02000000000000BF020000C10200007D
:1000400039520000C702000031960000D150000074
:10005000F5500000CF02000065550000F56E00006D
:10006000018200001982000031820000516D000001
:10007000DD020000616B0000E1020000E30200000D
:1000800051AE00000D250000B16900003D51000097
:100090004D2500003D7A0000557A00006D7A000081
:1000A000857A00009D7A000049820000618200008C
:1000B000B5680000B5580000C3020000C30200008C
:1000C00001030000CD680000E56800001951000040
:1000D000656D00000B0300000D03000021AA000065
:1000E00011030000130300001503000017030000B4
:0800F000C3020000FD680000DE
:1000F800364937480A1A02D0072291438D463549B6
:1001080035480A1A06D00722914381F3098802224A
:1001180082F3148831483249324A00F045F83248AF
:100128003249334A00F040F832483349334A00F044
:100138003BF833483349344A00F036F833483449F9
:10014800344A00F031F834483449354A00F02CF884
:1001580034483549354A00F027F8354835490022F2
:1001680000F02DF834483549002200F028F83448CA
:100178003449091A082903DB0022026004300160AF
:10018800314A90471F482049884205D00268043008
:1001980003B4904703BCF7E700208646EC460020EE
:1001A80000212A4A9047FEE7884207D0521A05D014
:1001B800037801300B700131013AF9D17047884258
:1001C80002D002700130FAE77047000000000420F6
:1001D80000F803200000042000000420383C01003F
:1001E80084010020DC0200201C0300001C03000026
:1001F80008020100383C010084010020840100202D
:10020800B4040100B4040100B4040100B404010002
:10021800B4040100B4040100B4040100B4040100F2
:10022800383C0100903D0100DC020020DC02002087
:10023800DC020020D8110020D8110020DC11002099
:10024800DC110020DC1300207D0200002DB200002C
:100258000F484FF00701884385460E4880470E48EF
:10026800016841F470010160BFF34F8FBFF36F8FD6
:10027800FFF73EBF09480A490A4A884207D0521A7E
:1002880005D0037801300B700131013AF9D170477C
:100298000000042011B3000088ED00E030030100E5
:1002A8000000002084010020FEE7FEE7FEE7FEE7ED
:1002B800FEE7FEE7FEE7FEE7FEE7FEE7FEE7FEE70E
:1002C800FEE7FEE7FEE7FEE7FEE7FEE7FEE7FEE7FE
:1002D800FEE7FEE7FEE7FEE7FEE7FEE7FEE7FEE7EE
:1002E800FEE7FEE7FEE7FEE7FEE7FEE7FEE7FEE7DE
:1002F800FEE7FEE7FEE7FEE7FEE7FEE7FEE7FEE7CE
:10030800FEE7FEE7FEE7FEE7FEE7FEE7FEE7FEE7BD
:04031800FEE700BF3D
:10031C0000487047D011002000B583B001900091C7
:10032C00019B1B681B6800990198984700BF03B09C
:10033C005DF804FB00B583B00190019B1B685B6802
:10034C000198984700BF03B05DF804FB82B00190A0
:10035C000B468DF80330019B9DF803201A7200BFE9
:10036C0002B0704782B00190019B1B7A184602B014
:10037C00704782B00190019B01225A7200BF02B0FB
:10038C00704782B00190019B00225A7200BF02B0EC
:10039C00704782B00190019B5B7A184602B070479F
:1003AC0010B487B001900091019B009A53E8004F64
:1003BC0044EA020043E8000191F0000FF6D10594E5
:1003CC0004900391049B184607B05DF8044B7047EA
:1003DC0010B487B001900091019B009A53E8004F34
:1003EC0004EA020043E8000191F0000FF6D10594F5
:1003FC0004900391059B184607B05DF8044B7047B9
:10040C0000B583B0019001210198FFF7C9FF0346A5
:10041C00184603B05DF804FB00B583B001900021D1
:10042C000198FFF7D5FF0346184603B05DF804FBAF
:10043C0000B58BB00190364BFF229A60344B0022F2
:10044C001A60334B00225A60314B0022C3F8182437
:10045C002F4B0022C3F814242D4B002283F81C24AC
:10046C002C4804F061FA0690069B002B01D0069BE9
:10047C004AE0294A294BD31ADB0805930023099338
:10048C003DE000230793002308931DE0099A089B85
:10049C009A4216D0099BDB00204A13441B68049334
:1004AC00089BDB001D4A13441B6803931422039919
:1004BC0004980FF0ACFD0346002B02DD079B0133C3
:1004CC000793089B01330893089A059B9A42DDD346
:1004DC00099A13465B0013449B001A46104B1344B5
:1004EC000293029B00225A60099B9AB2029B1A80CB
:1004FC00079B9AB2029B5A80099B01330993099A74
:10050C00059B9A42BDD3002318460BB05DF804FB43
:10051C00AC030020B4040100F80201000802010041
:10052C0000000020024A034BD31ADB081846704720
:10053C00F80201000802010000B587B001900B46DB
:10054C008DF803309DF80330002B23D0FFF7EAFF22
:10055C0004900023059317E0059A13465B0013449F
:10056C009B001A460E4B13440393039B5B881A465D
:10057C00019B1B689A4204D1019B059A1A600023C7
:10058C0009E0059B01330593059A049B9A42E3D33A
:10059C00052300E00023184607B05DF804FB00BFFC
:1005AC000000002000B585B001900B468DF803309B
:1005BC009DF8032001AB11461846FFF7BDFF03461B
:1005CC00002B07D1019BDB00054A13440393039BCB
:1005DC001B6800E00023184605B05DF804FB00BF63
:1005EC000802010084B001900B468DF80330019B8A
:1005FC00DB00174A134402939DF80330013B032B95
:10060C001CD801A252F823F0250600002D0600008C
:10061C00350600003F06000002238DF80F3011E074
:10062C0004238DF80F300DE0029B1B798DF80F30F1
:10063C0008E0029B5B798DF80F3003E000238DF806
:10064C000F3000BF9DF80F30184604B0704700BF44
:10065C000802010086B00190002305930023049347
:10066C0011E00722049B9A40019B1A40049B22FA3A
:10067C0003F30393039A059B9A4201D9039B0593B9
:10068C00049B03330493049B092BEAD9059B18465E
:10069C0006B0704700B587B00390029113468DF8F1
:1006AC000730029A13465B0013449B001A46164B04
:1006BC0013440593059B9968039A13465B001344F6
:1006CC00072202FA03F3DB4301EA0302059B9A605B
:1006DC00059B99689DF8073003F00700039A1346B1
:1006EC005B00134400FA03F341EA0302059B9A6092
:1006FC00059B9B681846FFF7ADFF0246059B5A60A9
:10070C0000BF07B05DF804FB0000002000B589B005
:10071C000390029111461A460B468DF8073013468A
:10072C008DF8063000238DF81F309DF80630002B15
:10073C0020D09DF8072002AB11461846FFF7FCFEAF
:10074C000346002B30D1029A13465B0013449B00E6
:10075C001A46184B13440693069B9968039A134642
:10076C005B00134421FA03F3DBB203F007038DF8AB
:10077C001F3019E09DF8063083F00103DBB2002B2B
:10078C0012D09DF8072002AB11461846FFF7D4FE95
:10079C000346002B08D1029BDB00074A1344059348
:1007AC00059B9B798DF81F309DF81F30184609B0BA
:1007BC005DF804FB000000200802010000B589B0C0
:1007CC004148FFF71DFE4148FFF71AFE404B5B689E
:1007DC0007933F4B9B680493079A049B1340023387
:1007EC009B003B4A1344043306931BE0079B0133E5
:1007FC000793069B5B88C3F389139BB21A46069B2F
:10080C001B88C3F389139BB213441A46079B1344EA
:10081C000793079A049B134002339B002C4A134402
:10082C0004330693069B1B7803F00303DBB2002B07
:10083C00DCD00023059311E0059B9B006A461A440B
:10084C00079B591C079104990B40214902339B00CB
:10085C000B445B681360059B01330593059B012BCF
:10086C00EAD99DF80030C3F30103DBB2012B0CD0A5
:10087C00022B14D1BDF80230C3F389139BB203339E
:10088C009B08079A134407930FE0BDF80030C3F39D
:10089C008313DBB21A46079B1344079305E00D49FB
:1008AC0040F24D1001F0C2FF00BF0848FFF7B4FD45
:1008BC000390039B002B02D0054A079B536000BF9B
:1008CC0009B05DF804FB00BFC4070020C00700207E
:1008DC00AC030020D804010010B586B0039002913F
:1008EC0001920093039B1B0CADF81630BDF816401B
:1008FC00FFF718FE03469C4204D325494FF4B2700F
:10090C0001F094FF009B5A1C089B1340BDF8162065
:10091C00204902339B000B445A60009A089B1340F9
:10092C0002339B001B4A134404330493039B03F0D0
:10093C001003002B14BF01230023D9B2049A13789F
:10094C0061F382031370039BDBB203F00703D9B28C
:10095C00049A137861F3C5031370019BDBB203F0A7
:10096C000F03D9B2049A138861F389131380029B85
:10097C00C3F31501049A136861F39F231360049A5F
:10098C001378012161F30103137000BF06B010BD91
:10099C00D8040100AC03002000B589B0019000918F
:1009AC00019B023306930223059301238DF8133028
:1009BC00002001F0E3FD214B1A68009B1A601F4BCD
:1009CC009A681E4B59681D4B1B68CB1A1344013394
:1009DC000793069A059B134403930BE0FFF7EEFE77
:1009EC00164B9A68154B5968144B1B68CB1A134459
:1009FC0001330793039A079B9A42EFD80F4B1A685F
:100A0C000E4B9B68134002339B000C4A1344043377
:100A1C000293029A137843F003031370074B1A687E
:100A2C00069B1344054A1360002001F0BBFD9DF8A2
:100A3C001330184609B05DF804FB00BFAC0300206E
:100A4C0000B58BB005900491039202931F4B9B68E9
:100A5C00079306AB19460298FFF79EFF0346002B3F
:100A6C0024D0069B023309930023089311E0099BC1
:100A7C005A1C0992079A1340089A920003990A4447
:100A8C001268124902339B000B445A60089B0133D5
:100A9C000893089A029B9A42E9D3069A079B009303
:100AAC001346029A04990598FFF716FF074B93F823
:100ABC001C34002B05D000BF00F07AF80346002B45
:100ACC00FAD100BF0BB05DF804FB00BFAC030020F3
:100ADC0000B583B001900091002300220099019889
:100AEC00FFF7AEFF00BF03B05DF804FB00B587B0A5
:100AFC00039002910192019B059305AA012302998F
:100B0C000398FFF79DFF00BF07B05DF804FB00B52D
:100B1C0087B00390029101920093019B0493009B78
:100B2C00059304AA022302990398FFF789FF00BFDB
:100B3C0007B05DF804FB00B589B0039002910192F7
:100B4C000093019B0593009B06930A9B079305AAB0
:100B5C00032302990398FFF773FF00BF09B05DF8F8
:100B6C0004FB00B589B00390029101920093019BA4
:100B7C000493009B05930A9B06930B9B079304AA73
:100B8C00042302990398FFF75BFF00BF09B05DF8DF
:100B9C0004FB0000054B5A68044B1B689A420CBFBF
:100BAC0001230023DBB21846704700BFAC030020C2
:100BBC0000B59BB0FFF7EEFF0346002B01D00023DE
:100BCC00CDE19D4B0022C3F81824BFF34F8F9A4BF5
:100BDC005B681993984B9B681193199A119B13405E
:100BEC0002339B00944A1344043318930023179345
:100BFC0000231693002315931BE0199B01331993C3
:100C0C00189B5B88C3F389139BB21A46189B1B88ED
:100C1C00C3F389139BB213441A46199B13441993BB
:100C2C00199A119B134002339B00834A13440433DB
:100C3C001893189B1B7803F00303DBB2002BDCD05A
:100C4C000023149311E0149B9B0001AA1A44199BD6
:100C5C00591C199111990B40774902339B000B4495
:100C6C005B681360149B01331493149B012BEAD91A
:100C7C009DF8043003F00303DBB2022B40F09C80A0
:100C8C00BDF80630C3F389139BB20F93BDF8063041
:100C9C00C3F389139BB2502BA8BF50230E930E9B0A
:100CAC009BB2C3F309039AB2BDF8063062F38F13FB
:100CBC00ADF806300E9B08330D939DF80430C3F34A
:100CCC00C203DBB215930D995C4803F038FE179004
:100CDC00179B002B00F0E380179803F0C0FE01A9CE
:100CEC00169B0822179803F063FF169B0833169384
:100CFC00199BDA43119B134001339B000C930E9A02
:100D0C000C9B9A4242D90C9B002B08D0199A119B30
:100D1C00134002339B00484A1344043300E0484B11
:100D2C000B930C9B002B02D00C9BDBB201E00E9BB7
:100D3C00DBB28DF82B300C9B002B01D0404B00E02C
:100D4C00002309930C9B002B06D00E9BDAB20C9B54
:100D5C00DBB2D31ADBB200E000238DF823309DF810
:100D6C002B20169B0B99179803F022FF9DF82B3024
:100D7C00169A13441693099B002B16D09DF823202A
:100D8C00169B0999179803F013FF0EE0199A119B03
:100D9C00134002339B00284A134404330793169BD9
:100DAC000E9A0799179803F003FF0F9B03339B08C8
:100DBC00199A1344199372E09DF8043003F003035D
:100DCC00DBB2012B5DD1BDF80430C3F38313DBB26E
:100DDC00062B28BF0623DBB203F00F03DAB2BDF8F3
:100DEC00043062F38913ADF80430BDF80430C3F35A
:100DFC008313DBB2023310939DF80430C3F3C203A8
:100E0C00DBB21593109B9B0019460C4803F097FD21
:100E1C001790179B002B42D0179803F020FE01A9C6
:100E2C00169B0822179803F0C3FE169B08331693E3
:100E3C00002314931BE000BFAC030020B40401009A
:100E4C00B8030020199B5A1C1992119A13400233B3
:100E5C009B00454A1344191D169B0422179803F056
:100E6C00A7FE169B04331693149B01331493BDF801
:100E7C000430C3F38313DBB21A46149B9A42E1D8B5
:100E8C000DE09DF8043003F00303DBB2032B06D115
:100E9C00354BD3F81834002B01D100235FE0179B9E
:100EAC00002B56D0304BD3F8103413932E4BD3F871
:100EBC001834002B39D0179803F0E0FD49E00023DB
:100ECC008DF84B301398FFF764FA0346002B21D0B2
:100EDC001398FFF747FA03468DF81B30029A134616
:100EEC005B0013449B001A46204B13449B680593EC
:100EFC009DF81B2013465B001344059A22FA03F35A
:100F0C0003F007030493049A159B9A4202D301231E
:100F1C008DF84B309DF84B30002B03D0179913985C
:100F2C00FFF7FAF9139B5B681393139B002BC6D145
:100F3C00179803F0A3FD002001F020FB0A4BD3F817
:100F4C001834002B02D1084A199B5360002001F081
:100F5C0029FBFFF71FFE034683F00103DBB21846A3
:100F6C001BB05DF804FB00BFAC03002000000020A8
:100F7C0000B585B00023039322E0164BD3F8103450
:100F8C00029301238DF807300EE00298FFF7EAF97F
:100F9C0003461A46039B9A4203D100238DF807306F
:100FAC0005E0029B5B680293029B002BEDD19DF840
:100FBC000730002B01D0039B07E0039B0133039305
:100FCC00039B092BD9DD4FF0FF33184605B05DF8B4
:100FDC0004FB00BFAC03002000B587B001900B46AA
:100FEC008DF80330FFF7C4FF0490049BB3F1FF3F6F
:100FFC0001D1049B47E0049BDBB219460198FFF733
:10100C00A5F9234BD3F81034002B07D1204A019BB0
:10101C00C2F81034019B00225A600AE01C4BD3F832
:10102C0010345A68019B5A60194BD3F81034019A4A
:10103C005A60002305931FE00498002300220599B1
:10104C00FFF764FB03468DF80F309DF803209DF8E5
:10105C000F30934228BF13468DF80E300198FFF7DE
:10106C0081F9034618469DF80E301A460599FFF78C
:10107C0011FB059B01330593FFF754FA0246059BC0
:10108C009A42D9D8049B184607B05DF804FB00BF00
:10109C00AC03002000B583B00C4BD3F81034019393
:1010AC000A4B012283F81C2408E00198FFF761F930
:1010BC000198FFF73FF9019B5B680193019B002BA3
:1010CC00F3D100BF03B05DF804FB00BFAC030020FC
:1010DC0082B00190019B9B6893F83D31C3F34003B0
:1010EC00DBB2002B14BF01230023DBB2184602B085
:1010FC007047000010B58CB0079006910592FFF771
:10110C0011FA0A90079BDB681B7A0993079BDB6833
:10111C001846FFF73EF9034683F00103DBB2002BC0
:10112C0004D02B4A0221079802F0CCF8294B2A4A0A
:10113C000821079802F0C6F8284A0821079802F0FF
:10114C00C1F800230B933CE0012301220B99099871
:10115C00FFF7DCFA03468DF82330002301220B99AC
:10116C000998FFF7D3FA03468DF822309DF8223008
:10117C00032B28BF03238DF8213001210B98FFF797
:10118C0011FA04469DF82330154A52F823309DF885
:10119C002120134951F822209DF821009DF822109E
:1011AC00884201D20F4900E00F490291019200934D
:1011BC0023460E4A0821079802F084F80B9B013352
:1011CC000B930B9A0A9B9A42BED300BF0CB010BD76
:1011DC00480501005C050100680501008805010057
:1011EC0084010020B8050100BC050100C005010008
:1011FC0000B587B001900091FFF794F9049000239B
:10120C00059313E000210598FFF7CCF903902022F9
:10121C00019903980EF0FBFE0346002B03D1009BB3
:10122C00059A1A6006E0059B01330593059A049B09
:10123C009A42E7D3059A049B9A4214BF01230023D8
:10124C00DBB2184607B05DF804FB00B587B003901D
:10125C00029113468DF8073000230022029903985F
:10126C00FFF754FA03468DF817309DF807209DF8C8
:10127C0017309A4201D9002307E09DF807301A462F
:10128C0002990398FFF706FA0123184607B05DF898
:10129C0004FB000000B58BB0039002910192039BFC
:1012AC00DB681B7A059300238DF81B30029B002B07
:1012BC0000F0C880019B1B680722644918460EF099
:1012CC00A6FE0346002B39D1029B012B05D1604AA7
:1012DC000221039801F0F6FFB4E0029B022B02D12D
:1012EC0001238DF81B300023079310E0019B04337E
:1012FC001868584A079B52F823300A2219460EF0F8
:10130C0086FE0346002B06D0079B01330793079BF1
:10131C00042BEBD900E000BF079B052B08D1019BE8
:10132C0004331B684C4A0221039801F0CBFF89E07F
:10133C00079B8DF82730022308931DE0019B1B6847
:10134C000822464918460EF062FE0346002B0BD1CC
:10135C00029B012B02D101238DF81B3000238DF849
:10136C0027300123089307E0019B1B683C4A0221AC
:10137C00039801F0A7FF65E09DF81B30002B23D0EC
:10138C000023079319E09DF827301A460799059812
:10139C00FFF75BFF034683F00103DBB2002B09D0A0
:1013AC0000210798FFF7FEF803462E4A0221039806
:1013BC0001F088FF079B01330793FFF7B3F8024650
:1013CC00079B9A42DFD83DE0089B079336E0002349
:1013DC000493079B9B00019A13441B6804AA1146B3
:1013EC001846FFF705FF034683F00103DBB2002B21
:1013FC0009D0079B9B00019A13441B681A4A0221CF
:10140C00039801F05FFF049B9DF82720194605986F
:10141C00FFF71BFF034683F00103DBB2002B0AD05E
:10142C00049B00211846FFF7BDF803460D4A022124
:10143C00039801F047FF079B01330793079A029B20
:10144C009A42C4D30BB05DF804FB00BFD805010071
:10145C00E005010084010020F805010018060100D8
:10146C0020060100380601005C06010000B583B0BF
:10147C0001900091009B0022DA60009B00225A60D0
:10148C00009B064A9A6001210198FFF78BF80246EF
:10149C00009B1A6000BF03B05DF804FBEC07010071
:1014AC0082B001900091009B0022DA60009B002228
:1014BC005A60009B074A9A60019B042B04D8064A89
:1014CC00019B52F8233000E00023009A136000BF08
:1014DC0002B07047EC0701009801002000B585B000
:1014EC00039002910192039BDB681846FEF749FFBB
:1014FC0000BF05B05DF804FB00B585B00390029108
:10150C000192039BDB681846FEF733FF00BF05B062
:10151C005DF804FB00B587B0059004910392049B21
:10152C00012B05D00598FFF7D3FD0346002B05D002
:10153C0000220021059801F0F5FF0DE0039B1A68CD
:10154C00039B04331B680193054B00931346054A18
:10155C000221059801F0B6FE07B05DF804FB00BF50
:10156C00B0070100A407010010B582B001900091F2
:10157C00019BDB7983F00103DBB2002B28D0019BAC
:10158C001B7A002B12D0019B9B881A46019B9B79DE
:10159C0019461046FFF726F803461A460E4B53F829
:1015AC0022301A460D49009802F090FD019B9B7960
:1015BC001A460B4B53F82240019B9B88002118467E
:1015CC00FEF7F0FF034622460649009802F07EFD26
:1015DC0000BF02B010BD00BFC0010020DC0801003C
:1015EC00AC010020E008010000B585B00390029129
:1015FC0013468DF80730039BDB7983F00103DBB2D4
:10160C00002B0FD0039B1B7A002B06D00D4B1B68B5
:10161C001A460D49029802F059FD0C49029802F045
:10162C0055FD07E09DF80730002B03D007490298C1
:10163C0002F04CFD029802F027FD00BF05B05DF8EA
:10164C0004FB00BFC0010020DC080100EC08010015
:10165C0030B58BB007900691059204930E9B1B7BC3
:10166C008DF827300E9B00221A730E990498FFF701
:10167C007BFF059B062B7FD801A252F823F000BFFD
:10168C00A9160000B3160000C3160000D716000000
:10169C00F51600001D1700004D17000007990E9855
:1016AC0002F014FD69E0069B1B681A4607990E9818
:1016BC0002F00CFD61E0069B1A68069B04331B6864
:1016CC0007990E9802F002FD57E0069B1A68069BDC
:1016DC0004331968069B08331B6800930B46079963
:1016EC000E9802F0F3FC48E0069B1968069B043345
:1016FC001868069B08331B68069A0C321268019214
:10170C00009303460A4607990E9802F0DFFC34E07A
:10171C00069B1868069B04331C68069B08331B68E1
:10172C00069A0C32126806991031096802910192DE
:10173C0000932346024607990E9802F0C7FC1CE062
:10174C00069B1C68069B04331D68069B08331B68AC
:10175C00069A0C32126806991031096806981430F2
:10176C00006803900291019200932B462246079940
:10177C000E9802F0ABFC00E000BF00220E9904981A
:10178C00FFF732FF0E9B9DF827201A7300BF0BB09A
:10179C0030BD00BF00B587B0039002910192009359
:1017AC00029B082B5CD8009B1B7B8DF81330009B95
:1017BC0000221A7300990198FFF7D6FE00230593B7
:1017CC0014E0059A029B9A4209D2039A059B134492
:1017DC001B781A462449009802F078FC03E0234950
:1017EC00009802F073FC059B01330593059B072BB6
:1017FC00E7D91F49009802F069FC0023059322E009
:10180C00059A029B9A4217D2039A059B13441B78A4
:10181C008DF812309DF8123018460EF0B4FB0346CA
:10182C00002B02D09DF8123000E02E231A461149ED
:10183C00009802F04BFC03E00F49009802F046FCC4
:10184C00059B01330593059B072BD9D901220099E0
:10185C000198FFF7C9FE009B9DF813201A7300E056
:10186C0000BF07B05DF804FBF0080100F8080100A8
:10187C00FC080100000901000409010008B50DF085
:10188C0041FB00BF08BD00B589B0039002910192E5
:10189C00019B002B22D0002307930A230693029A64
:1018AC00079B1344019A194600200DF0DDFA0590B0
:1018BC00079A059B13440793019A059BD31A01932E
:1018CC00059B002B05D1069B013B0693069B002B29
:1018DC0003D0019B002BE2D100E000BF00BF09B098
:1018EC005DF804FB00B585B003900291054B0093A5
:1018FC004023054A0299039800F038F800BF05B060
:10190C005DF804FB93180000CC07002082B0019016
:10191C0000BF02B0704782B0019000BF02B07047A8
:10192C0082B00190019B01225A7200BF02B0704735
:10193C0000B583B04FF0FF330193FFF79FFF0421F5
:10194C000848FFF749FB0190019B002B03DA06497D
:10195C00412000F06BFF0348FFF7E2FF00BF03B02C
:10196C005DF804FBE40100201409010000B5A1B0EE
:10197C000590049103920293049803F070F8039B72
:10198C001593029B16930023179300238DF8603058
:10199C0000231993229B1A9300231F930FA91F9BBB
:1019AC000822049803F016F908231F93119B129335
:1019BC00109B9BB2ADF84C3000238DF850309DF845
:1019CC003C3003F00303DBB2012B32D10F9BC3F38A
:1019DC0095231D939DF83C30C3F3C203DBB28DF805
:1019EC004E309DF83C30C3F38003DBB2002B14BFA8
:1019FC0001230023DBB28DF84F30BDF83C30C3F32C
:101A0C008313DBB21C931C9B9A0009A91F9B04989F
:101A1C0003F0E0F81C9B9B001F9A13441F9312AA1F
:101A2C0009A915AB009313461C9A1D98FFF710FEDD
:101A3C003BE09DF83C3003F00303DBB2022B34D1C6
:101A4C00BDF83E30C3F389139BB21E939DF83C3016
:101A5C00C3F3C203DBB28DF84E309DF83C30C3F3B8
:101A6C008003DBB2002B14BF01230023DBB28DF803
:101A7C004F301E9B082B28BF08231B9307A91F9BC5
:101A8C001B9A049803F0A6F81F9A1B9B13441F93F0
:101A9C001E9A1B9BD31A1E9315AB12AA07A81B994F
:101AAC00FFF778FE1E9B002BE3D1049802F0E6FFB3
:101ABC0000BF21B05DF804FB00B589B00390029122
:101ACC000192029B9BB2ADF81430019B0693039BD1
:101ADC00079305AB1A46002144F2010000F050F8C0
:101AEC0000BF09B05DF804FB86B00390029101922F
:101AFC0001238DF817309DF81730204A039B136093
:101B0C001E4A029B53601D4A019B9360039B44F247
:101B1C000102934212D044F20202934222D1019B61
:101B2C00164AD360154BDB681B881A46134B9A6117
:101B3C00124BDB685B68114AD36113E0019B0F4ABF
:101B4C0013610E4B1B699B680C4A53610B4B1B6951
:101B5C001B881A46094B9A61084B1B695B68074A3C
:101B6C00D36100BF72B600BF9DF81730DBB2002BFB
:101B7C00FAD162B600BF06B0704700BF0C08002057
:101B8C0030B589B0059004910392FFF783FA00BF3A
:101B9C00FFF70EF80346002BFAD1059B44F2010225
:101BAC00934217D044F20202934235D1039B079320
:101BBC002B4B5B68002B3ED0294B1B881B0443F03E
:101BCC000100079B5B681A46079B1B882549FEF79B
:101BDC009EFF30E0039B0693214B5B68002B2CD0BF
:101BEC001F4B1B881B0443F00104069B9D68069B3E
:101BFC009B68184603F034F903461946069B5B684C
:101C0C001A46069B1B88019300920B462A461649DE
:101C1C002046FEF7A6FF10E0114B5B68002B0ED0A0
:101C2C000F4B1B881B0443F00103049A0F49184601
:101C3C00FEF75CFF03E000BF02E000BF00E000BF66
:101C4C000B4B1B6803F00103002B00D0FFDE039A43
:101C5C0004990598FFF748FF00BF09B030BD00BFDD
:101C6C000C000020640901008009010098090100A2
:101C7C00F0ED00E082B003468DF8073007499DF97E
:101C8C0007305B099DF8072002F01F02012000FAC3
:101C9C0002F241F8232000BF02B0704700E100E0DF
:101CAC0082B003468DF8073008499DF907305B096F
:101CBC009DF8072002F01F02012000FA02F22033E7
:101CCC0041F8232000BF02B0704700BF00E100E0E4
:101CDC0082B003468DF8073008499DF907305B093F
:101CEC009DF8072002F01F02012000FA02F2403397
:101CFC0041F8232000BF02B0704700BF00E100E0B4
:101D0C0082B003468DF8073008499DF907305B090E
:101D1C009DF8072002F01F02012000FA02F2603346
:101D2C0041F8232000BF02B0704700BF00E100E083
:101D3C0084B00190244B0393019B002B40D0234B88
:101D4C001A680399019B00BF00BF00BF00BF00BF12
:101D5C0000BF00BF00BF8A422FD000BF00BF00BF32
:101D6C0000BF00BF00BF00BF00BF00BF00BF00BF6F
:101D7C0000BF00BF00BF00BF00BF00BF00BF00BF5F
:101D8C0000BF00BF00BF00BF00BF00BF00BF00BF4F
:101D9C0000BF00BF00BF00BF00BF00BF00BF00BF3F
:101DAC0000BF00BF00BF00BF00BF00BF00BF00BF2F
:101DBC0000BF00BF00BF00BF00BF013BC3D10193F8
:101DCC0000BF04B0704700BF0024F400680200207C
:101DDC0008B50D4B4FF48032C3F844230A4B4FF433
:101DEC008032C3F804231120FFF78AFF1120FFF77C
:101DFC0041FF054B01221A602F20FFF799FF034B7F
:101E0C0001221A7000BF08BD001001404A090020D1
:101E1C0008B51120FFF744FF0E4B4FF48032C3F886
:101E2C0048230C4B4FF48032C3F80823094B012292
:101E3C005A602F20FFF77CFF064B01229A60064B5D
:101E4C0000221A602F20FFF773FF044B00221A7038
:101E5C0000BF08BD001001403C0900204A090020C9
:101E6C00024BD3F804351846704700BF00100140F0
:101E7C0082B001900091019A009BD31A23F07F430A
:101E8C00184602B07047000082B00190034A019BD3
:101E9C00C2F8403500BF02B0704700BF00100140CF
:101EAC0086B00190284B1B68002B03D1264A019B5E
:101EBC00136045E0019B1A68234B1B681B689A4210
:101ECC0010D8214B1B68204A12681168019A1268BD
:101EDC008A1A1A601C4B1A68019BDA611A4A019B18
:101EEC0013602DE0019B1B680393174B1B68059334
:101EFC00154B1B68049309E0049B1B68039AD31AC7
:101F0C000393049B0593049BDB690493049B002BB4
:101F1C0004D0049B1A68039B9A42EDD3049B002BBC
:101F2C0005D0049B1A68039BD21A049B1A60019B70
:101F3C00039A1A60019B049ADA61059B019ADA6193
:101F4C0000BF06B0704700BF3809002000B587B04D
:101F5C0001902A4B1B680393284B1B680593059B28
:101F6C00049308E0049A019B9A4208D0049B0593C1
:101F7C00049BDB690493049B002BF3D100E000BFAE
:101F8C00049B002B01D1002333E0059A049B9A4259
:101F9C0014D11A4B1B68DB69184A1360174B1B686A
:101FAC00002B0BD1164B01229A60164B00221A60A3
:101FBC00154B01221A702F20FFF7BAFE049B1B68E9
:101FCC000293049BDA69059BDA61059BDB69049338
:101FDC00049B002B05D0049B1A68029B1A44049B9B
:101FEC001A60064B1B68039A9A4214BF0123002304
:101FFC00DBB2184607B05DF804FB00BF38090020BF
:10200C00001001403C0900204B09002008B51120AC
:10201C00FFF75EFE00BF08BD08B51420FFF758FEA1
:10202C0000BF08BD00B583B00190019B5B69019AAC
:10203C0092691046984700BF03B05DF804FB00009E
:10204C0000B585B02B4B1B68002B4ED000230193A1
:10205C00FFF706FF0246284B1B6819461046FFF790
:10206C0007FF0290234B1B6803931DE0039B1A6828
:10207C00029B9A421CD8039B1B68029AD31A0293A8
:10208C00039B1B68019A13440193039B0093039BCE
:10209C00DB690393009B1B7C002B05D0009B00226B
:1020AC001A740098FFF7BEFF039B002BDED100E0F3
:1020BC0000BF124B1A78124B1B789A420CD1104B62
:1020CC001B780133DAB20E4B1A700D4B1B78022BB6
:1020DC0002D10B4B00221A70094B1B781946094A86
:1020EC00019B42F82130FFF797FF00BF05B05DF868
:1020FC0004FB00BF380900203C09002048090020DF
:10210C00490900204009002082B00190184B1A7830
:10211C00184B1B789A4223D0154B1B780133DAB23B
:10212C00134B1A70124B1B78022B02D1104B00224E
:10213C001A700F4B1B781A460F4B53F82220019B39
:10214C001A60019B1A680D4B1B6813440B4A1360F1
:10215C000A4B1B6823F07F43084A1360012303E0FA
:10216C00019B00221A600023184602B0704700BF82
:10217C004809002049090020400900203C090020A2
:10218C0088B00390029101920023079338E0204B12
:10219C001B680693069B1A68039B9A4206D9069BFA
:1021AC001A68039BD21A069B1A602DE0069B1B68CB
:1021BC00039AD31A0393069B1B68079A134407933D
:1021CC00069B00221A60124B1B680593069BDB6969
:1021DC000F4A1360069BDB68002B11D0029A079BF9
:1021EC00134423F07F42069B5A60069BDA68069BD9
:1021FC009A60019B1A68069BDA61019B059A1A602A
:10220C00034B1B68002BC2D100BF08B0704700BF46
:10221C003809002000B589B0019000238DF81F30DB
:10222C00664B1B680593AAE0019B002B05D0019B14
:10223C000693069BDB69019361E0614B1B781A46A0
:10224C0013465B001344DB005D4A134404330493D0
:10225C005B4B1B780133DAB2594B1A70584B1A7816
:10226C00574B9B789A4202D1554B00221A70049B13
:10227C005B680693049B1B78022B04D0032B1BD0AA
:10228C00012B1FD01DE0049B5B681846FFF75EFE18
:10229C000346002B02D001238DF81F30069B002231
:1022AC001A746CE0454B1B680393039B00221A7451
:1022BC00039BDB69414A1360404B1B68002BF1D137
:1022CC005DE05CE000BF069B1B7C002B00D056E061
:1022DC00049B9A68069B5A60049BDA68069B9A607A
:1022EC00049B1A69069BDA60049B5A69069B9A61E7
:1022FC00344B1B78002B02D0069B00225A60069BA5
:10230C005A68314B1B68D31A23F07F432F4A9342F0
:10231C000ED8069B5A682C4B1B6819461046FFF7C3
:10232C00A7FD0246069B9B681A44069B1A6017E0A1
:10233C00254B1A68069B5B6819461046FFF798FDFB
:10234C000290069B9A68029B9A4206D9069B9A6851
:10235C00029BD21A069B1A6002E0069B00221A60AE
:10236C00069B00225A60069B00229A60069B012263
:10237C001A74069B0022DA610698FFF791FD019B07
:10238C00002B7FF451AF0E4B1A780D4B5B789A42B1
:10239C007FF44AAF9DF81F30002B04D1074B1A680D
:1023AC00059B9A4201D0012300E0002303F00103B6
:1023BC00DBB2184609B05DF804FB00BF38090020F9
:1023CC002C0800204B0900203C090020FEFF7F0058
:1023DC0010B588B00190274B1B68002B44D0254BBF
:1023EC001B681B680793FFF73BFD0690224B1B688D
:1023FC00059305990698FFF73BFD034603330493B9
:10240C001E4B1B7883F00103DBB2002B01D0FFF7CE
:10241C00DFFC049A079B934238BF1346059A13447A
:10242C000593059B23F07F4305930598FFF72CFD3F
:10243C00FFF716FD039006990398FFF719FD034665
:10244C00DC1C06990598FFF713FD03469C420DD939
:10245C00FFF706FD03461846FFF716FD2F20FFF782
:10246C0067FCFFF7D3FD01E0FFF7D2FC00BF08B01B
:10247C0010BD00BF380900203C0900204A0900208B
:10248C0000B587B00023019300238DF81730194B4A
:10249C001B680493184B1B6803936B461846FFF795
:1024AC0033FE03468DF80B309DF80B30002B08D013
:1024BC00009B01AA04991846FFF762FE01238DF8D0
:1024CC001730019B1846FFF7A5FE0346002B02D0E0
:1024DC0001238DF817309DF81730002B02D003988C
:1024EC00FFF776FF054B00221A7000BF07B05DF8AE
:1024FC0004FB00BF3C090020380900204B090020D8
:10250C0008B50E4B0022C3F840210C4B0022C3F837
:10251C0044210A4B0022C3F84821084B0022C3F87F
:10252C004C21064B0022C3F80021044B0022C3F8B7
:10253C000421FFF785FD00BF08BD00BF001001405E
:10254C0008B5FFF79DFF00BF08BD000072B6034B36
:10255C001B680133014A136000BF70474C0900200F
:10256C00054B1B68013B044A1360034B1B68002B93
:10257C0000D162B600BF70474C09002000B583B093
:10258C00019000F025F80346012B03D004494320A9
:10259C0000F04CF9FFF7DAFF00BF03B05DF804FB65
:1025AC003C0B010000B583B003468DF8073000F0FA
:1025BC000FF80346012B03D00449512000F036F9E3
:1025CC00FFF7CEFF00BF03B05DF804FB3C0B01002E
:1025DC0084B0EFF305830193019BC3F308030393CA
:1025EC00039B002B0DD1EFF314830093009B0293FC
:1025FC00029B03F00103002B0CBF01230023DBB271
:10260C0000E00123184604B0704700001EF0040FD0
:10261C001CBFEFF309800AE0EFF308800849094A70
:10262C00884201D8904202D88D464FF000006B468C
:10263C00854608B5044B9847BDE808409D46704751
:10264C000000042000F803209526000000BF00BF06
:10265C00BFF34F8F0549054BDB6803F4E062044B75
:10266C001343CB60BFF34F8F00BFFDE700ED00E0DD
:10267C000400FA0500B583B00190FFF7E9FF00BF35
:10268C0003B05DF804FB000010B588B00390FEF7B2
:10269C0001FD00BFFEF78CFA0346002BFAD1039B19
:1026AC000693574B9B6A0593564B5B68002B0AD0DD
:1026BC00544B1B881B0443F00100069B9B691A4674
:1026CC005149FEF713FA4F4B5B68002B13D04D4B5F
:1026DC001B881B0443F00100069B1968069B5C6871
:1026EC00069B9B68069AD2680192009323460A4681
:1026FC004649FEF736FA434B5B68002B0FD0414B33
:10270C001B881B0443F00100069B1A69069B596940
:10271C00069BDB6900930B463D49FEF70CFA384BE0
:10272C00DB6A03F00203002B0CD0364B5B68002BEA
:10273C0008D0344B1B881B0443F001033549184661
:10274C00FEF7C6F90023079322E00122079B02FA49
:10275C0003F31A46059B1340002B16D02E4A079BF9
:10276C0052F82330002B10D0264B5B68002B0CD07A
:10277C00244B1B881B0443F00100274A079B52F88B
:10278C0023301A462549FEF7B1F9079B013307930D
:10279C00079B192BD9D9059B03F08003002B0ED076
:1027AC00184B5B68002B0AD0164B1B881B0443F09C
:1027BC000100134B5B6B1A461949FEF797F9059B01
:1027CC0003F40043002B0ED00E4B5B68002B0AD099
:1027DC000C4B1B881B0443F00100094B9B6B1A46E6
:1027EC001049FEF783F9104B1B6803F00103002B13
:1027FC0000D0FFDE0398FFF73DFF00BF08B010BD0F
:10280C0000ED00E078000020800B0100980B010027
:10281C00D00B0100F80B0100F00100203C0C010072
:10282C00480C0100680C0100F0ED00E000B585B02B
:10283C0003460091ADF80630BDF80630ADF808300F
:10284C00009B039302AB1A46002144F20200FFF7EF
:10285C0097F900BF05B05DF804FB000000B583B02C
:10286C0001900B468DF80330019B002B03D10849D6
:10287C00AF20FFF7DBFF019BDA689DF8033001996D
:10288C00098A01FB03F31344184603B05DF804FBFB
:10289C006C11010000B583B001900091019B002BDD
:1028AC0003D10849BC20FFF7C1FF009B019AD268F5
:1028BC009B1A019A128AB3FBF2F3DBB2184603B0EF
:1028CC005DF804FB6C11010000B585B00190019B13
:1028DC00002B01D10E2349E0019B1B68002B03D177
:1028EC002449C620FFF7A2FF019B5B68002B03D194
:1028FC002049C720FFF79AFF019B9B68002B03D14F
:10290C001C49C820FFF792FF019BDB68002B03D109
:10291C001849C920FFF78AFF019B1B8A002B03D1A2
:10292C001449CA20FFF782FF019B9B681A46019B42
:10293C005B68D31A8DF80F30019B1B68019A5268A3
:10294C001A6007E0019B1A681368591C11609DF806
:10295C000F201A709DF80F305A1E8DF80F20002B87
:10296C00F0D1019B1B6800221A710023184605B098
:10297C005DF804FB6C11010000B585B00190019B62
:10298C00002B03D11C49EC20FFF750FF00230393CD
:10299C000020FFF7F3FD019B1B681A68019B5B6825
:1029AC009A4220D9019B1B681A68013A1A601B686D
:1029BC001B7819460198FFF751FF0390019B9B6808
:1029CC001A46019B1B681B68D31A8DF80B30019BB0
:1029DC001B681B799DF80B209A4204D9019B1B683C
:1029EC009DF80B201A710020FFF7DCFD039B1846A5
:1029FC0005B05DF804FB00BF6C11010010B584B08C
:102A0C0001900091019B002B04D111494FF4887067
:102A1C00FFF70CFF009B002B04D10D4940F2111065
:102A2C00FFF704FF009B03930020FFF7A7FD019B1A
:102A3C001B681C68621C1A6003990198FFF72AFF37
:102A4C00034623700020FFF7ADFD00BF04B010BD9E
:102A5C006C11010082B00190019B9B6893F83D3191
:102A6C00C3F34003DBB2002B14BF01230023DBB202
:102A7C00184602B07047000084B00190244B0393B9
:102A8C00019B002B40D0234B1A680399019B00BF7C
:102A9C0000BF00BF00BF00BF00BF00BF00BF8A4225
:102AAC002FD000BF00BF00BF00BF00BF00BF00BFE2
:102ABC0000BF00BF00BF00BF00BF00BF00BF00BF12
:102ACC0000BF00BF00BF00BF00BF00BF00BF00BF02
:102ADC0000BF00BF00BF00BF00BF00BF00BF00BFF2
:102AEC0000BF00BF00BF00BF00BF00BF00BF00BFE2
:102AFC0000BF00BF00BF00BF00BF00BF00BF00BFD2
:102B0C0000BF013BC3D1019300BF04B0704700BFAD
:102B1C000024F4006802002000B583B00190019BF2
:102B2C00002B04D001980DF039FB034600E0002384
:102B3C00184603B05DF804FB10B588B00390029101
:102B4C0001920093039B002B02D0029B002B03D11C
:102B5C002B499120FFF76AFE039B5B681B68002BD7
:102B6C0003D127499220FFF761FE002307933BE036
:102B7C00039B5B681B68DC68039B5868029A079B85
:102B8C00D11805AB019AA0470690069B002B03D0E9
:102B9C001B499C20FFF74AFE059B019A9A4203D2DF
:102BAC0017499D20FFF742FE059B079A1344079394
:102BBC00059B019AD31A0193059B002B14D1039BFF
:102BCC009B681B78032B0FD000BF039B9B6893F86B
:102BDC003C31DBB283F00103DBB2002BF5D1039B5C
:102BEC009B68002283F83C21019B002BC0D1009BE9
:102BFC00002B02D0059A009B1A6000BF08B010BDD4
:102C0C00B811010000B583B001900B468DF803306C
:102C1C00019B1B699DF803200349184601F056FAE5
:102C2C0000BF03B05DF804FBE411010010B586B0E1
:102C3C000390029101920093039B002B02D0029B04
:102C4C00002B03D10C49C020FFF7F0FD039B5B6800
:102C5C00002B03D10849C120FFF7E8FD039B5B68FB
:102C6C001B681C69039B5868009B019A0299A0473A
:102C7C00059000BF06B010BDB811010000B589B0B9
:102C8C000390029101920093009B002B03D13A49CF
:102C9C00D520FFF7CBFD0A9B002B03D13649D6205C
:102CAC00FFF7C4FD029B002B34D1344A344BD31AAA
:102CBC00DB08019A9A4229D200230693314B0593E3
:102CCC00002307931BE0079BDB002D4A134406935C
:102CDC00019B9B00059A13441A68069B5B681B6852
:102CEC00194610460DF032FA0346002B04D1069B10
:102CFC005A68009B1A603CE0079B013307931F4AFC
:102D0C001F4BD31ADB08079A9A42DCD3009B002294
:102D1C001A602EE0039B002B03D1009B00221A604B
:102D2C0027E0039B1B78002B10D0039B5B680A9950
:102D3C00019898470A9B1B68002B03D1009B00222B
:102D4C001A6016E0009B0A9A1A6012E0039B5A68FC
:102D5C00019B1B0113441B68002B07D0039B5A6873
:102D6C00019B1B011A44009B1A6002E0009B00228D
:102D7C001A6009B05DF804FBB811010030030100C2
:102D8C00F80201006801002000B583B00190019B9E
:102D9C00002B04D10C494FF4A670FFF747FD019BA3
:102DAC001B69002B04D108494FF4A670FFF73EFDB8
:102DBC00019B1B69054A0649184601F087F900BFBB
:102DCC0003B05DF804FB00BFB811010088170100C7
:102DDC00E811010000B583B001900B468DF803306B
:102DEC009DF80330002B07D0019B1B699DF8032035
:102DFC000349184601F06AF900BF03B05DF804FB03
:102E0C00EC11010000B583B001900B468DF8033036
:102E1C009DF80330002B07D0019B1B699DF8032004
:102E2C000349184601F052F900BF03B05DF804FBEA
:102E3C00F411010000B583B001900B468DF80330FE
:102E4C009DF80330002B07D0019B1B699DF80320D4
:102E5C000349184601F03AF900BF03B05DF804FBD2
:102E6C00FC11010000B583B001900B468DF80330C6
:102E7C009DF80330002B07D0019B1B699DF80320A4
:102E8C000349184601F022F900BF03B05DF804FBBA
:102E9C000412010000B587B001900023ADF8163084
:102EAC000023ADF8143000238DF8133000238DF877
:102EBC000B30019B9B6894338022002118460DF047
:102ECC00EFF8019B1B697849184601F0FFF8019B4C
:102EDC001B69184601F0D8F80023ADF81030D7E084
:102EEC0003AB0DF10B0101220198FFF79FFE039B31
:102EFC00002B04D140F2E730FFF7BEFDBFE09DF898
:102F0C000B301B2B06D0019B9B6893F894301B2B2A
:102F1C0040F0B4809DF80B30522B40F09580019B13
:102F2C009A689DF813301344002283F89420019B77
:102F3C009B6893F895305B2B06D0019B9B68002215
:102F4C0083F894200B23AAE002238DF813301CE0A5
:102F5C00BDF814301A46920013445B009AB2019BE0
:102F6C0099689DF81330581C8DF813000B4493F896
:102F7C0094309BB213449BB2303BADF814309DF9A6
:102F8C001330002B01DA0C2389E0019B9A689DF821
:102F9C001330134493F894303B2BD9D19DF8133054
:102FAC0001338DF813309DF91330002B1EDA0C23EE
:102FBC0075E0BDF816301A46920013445B009AB2C5
:102FCC00019B99689DF81330581C8DF813000B4425
:102FDC0093F894309BB213449BB2303BADF816304F
:102FEC009DF91330002B01DA0C2358E0019B9A68F1
:102FFC009DF81330134493F89430002BD9D1BDF8BD
:10300C001630FA2B04D9019B9B68FA221A7205E040
:10301C00019B9B68BDF81620D2B21A72BDF8143011
:10302C00FA2B04D9019B9B68FA229A7205E0019B4A
:10303C009B68BDF81420D2B29A72019B9B68002247
:10304C0083F8942000232AE0019B9A689DF81330A2
:10305C009DF80B1013440A4683F894209DF8133006
:10306C0001338DF813309DF81330092B07D9019BD0
:10307C009B68002283F89420042310E000BF039B7C
:10308C00002B7FF42DAFBDF810300133ADF81030AC
:10309C00BDF81030B3F57A7FFFF422AF0D2318463C
:1030AC0007B05DF804FB00BF8C17010000B587B0BA
:1030BC00039002910192029B002B04D12A4940F209
:1030CC004F20FFF7B3FB019B002B04D126494FF493
:1030DC001470FFF7ABFB0398FFF7DCFE0346002BE5
:1030EC0018D1039B9B681B7AADF81630039B9B6829
:1030FC009B7AADF81430FA210398FFF783FEFA217E
:10310C000398FFF7AFFE0398FFF7C4FE0346002BAE
:10311C0024D101E0062322E0039B9B681A7A029BD0
:10312C001A70039B9B689A7A019B1A70029B1A78FF
:10313C00BDF81630DBB2D31ADBB219460398FFF791
:10314C0049FE019B1A78BDF81430DBB2D31ADBB2FE
:10315C0019460398FFF76EFE002300E0062318467D
:10316C0007B05DF804FB00BFB811010000B585B0D5
:10317C0001900B468DF803309DF80330002B2ED0B8
:10318C00019B9B68DB7B9DF803209A4234D01B2368
:10319C008DF808305B238DF8093031238DF80A3017
:1031AC003B238DF80B3033238DF80C309DF8033016
:1031BC002F33DBB28DF80D306D238DF80E300023DC
:1031CC008DF80F30019B9B689DF80320DA73019BEF
:1031DC001B6902AA0A49184600F078FF0DE0019B12
:1031EC009B689DF80320DA73019B1B69054A04490F
:1031FC00184600F06BFF00E000BF05B05DF804FB63
:10320C00E81101009417010000B585B001900B4640
:10321C008DF803309DF80330002B29D0019B9B685F
:10322C001B7C9DF803209A4221D01B238DF808307B
:10323C005B238DF8093034238DF80A309DF8033068
:10324C002F33DBB28DF80B306D238DF80C3000234F
:10325C008DF80D30019B9B689DF803201A74019B1F
:10326C001B6902AA0449184600F030FF00E000BFB9
:10327C0005B05DF804FB00BFE811010000B583B098
:10328C0001900091019B9B680F3302221946009814
:10329C000CF0DCFE00BF03B05DF804FB00B583B09E
:1032AC0001900091009B1B7819460198FFF75EFF77
:1032BC00009B5B7819460198FFF7A6FF00BF03B08F
:1032CC005DF804FB0CB400B585B001900B468DF88D
:1032DC000330069B002B04D12B4940F60D10FFF751
:1032EC00A5FA019B002B04D1274940F60E10FFF7DD
:1032FC009DFA019B9B68002B07D0019B5B68002B00
:10330C0003D0019B1B68002B04D11F4940F60F1002
:10331C00FFF78CFA0023039307AB0393019B9B6885
:10332C0093F83D3103F00403DBB2002B1ED0019B5C
:10333C009B68DB7B9DF803209A4217D002AB1946A1
:10334C000198FFF79BFF9DF8033019460198FFF792
:10335C000DFF019B1B6903AA0699184601F096F80C
:10336C0002AB19460198FFF799FF06E0019B1B6918
:10337C0003AA0699184601F089F800BF05B05DF85C
:10338C0004EB02B0704700BFB811010000B589B062
:10339C000390029101928DF80330029B002B00F0F8
:1033AC00BC809DF80330002B05D0019BDBB2194685
:1033BC000398FFF727FD0023069302E0069B0133D9
:1033CC000693029A069B13441B7818460CF0D6FD04
:1033DC000346002BF2D1002305930298FFF79CFBC8
:1033EC000246069BD31A0793039B9B685B7B1A468A
:1033FC00019BD21A079B9A423AD30023059326E0ED
:10340C00069A059B1344029A13441B780A2B1BD172
:10341C00039B1B69184600F037FE029A069BD118D5
:10342C000023059A0398FFF787FB059A069B134424
:10343C00013306930398FFF7A7FC019BDBB21946F7
:10344C000398FFF7DFFC06E0059B01330593059A13
:10345C00079B9A42D4D3039B1869029A069B134488
:10346C00194600F033FE00BF0398FFF78DFC55E0C2
:10347C00039B9B685B7B1A46019BD31A0793069AA6
:10348C00059B1344029A13441B7818460CF076FDE6
:10349C000346002B09D0059B0793069A059B134402
:1034AC00029A13441B780A2B0BD0059A019B1344E8
:1034BC00039A9268527B934205D2059B0133059384
:1034CC00DDE700BF00E000BF039B1B69184600F05E
:1034DC00DBFD029A069BD1180023079A0398FFF78D
:1034EC002BFB069A079B1344069302E0069B0133C1
:1034FC000693029A069B13441B7818460CF03EFD6B
:10350C000346002BF2D10398FFF73EFC019BDBB284
:10351C0019460398FFF776FC5DE700BF09B05DF82C
:10352C0004FB000030B591B0059004910392059B0B
:10353C00002B04D1B54940F68D10FFF777F9059BA8
:10354C009B68002B07D0059B5B68002B03D0059B69
:10355C001B68002B04D1AD4940F68E10FFF766F9BD
:10356C000023ADF83E30AA48FFF7D6FA03469CB2CA
:10357C00A848FFF7D1FA03469BB2E31AADF83C30EA
:10358C00059B9B685B681A68A34B00931346A34A80
:10359C0008210598FFF796FE059B9B685B681B68E6
:1035AC001846FFF7B9FA03469CB29B48FFF7B4FAEA
:1035BC0003469BB22344ADF83E30059B9B685B6889
:1035CC005968BDF83E2000230598FFF7DFFE944AAA
:1035DC0008210598FFF776FE039B002B4AD0049B2D
:1035EC00002B47D000230E9340E00E9A13465B004D
:1035FC0013449B001A46049B13445B681846FFF760
:10360C008BFA04460E9A13465B0013449B001A4631
:10361C00049B13441B681846FFF77EFA0346E21816
:10362C00BDF83C309A421ED90E9A13465B001344E7
:10363C009B001A46049B13445B681846FFF76CFA10
:10364C0003469CB20E9A13465B0013449B001A4629
:10365C00049B13441B681846FFF75EFA03469BB2A3
:10366C002344ADF83C300E9B01330E930E9A039B12
:10367C009A42BAD36748FFF74FFA0246694B1B7858
:10368C0013449AB2BDF83C301344ADF83C30BDF84D
:10369C003C205F4B00931346634A08210598FFF7C3
:1036AC0011FE604B1B789AB2BDF83C3013449BB2B0
:1036BC000133ADF83E30BDF83E2000235B49059840
:1036CC00FFF764FE049B002B00F0018100230D9397
:1036DC00F8E00D9A13465B0013449B001A46049BBA
:1036EC0013445B68002B69D00D9A13465B0013449E
:1036FC009B001A46049B13441B68002B5ED00D9A4A
:10370C0013465B0013449B001A46049B13445968F0
:10371C000D9A13465B0013449B001A46049B1344FA
:10372C001B6801933B4B00930B46414A08210598BB
:10373C00FFF7C8FD3B4B1B789AB2BDF83C301344E5
:10374C00ADF83E30BDF83E30DCB20D9A13465B004E
:10375C0013449B001A46049B13445B681846FFF7FE
:10376C00DBF90346DDB20D9A13465B0013449B0054
:10377C001A46049B13441B681846FFF7CDF9034601
:10378C00DBB22B44DAB2274B1B781344DDB2214851
:10379C00FFF7C2F90346DBB22B44DBB2E31ADBB210
:1037AC0019460598FFF72EFB3A210598FFF72AFAE0
:1037BC00BDF83E300133ADF83E3062E00D9A134651
:1037CC005B0013449B001A46049B13445B68002B5C
:1037DC0030D0BDF83C100D9A13465B0013449B008F
:1037EC001A46049B13445B6800930B460E4A08214F
:1037FC000598FFF767FD0B4B1B789AB2BDF83C3070
:10380C0013449BB20133ADF83E303AE0B8110100DD
:10381C0098170100A4170100A8170100A8120100B5
:10382C00B0120100AC170100BC120100C41201005F
:10383C00D81201000D9A13465B0013449B001A46E4
:10384C00049B13441B68002B1BD0BDF83C100D9A35
:10385C0013465B0013449B001A46049B13441B68DD
:10386C0000930B465C4A08210598FFF72BFD5B4B38
:10387C001B789AB2BDF83C3013449BB20133ADF8BF
:10388C003E300D9A13465B0013449B001A46049B72
:10389C0013449B68002B0FD00D9A13465B00134406
:1038AC009B001A46049B13449968BDF83E200023E4
:1038BC000598FFF76BFD02E00598FFF765FA0D9B85
:1038CC0001330D930D9A039B9A42FFF402AF059BB3
:1038DC009B685B689B68002B76D0059B9B685B683C
:1038EC009B680B93002306930023ADF83E30002316
:1038FC00ADF83C3000230C930C9A531C0C9306A986
:10390C0007AB00930B4601210B98FFF7B7F9069B09
:10391C00002B12D0069B1B681846FFF7FDF80246D9
:10392C00BDF83C309A42E7D9069B1B681846FFF756
:10393C00F3F80346ADF83C30DEE700BF0C9B012BDF
:10394C0044D0274A08210598FFF7BCFC00230C93B0
:10395C000C9A531C0C9306A907AB00930B46012140
:10396C000B98FFF78BF9069B002B31D01B4B1B7868
:10397C009AB2BDF83C301344ADF83E30BDF83E2051
:10398C00069B1B6800931346134A08210598FFF702
:10399C0099FC124B1B789AB2BDF83E3013449BB283
:1039AC000133ADF83E30069B5B68002B08D0069BBC
:1039BC005968BDF83E2000230598FFF7E7FCC7E7E0
:1039CC000598FFF7E1F9C3E700BF02E000BF00E094
:1039DC0000BF11B030BD00BFBC120100AC1701001C
:1039EC00E412010000B585B00390019200930B46E0
:1039FC008DF80B300398FFF72DF80346002B06D0FB
:103A0C00009A01990398FFF78DFD01230FE09DF8B3
:103A1C000B30002B0AD0039B9B685B681B68064A23
:103A2C0002210398FFF74EFC012300E00023184607
:103A3C0005B05DF804FB00BF2413010000B585B090
:103A4C00039002910192039B002B04D12B4940F669
:103A5C000730FEF7EBFE039B9B68002B07D0039B04
:103A6C005B68002B03D0039B1B68002B04D12349FC
:103A7C0040F60830FEF7DAFE029B022B0BD10398BE
:103A8C00FEF7E8FF0346002B05D000220021039827
:103A9C00FFF748FD2FE0039B002B04D117494FF48F
:103AAC003160FEF7C3FE039B1B69002B04D1134945
:103ABC004FF43160FEF7BAFE039B1B69104A1149A3
:103ACC00184600F003FB039B002B04D10B4940F676
:103ADC001130FEF7ABFE039B1B69002B04D1074989
:103AEC0040F61130FEF7A2FE039B1B69064A0549FE
:103AFC00184600F0EBFA05B05DF804FBB8110100B4
:103B0C00B0170100E8110100B417010000B585B031
:103B1C00039002910192029B012B14BF01230023FD
:103B2C00D9B2002300220398FFF75CFF0346002B59
:103B3C0008D1039B9A6892F83D316FF3820382F8A7
:103B4C003D3100E000BF05B05DF804FB00B585B069
:103B5C00039002910192029B012B14BF01230023BD
:103B6C00D9B2002300220398FFF73CFF0346002B39
:103B7C0008D1039B9A6892F83D3143F0040382F814
:103B8C003D3100E000BF05B05DF804FB00B587B027
:103B9C00059004910392059B002B04D11F4940F61C
:103BAC002930FEF743FE059B9B68002B07D0059B35
:103BBC005B68002B03D0059B1B68002B04D11749B5
:103BCC0040F62A30FEF732FE049B012B05D1002271
:103BDC0000210598FFF7A6FC1DE0049B022B14BFE7
:103BEC0001230023D9B2002300220598FFF7FAFE27
:103BFC000346002B0ED1039B1A68039B04331B68EE
:103C0C000193074B00931346064A02210598FFF7D0
:103C1C0059FB00E000BF07B05DF804FBB8110100D0
:103C2C00A01101004013010000B587B0059004916C
:103C3C000392049B022B8CBF01230023D9B20023D7
:103C4C0000220598FFF7CEFE0346002B23D1049BE0
:103C5C00022B0ED1039B1A68039B04331B68019340
:103C6C000F4B009313460F4A02210598FFF72AFBCE
:103C7C0012E0059B9B6893F83D3103F00803DBB21F
:103C8C00002B01D0084B00E0084B094A082105988D
:103C9C00FFF718FB00E000BF07B05DF804FB00BFA6
:103CAC00A0110100401301004C130100501301003E
:103CBC005413010000B585B0039002910192029B50
:103CCC00012B14BF01230023D9B200230022039837
:103CDC00FFF788FE0346002B08D1039B9A6892F8E5
:103CEC003D316FF3C30382F83D3100E000BF05B0F6
:103CFC005DF804FB00B585B0039002910192029B24
:103D0C00012B14BF01230023D9B2002300220398F6
:103D1C00FFF768FE0346002B08D1039B9A6892F8C4
:103D2C003D3143F0080382F83D3100E000BF05B09F
:103D3C005DF804FB00B58DB0059004910392059BD2
:103D4C00002B04D12D4940F66F30FEF76FFD059B1B
:103D5C009B68002B07D0059B5B68002B03D0059B51
:103D6C001B68002B04D125494FF43760FEF75EFD2C
:103D7C00049B012B14BF01230023D9B20023002282
:103D8C000598FFF72FFE0346002B33D100230B932E
:103D9C00059B9B68D3F834310A930A9B002B23D0E4
:103DAC000B9B072B20D807A9002309220A9800F0A7
:103DBC0011FF059B9B6803F194019DF8243001339E
:103DCC001A4609230A9800F005FF089B0A930B9BDF
:103DDC005A1C0B92059A926894320092084A082158
:103DEC000598FFF76FFAD8E7059B9B68002283F8CC
:103DFC00942000E000BF0DB05DF804FBB811010089
:103E0C006813010000B587B0059004910392049BE0
:103E1C00012B05D1002200210598FFF783FB1CE044
:103E2C00049B022B0ED1039B1A68039B04331B6863
:103E3C0001930B4B009313460A4A02210598FFF796
:103E4C0041FA0AE0049B022B8CBF01230023D9B258
:103E5C00002300220598FFF7C5FD07B05DF804FBB1
:103E6C00A01101004013010000B58BB00790069122
:103E7C000592069B012B14BF01230023D9B200230A
:103E8C0000220798FFF7AEFD0346002B2BD1079BB2
:103E9C00DB68DB68184600F0B9FF03468DF8273065
:103EAC009DF82730642202FB03F2079BDB68DB687A
:103EBC009B68B2FBF3F38DF82630079B9B68D3F815
:103ECC002C019DF826309DF827200799C968C968F0
:103EDC0089680291019200930346054A08210798CC
:103EEC00FFF7F0F900E000BF0BB05DF804FB00BF7A
:103EFC007413010000B585B0039002910192029BEE
:103F0C00012B14BF01230023D9B2002300220398F4
:103F1C00FFF768FD0346002B0BD1039B9B68002227
:103F2C00C3F82C21039BDB68DB68184600F082FF8A
:103F3C0000E000BF05B05DF804FB000000B585B0E3
:103F4C00039002910192029B012B14BF01230023C9
:103F5C00D9B2002300220398FFF744FD0346002B3F
:103F6C0020D1039B002B04D1104940F6CE30FEF734
:103F7C005DFC039B1B69002B04D10C4940F6CE3031
:103F8C00FEF754FC039B1B69094A0A49184600F0CA
:103F9C009DF8039B9B6850225A73039B9B681822C5
:103FAC001A7300E000BF05B05DF804FBB811010006
:103FBC00BC170100E811010000B587B00590049111
:103FCC000392059B002B04D12B4940F6D530FEF70C
:103FDC002DFC059B9B68002B07D0059B5B68002B79
:103FEC0003D0059B1B68002B04D1234940F6D63027
:103FFC00FEF71CFC049B012B1BD1059B9B6803F15A
:10400C000D01059B9B680C331A460598FFF74EF87B
:10401C000346002B2AD0059B9B6850225A73059BA4
:10402C009B6818221A73154A04210598FFF74AF960
:10403C001CE0049B022B8CBF01230023D9B200236C
:10404C0000220598FFF7CEFC0346002B10D1039BF2
:10405C001A68039B04331B680193094B00931346A6
:10406C00084A02210598FFF72DF902E000BF00E095
:10407C0000BF07B05DF804FBB8110100B0130100DC
:10408C00A01101004013010000B583B00190019B09
:10409C00002B03D10C493120FEF7C8FB019B9B6818
:1040AC00002B0CD0019B5B69019A1069019A116875
:1040BC00019A92689847019B00229A6000E000BF29
:1040CC0003B05DF804FB00BF081801000EB400B586
:1040DC0084B00190019B002B03D118494220FEF7BC
:1040EC00A5FB019B5B69002B03D114494320FEF710
:1040FC009DFB019B1B68002B03D110494420FEF74C
:10410C0095FB019B5B68002B03D10C494520FEF706
:10411C008DFB059B002B0AD00023039306AB039366
:10412C0003AB1A460599019800F0B0F900E000BF06
:10413C0004B05DF804EB03B0704700BF0818010031
:10414C0000B583B001900B468DF80330019B1A68C3
:10415C00019B9B68581C0199886013449DF80320AF
:10416C001A70019B9A68019B5B689A4202D3019872
:10417C00FFF78AFF00BF03B05DF804FB00B587B002
:10418C00039002910192009300230593009B03F08E
:10419C000103002B24D00BE0029B01330293059BFF
:1041AC00013305939DF8133019460398FFF7C8FFA8
:1041BC00029B1B788DF813309DF81330002BEBD13C
:1041CC0006E0019B013B019320210398FFF7B8FF08
:1041DC00019A059B9A422ED9019B002BF1D12AE022
:1041EC00029B002B0BD002980BF0D8FF059006E039
:1041FC00019B013B019320210398FFF7A1FF019A3A
:10420C00059B9A420FD9019B002BF1D10BE0029B2D
:10421C0001330293059B013305939DF81330194626
:10422C000398FFF78DFF029B1B788DF813309DF8D8
:10423C001330002BEBD100BF07B05DF804FB00007E
:10424C0000B589B00390029101920093029B0793F1
:10425C000123069307E0079A019BB2FBF3F3079344
:10426C00069B01330693079A019B9A42F3D2009A5C
:10427C00069B9A4201D9009B06930B9B03F001030A
:10428C00002B22D10A9B002B1FD00B9B03F00203A7
:10429C00002B06D0009B002B03D130238DF8173058
:1042AC0002E020238DF8173008E00A9B013B0A93AB
:1042BC009DF8173019460398FFF742FF0A9B002B15
:1042CC0003D0069A0A9B9A42EFD301230793009BD3
:1042DC00012B03D9009B013B009309E0029A079B39
:1042EC00B2FBF3F30493049A019B9A4200D205E0CB
:1042FC00079B019A02FB03F30793E8E7029A079BDB
:10430C00B2FBF3F30493049B079A02FB03F3029AA8
:10431C00D31A0293154A049B13441B78194603982D
:10432C00FFF70EFF079A019BB2FBF3F30793079B72
:10433C00002BE3D10B9B03F00103002B11D00A9B44
:10434C00002B0ED006E00A9B013B0A932021039818
:10435C00FFF7F6FE0A9B002B03D0069A0A9B9A42A3
:10436C00F1D300BF09B05DF804FB00BF6018010079
:10437C0000B589B00590049103920293049B002B25
:10438C00B8BF5B4206930123079307E0039B069A91
:10439C0092FBF3F30693079B01330793039B069A57
:1043AC009A42F3DA029A079B9A4201D9029B07932D
:1043BC000A9B002B0AD0049B002B04DB0B9B03F005
:1043CC000403002B02D00A9B013B0A930B9B03F0C6
:1043DC000203002B02D0029B002B16D00B9B03F088
:1043EC000103002B11D10A9B002B0ED006E00A9B77
:1043FC00013B0A9320210598FFF7A2FE0A9B002B94
:10440C0003D0079A0A9B9A42F1D3049B002B07DA3C
:10441C00049B5B4204932D210598FFF791FE08E065
:10442C000B9B03F00403002B03D02B210598FFF703
:10443C0087FE0B9B03F00203002B19D00B9B03F0A0
:10444C000103002B14D1029B002B11D10A9B002BD2
:10445C000ED006E00A9B013B0A9330210598FFF72A
:10446C006FFE0A9B002B03D0079A0A9B9A42F1D34A
:10447C0004990B9B01930A9B0093029B039A05984A
:10448C00FFF7DEFE00BF09B05DF804FB00B58FB08E
:10449C00059004910392059B002B04D1C8494FF45D
:1044AC009F70FEF7C3F9059B5B69002B04D1C449CF
:1044BC004FF4A070FEF7BAF9059B1B68002B04D1D2
:1044CC00BF4940F24110FEF7B1F9059B5B68002B28
:1044DC0004D1BB494FF4A170FEF7A8F9049B002B43
:1044EC0000F0ED81049B1B788DF83730049B013371
:1044FC0004939DF83730002B00F0D8819DF83730AD
:10450C00252B40F0C78100230A9301230C93049BB5
:10451C001B788DF837309DF837302D2B04D0302B8D
:10452C000AD02B2B10D017E00A9B43F001030A93FF
:10453C00049B0133049312E00A9B43F002030A9399
:10454C00049B013304930AE00A9B43F004030A938F
:10455C00049B0133049302E000230C9300BF0C9BDB
:10456C00002BD4D1002309939DF837302A2B0CD182
:10457C00039B1B68191D039A11601B68099A13444D
:10458C000993049B013304931AE0049B1B788DF868
:10459C0037309DF837302F2B12D99DF83730392B07
:1045AC000ED8049B01330493099A13469B001344C1
:1045BC005B001A469DF837301344303B0993D3E720
:1045CC0000230B93049B1B788DF837309DF8373004
:1045DC002E2B1DD1049B01330493049B1B788DF867
:1045EC0037309DF837302F2B12D99DF83730392BB7
:1045FC000ED8049B013304930B9A13469B0013446F
:10460C005B001A469DF837301344303B0B93E4E7BC
:10461C00049B1B788DF837309DF837306C2B03D00A
:10462C009DF83730682B07D1049B01330493049B0E
:10463C001B788DF83730EFE79DF83730253B532B3F
:10464C0000F2238101A252F823F000BF8D48000034
:10465C0097480000974800009748000097480000D2
:10466C0097480000974800009748000097480000C2
:10467C0097480000974800009748000097480000B2
:10468C0097480000974800009748000097480000A2
:10469C009748000097480000974800009748000092
:1046AC009748000097480000974800009748000082
:1046BC009748000097480000974800009748000072
:1046CC009748000097480000974800009748000062
:1046DC009748000097480000974800009748000052
:1046EC009748000097480000974800009748000042
:1046FC009748000097480000974800009748000032
:10470C009748000097480000974800009748000021
:10471C00974800009748000019480000974800008F
:10472C009748000097480000974800009748000001
:10473C0097480000974800009748000097480000F1
:10474C0097480000A9470000D14700009748000097
:10475C00974800009748000097480000D147000098
:10476C0097480000974800009748000097480000C1
:10477C0097480000974800005948000097480000EF
:10478C00974800003D48000097480000F54700009E
:10479C00974800009748000019480000039B1B68CD
:1047AC00191D039A11601B680C930C9B8DF8233018
:1047BC009DF8233019460598FFF7C2FC66E000BF50
:1047CC0030180100039B1B68191D039A11601B68AC
:1047DC000C930A9B0193099B00930B9B0A220C9947
:1047EC000598FFF7C5FD51E0039B1B68191D039A43
:1047FC0011601B680C930C990A9B0193099B009305
:10480C000B9B0A220598FFF71BFD3FE0039B1B68DF
:10481C00191D039A11601B680C930C990A9B019348
:10482C00099B00930B9B10220598FFF709FD2DE0C7
:10483C00039B1B68191D039A11601B6807930A9B45
:10484C00099A07990598FFF799FC1FE0039B1B68D1
:10485C00191D039A11601B680C9330210598FFF702
:10486C006FFC78210598FFF76BFC0C9900230193E2
:10487C0008230093082310220598FFF7E1FC05E0BC
:10488C0025210598FFF75CFC00E000BF049B013379
:10489C00049305E09DF8373019460598FFF750FC56
:1048AC00049B1B78002B7FF41DAE00E000BF059B22
:1048BC001B7B002B04D00598FFF7E6FB00E000BF44
:1048CC000FB05DF804FB00BF10B487B001900091ED
:1048DC00019B009A53E8004F04EB020043E80001EF
:1048EC0091F0000FF6D1059404900391049B1846A7
:1048FC0007B05DF8044B704710B487B0019000917D
:10490C00019B009A53E8004FA4EB020043E800011E
:10491C0091F0000FF6D1059404900391049B184676
:10492C0007B05DF8044B704700B583B00190019857
:10493C00FDF7CAFF0346184603B05DF804FB00B54B
:10494C008BB001900091019B1B8A043B0793009A4A
:10495C00079B1344DA1C079BB2FBF3F38DF81B3057
:10496C000198FEF709F80590059B002B01D1002357
:10497C0038E0059B00221A71059B01225A71079B96
:10498C009AB2059BDA80059B09939DF81B30013B7D
:10499C000493099B019A1A60002308931DE0019867
:1049AC00FDF7EAFF0390039B002B0ED0059B5B7970
:1049BC000133DAB2059B5A71099B039A1A60039B67
:1049CC00019A1A60039B099304E0059800F00EF815
:1049DC00002307E0089B01330893089A049B9A4232
:1049EC00DDD3059B18460BB05DF804FB00B58BB00E
:1049FC000190019B0793079B5B798DF81B30019B02
:104A0C0008939DF81B30013B05930023099305E0A7
:104A1C00089B1B680893099B01330993099A059B12
:104A2C009A42F5D3089B1B680493019B08930023BF
:104A3C0009930BE0089B1B68039308990498FDF7F6
:104A4C00DDFF039B0893099B013309939DF81B2001
:104A5C00099B9A42EED800BF0BB05DF804FB00B581
:104A6C0085B00190019B0393039B043301211846ED
:104A7C00FFF72AFF00BF05B05DF804FB00B587B057
:104A8C000190019B0593059B043301211846FFF708
:104A9C0033FF0346039303AB0493049B1B78002B57
:104AAC0002D10198FFF7A2FF00BF07B05DF804FB2D
:104ABC0000B58DB00390029101920093039B069375
:104ACC00069BDB880593039B0B93009B1A1D059B90
:104ADC00B2FBF3F30A93009B0433059AB3FBF2F297
:104AEC00059901FB02F29B1A0993009A019B1A4447
:104AFC00059B1344DA1C059BB2FBF3F38DF81330C2
:104B0C00069B5B799DF813209A420AD92749BA2053
:104B1C00FDF78CFE05E00B9B1B680B930A9B013B7E
:104B2C000A930A9B002BF6D100230893059A099B44
:104B3C00D31A0793079A019B934228BF13460793F6
:104B4C002DE09DF83830002B0BD0029A089BD01822
:104B5C000B9A099B13440433079A19460BF076FA07
:104B6C000AE00B9A099B1344181D029A089B1344E4
:104B7C00079A19460BF06AFA002309930B9B1B68E2
:104B8C000B93019A079BD31A0193089A079B134422
:104B9C000893059A019B934228BF13460793019BE8
:104BAC00002BCED100BF0DB05DF804FB70180100D6
:104BBC0000B587B0059004910392029300230093F3
:104BCC00029B039A04990598FFF772FF00BF07B088
:104BDC005DF804FB00B587B0059004910392029335
:104BEC0001230093029B039A04990598FFF760FF39
:104BFC0000BF07B05DF804FB00B583B001900091D5
:104C0C00019B002B03D108493620FDF70FFE019BB9
:104C1C009A68009B9A4202D9009B013300E0002362
:104C2C00184603B05DF804FB7019010084B00190C4
:104C3C00019B1B681B680393019B1B685B680293B9
:104C4C00029A039B9A4203D3029A039BD31A06E05F
:104C5C00019B9A68039BD21A029B1344013318469A
:104C6C0004B0704700B585B00190019B002B03D1B7
:104C7C000D494920FDF7DAFD019B1B681B68039366
:104C8C00019B1B685B68029302990198FFF7B4FFC4
:104C9C000246039B9A420CBF01230023DBB2184649
:104CAC0005B05DF804FB00BF7019010010B586B0AB
:104CBC000190009100230593019B002B03D15249D5
:104CCC005420FDF7B3FD009B002B03D14E4955201A
:104CDC00FDF7ACFD0020FDF751FC0198FFF7C2FF7A
:104CEC0003468DF813309DF8133083F00103DBB2CB
:104CFC00002B03D1019B1B7C002B7AD1019B1B68E1
:104D0C005B680393019B1C68019B1B685B681946DD
:104D1C000198FFF771FF034663609DF81330002B79
:104D2C000AD0019B1C68019B1B681B6819460198E3
:104D3C00FFF762FF03462360019BDB68013B072BF7
:104D4C0037D801A252F823F0754D0000854D0000B4
:104D5C00BF4D0000974D0000BF4D0000BF4D00003F
:104D6C00BF4D0000A94D0000019B5A68039B1344E2
:104D7C00009A12781A702DE0019B5A68039B5B0015
:104D8C001344009A12881A8024E0019B5A68039BF2
:104D9C009B001344009A12681A601BE0019B5A682E
:104DAC00039BDB001A44009BD3E90034C2E90034B6
:104DBC0010E0019B5B681946019BDB68039A02FBC0
:104DCC0003F30B441846019BDB681A4600990BF061
:104DDC003DF900BF0198FFF729FF0290019B1B686A
:104DEC009A68029B9A4207D2019B1B68029A9A60AE
:104DFC0002E00423059300E000BF0020FDF7D2FB86
:104E0C00059B184606B010BD7019010000B583B0A3
:104E1C000190019B002B04D1054940F2C510FDF710
:104E2C0005FD019B1B689B68184603B05DF804FBED
:104E3C007019010000B583B00190019B002B04D1C7
:104E4C00064940F2CB10FDF7F1FC019B1B680022D8
:104E5C009A6000BF03B05DF804FB00BF701901003D
:104E6C0000B585B00190019800F00EF80390039BFB
:104E7C00002B01D0039B00E0024B184605B05DF8F7
:104E8C0004FB00BFA019010086B00190164B0593DE
:104E9C00164B04931FE0049A059BD31ADB10DA0F10
:104EAC0013445B10DB00059A13440393039B1B68AC
:104EBC000293029A019B9A4202D9039B04930AE043
:104ECC00029A019B9A4203D2039B0833059302E09A
:104EDC00039B5B6804E0059A049B9A42DBD3002396
:104EEC00184606B0704700BFBC1C0100AC1D010089
:104EFC0082B001904FF08042019BC2F8083300BF92
:104F0C0002B0704784B00346ADF80630BDF80630E9
:104F1C0003F1804300221A60BDF8063003F1804390
:104F2C001B680393039B00BF04B0704782B0034619
:104F3C00ADF80630BDF8063003F180431B68002B3A
:104F4C0014BF01230023DBB2184602B0704784B0B3
:104F5C000190019B1B680393039B002B03D0039BC5
:104F6C001A68019B1A60039B184604B07047000036
:104F7C0000B585B003468DF807309DF80730002B3F
:104F8C0002D10C4B039301E00B4B03930398FFF7F7
:104F9C00DEFF0290029B002B06D0029B5B689DF803
:104FAC00072010469847F1E700BF00BF05B05DF839
:104FBC0004FB00BF580900206009002008B54FF41D
:104FCC008070FFF7B3FF0346002B0CD04FF48070BA
:104FDC00FFF798FF0120FFF78BFF0E4B01225A7051
:104FEC000020FFF7C5FF4FF48270FFF79FFF0346C9
:104FFC00002B0CD04FF48270FFF784FF0220FFF7D8
:10500C0077FF044B01229A700120FFF7B1FF00BF1C
:10501C0008BD00BF5009002082B003468DF8073050
:10502C0007499DF907305B099DF8072002F01F0224
:10503C00012000FA02F241F8232000BF02B07047B1
:10504C0000E100E082B003468DF8073008499DF975
:10505C0007305B099DF8072002F01F02012000FABF
:10506C0002F2603341F8232000BF02B0704700BF4A
:10507C0000E100E082B0034600918DF807309DF905
:10508C000730002B0CDA0D499DF8073003F00F03A5
:10509C00043B009AD2B25201D2B20B441A7609E008
:1050AC0007499DF90730009AD2B25201D2B20B4493
:1050BC0083F8002300BF02B0704700BF00ED00E092
:1050CC0000E100E008B5064B1B68002B03D1054935
:1050DC005520FDF7ABFB024B1B68984700BF08BD82
:1050EC00640900209C1E010008B5064B1B68002BB0
:1050FC0003D105496920FDF799FB024B1B689847C2
:10510C0000BF08BD6C0900209C1E010008B5064BB1
:10511C001B68002B03D105497920FDF787FB024B57
:10512C001B68984700BF08BD740900209C1E010035
:10513C0008B5064B1B68002B03D105498920FDF7E8
:10514C0075FB024B1B68984700BF08BD7C0900200B
:10515C009C1E010000B585B00190009100238DF8D4
:10516C000F300020FDF70AFA019B1B79002B03D0AE
:10517C0001238DF80F3002E0019B01221A710020EF
:10518C00FDF710FA9DF80F30002B03D0112302937A
:10519C00029B05E0019B009A1A6000230293029B7C
:1051AC00184605B05DF804FB00B585B00190009180
:1051BC00019B174A934205D100991648FFF7CAFF85
:1051CC00034620E0019BB3F1402F05D10099124812
:1051DC00FFF7C0FF034616E0019B104A934205D12E
:1051EC0000990F48FFF7B6FF03460CE0019B0D4AF0
:1051FC00934205D100990C48FFF7ACFF034602E03F
:10520C0007230393039B184605B05DF804FB00BF0E
:10521C0000300040640900206C090020003002407E
:10522C0074090020003001407C09002008B5FFF70C
:10523C00C5FE00F079FC00BF08BD000000B583B0CE
:10524C0003460A468DF8073013468DF806309DF854
:10525C000630072B04D90D494FF49270FDF7E6FA8E
:10526C009DF806209DF9073011461846FFF702FFFE
:10527C009DF907301846FFF7E5FE9DF907301846F3
:10528C00FFF7CAFE00BF03B05DF804FB9C1E0100D3
:10529C0000B583B00346ADF80630BDF806301846AD
:1052AC0000F026F803461B68012B0CBF01230023DA
:1052BC00DBB2184603B05DF804FB00B585B00346BD
:1052CC00ADF80630BDF80630184600F011F803466C
:1052DC001A4600231360BDF80630184600F008F893
:1052EC0003461B680393039B00BF05B05DF804FBEA
:1052FC0082B00346ADF80630BDF8063003F18043AA
:10530C0003F5C043184602B07047000082B001900C
:10531C00034BD3F80423019B1340184602B070478B
:10532C000060004082B00190054A019B03F5A27316
:10533C0052F823301B0A03F03F03184602B07047A3
:10534C000060004082B00190064A019B03F5A273F5
:10535C0052F823301B0C03F00303DBB2184602B0E7
:10536C00704700BF0060004000B583B00190019B06
:10537C001B682F2B04D90B494FF4E870FDF756FA34
:10538C00019B1B681F2B02D84FF0A04306E0019B2A
:10539C001B6803F01F02019B1A60034B184603B0F5
:1053AC005DF804FB101F01000003005000B585B030
:1053BC0001900B468DF8033001AB1846FFF7D4FF74
:1053CC000390019A0199039B01F5E07153F8213088
:1053DC0023F44031039B02F5E07243F82210019A4A
:1053EC000199039B01F5E07153F821309DF80310EE
:1053FC0009041943039B02F5E07243F8221000BF25
:10540C0005B05DF804FB00B585B0019001AB184602
:10541C00FFF7AAFF0390019A039B02F5E07253F881
:10542C0022301B0C03F00303DBB2184605B05DF809
:10543C0004FB82B00190019BD3F81035184602B0E2
:10544C007047000000B589B0039002910192174A91
:10545C0005AB92E8030083E80300039A029B134414
:10546C00022B04D912494FF43A70FDF7DFF9039B74
:10547C00079311E0079B9B0008AA134453F80C3CBC
:10548C001846FFF7D6FF0246019B1A60019B0433B6
:10549C000193079B01330793039A029B1A44079BC2
:1054AC009A42E7D800BF09B05DF804FB401F010029
:1054BC00101F010084B001900091009B0393019B8D
:1054CC00DB080293019B03F0070301930122019B6C
:1054DC0002FA03F30399029A0A441278134018460D
:1054EC0004B0704784B001900091009B0393019B22
:1054FC00DB080293019B03F007030193039A029BC1
:10550C0013440399029A0A44127851B20120019A69
:10551C0000FA02F252B20A4352B2D2B21A7000BF6F
:10552C0004B0704782B00190044A019B134430339D
:10553C0093F90030184602B0704700BF8409002070
:10554C0082B00190034A019B52F82330184602B0F6
:10555C00704700BF8409002000B599B00023179351
:10556C0006AB00221A605A604FF48073ADF85630C7
:10557C00012314930023169321E0BDF856301846EE
:10558C00FFF786FE0346002B0ED01498FFF7BEFEE5
:10559C000346002B08D0BDF856301846FFF78DFE99
:1055AC00179A149B13431793149B5B001493BDF829
:1055BC0056300433ADF85630169B01331693169BB8
:1055CC00072BDAD94FF4BE70FFF762FE0346002BAF
:1055DC000DD04FF4BE70FFF770FE179B43F00043E5
:1055EC00179306AB1A4602210020FFF72BFF179BDF
:1055FC00DBB2002B29D0012314930023169321E056
:10560C00149A179B1340002B16D01698FFF78AFE9E
:10561C0011901698FFF796FE03468DF843301698B6
:10562C00FFF78EFF0F900F9B002B05D09DF84320AA
:10563C000F9B114611989847149B5B001493169B73
:10564C0001331693169B072BDAD9179B002B80F28C
:10565C00F08000238DF84B3004AB00221A605A60A6
:10566C00002313930AE0139B9B0018AA13444FF0DA
:10567C00FF3243F8582C139B01331393139B012BCC
:10568C00F1D900238DF84B300023169378E06B4A48
:10569C00169B1344603393F900308DF83B309DF822
:1056AC003B3023F0C0030D93644A169B13446033C4
:1056BC0093F90030B3F1FF3F5FD002AB19460D9860
:1056CC00FFF7F8FE0346002B57D09DF83B309B09A3
:1056DC008DF833300D98FFF725FF03461846FFF77A
:1056EC002FFF0B900B9B002B03D19DF83330032B1A
:1056FC0043D19DF83330032B04D104AB19460D98DC
:10570C00FFF7F0FE0D98FFF77EFE03468DF82B3069
:10571C0006AB19460D98FFF7CDFE0990099B002B9F
:10572C0003D09DF82B30022B06D0099B002B24D1E3
:10573C009DF82B30032B20D19DF83330032B13D144
:10574C009DF82B30022B01D1032300E002238DF8AE
:10575C0023309DF8233019460D98FFF727FE9DF84E
:10576C004B3001338DF84B300B9B002B05D09DF843
:10577C0033200B9B11460D989847169B01331693BB
:10578C00169B032B83D99DF84B30002B4CD0012357
:10579C008DF84A306B461A4602210020FFF752FE64
:1057AC000023139314E0139B9B0018AA134453F883
:1057BC00602C139B9B0018A90B4453F8483C9A424D
:1057CC0003D000238DF84A3005E0139B013313936B
:1057DC00139B012BE7D99DF84A30002B03D00023F3
:1057EC008DF84B3020E0002313931AE0139B9B00A1
:1057FC0018AA134453F8602C139B9B0018A90B4454
:10580C0043F8482C139B9B0018AA134453F8502CB4
:10581C00139B9B0018A90B4443F8582C139B013382
:10582C001393139B012BE1D99DF84B30002B7FF484
:10583C0028AF00BF19B05DF804FB00BF840900203D
:10584C0082B00346ADF80630BDF8063003F1804354
:10585C0003F5E8331B68002B14BF01230023DBB2D4
:10586C00184602B0704784B00346ADF80630BDF858
:10587C00063003F1804303F5E83300221A60BDF8CB
:10588C00063003F1804303F5E8331B680393039B55
:10589C0000BF04B070470000024B0022C3F8002583
:1058AC0000BF704700D0014000B58BB04FF4807042
:1058BC00FFF7C6FF0346002B68D04FF48070FFF74C
:1058CC00D2FF6C4B9B7C8DF827306A4B9B7C03F092
:1058DC000103002B0CBF01230023DBB28DF8263013
:1058EC009DF82630634A9B0013445B68002B04D15F
:1058FC00604B5B7CDBB2022B2BD100238DF820306C
:10590C005C4B0022DA745B4B5B7CDBB2022B05D167
:10591C0000230793574B01225A7411E09DF827304E
:10592C00544A9B0013445B6807939DF82730514AF7
:10593C009B00134400225A604E4A9DF82630937403
:10594C0001238DF818304B4B1B6806AA104698475C
:10595C0013E0484BDB7C002B0FD101238DF820305A
:10596C000023079300238DF81830424B0122DA7480
:10597C00404B1B6806AA104698473E4B5B7CDBB23B
:10598C00022B5DD13B4B01225A7459E04FF48270CB
:10599C00FFF756FF0346002B52D04FF48270FFF7EF
:1059AC0062FFFFF779FF334B00225A7400238DF806
:1059BC00143000238DF80C302E4B9B7C2D4A9B0011
:1059CC0013445B68002B12D02A4B9B7C294A9B000A
:1059DC0013445B680493274B9B7C264A9B0013441F
:1059EC0000225A60234B1B6803AA10469847214B90
:1059FC009B7C03F00103002B0CBF01230023DBB2C3
:105A0C008DF825309DF825301A4A9B0013445B68AD
:105A1C00002B12D09DF82530164A9B0013445B686E
:105A2C0004939DF82530134A9B00134400225A60BE
:105A3C00104B1B6803AA104698470E4B00229A7411
:105A4C000C4B5B7DDBB2002B0FD0002301930023AA
:105A5C008DF8083001238DF80030064B00225A7562
:105A6C00044B1B686A461046984700BF0BB05DF8A4
:105A7C0004FB00BFEC09002082B00190019B03F1F4
:105A8C008043184602B0704782B00190019B03F12D
:105A9C008043184602B0704700B583B00346ADF89A
:105AAC000630BDF806301846FFF7E6FF0246002325
:105ABC00136000BF03B05DF804FB00B583B0034670
:105ACC00ADF80630BDF806301846FFF7DDFF03468B
