:100000000000042061020000B9020000BB020000F1
:10001000BD020000BF020000C1020000000000009D
:10002000000000000000000000000000C30200000B
:10003000C502000000000000C7020000C902000065
:100040006D2C03008155020055370200B9340200BF
:10005000D5020000D70200009D2F0300DB02000044
:10006000A1440300B9440300D1440300E3020000AB
:10007000E50200004D320200E9020000EB02000040
:10008000ED020000A92D0000F1020000F3020000C3
:10009000E92D0000F7020000F9020000FB02000059
:1000A000FD020000FF020000E944030001450300D7
:1000B000013D030007030000CB020000CB0200005B
:1000C00009030000193D0300313D03000F03000048
:1000D0003929020013030000150300001703000074
:1000E000190300001B030000716F0400CB02000025
:1000F000CB020000493D0300CB0200001F030000BB
:10010000364937480A1A02D0072291438D463549AD
:1001100035480A1A06D00722914381F30988022242
:1001200082F3148831483249324A00F045F83248A7
:100130003249334A00F040F832483349334A00F03C
:100140003BF833483349344A00F036F833483449F1
:10015000344A00F031F834483449354A00F02CF87C
:1001600034483549354A00F027F8354835490022EA
:1001700000F02DF834483549002200F028F83448C2
:100180003449091A082903DB0022026004300160A7
:10019000314A90471F482049884205D00268043000
:1001A00003B4904703BCF7E700208646EC460020E6
:1001B00000212A4A9047FEE7884207D0521A05D00C
:1001C000037801300B700131013AF9D17047884250
:1001D00002D002700130FAE77047000000000420EE
:1001E00000E0032000000420000004200C81050032
:1001F00024000020640400202403000024030000E5
:10020000C6D304000C810500240000202400002037
:100210004CD404004CD404004CD404004CD404004E
:100220004CD404004CD404004CD404004CD404003E
:100230000C8105004C850500640400206404002046
:100240006404002020F8002020F8002024F800207A
:1002500024F8002024F8002085020000511F00002F
:100260000F484FF00701884385460E4880470E48E7
:10027000016841F470010160BFF34F8FBFF36F8FCE
:10028000FFF73EBF09480A490A4A884207D0521A76
:1002900005D0037801300B700131013AF9D1704774
:1002A00000000420C564030088ED00E028D40400A9
:1002B0000000002024000020FEE7FEE7FEE7FEE746
:1002C000FEE7FEE7FEE7FEE7FEE7FEE7FEE7FEE706
:1002D000FEE7FEE7FEE7FEE7FEE7FEE7FEE7FEE7F6
:1002E000FEE7FEE7FEE7FEE7FEE7FEE7FEE7FEE7E6
:1002F000FEE7FEE7FEE7FEE7FEE7FEE7FEE7FEE7D6
:10030000FEE7FEE7FEE7FEE7FEE7FEE7FEE7FEE7C5
:10031000FEE7FEE7FEE7FEE7FEE7FEE7FEE7FEE7B5
:04032000FEE700BF35
:100324000048704718F8002000B585B00190019B83
:10033400002B0AD0074B43F001030393019B9B015D
:100344000293039B0298984700E000BF05B05DF854
:1003540004FB00BF60D4040000B583B00190019B8E
:10036400002B0AD04FF47A70FFF7DEFF019B013BAC
:100374000193019B002BF5D100E000BF03B05DF8B1
:1003840004FB08B536F07AF800BF08BD00B589B0A3
:10039400039002910192019B002B33D00023079319
:1003A40003230693029A079B1344019A19460020DB
:1003B40035F0B0FF0590079A059B13440793019A03
:1003C400059BD31A0193059B002B13D10F4B1B786C
:1003D40083F00103DBB2002B13D10120FFF7BCFF34
:1003E400069B013B0693069B002B03D1074B00227F
:1003F4001A7007E0054B01221A70019B002BD1D122
:1004040000E000BF00BF09B05DF804FB64040020F5
:1004140000B585B003900291054B00934023054A33
:100424000299039800F012F800BF05B05DF804FBD0
:10043400910300006804002082B0019000BF02B064
:10044400704782B0019000BF02B0704700B5A1B000
:100454000590049103920293049803F0C6FD039B54
:100464001593029B16930023179300238DF8603095
:1004740000231993229B1A9300231F930FA91F9BF8
:100484000822049803F06CFE08231F93119B129317
:10049400BDF84030ADF84C30BDF84230ADF84E30C8
:1004A40000238DF851309DF83C3003F00303DBB298
:1004B400012B26D10F9BC3F395231D939DF83C304C
:1004C400C3F3C203DBB28DF85030BDF83C30C3F344
:1004D4008313DBB21C931C9B9A0009A91F9B0498ED
:1004E40003F03EFE1C9B9B001F9A13441F9312AA09
:1004F40009A915AB009313461C9A1D9800F00EFF32
:100504002FE09DF83C3003F00303DBB2022B28D12B
:10051400BDF83E30C3F389139BB21E939DF83C3063
:10052400C3F3C203DBB28DF850301E9B082B28BFE7
:1005340008231B9307A91F9B1B9A049803F010FE22
:100544001F9A1B9B13441F931E9A1B9BD31A1E9323
:1005540015AB12AA07A81B9900F082FF1E9B002B63
:10056400E3D1049803F050FD00BF21B05DF804FB13
:1005740082B00190019B01225A7200BF02B0704701
:1005840000B583B04FF0FF330193FFF7FAFE042167
:10059400084800F0E3FD0190019B002B03DA0649B3
:1005A400412002F0C1FE0348FFF7E2FF00BF03B0A1
:1005B4005DF804FB2400002068D4040000B583B077
:1005C40001900091019B1B681B6800990198984752
:1005D40000BF03B05DF804FB00B583B00190019B3C
:1005E4001B685B680198984700BF03B05DF804FB83
:1005F40000B583B00190019B1B689B6801989847E4
:1006040000BF03B05DF804FB82B001900B468DF887
:100614000330019B9DF803201A7200BF02B070479B
:1006240082B00190019B1B7A184602B0704782B0D9
:100634000190019B01225A7200BF02B0704782B040
:100644000190019B5B7A184602B0704700B587B0F1
:10065400019000911D4BFF229A601C4B00221A60EE
:100664001A4B00225A60194B0022C3F81824174B66
:100674000022C3F81424154B002283F820241448C4
:1006840003F018FC0490049B002B01D0049B18E099
:10069400104A114BD31ADB080393002305930BE094
:1006A400059B9B000D4A13440293059B9AB2029B3F
:1006B4001A80059B01330593059A039B9A42EFD355
:1006C4000023184607B05DF804FB00BF780500203E
:1006D40010D4040010D40400C8D304000000002087
:1006E400024A034BD31ADB081846704710D404009F
:1006F400C8D3040000B587B001900B468DF80330D1
:100704009DF80330002B1FD0FFF7EAFF049000236D
:10071400059313E0059B9B000E4A13440393039B2C
:100724005B881A46019B1B689A4204D1019B059A77
:100734001A60002309E0059B01330593059A049B85
:100744009A42E7D3052300E00023184607B05DF87A
:1007540004FB00BF0000002000B585B001900B46EB
:100764008DF803309DF8032001AB11461846FFF7BE
:10077400C1FF0346002B07D1019BDB00054A13444C
:100784000393039B1B6800E00023184605B05DF843
:1007940004FB00BFC8D3040084B001900B468DF85D
:1007A4000330019BDB00174A134402939DF8033086
:1007B400013B032B1CD801A252F823F0D1070000FF
:1007C400D9070000E1070000EB07000002238DF8C1
:1007D4000F3011E004238DF80F300DE0029B1B79DC
:1007E4008DF80F3008E0029B5B798DF80F3003E041
:1007F40000238DF80F3000BF9DF80F30184604B069
:10080400704700BFC8D3040000B585B001900091C3
:1008140000238DF80F30019B1B7803F00303DBB238
:10082400002B06D0019B1B7803F00403DBB2002BE2
:1008340044D0019B1B7803F00403DBB2002B28D0C7
:10084400019B1B78C3F30103DBB2012B02D0022B03
:100854000CD017E0009B1B68019A1288C2F3831224
:10086400D2B213449A1C009B1A6024E0009B1B68BC
:10087400019A5288C2F3891292B213449A1C009BC3
:100884001A6018E010494FF4A47002F04DFD00BF47
:1008940011E0009B1A68019B5B88C3F389139BB228
:1008A4001946019B1B88C3F389139BB20B44134461
:1008B4005A1C009B1A6001238DF80F309DF80F30ED
:1008C400184605B05DF804FBD4D4040000B58BB021
:1008D4000023ADF826303E4802F0B4FD3D4802F056
:1008E400B1FD3D4B5B6804933B4B9B680693049AB4
:1008F400069B134002339B00374A13440433089386
:1009040004AB19460898FFF77FFF0346002B09D074
:10091400049A069B134002339B002F4A134404336A
:100924000893EDE700BF0023079311E0079B9B00AA
:1009340001AA1A44049B591C049106990B402649A8
:1009440002339B000B445B681360079B01330793DE
:10095400079B012BEAD99DF80430C3F30103DBB2F2
:10096400012B10D0022B1CD1BDF80A30ADF8263073
:10097400BDF80630C3F389139BB203339A08049B72
:100984001344049313E0BDF80A30ADF82630BDF8E3
:100994000430C3F38313DBB21A46049B1344049359
:1009A40005E00E494FF4C27002F0BEFC00BF0948D6
:1009B40002F054FD0590059B002B02D0049B064ACF
:1009C4005360BDF8263018460BB05DF804FB00BF39
:1009D400900900208C09002078050020D4D404005C
:1009E40000B585B00021074802F0B5FC0390039BD5
:1009F4000293029B83F310030193019B184605B0F5
:100A04005DF804FB9409002000B589B003900291BD
:100A140001920093039B1B0C0793FFF7E1FF0690E1
:100A2400FFF75EFE0246079B9A4204D8224940F231
:100A3400A91002F079FC009B5A1C0A9B1340069AE9
:100A44001104079A0A431D4902339B000B445A6060
:100A5400009A0A9B134002339B00184A1344043340
:100A64000593039BDBB203F00703D9B2059A13780D
:100A740061F3C5031370019BDBB203F00F03D9B21A
:100A8400059A138861F389131380029BC3F315013C
:100A9400059A136861F39F231360059A1378012163
:100AA40061F301031370059A13786FF382031370D3
:100AB40000BF09B05DF804FBD4D40400780500201D
:100AC40000B58BB00390029113468DF80730039B59
:100AD4000233089301238DF81F30002002F058FAE6
:100AE4003F4B1A68029B1A603D4B9A683C4B59680D
:100AF4003B4B1B68CB1A13440133099314E00121C7
:100B0400384802F06FFCFFF7E1FE0690069935487D
:100B140002F068FC324B9A68314B5968304B1B68C1
:100B2400CB1A134401330993089A099B9A42E6D8D5
:100B34009DF81F30002B4AD0002304939DF8073002
:100B4400002B18D09DF81030012262F301038DF8B8
:100B540010309DF8103043F004038DF81030039BDF
:100B6400DBB203F00F03DAB2BDF8103062F389137D
:100B7400ADF8103017E09DF81030022262F3010343
:100B84008DF810309DF8103043F004038DF81030C8
:100B9400039B9BB2C3F309039AB2BDF8123062F30C
:100BA4008F13ADF812300E4B1A680D4B9B6813402F
:100BB40002339B000A4A134404330593049A059BA9
:100BC4001A60074B1A68089B1344054A13600020F7
:100BD40002F0F2F99DF81F3018460BB05DF804FBE3
:100BE400780500209409002000B58BB0059004918D
:100BF400039202931F4B9B68079306AB012219468D
:100C04000298FFF75DFF0346002B24D0069B0233B6
:100C140009930023089311E0099B5A1C0992079A2F
:100C24001340089A920003990A4412681149023346
:100C34009B000B445A60089B01330893089A029B5B
:100C44009A42E9D3069A079B00931346029A0499A1
:100C54000598FFF7D9FE074B93F82034002B05D0F5
:100C640000BF00F081F80346002BFAD100BF0BB09F
:100C74005DF804FB7805002000B583B00190009175
:100C84000023002200990198FFF7AEFF00BF03B0D4
:100C94005DF804FB00B587B0039002910192019BBB
:100CA400059305AA012302990398FFF79DFF00BF4E
:100CB40007B05DF804FB00B587B003900291019280
:100CC4000093019B0493009B059304AA02230299B9
:100CD4000398FFF789FF00BF07B05DF804FB00B578
:100CE4008BB00390029101920093019B0593009BAA
:100CF40006930C9B07930D9B08930E9B099305AADF
:100D0400052302990398FFF76FFF00BF0BB05DF84E
:100D140004FB00B58BB00390029101920093019BF8
:100D24000493009B05930C9B06930D9B07930E9BCA
:100D340008930F9B099304AA062302990398FFF7CB
:100D440053FF00BF0BB05DF804FB0000054B5A686D
:100D5400044B1B689A420CBF01230023DBB21846E4
:100D6400704700BF7805002000B599B0FFF7EEFF8B
:100D74000346002B01D00023B1E19A4B0022C3F8B3
:100D84001824BFF34F8F974B5B680493954B9B6874
:100D94001093049A109B134002339B00914A13440E
:100DA40004331793002316930023159300230F9302
:100DB40004AB19461798FFF727FD0346002B14D000
:100DC400884B1A68049B9A4205D8864B1B68854A4F
:100DD4005360002383E1049A109B134002339B0069
:100DE400804A134404331793E2E700BF00231493AB
:100DF40011E0149B9B0001AA1A44049B591C049102
:100E040010990B40774902339B000B445B681360D5
:100E1400149B01331493149B012BEAD99DF80430DD
:100E240003F00303DBB2022B40F09C80BDF80630D4
:100E3400C3F389139BB20E93BDF80630C3F3891331
:100E44009BB2502BA8BF50230D930D9B9BB2C3F3B1
:100E540009039AB2BDF8063062F38F13ADF8063079
:100E64000D9B08330C939DF80430C3F3C203DBB22B
:100E74000F930C995C4803F028F81690169B002BEE
:100E840000F0D480169803F0B0F801A9159B08224D
:100E9400169803F053F9159B08331593049BDA4312
:100EA400109B134001339B000B930D9A0B9B9A42AA
:100EB40042D90B9B002B08D0049A109B1340023399
:100EC4009B00484A1344043300E0484B0A930B9BAD
:100ED400002B02D00B9BDBB201E00D9BDBB28DF843
:100EE40027300B9B002B01D0404B00E000230893DC
:100EF4000B9B002B06D00D9BDAB20B9BDBB2D31AF3
:100F0400DBB200E000238DF81F309DF82720159BED
:100F14000A99169803F012F99DF82730159A13448C
:100F24001593089B002B16D09DF81F20159B08993C
:100F3400169803F003F90EE0049A109B1340023351
:100F44009B00284A134404330693159B0D9A069973
:100F5400169803F0F3F80E9B03339A08049B13448A
:100F6400049363E09DF8043003F00303DBB2012B28
:100F74005CD1BDF80430C3F38313DBB2062B28BF66
:100F84000623DBB203F00F03DAB2BDF8043062F3D8
:100F94008913ADF80430BDF80430C3F38313DBB216
:100FA400023305939DF80430C3F3C203DBB20F93FD
:100FB400059B9B0019460C4802F087FF1690169B70
:100FC400002B33D0169803F010F801A9159B0822C2
:100FD400169803F0B3F8159B083315930023149364
:100FE4001BE000BF7805002010D404008405002015
:100FF400049B5A1C0492109A134002339B003A4AF1
:101004001344191D159B0422169803F097F8159B99
:1010140004331593149B01331493BDF80430C3F3C4
:101024008313DBB21A46149B9A42E1D8169B002B19
:1010340038D02D4BD3F8103413932B4BD3F81834EA
:10104400002B1AD0169802F0DFFF42E000238DF83F
:101054004B301398FFF7F3FA0346002B02D0012319
:101064008DF84B309DF84B30002B03D01699139814
:10107400FFF7A4FA139B5B681393139B002BE5D132
:10108400169802F0C1FF002001F082FF164BD3F83E
:101094001834002B02D1049B134A5360002001F042
:1010A4008BFF16E0104BD3F81034119305E0119820
:1010B400FFF79EFA119B5B681193119B002BF6D1ED
:1010C4000A4B1B881B0443F0020309491846FFF727
:1010D400D3FDFFF73BFE034683F00103DBB2184662
:1010E40019B05DF804FB00BF78050020140000204F
:1010F40020D5040000B585B00023039322E0164BED
:10110400D3F81034029301238DF807300EE00298CF
:10111400FFF786FA03461A46039B9A4203D100233B
:101124008DF8073005E0029B5B680293029B002B5D
:10113400EDD19DF80730002B01D0039B07E0039B02
:1011440001330393039B092BD9DD4FF0FF3318467A
:1011540005B05DF804FB00BF7805002000B585B03C
:1011640001900B468DF80330FFF7C4FF0390039BF7
:10117400B3F1FF3F01D1039B1EE0039BDBB2194691
:101184000198FFF741FA0E4BD3F81034002B07D126
:101194000B4A019BC2F81034019B00225A600AE0FA
:1011A400074BD3F810345A68019B5A60044BD3F8A8
:1011B4001034019A5A60039B184605B05DF804FB8D
:1011C4007805002000B583B00C4BD3F8103401939C
:1011D4000A4B012283F8202408E00198FFF727FA3C
:1011E4000198FFF7F9F9019B5B680193019B002BC0
:1011F400F3D100BF03B05DF804FB00BF7805002005
:1012040082B00190009100BF02B0704710B584B065
:1012140003900291039BDB88002B0AD0039BDB889D
:101224001A461F4B009313461E4A1F49029802F0A8
:1012340043FA039B1B7A052B2ED0039B5B7A002B6E
:1012440012D0039B9B881A46039B1B7A19461046AF
:10125400FFF7A2FA03461A46144B53F822301A46F3
:101264001349029802F028FA039B1B681946029856
:10127400FFF7C6FF039B1B7A1A460E4B53F8224016
:10128400039B9B8800211846FFF766FA0346224613
:101294000949029802F010FA00BF04B010BD00BF63
:1012A40054D5040064D504009CD5040044000020F7
:1012B400B4D5040030000020B8D5040000B585B0D2
:1012C4000390029113468DF80730039B1B7A052B7C
:1012D4000FD0039B5B7A002B06D00D4B1B681A467C
:1012E4000C49029802F0E8F90B49029802F0E4F97B
:1012F40007E09DF80730002B03D00749029802F05D
:10130400DBF9029802F0B6F900BF05B05DF804FB02
:1013140044000020B4D50400C4D5040030B58BB01B
:1013240007900691059204930E9B1B7B8DF8273042
:101334000E9B00221A730E990498FFF767FF059B12
:10134400062B7FD801A252F823F000BF6D130000D2
:1013540077130000871300009B130000B9130000EB
:10136400E11300001114000007990E9802F0A4F98B
:1013740069E0069B1B681A4607990E9802F09CF9CF
:1013840061E0069B1A68069B04331B6807990E9854
:1013940002F092F957E0069B1A68069B0433196819
:1013A400069B08331B6800930B4607990E9802F0BE
:1013B40083F948E0069B1968069B04331868069B6A
:1013C40008331B68069A0C32126801920093034694
:1013D4000A4607990E9802F06FF934E0069B1868E4
:1013E400069B04331C68069B08331B68069A0C3260
:1013F40012680699103109680291019200932346FC
:10140400024607990E9802F057F91CE0069B1C68E7
:10141400069B04331D68069B08331B68069A0C322E
:101424001268069910310968069814300068039010
:101434000291019200932B46224607990E9802F0DE
:101444003BF900E000BF00220E990498FFF736FF35
:101454000E9B9DF827201A7300BF0BB030BD00BF50
:1014640000B587B00390029101920093029B082B70
:101474005CD8009B1B7B8DF81330009B00221A73F1
:1014840000990198FFF7C2FE0023059314E0059A22
:10149400029B9A4209D2039A059B13441B781A466D
:1014A4002449009802F008F903E02349009802F067
:1014B40003F9059B01330593059B072BE7D91F49C6
:1014C400009802F0F9F80023059322E0059A029BA4
:1014D4009A4217D2039A059B13441B788DF8123055
:1014E4009DF81230184641F0A1FB0346002B02D0B0
:1014F4009DF8123000E02E231A461149009802F09C
:10150400DBF803E00F49009802F0D6F8059B01339D
:101514000593059B072BD9D9012200990198FFF760
:10152400CDFE009B9DF813201A7300E000BF07B0A6
:101534005DF804FBC8D50400D0D50400D4D504005C
:10154400D8D50400DCD5040000B585B00190019B1A
:10155400002B0AD0074B43F001030393019B9B012B
:101564000293039B0298984700E000BF05B05DF822
:1015740004FB00BF20DC040000B583B00190019B94
:10158400002B0AD04FF47A70FFF7DEFF019B013B7A
:101594000193019B002BF5D100E000BF03B05DF87F
:1015A40004FB82B00190019BD3F81035DBB21846DE
:1015B40002B0704700B585B001900B468DF803303A
:1015C4009DF803300393019B094A934204D90949C6
:1015D40040F26E2001F0A8FE019B4FF47A5202FB08
:1015E40003F2039B22FA03F3184605B05DF804FBEB
:1015F40093180400E0D5040000B583B00190009175
:10160400019B1B681846FFF7CCFF03461946009858
:10161400FFF7D0FF0346184603B05DF804FB000053
:1016240000B583B0374B1B7883F00103DBB2002B8A
:1016340010D00521344835F0EFFE0346002B5DD071
:10164400324B1B881B0443F0050331491846FFF74E
:1016540013FB53E02B4B1B78002B1FD02A4B93F822
:101664002830032B1AD02B4B1B7883F00103DBB2F9
:10167400002B13D0284B1A78284B2949224835F0DF
:1016840053FC0346002B39D0204B1B881B0443F02A
:10169400050324491846FFF7EFFA2FE0194B1B788E
:1016A400002B2BD0184B93F82830032B26D1194B41
:1016B4001B7883F00103DBB2002B1FD01A4841F0E2
:1016C40065FD03468DF80730184B19689DF80730FF
:1016D4009AB2174B0C4835F023FD0346002B09D072
:1016E4000A4B1B881B0443F0050312491846FFF7F5
:1016F400C3FA03E0074B01221A70FFE700BF03B0EF
:101704005DF804FB360B0020A4090020140000201F
:101714000CD60400320B0020CE0A0020D00A002090
:10172400BC0A00203CD60400680000209800002079
:10173400340B002074D6040000BF704700B583B09A
:101744002249234839F0DEF8224B0093224B234AE6
:101754002349244839F02CFA234838F009FE224B57
:10176400D3ED007AB0EE670A1A49204838F01CFC21
:101774001E4838F0B3FA1E4B1B7883F00103DBB22A
:10178400002B01D0FFF74CFF194B1B78002B14D012
:10179400184B1A68184BA3FB02135B09642101FB65
:1017A40003F3D31A002B01D100F02AF8FFF7C4FF8A
:1017B400104B1B6801330F4A1360104B002283F84F
:1017C400202000BF03B05DF804FB00BF740B0020B1
:1017D400680B0020FC0B0020D40B0020B80B002069
:1017E4009C0B0020800B00200C0C00205C0B0020C4
:1017F400320B0020100C00201F85EB51380B002009
:1018040000B585B036238DF80C30064B998803AAB1
:10181400002300930123044835F0F6FB00BF05B014
:101824005DF804FBA8000020A409002082B0034650
:101834000A46ADF8063013468DF80530034A9DF884
:101844000530D37400BF02B0704700BF380B0020CE
:1018540008B50C4B3C225A800A4B01221A70094BE2
:1018640000225A70084841F091FC03469AB2054B95
:101874009A80044B9B881A460349044841F0DEFBD6
:1018840000BF08BDD00A00209C090020DA0A00200D
:1018940030B482B00190019B9B680A4A14461D46ED
:1018A40028686968AA68EB680FC42B8A2380019BA7
:1018B4001A79054B1A70054B01221A7000BF02B049
:1018C40030BC7047BC0A0020CE0A0020360B002032
:1018D40010B582B0344B0022A3F8B820324B00225A
:1018E400A3F8BA20304B4FF47A72A3F8BC202E4BE5
:1018F400B3F8B8102C4BB3F8BA202B4BB3F8BC3068
:10190400012038F0EBFD294B1C68294841F03EFCCE
:1019140003469AB2274B2146274835F0C4FB019071
:10192400019B002B09D0254B1B881B0443F00103AA
:10193400019A23491846FFF7ADF9224B1C68224847
:1019440041F024FC03469AB21A4B21461A4835F05A
:10195400AAFB0190019B002B09D0184B1B881B0488
:1019640043F00103019A16491846FFF793F9174B00
:101974001C68174841F00AFC03469AB20D4B2146F5
:101984000D4835F090FB0190019B002B09D00B4BC7
:101994001B881B0443F00103019A09491846FFF709
:1019A40079F900BF02B010BD380B00209800002068
:1019B40068000020340B0020A4090020140000203B
:1019C400D4D70400A800002078000020B000002034
:1019D4008800002008B50D4B0022A3F8B8200B4B5B
:1019E4004FF47A72A3F8BA20084B0022A3F8BC2063
:1019F400064BB3F8B810054BB3F8BA20034BB3F851
:101A0400BC30012038F06AFD00BF08BD380B00204F
:101A140000B583B00190214B9B88002B10D1019B12
:101A24001A8B1E4B9A801E4B1B881B0443F0050324
:101A34001846019B1B8B1A461A49FFF72BF928E01D
:101A4400194B9B88002B10D1019B1A8B164B9A8043
:101A5400134B1B881B0443F005031846019B1B8B87
:101A64001A461249FFF716F913E0114B9B88002B15
:101A74000FD1019B1A8B0E4B9A80094B1B881B04B8
:101A840043F005031846019B1B8B1A460949FFF7CF
:101A940001F900BF03B05DF804FB00BF980000200B
:101AA400140000200CD80400A80000204CD8040026
:101AB400B000002090D8040000B583B00190094B19
:101AC4001B881B0443F005031846019B5B791A46E7
:101AD400019BDB880449FFF7EEF800BF03B05DF813
:101AE40004FB00BF14000020D0D8040000B583B06C
:101AF4000190084B1B881B0443F003031846019B09
:101B04001B791A460449FFF7C5F800BF03B05DF816
:101B140004FB00BF1400002008D9040000B583B002
:101B240001900091009B1B780D2B7FD801A252F8E5
:101B340023F000BF8B1B0000A31B0000311C00001E
:101B4400711B0000311C0000311C0000BB1B000095
:101B5400311C0000171C0000311C0000311C000067
:101B6400D51B0000FD1B0000E91B0000324B1B8845
:101B74001B0443F0050331491846FFF77DF800982C
:101B8400FFF786FE53E02C4B1B881B0443F0050330
:101B94002B491846FFF770F8FFF79AFE47E0264BEB
:101BA4001B881B0443F0050326491846FFF764F815
:101BB400FFF710FF3BE0204B1B881B0443F0050399
:101BC40021491846FFF758F80098FFF721FF2EE047
:101BD400194B1B881B0443F005031C491846FFF7E7
:101BE4004BF824E0144B1B881B0443F005031849ED
:101BF4001846FFF741F81AE00F4B1B881B0443F00B
:101C0400050314491846FFF737F80098FFF754FF07
:101C14000DE0094B1B881B0443F003030E491846CF
:101C2400FFF72AF80098FFF761FF00E000BF00BF4C
:101C340003B05DF804FB00BF140000203CD904008D
:101C440074D9040098D90400C0D90400ECD9040064
:101C54001CDA04004CDA04008CDA040010B582B0FB
:101C640001900091084B1B881B0443F005031C469C
:101C7400009802F0AAFB0346019A04492046FFF7A4
:101C84001AF800BF02B010BD14000020C8DA040026
:101C940000B585B001AB00221A605A609A60012336
:101CA4008DF8063001AB184637F0BEFC37F00AFE5B
:101CB400074837F07BFE074B1B881B0443F00503E2
:101CC40005491846FEF7D8FF00BF05B05DF804FBD0
:101CD400611C000014000020F8DA040000B585B08F
:101CE40037F05EFE0246124B00931346114A4BF640
:101CF4005901114835F0B2F80390039B0293029BFB
:101D0400002B05D00D4A4FF40871029800F0ECF94D
:101D1400FFF79EFD0A4B1B881B0443F0050309498A
:101D24001846FEF7A9FF00BF05B05DF804FB00BF2D
:101D340031180000211B0000A409002014DB04005A
:101D44001400002034DB040000B583B04FF40041DC
:101D54000020FEF77BFC0190019B0093009B002B6D
:101D640005D0064A4FF40C71009800F0BDF9FEF757
:101D740007FC00BF03B05DF804FB00BF14DB0400E4
:101D840000B583B003460091ADF80630224B012222
:101D940083F82020214B93F82830032B32D0204B9A
:101DA4001B78002B06D01F4B00221A601E4B4FF4E9
:101DB4007A721A601D4B19681D4BA3FB0123DA08C4
:101DC40013469B0013445B00CA1A002A1AD1194B0C
:101DD4001B78002B09D0002300220021012038F0B9
:101DE4007DFB144B00221A700CE00E4B1B689AB258
:101DF4000D4B1B689BB20021012038F06FFB0D4B8B
:101E040001221A70094B1B680133084A136000BF92
:101E140003B05DF804FB00BF380B0020A4090020C8
:101E2400360B0020C0000020140C0020180C0020E9
:101E3400CDCCCCCC1C0C002000B587B0164A174979
:101E4400174832F015F90590059B0493049B002B69
:101E540005D0144A40F26D21049800F045F932216E
:101E64000F48FFF7C9FB0390012300930123039A52
:101E740000210B4832F09DFA094832F0F5F90A4B7B
:101E84001B881B0443F0050308491846FEF7F4FEBB
:101E940000BF07B05DF804FB851D0000C4000020EE
:101EA40018DC040014DB04001400002054DB0400DC
:101EB40008B54FF08053D3F8A430DAB21F4B1A7030
:101EC4004FF08053D3F8A4301B0ADAB21B4B5A707C
:101ED4004FF08053D3F8A4301B0CDAB2174B9A702E
:101EE4004FF08053D3F8A4301B0EDAB2134BDA70E0
:101EF4004FF08053D3F8A830DAB2104B1A714FF078
:101F04008053D3F8A8301B0ADAB20C4B5A7106225C
:101F14000A490B4841F092F80A4B1B68062207490C
:101F2400184641F08BF80849054839F015F803467E
:101F3400DAB2034B9A7400BF08BD00BF9C090020AD
:101F4400380B0020A00000203E0B002070B584B0A8
:101F5400FFF7FAFEFFF7ACFF374B1B881B0443F077
:101F6400050336491846FEF787FE334B1B881B04CE
:101F740043F005031C46324B5B791D46304B1B79FD
:101F84001E462F4BDB781A462D4B9B7819462C4B5B
:101F94005B7818462A4B1B780393029001910092B8
:101FA40033462A4627492046FEF7B3FE224B1B88B8
:101FB4001B0443F005030A2223491846FEF76AFE70
:101FC4000A20FFF7D9FA38F04DFB204838F07EF9A3
:101FD40037F0B0FE38F056FC38F020FF37F0E4FD5F
:101FE40037F06EFFFFF728FFFFF752FEFFF776FE8C
:101FF40000234FF47A720021012038F06FFA0E4B5F
:102004001B881B0443F0050311491846FEF734FEF0
:1020140037F072FCFEF7A8FE034683F00103DBB23F
:10202400002B01D037F09EFC054B93F82030002B99
:10203400EED0FFF783FBEBE71400002074DB040011
:10204400380B0020A0DB0400D8DB0400B80000201B
:1020540000DC040086B003900291019201238DF804
:1020640017309DF817301F4A039B13601D4A029BCB
:1020740053601C4A019B9360039B44F20102934208
:1020840012D044F20202934221D1019B154AD3603B
:10209400144BDB681B881A46124B9A61114BDB68A0
:1020A4005B68104AD36112E0019B0E4A13610D4B29
:1020B4001B699B680B4A53610A4B1B691B68094ADD
:1020C4009361084B1B695B68064AD36100BF72B613
:1020D40000BF9DF81730DBB2002BFAD162B600BF07
:1020E40006B07047200C002000B583B00290009128
:1020F400019244F2010071466A4600F003F803B00D
:1021040000BD00BF30B58BB007900691059272B642
:10211400FFF758F800BFFEF727FE0346002BFAD15D
:10212400079B44F20102934214D044F20202934208
:102134003AD1059B0993294B1B881B0443F00103E7
:102144001846099B5B681A46099B1B882449FEF7BD
:10215400B2FD34E0059B0893204B1B881B0443F01D
:1021640001031D46089B9C68089B9B68184602F067
:1021740009F803461846089B5B681946089B1B68C8
:10218400069A029201930091034622461549284675
:10219400FEF7A5FD114B1B881B0443F001031249F4
:1021A4001846FEF769FD0AE00C4B1B881B0443F03C
:1021B4000103069A0D491846FEF76CFD00BF0C4B4F
:1021C4001B6803F00103002B00D000BE059A06999A
:1021D4000798FFF73FFF00BF0BB030BD140000208D
:1021E40028DC040044DC04006CDC040080DC040013
:1021F400F0ED00E082B003468DF807309DF807301B
:102204009AB2064B1B889A4204D29DF807300133D8
:10221400DBB200E00023184602B070474C0C0020EB
:1022240000B583B00B4B1B788DF807300A4B1B7835
:10223400DBB21846FFF7DEFF03461A469DF8073067
:1022440093420CBF01230023DBB2184603B05DF8B0
:1022540004FB00BF480C0020490C002000B587B0E7
:1022640003900B460192ADF80A30334B1B88BDF83E
:102274000A209A4259D84FF6FF73ADF81230002065
:1022840000F086FEFFF7CCFF0346002B0ED12B4B4C
:102294001B78DBB2ADF81230284B1B78DBB2184642
:1022A400FFF7A8FF03461A46244B1A70002000F0DB
:1022B40083FEBDF812304FF6FF72934232D0204BAA
:1022C4001A68BDF81230DB001344019A1A60039BAC
:1022D400002B1CD0BDF80A30002B18D0194B1B68FA
:1022E400BDF812201449098801FB02F21344BDF819
:1022F4000A200399184640F0A1FE114B1A68BDF854
:102304001230DB001344BDF80A209A8007E00C4B1E
:102314001A68BDF81230DB00134400229A800023AF
:10232400059304E00423059301E009230593059B29
:10233400184607B05DF804FB4A0C0020490C002045
:10234400400C0020440C002082B003468DF8073076
:1023540007499DF907305B099DF8072002F01F0229
:10236400012000FA02F241F8232000BF02B07047B6
:1023740000E100E082B003468DF8073008499DF97A
:1023840007305B099DF8072002F01F02012000FAC4
:1023940002F2203341F8232000BF02B0704700BF8F
:1023A40000E100E082B003468DF8073008499DF94A
:1023B40007305B099DF8072002F01F02012000FA94
:1023C40002F2403341F8232000BF02B0704700BF3F
:1023D40000E100E082B003468DF8073008499DF91A
:1023E40007305B099DF8072002F01F02012000FA64
:1023F40002F2603341F8232000BF02B0704700BFEF
:1024040000E100E082B0034600918DF807309DF9A9
:102414000730002B0CDA0D499DF8073003F00F0349
:10242400043B009AD2B25201D2B20B441A7609E0AC
:1024340007499DF90730009AD2B25201D2B20B4437
:1024440083F8002300BF02B0704700BF00ED00E036
:1024540000E100E000B585B00190019B002B0AD09B
:10246400074B43F001030393019B9B010293039BDE
:102474000298984700E000BF05B05DF804FB00BF78
:10248400D0DC040000B583B00190064A019BC2F879
:10249400083507211120FFF7B5FF00BF03B05DF831
:1024A40004FB00BF0010014008B50D4B4FF480320F
:1024B400C3F844230A4B4FF48032C3F80423112099
:1024C400FFF788FF1120FFF73FFF054B01221A6039
:1024D4002F20FFF7BFFF034B01221A7000BF08BD76
:1024E400001001406E0D002008B51120FFF742FFD7
:1024F4000E4B4FF48032C3F848230C4B4FF4803218
:10250400C3F80823094B01225A602F20FFF7A2FFCA
:10251400064B01229A60064B00221A602F20FFF717
:1025240099FF044B00221A7000BF08BD001001403F
:10253400600D00206E0D0020024BD3F804351846C0
:10254400704700BF0010014082B001900091019AD1
:10255400009BD31A23F07F43184602B07047000053
:1025640082B00190034A019BC2F8403500BF02B01B
:10257400704700BF0010014086B00190284B1B68D3
:10258400002B03D1264A019B136045E0019B1A6886
:10259400234B1B681B689A4210D8214B1B68204AA6
:1025A40012681168019A12688A1A1A601C4B1A6818
:1025B400019BDA611A4A019B13602DE0019B1B68A1
:1025C4000393174B1B680593154B1B68049309E091
:1025D400049B1B68039AD31A0393049B0593049BDF
:1025E400DB690493049B002B04D0049B1A68039BAF
:1025F4009A42EDD3049B002B05D0049B1A68039BDD
:10260400D21A049B1A60019B039A1A60019B049AD4
:10261400DA61059B019ADA6100BF06B0704700BF1A
:102624005C0D002000B587B001902A4B1B68039312
:10263400284B1B680593059B049308E0049A019BAF
:102644009A4208D0049B0593049BDB690493049B82
:10265400002BF3D100E000BF049B002B01D1002329
:1026640033E0059A049B9A4214D11A4B1B68DB6928
:10267400184A1360174B1B68002B0BD1164B012211
:102684009A60164B00221A60154B01221A702F20F3
:10269400FFF7E0FE049B1B680293049BDA69059B29
:1026A400DA61059BDB690493049B002B05D0049B32
:1026B4001A68029B1A44049B1A60064B1B68039A0F
:1026C4009A4214BF01230023DBB2184607B05DF819
:1026D40004FB00BF5C0D002000100140600D0020D1
:1026E4006F0D002008B51120FFF75CFE00BF08BD88
:1026F40008B51420FFF756FE00BF08BD00B585B02D
:1027040001900B46ADF80230BDF80230082B0CBF27
:1027140001230023DBB20393039B002B05D1094A59
:1027240040F273110020FFF7DFFC019B0293029B30
:102734001B68029A52681046984700BF05B05DF8BE
:1027440004FB00BF98DC040000B587B00190019B36
:102754005B690293019B9B69039302AB0A4A0821BC
:102764001846FFF77BFD0590059B0493049B002B03
:1027740005D0064A40F287110498FFF7B5FC00BF64
:1027840007B05DF804FB00BF0127000098DC0400DB
:1027940000B585B02B4B1B68002B4ED00023019352
:1027A400FFF7CAFE0246284B1B6819461046FFF77E
:1027B400CBFE0290234B1B6803931DE0039B1A6816
:1027C400029B9A421CD8039B1B68029AD31A029359
:1027D400039B1B68019A13440193039B0093039B7F
:1027E400DB690393009B1B7C002B05D0009B00221C
:1027F4001A740098FFF7A8FF039B002BDED100E0BA
:1028040000BF124B1A78124B1B789A420CD1104B12
:102814001B780133DAB20E4B1A700D4B1B78022B66
:1028240002D10B4B00221A70094B1B781946094A36
:10283400019B42F82130FFF75BFF00BF05B05DF854
:1028440004FB00BF5C0D0020600D00206C0D002017
:102854006D0D0020640D002082B00190184B1A7891
:10286400184B1B789A4223D0154B1B780133DAB2EC
:10287400134B1A70124B1B78022B02D1104B0022FF
:102884001A700F4B1B781A460F4B53F82220019BEA
:102894001A60019B1A680D4B1B6813440B4A1360A2
:1028A4000A4B1B6823F07F43084A1360012303E0AB
:1028B400019B00221A600023184602B0704700BF33
:1028C4006C0D00206D0D0020640D0020600D0020B3
:1028D40088B00390029101920023079338E0204BC3
:1028E4001B680693069B1A68039B9A4206D9069BAB
:1028F4001A68039BD21A069B1A602DE0069B1B687C
:10290400039AD31A0393069B1B68079A13440793ED
:10291400069B00221A60124B1B680593069BDB6919
:102924000F4A1360069BDB68002B11D0029A079BA9
:10293400134423F07F42069B5A60069BDA68069B89
:102944009A60019B1A68069BDA61019B059A1A60DA
:10295400034B1B68002BC2D100BF08B0704700BFF7
:102964005C0D002000B589B0019000238DF81F3064
:10297400664B1B680593AAE0019B002B05D0019BC5
:102984000693069BDB69019361E0614B1B781A4651
:1029940013465B001344DB005D4A13440433049381
:1029A4005B4B1B780133DAB2594B1A70584B1A78C7
:1029B400574B9B789A4202D1554B00221A70049BC4
:1029C4005B680693049B1B78022B04D0032B1BD05B
:1029D400012B1FD01DE0049B5B681846FFF722FE05
:1029E4000346002B02D001238DF81F30069B0022E2
:1029F4001A746CE0454B1B680393039B00221A7402
:102A0400039BDB69414A1360404B1B68002BF1D1E7
:102A14005DE05CE000BF069B1B7C002B00D056E011
:102A2400049B9A68069B5A60049BDA68069B9A602A
:102A3400049B1A69069BDA60049B5A69069B9A6197
:102A4400344B1B78002B02D0069B00225A60069B55
:102A54005A68314B1B68D31A23F07F432F4A9342A1
:102A64000ED8069B5A682C4B1B6819461046FFF774
:102A74006BFD0246069B9B681A44069B1A6017E08E
:102A8400254B1A68069B5B6819461046FFF75CFDE8
:102A94000290069B9A68029B9A4206D9069B9A6802
:102AA400029BD21A069B1A6002E0069B00221A605F
:102AB400069B00225A60069B00229A60069B012214
:102AC4001A74069B0022DA610698FFF755FD019BF4
:102AD400002B7FF451AF0E4B1A780D4B5B789A4262
:102AE4007FF44AAF9DF81F30002B04D1074B1A68BE
:102AF400059B9A4201D0012300E0002303F0010367
:102B0400DBB2184609B05DF804FB00BF5C0D002081
:102B1400500C00206F0D0020600D0020FEFF7F0090
:102B240010B588B00190274B1B68002B44D0254B6F
:102B34001B681B680793FFF7FFFC0690224B1B687A
:102B4400059305990698FFF7FFFC034603330493A6
:102B54001E4B1B7883F00103DBB2002B01D0FFF77F
:102B6400A3FC049A079B934238BF1346059A134467
:102B74000593059B23F07F4305930598FFF7F0FC2D
:102B8400FFF7DAFC039006990398FFF7DDFC034690
:102B9400DC1C06990598FFF7D7FC03469C420DD927
:102BA400FFF7CAFC03461846FFF7DAFC2F20FFF7AD
:102BB40051FCFFF797FD01E0FFF796FC00BF08B05A
:102BC40010BD00BF5C0D0020600D00206E0D0020C4
:102BD40000B587B00023019300238DF81730194BFB
:102BE4001B680493184B1B6803936B461846FFF746
:102BF40033FE03468DF80B309DF80B30002B08D0C4
:102C0400009B01AA04991846FFF762FE01238DF880
:102C14001730019B1846FFF7A5FE0346002B02D090
:102C240001238DF817309DF81730002B02D003983C
:102C3400FFF776FF054B00221A7000BF07B05DF85E
:102C440004FB00BF600D00205C0D00206F0D002010
:102C540082B003468DF80730034A9DF8073053705D
:102C640000BF02B0704700BF500C002084B0019038
:102C7400144B5B7801338DF80F30124B9B789DF821
:102C84000F209A4202D100238DF80F300D4B1B7890
:102C94009DF80F209A4201D100230FE0019B9DF87B
:102CA4000F201A70074B5B781A4613465B001344D7
:102CB400DB00044A134404330293029B184604B015
:102CC400704700BF500C002000B589B003900291FA
:102CD4000192009300230793002000F059F90DF1AD
:102CE40017031846FFF7C2FF0690069B002B02D17C
:102CF4000423079318E0069B01221A70069B039A8B
:102D04005A60FFF719FC0246069B9A60069B029ADA
:102D1400DA60069B019A1A61069B009A5A619DF833
:102D240017301846FFF794FF002000F045F9079B81
:102D3400002B01D1FFF7DCFC079B184609B05DF8B6
:102D440004FB00B587B001900B468DF803300023D7
:102D54000593002000F01CF90DF10F031846FFF74E
:102D640085FF0490049B002B02D1042305930BE000
:102D7400049B9DF803201A70049B019A5A609DF8E5
:102D84000F301846FFF764FF002000F015F9059B8B
:102D9400002B01D1FFF7ACFC059B184607B05DF88A
:102DA40004FB000008B50E4B0022C3F840210C4B75
:102DB4000022C3F844210A4B0022C3F84821084BDF
:102DC4000022C3F84C21064B0022C3F80021044B17
:102DD4000022C3F80421FFF7DBFC00BF08BD00BFDD
:102DE4000010014008B5FFF7F3FE00BF08BD000066
:102DF40008B5FFF779FB134B00221A70114B002220
:102E04005A70104B0B229A700F4B00221A600F4B12
:102E140000221A700E4B00221A701420FFF7DAFAFF
:102E240007211420FFF7EEFA1420FFF78DFA002093
:102E3400FFF728FBFFF780FB0246064B1A600023CE
:102E4400184608BD500C00205C0D00206C0D0020BD
:102E54006D0D0020600D002086B003900B4601929A
:102E64008DF80B30134B9B78002B01D108231EE007
:102E7400019B002B01D1072319E0039B002B01D1F7
:102E8400072314E0039B1B681B7C002B01D0082341
:102E94000DE0039B1B680593059B00221A74059B98
:102EA4009DF80B205A74059B019A5A610023184619
:102EB40006B07047500C002000B587B00390029113
:102EC4000192039B0593144B9B78002B01D108239B
:102ED4001EE0039B002B01D1082319E0029B042B65
:102EE40001D8072314E0059B5B69002B01D108235B
:102EF4000EE0059B5B7C012B01D1029B00E00023CB
:102F04000493019B049A02990598FFF7DDFE03469A
:102F1400184607B05DF804FB500C002000B585B0DE
:102F24000190019B03930D4B9B78002B01D1082347
:102F340010E0019B002B03D0039B5B69002B01D1A4
:102F4400082307E0039B00221A7402210398FFF769
:102F5400F8FE0346184605B05DF804FB500C00204B
:102F640072B6034B1B680133014A136000BF7047FC
:102F7400700D0020054B1B68013B044A1360034B92
:102F84001B68002B00D162B600BF7047700D002093
:102F940000B583B0019000F025F80346012B03D05F
:102FA4000449432000F0C0F9FFF7DAFF00BF03B083
:102FB4005DF804FBD8DC040000B583B003468DF84B
:102FC400073000F00FF80346012B03D004495120C9
:102FD40000F0AAF9FFF7CEFF00BF03B05DF804FBD1
:102FE400D8DC040084B0EFF305830193019BC3F3A1
:102FF40008030393039B002B0DD1EFF31483009379
:10300400009B0293029B03F00103002B0CBF0123DE
:103014000023DBB200E00123184604B0704786B0F9
:10302400039002910192039B5B090593059B5B014D
:10303400039AD31A0493029B059A1A60019B049A7B
:103044001A6000BF06B0704700B585B0019002AAAF
:1030540003AB19460198FFF7E2FF039B039A074964
:1030640051F82210029A012000FA02F20A4303499D
:1030740041F8232000BF05B05DF804FB741500205F
:1030840084B001900091002303931FE0019B002B67
:1030940010D0124A039B52F82320019B9A4209D371
:1030A4000F4A039B52F823200E49039B51F8233007
:1030B4009A4206D10A4A039B52F82320009B9A4263
:1030C40001D9039B06E0039B01330393039B062B67
:1030D400DCD90023184604B0704700BF24DD040087
:1030E4005CDD040040DD040000B585B00190019969
:1030F4000020FFF7C5FF0390034A039B52F82330D7
:10310400184605B05DF804FB24DD040000B585B065
:10311400019002AA03AB19460198FFF780FF039BB5
:10312400084A52F82320029B22FA03F303F0010316
:10313400002B14BF01230023DBB2184605B05DF851
:1031440004FB00BF7415002000B585B0019002AAED
:1031540003AB19460198FFF762FF039B039A0849E2
:1031640051F82210029A012000FA02F2D2430A40D6
:10317400034941F8232000BF05B05DF804FB00BFFC
:103184007415002000B583B000230193002301933C
:1031940005E00198FFF758FF019B01330193019B60
:1031A4000B2BF6D9034B01221A700023184603B0E7
:1031B4005DF804FB7815002000B589B001900091FA
:1031C4002E4B1B7883F00103DBB2002B02D048F2B4
:1031D40008134EE0019B002B02D148F20E1348E085
:1031E400009B002B02D148F20E1342E0009B1B68A7
:1031F4000493049B002B03D0049BB3F5807F02D976
:1032040048F2071335E00C210498FFF739FF0390C7
:103214001B4A039B52F8233007931A4A039B52F824
:103224002330069348F2041305931EE00798FFF732
:103234005BFF02900798FFF769FF0346002B0DD050
:10324400002305930798FFF77FFF069B0E4A1A4455
:10325400019B1A60009B029A1A6009E0069A029B7D
:1032640013440693079B01330793079B0B2BDDD96C
:10327400059B184609B05DF804FB00BF78150020D3
:1032840040DD040078DD0400740D002000B587B033
:10329400019000230493019B039303AA04AB1146FA
:1032A4001846FFF789FF0590059B002B01D00023EA
:1032B4000493049B184607B05DF804FB00B585B081
:1032C4000190174B1B7883F00103DBB2002B20D154
:1032D400019B002B1FD0002302930023039313E0D0
:1032E400029B104A1A44019B9A4203D10398FFF7A8
:1032F400ABFE0CE00398FFF7F7FE0246029B134473
:103304000293039B01330393039B0B2BE8D900BF68
:1033140002E000BF00E000BF05B05DF804FB00BFA1
:1033240078150020740D002000B585B00346009187
:10333400ADF80630BDF80630ADF80830009B0393B5
:1033440002AB1A46002144F20200FEF7DBFE00BF86
:1033540005B05DF804FB10B487B001900091019BA7
:10336400009A53E8004F104643E8000191F0000F23
:10337400F7D1059404900391059B184607B05DF8B6
:10338400044B704710B487B001900091019B009AE0
:1033940053E8004F44EA020043E8000191F0000FB3
:1033A400F6D1059404900391049B184607B05DF888
:1033B400044B704710B487B001900091019B009AB0
:1033C40053E8004F04EA020043E8000191F0000FC3
:1033D400F6D1059404900391059B184607B05DF857
:1033E400044B704710B487B001900091019B009A80
:1033F40053E8004F04EB020043E8000191F0000F92
:10340400F6D1059404900391049B184607B05DF827
:10341400044B704710B487B001900091019B009A4F
:1034240053E8004FA4EB020043E8000191F0000FC1
:10343400F6D1059404900391049B184607B05DF8F7
:10344400044B704700B583B0019001210198FFF748
:1034540099FF0346184603B05DF804FB00B583B03A
:10346400019000210198FFF7A5FF0346184603B019
:103474005DF804FB00B583B001900B468DF8033072
:10348400019B002B03D10849E820FFF74DFF019B66
:10349400DA689DF803300199898A01FB03F3134428
:1034A400184603B05DF804FB94DD040000B583B056
:1034B40001900091019B002B03D10849F520FFF7EF
:1034C40033FF009B019AD2689B1A019A928AB3FB3C
:1034D400F2F3DBB2184603B05DF804FB94DD04009C
:1034E40000B585B00190019B002B01D10E234DE066
:1034F400019B1B68002B03D12649FF20FFF714FF13
:10350400019B5B68002B04D122494FF48070FFF7C4
:103514000BFF019B9B68002B04D11E4940F2011054
:10352400FFF702FF019BDB68002B04D119494FF41C
:103534008170FFF7F9FE019B9B8A002B04D115498A
:1035440040F20310FFF7F0FE019B9B681A46019BB3
:103554005B68D31A8DF80F30019B1B68019A52687F
:103564001A6007E0019B1A681368591C11609DF8E2
:103574000F201A709DF80F305A1E8DF80F20002B63
:10358400F0D1019B1B6800221A710023184605B074
:103594005DF804FB94DD040000B585B00190019B47
:1035A400002B04D11C494FF49270FFF7BDFE002399
:1035B40003930020FFF7ECFC019B1B681A68019B36
:1035C4005B689A4220D9019B1B681A68013A1A6009
:1035D4001B681B7819460198FFF74CFF0390019B69
:1035E4009B681A46019B1B681B68D31A8DF80B3025
:1035F400019B1B681B799DF80B209A4204D9019BFF
:103604001B689DF80B201A710020FFF7D5FC039B63
:10361400184605B05DF804FB94DD040010B584B0D1
:1036240001900091019B002B04D1114940F24710F5
:10363400FFF77AFE009B002B04D10D494FF4A470D0
:10364400FFF772FE009B03930020FFF7A1FC019B90
:103654001B681C68621C1A6003990198FFF726FF17
:10366400034623700020FFF7A7FC00BF04B010BD81
:1036740094DD040000B583B00190019B002B03D1BD
:103684000C493120FFF750FE019B9B68002B0CD0A6
:10369400019B5B69019A1069019A1168019A926809
:1036A4009847019B00229A6000E000BF03B05DF8D8
:1036B40004FB00BFCCDD04000EB400B584B001905F
:1036C400019B002B03D118494220FFF72DFE019BDB
:1036D4005B69002B03D114494320FFF725FE019BAE
:1036E4001B68002B03D110494420FFF71DFE019BEA
:1036F4005B68002B03D10C494520FFF715FE059BA1
:10370400002B0AD00023039306AB039303AB1A46A2
:103714000599019800F0B0F900E000BF04B05DF82D
:1037240004EB03B0704700BFCCDD040000B583B0E8
:1037340001900B468DF80330019B1A68019B9B682E
:10374400581C0199886013449DF803201A70019B4A
:103754009A68019B5B689A4202D30198FFF78AFF3B
:1037640000BF03B05DF804FB00B587B0039002917D
:103774000192009300230593009B03F00103002BA7
:1037840024D00BE0029B01330293059B0133059384
:103794009DF8133019460398FFF7C8FF029B1B7866
:1037A4008DF813309DF81330002BEBD106E0019B0C
:1037B400013B019320210398FFF7B8FF019A059B71
:1037C4009A422ED9019B002BF1D12AE0029B002BB7
:1037D4000BD002983FF0DAFC059006E0019B013B18
:1037E400019320210398FFF7A1FF019A059B9A42B8
:1037F4000FD9019B002BF1D10BE0029B0133029303
:10380400059B013305939DF8133019460398FFF780
:103814008DFF029B1B788DF813309DF81330002B1D
:10382400EBD100BF07B05DF804FB000000B589B020
:103834000390029101920093029B07930123069344
:1038440007E0079A019BB2FBF3F30793069B01334E
:103854000693079A019B9A42F3D2009A069B9A42D6
:1038640001D9009B06930B9B03F00103002B22D18B
:103874000A9B002B1FD00B9B03F00203002B06D0E6
:10388400009B002B03D130238DF8173002E0202356
:103894008DF8173008E00A9B013B0A939DF8173016
:1038A40019460398FFF742FF0A9B002B03D0069AA0
:1038B4000A9B9A42EFD301230793009B012B03D960
:1038C400009B013B009309E0029A079BB2FBF3F3D0
:1038D4000493049A019B9A4200D205E0079B019A43
:1038E40002FB03F30793E8E7029A079BB2FBF3F3A7
:1038F4000493049B079A02FB03F3029AD31A0293DC
:10390400154A049B13441B7819460398FFF70EFFCE
:10391400079A019BB2FBF3F30793079B002BE3D1B8
:103924000B9B03F00103002B11D00A9B002B0ED03C
:1039340006E00A9B013B0A9320210398FFF7F6FE59
:103944000A9B002B03D0069A0A9B9A42F1D300BF2C
:1039540009B05DF804FB00BF34DE040000B589B093
:103964000590049103920293049B002BB8BF5B4221
:1039740006930123079307E0039B069A92FBF3F354
:103984000693079B01330793039B069A9A42F3DA43
:10399400029A079B9A4201D9029B07930A9B002B28
:1039A4000AD0049B002B04DB0B9B03F00403002BC5
:1039B40002D00A9B013B0A930B9B03F00203002BEA
:1039C40002D0029B002B16D00B9B03F00103002BAB
:1039D40011D10A9B002B0ED006E00A9B013B0A93EF
:1039E40020210598FFF7A2FE0A9B002B03D0079A1B
:1039F4000A9B9A42F1D3049B002B07DA049B5B4297
:103A040004932D210598FFF791FE08E00B9B03F02A
:103A14000403002B03D02B210598FFF787FE0B9B93
:103A240003F00203002B19D00B9B03F00103002BBE
:103A340014D1029B002B11D10A9B002B0ED006E05F
:103A44000A9B013B0A9330210598FFF76FFE0A9BFE
:103A5400002B03D0079A0A9B9A42F1D304990B9B3B
:103A640001930A9B0093029B039A0598FFF7DEFEDD
:103A740000BF09B05DF804FB00B58FB00590049158
:103A84000392059B002B04D1C8494FF49F70FFF7A4
:103A94004BFC059B5B69002B04D1C4494FF4A07017
:103AA400FFF742FC059B1B68002B04D1BF4940F281
:103AB4004110FFF739FC059B5B68002B04D1BB491F
:103AC4004FF4A170FFF730FC049B002B00F0ED8154
:103AD400049B1B788DF83730049B013304939DF8C5
:103AE4003730002B00F0D8819DF83730252B40F07B
:103AF400C78100230A9301230C93049B1B788DF840
:103B040037309DF837302D2B04D0302B0AD02B2B97
:103B140010D017E00A9B43F001030A93049B01337E
:103B2400049312E00A9B43F002030A93049B0133BB
:103B340004930AE00A9B43F004030A93049B0133B1
:103B4400049302E000230C9300BF0C9B002BD4D100
:103B5400002309939DF837302A2B0CD1039B1B6853
:103B6400191D039A11601B68099A13440993049B55
:103B7400013304931AE0049B1B788DF837309DF8C9
:103B840037302F2B12D99DF83730392B0ED8049BA0
:103B940001330493099A13469B0013445B001A46AD
:103BA4009DF837301344303B0993D3E700230B933C
:103BB400049B1B788DF837309DF837302E2B1DD1A0
:103BC400049B01330493049B1B788DF837309DF8D4
:103BD40037302F2B12D99DF83730392B0ED8049B50
:103BE400013304930B9A13469B0013445B001A465B
:103BF4009DF837301344303B0B93E4E7049B1B7868
:103C04008DF837309DF837306C2B03D09DF8373062
:103C1400682B07D1049B01330493049B1B788DF814
:103C24003730EFE79DF83730253B532B00F22381E3
:103C340001A252F823F000BF713E00007B3E000059
:103C44007B3E00007B3E00007B3E00007B3E00008C
:103C54007B3E00007B3E00007B3E00007B3E00007C
:103C64007B3E00007B3E00007B3E00007B3E00006C
:103C74007B3E00007B3E00007B3E00007B3E00005C
:103C84007B3E00007B3E00007B3E00007B3E00004C
:103C94007B3E00007B3E00007B3E00007B3E00003C
:103CA4007B3E00007B3E00007B3E00007B3E00002C
:103CB4007B3E00007B3E00007B3E00007B3E00001C
:103CC4007B3E00007B3E00007B3E00007B3E00000C
:103CD4007B3E00007B3E00007B3E00007B3E0000FC
:103CE4007B3E00007B3E00007B3E00007B3E0000EC
:103CF4007B3E00007B3E00007B3E00007B3E0000DC
:103D04007B3E0000FD3D00007B3E00007B3E00004A
:103D14007B3E00007B3E00007B3E00007B3E0000BB
:103D24007B3E00007B3E00007B3E00007B3E0000AB
:103D34008D3D0000B53D00007B3E00007B3E000051
:103D44007B3E00007B3E0000B53D00007B3E000052
:103D54007B3E00007B3E00007B3E00007B3E00007B
:103D64007B3E00003D3E00007B3E00007B3E0000A9
:103D7400213E00007B3E0000D93D00007B3E000058
:103D84007B3E0000FD3D0000039B1B68191D039A48
:103D940011601B680C930C9B8DF823309DF8233025
:103DA40019460598FFF7C2FC66E000BFFCDD04007D
:103DB400039B1B68191D039A11601B680C930A9BD3
:103DC4000193099B00930B9B0A220C990598FFF71A
:103DD400C5FD51E0039B1B68191D039A11601B6804
:103DE4000C930C990A9B0193099B00930B9B0A2249
:103DF4000598FFF71BFD3FE0039B1B68191D039A01
:103E040011601B680C930C990A9B0193099B009306
:103E14000B9B10220598FFF709FD2DE0039B1B68FF
:103E2400191D039A11601B6807930A9B099A079945
:103E34000598FFF799FC1FE0039B1B68191D039A63
:103E440011601B680C9330210598FFF76FFC7821F3
:103E54000598FFF76BFC0C9900230193082300934A
:103E6400082310220598FFF7E1FC05E025210598B9
:103E7400FFF75CFC00E000BF049B0133049305E002
:103E84009DF8373019460598FFF750FC049B1B78C2
:103E9400002B7FF41DAE00E000BF059B1B7B002BB5
:103EA40004D00598FFF7E6FB00E000BF0FB05DF813
:103EB40004FB00BF00B583B001900198FFF710FB2D
:103EC4000346184603B05DF804FB00B58BB00190BF
:103ED4000091019B9B8A043B0793009A079B134420
:103EE400DA1C079BB2FBF3F38DF81B300198FFF744
:103EF40053FB0590059B002B01D1002338E0059B63
:103F040000221A71059B01225A71079B9AB2059BE4
:103F1400DA80059B09939DF81B30013B0493099BB0
:103F2400019A1A60002308931DE00198FFF734FBFF
:103F34000390039B002B0ED0059B5B790133DAB20F
:103F4400059B5A71099B039A1A60039B019A1A6094
:103F5400039B099304E0059800F00EF8002307E0A2
:103F6400089B01330893089A049B9A42DDD3059B6E
:103F740018460BB05DF804FB00B58BB00190019BB3
:103F84000793079B5B798DF81B30019B08939DF881
:103F94001B30013B05930023099305E0089B1B6834
:103FA4000893099B01330993099A059B9A42F5D317
:103FB400089B1B680493019B0893002309930BE05F
:103FC400089B1B68039308990498FFF727FB039B3E
:103FD4000893099B013309939DF81B20099B9A427E
:103FE400EED800BF0BB05DF804FB00B585B00190BE
:103FF400019B0393039B043301211846FFF7F2F955
:1040040000BF05B05DF804FB00B587B00190019BCB
:104014000593059B043301211846FFF7FBF903467A
:10402400039303AB0493049B1B78002B02D10198E8
:10403400FFF7A2FF00BF07B05DF804FB00B58DB029
:104044000390029101920093039B0693069BDB88E5
:104054000593039B0B93009B1A1D059BB2FBF3F383
:104064000A93009B0433059AB3FBF2F2059901FB12
:1040740002F29B1A0993009A019B1A44059B13446C
:10408400DA1C059BB2FBF3F38DF81330069B5B79C6
:104094009DF813209A420AD92749BA20FFF744F918
:1040A40005E00B9B1B680B930A9B013B0A930A9B3D
:1040B400002BF6D100230893059A099BD31A079382
:1040C400079A019B934228BF134607932DE09DF85E
:1040D4003830002B0BD0029A089BD0180B9A099BFE
:1040E40013440433079A19463EF0A8FF0AE00B9ADA
:1040F400099B1344181D029A089B1344079A1946F6
:104104003EF09CFF002309930B9B1B680B93019AC1
:10411400079BD31A0193089A079B13440893059AA3
:10412400019B934228BF13460793019B002BCED1DA
:1041340000BF0DB05DF804FB44DE040000B587B099
:10414400059004910392029300230093029B039A27
:1041540004990598FFF772FF00BF07B05DF804FBF0
:1041640000B587B005900491039202930123009354
:10417400029B039A04990598FFF760FF00BF07B0FC
:104184005DF804FB00B585B00190019800F00EF8CD
:104194000390039B002B01D0039B00E0024B1846C5
:1041A40005B05DF804FB00BF8CDE040086B001900E
:1041B400164B0593164B04931FE0049A059BD31AE0
:1041C400DB10DA0F13445B10DB00059A13440393EE
:1041D400039B1B680293029A019B9A4202D9039B98
:1041E40004930AE0029A019B9A4203D2039B083388
:1041F400059302E0039B5B6804E0059A049B9A42E2
:10420400DBD30023184606B0704700BF60E2040009
:1042140078E3040044F2F073C058704700F58E4010
:10422400043007F09CB800F588403E30704744F2F3
:104234000F73F7B5C45C06460F4614BB00F5824500
:1042440005F53C7000F08EFB02A9FD2301F8083D42
:1042540006F58E403B68CDF8013004303B798DF88B
:1042640005308DF806408DF8074004F07EFA05F518
:10427400C67002F00DFC05F5F07002F05DFC2046FE
:1042840000E00D2003B0F0BD44F2387382B0C35C8B
:10429400002218078DF8042044BF01228DF8042061
:1042A400590742BF9DF8042042F002028DF8042011
:1042B4009A0742BF9DF8042042F004028DF80420BE
:1042C400DB0742BF9DF8043043F008038DF8043047
:1042D4009DF8040002B070470A4612F0010F0CBFAB
:1042E40000210821930744BF41F00403D9B25307C6
:1042F40048BF41F0020100F58E40130748BF41F06A
:104304000101043007F044B800F58640443003F05E
:10431400D2BE38B599B144F20F73C35C8BB900F5C2
:10432400824404F5117003F029FF054604F5C670B4
:1043340002F0AEFB04F5F07002F0FEFB02E007258C
:1043440000E00D25284638BD00F588402D30704723
:1043540038B544F20F73C35C7BB900F5824404F5AD
:104364003C7000F0E3FA054604F5C67002F090FBD9
:1043740004F5F07002F0E0FB00E00D25284638BD9E
:1043840044F25433C058704700F58640443003F07B
:10439400C0BF44F2B033C058704744F2B033C15088
:1043A400704700F58E40043005F02BBE00F58E40BA
:1043B4000430002105F0E1BD2AB121B100F58E40A1
:1043C400043009F034B80720704744F20F73C05C1E
:1043D400704721B100F58E40043004F0FABD072087
:1043E400704700F58E40043004F0D4BB38B50C4659
:1043F40000293AD000F58E40043007F0DBFB036857
:10440400236043686360038B2381038B9B12A37235
:1044140090F82430E37290F82530C3F383032373B8
:10442400837F637390F82530C3F301030546A373B8
:104434001EF056FAAB68227CC01A4FF47A73B0FBB4
:10444400F3F0E07395F82530C3F3801363F30002AF
:104454002274AB7E03F00703D91F4B424B41D2B207
:1044640063F341022274002038BD072038BD0000E8
:104474000048704778E3040000F5B44058300FF06A
:1044840043BA00F5B44058300FF042BA00F5B440D6
:1044940058300FF065BD69B144F22A43C25A4FF651
:1044A400FF739A420CD000F58E40043001210022A3
:1044B40006F08BBE00F58E400430012104F0E1B813
:1044C4000D20704713B502AA002402F8014D3830BC
:1044D4000621012300F073F808B18DF807409DF818
:1044E4000700003018BF012002B010BD07B502AAB2
:1044F400012302F8011D3830062100F0B0F803B0A2
:104504005DF804FB00F58E40043007F05CBF10B585
:1045140000F58E409DF8084002940430BDE8104038
:1045240005F0F2B908B511F0C7F9BDE808401DF06F
:1045340089BE08B511F0C0F9BDE808401DF08CBF74
:10454400437C10B504463BB911F0B6F9227C052131
:10455400BDE810401DF02ABF0D2010BD30B585B058
:1045640004AD1023044625F8023D11F0A5F9227C80
:104574000095052123461DF0A9FE20B9BDF80E3093
:104584000F2B98BF1720003018BF0120607405B0AE
:1045940030BD002202744274FFF7E0BF10B500235F
:1045A400044603744374FFF7F4FF204610BD427CB5
:1045B40022B9027C01320274FFF7D0BF7047F0B514
:1045C40085B004AC164624F8023D0F461D4611F092
:1045D40073F900943946002233461DF077FE20B962
:1045E400BDF80E30AB4238BF172005B0F0BD0A4607
:1045F40024230321FFF7E3BF0A4608230421FFF71E
:10460400DEBFF0B585B004AC164624F8023D0F4673
:104614001D4611F051F900943946002233461DF02D
:1046240055FE30B9BDF80E300A9AAB4228BF2B466E
:10463400138005B0F0BD1FB500290DF10E030093E2
:1046440014BF012102214FF480731446FFF7D9FFF0
:1046540018B9BDF80E30A4F8043104B010BD70B51B
:104664000E4615461C4611F027F931462A462346C4
:10467400BDE870401DF080BE002914BF0121022155
:10468400B2F80431FFF7EBBF0A4624230321FFF7F6
:10469400E6BF0A4608230421FFF7E1BF70B50E46C2
:1046A40015461C4611F008F931462A462346BDE852
:1046B40070401DF065BE0A4610230521FFF7EEBFCA
:1046C40010B50C4611F0F8F821464FF0FF32BDE862
:1046D40010401DF06BBE002914BF01210221FFF719
:1046E400EFBF0521FFF7ECBF08B511F033F8BDE8C3
:1046F400084011F091B838B50C4605461EF0F0F8A4
:10470400224601462846BDE8384011F0D1BE00BA21
:104714007047037A012B06D103884FF6FF701B1AEA
:10472400584258417047002070470B7810B5FF2B52
:1047340004BF0A230B700B7801330B700B781A2B10
:1047440006D8012204689A402242F5D0002010BD08
:10475400172010BD0378012B1ABF407800F0010028
:10476400184670470378022B1ABF4078C0F3400004
:1047740001207047F0B585B00D461446002110465F
:104784003C228DF80C103EF083FC002D36D02B68B3
:104794001B785B0701D006265DE001AF2846394649
:1047A40001F059FC0646002855D19DF80C30022B27
:1047B400F1D197E8030084E8030004F132012846AC
:1047C40001F012FC6B7984F83630AB7984F8373019
:1047D400EB7984F83830284601F0A3FE07462846D2
:1047E40001F074FE1D2F36D9028840F6FF739A42F9
:1047F40031D183787BBBC3786BBB01E007262AE009
:104804000379032B27D1427994F83930121162F3DA
:10481400030384F83930427962F3451384F839305C
:10482400437994F83920C3F3C00363F3041284F882
:104834003920831D04F10802163053F8041B42F892
:10484400041B8342F9D1197811701A68C4F819202D
:104854005A68C4F81D20304605B0F0BD01467231D7
:104864006C30FFF762BF7F2907B509D090F872302A
:104874008DF804308DF80510836F406F01A99847B7
:1048840003B05DF804FB10B5044611F015F81EF0F2
:10489400C9FA7F2807D094F973307F2B01D098424E
:1048A40001DD84F8730010BD436E8B4201D08A6829
:1048B40002B1FEE70BB9016600E099604166002091
:1048C400704770B50C464D1ECE1DB54204D01EF087
:1048D4003BFD05F8010FF8E7237823F0010343F0CB
:1048E4000203237070BD37B5044601F108050DF1CC
:1048F400FF3315F8012D03F8012F8D42F9D120461D
:1049040010F0DAFF69461EF0EAF92868696804F1D4
:10491400300303C303B030BD10B50C46018710F05B
:10492400CBFF21461EF0DEF9002010BD38B5054648
:1049340008460C463EF02AFC102807D805F13D0035
:10494400214611223EF09AFA002038BD072038BDD6
:1049540010B50446418710F0AFFF618F1EF0B3F924
:10496400002010BD0B68C0F84E304B68C0F85230C0
:1049740000207047F8B543783E4A002503F08003D1
:10498400044665F3C71305704370234604300F468D
:1049940011F0BEFC384BE36004F10C036361374B48
:1049A400A36104F118032362354B636204F1240309
:1049B400E3624FF6FE7323870B264FF6FF7363877C
:1049C40084F83C602561E561A562A565E565256619
:1049D40065661EF0B9FC84F868001EF0B5FC7F2300
:1049E40084F8733084F8690084F8726084F86A503B
:1049F40084F86B50E566A4F870506567A567E567B1
:104A0400C4F8805004F1840001F01AF938461EF00D
:104A140005FA04F13006C4F8C80131462046C4F84A
:104A2400CC51C4F85052A4F85452A4F85652FFF78B
:104A340048FF8022294604F5E8703EF029FB204611
:104A440010F03AFF1EF0A4F920460E49FFF78AFF42
:104A540020460D49FFF76AFF618F2046FFF778FF74
:104A640020463146FFF73FFF2046218FFFF754FFD2
:104A74002046F8BD37580000D35800006B5800009A
:104A840029580000C5E30400E5E3040001390529C1
:104A94001CD8DFE801F003070B0F1317437843F02A
:104AA400010312E0437843F002030EE0437843F03D
:104AB40004030AE0437843F0080306E0437843F034
:104AC400200302E0437843F010034370037813B9E2
:104AD400043011F046BC704730B5039DA0F8703027
:104AE400002A08BF4FF0FF32FF23456780F8723079
:104AF400C266BDE83040FFF7C9BF2DE9F341054662
:104B04000F4616469846FFF725FE20B92846FFF7BC
:104B140029FE044608B105200FE0089B0093002EEF
:104B24002846C5F878804FF001013A4614BF334651
:104B34004FF49673FFF7D0FF204602B0BDE8F08132
:104B44002DE9F34105460F4616469846FFF702FE47
:104B540020B92846FFF706FE044608B105200AE0FE
:104B6400089B00932846C5F8788002213A463346CC
:104B7400FFF7B2FF204602B0BDE8F08108B5C36D6F
:104B84008B420CD08A6852B9826D0AB9816500E003
:104B94009960C1650421FFF779FF002008BD182042
:104BA40008BD30B5039800240D5D05550134082C6B
:104BB400FAD1110E0172110C4172110A8172C27282
:104BC400037330BD10B500220C46084640F60301BD
:104BD40001F092FB20464FF6FF7101F089F920465F
:104BE4004FF6FF7101F0B3F920460721BDE81040EC
:104BF40001F05DBC2DE9F743054600220E46084648
:104C04004FF4404101F078FB698F304601F0FEF922
:104C140005F13001304601F061FA304601F056FCEE
:104C24004FF0FF3303700F2200238370C370427070
:104C34000446284610F049FE90F8B8321B0732D5D6
:104C44000323237120236371284610F03EFE0DF1E7
:104C5400070100F5047003F001FA9DF80720637959
:104C640012B143F0010301E023F0010305F13D0714
:104C74006371102138463EF022F904F1060881469A
:104C84000021102240463EF003FA394640464A4687
:104C94003EF0D4F955F84E3FC4F816306B68C4F8AA
:104CA4001A301E2100E00421304601F047FC03B015
:104CB400BDE8F0832DE9F043E3B00C46064610F05E
:104CC40004FE0023054609A8049311F07BFF236822
:104CD4001B78190740F1A68020460DF10E0101F062
:104CE40062FA9DF80E30082B15D0102B2DD0002B16
:104CF40042D1637A5A0705F5297706F130083CD486
:104D04002046D5F8B41201F078FAD5F8B43201335C
:104D1400C5F8B43231E0637A5B0705F5057905F52A
:104D24000E7706F1300828D4D5F86812204601F031
:104D340064FA484603F093FAD5F8241201F07F018F
:104D44002046013101F0A1FA17E0394BD6F8501290
:104D5400186805900131C6F85012204601F04DFA4A
:104D6400204605A901F067FA2046FF2101F08DFADB
:104D7400DFF8C4802F4F00E0FEE70DF10D0120465F
:104D840001F001FA05AD04A9204601F01CFA9DF8D2
:104D94000D30049A009530464146FFF702FF39462C
:104DA400102209A811F05BFD204601F081FA0238B7
:104DB4008DF80F00204601F09FFB0646204601F0C7
:104DC400B0FB0D21024601919DF80F30009509A812
:104DD400314611F04BFD00B1FEE72046256801F095
:104DE4008BFB2946024609A811F0FAFD204601F082
:104DF4006DFB0646204601F069FB0546204601F09E
:104E040090FB012203463146009209A82A4611F07C
:104E140027FE204601F0A0FB0DF10F02014609A870
:104E240011F0A6FE09A811F0DEFE63B0BDE8F08320
:104E3400C1E30400D5E30400CDE304000378062BAA
:104E44000CBFD0F8CC01D0F8C80100B9FEE7704718
:104E540010B50B681B789A0604460AD510F02CFD91
:104E64001DF0E2FFC30704D404F10C001021FFF786
:104E740042FC10BD4AF24C63C35C23B100F5874089
:104E84007030FFF7E5BF704710B50C4610F014FD05
:104E94002146BDE810401DF0ABBF10B50C4610F024
:104EA4000BFD2146BDE810401DF08CBF08B510F085
:104EB40003FDBDE808401DF075BF037810B5044636
:104EC400C3B943785B0609D4C26A00F124039A4249
:104ED40004D110F0F1FC1DF0A9FF30B1204694F884
:104EE4003C10BDE81040FFF7D8BF2046FFF7DEFFB7
:104EF4000D28F3D010BDA1F10B020F2A08B505D877
:104F040080F83C10FFF7D9FF002008BD072008BD3A
:104F14002DE9F04FE9B00D461F469346824610F046
:104F2400D4FC80460FA811F04DFE6B7A6FF300039A
:104F34006B722B681B7803F0080303F0FF06002B49
:104F440000F0D88005A9284601F01DF906A92846D5
:104F540001F039F928460DF1150101F024F99DF805
:104F64001540082C08F5057908D0102C46D0002CE3
:104F740040F0BD8018F5297C3ED1B8E0002F00F048
:104F8400B68028460DF1170101F06BF99DF8173032
:104F9400D8F82442013BDBB204F07F0293428DF83F
:104FA400173002D108F50E7C16E0661E06F07F026B
:104FB400934206D14846314603F040F934468446CC
:104FC4000AE0013404F07F02934240F090804846A6
:104FD400214603F033F98446BB7E03F00703072B15
:104FE4000AD17B699C42C0F0828005D1069BFA6895
:104FF400013393427BD37CD0594603E04149DFF827
:1050040008C1002407AE9DF81430069A0096504655
:10501400CDF80CC0FFF7C5FD284601F049F9DDF8CD
:105024000CC00238614610228DF816000FA811F04A
:1050340016FC284601F060FA8246284601F071FA0F
:105044000D210246009601919DF816300FA8514695
:1050540011F00CFC0646002849D12846D5F800A0DA
:1050640001F04AFA514602460FA811F0B9FC28464D
:1050740001F02CFA8346284601F028FA8246284695
:1050840001F04FFA5946034652460FA8009611F014
:10509400E7FC0BA90DF116020FA811F069FD2846D3
:1050A40001F05AFA9DF8162001460BA83DF03CFE8B
:1050B400E8B99DF81530082B14D1BB7E03F0070323
:1050C400072B0FD17B69A34201D07C613E61069B13
:1050D4000133FB60D8F824329C4203D94846214668
:1050E40003F017F96B7A43F001036B7202E00826B0
:1050F40000E01D260FA811F076FD304669B0BDE82A
:10510400F08F00BFCDE30400D5E3040013B50446DB
:1051140008460DF1070101F0A0F99DF80730042BB2
:105124000ED0072B12D1D4F824320133C4F8243220
:105134006378DB0911D020460321FFF7A7FC0CE0BC
:10514400D4F81C320133C4F81C3204E0D4F82832F9
:105154000133C4F82832002000E0022002B010BD60
:10516400C167C0F88020704708B510F0A5FBBDE802
:1051740008401DF05BBE38B50D46044610F09CFB9C
:1051840029461DF055FE2046BDE83840FFF795BE80
:1051940008B510F091FB1DF047FE10F00C0F14BF82
:1051A4000120002008BD08B510F086FB1DF03CFE70
:1051B400C0F3800008BD38B50446D0F828020D4677
:1051C400FFF7A5FAD4F83832C5F80200D4F83C0247
:1051D4001844D4F840321844D4F844321844D4F86B
:1051E40048320344D4F84C021844FFF790FAC5F847
:1051F4000600D4F80002FFF78AFAC5F80A00D4F8CA
:105204001002FFF784FAC5F80E00D4F81402FFF771
:105214007EFAD4F82C32C5F81200D4F830020344D4
:10522400D4F834021844FFF772FAC5F81600D4F81B
:10523400D401FFF76CFAC5F81A00D4F8D801FFF7C7
:1052440066FAC5F81E00D4F80802FFF760FAC5F83C
:10525400220038BD00F5E870002180223DF018BF1F
:1052640008B510F029FBBDE808401DF0C1BF2DE9C9
:10527400F04F00F10C0B85B01D460446002658463D
:105284000F4692468DF80C6011F0D6F80B2D07D01E
:1052940001D86DB11EE00E2D0AD00F2D06D019E0F5
:1052A400D4F804320133C4F8043222E0314600E079
:1052B4000121B4F85632B3F5007F3CBF0133A4F8A2
:1052C400563204F51570B4F8562203F074F80F2D15
:1052D4000FD100E0FEE7D4F800320133C4F8003205
:1052E4002046FFF755FF20B994F86A30032B40F2AB
:1052F400DA80002601A984F86A60384600F007FEC7
:10530400204610F0E2FA01A900F2D45007F08DFD16
:105314003B6893F800808146C8F3401868B1B8F13F
:10532400000F0AD01DB10E2D07D1314600E0012136
:1053340009F12000802203F03EF894F86B30013329
:1053440084F86B3025B9002684F86B6085B12BE0B6
:105354002046FFF728FF0028F5D194F86B203B7A0C
:105364009A42F0D2D4F8FC310133C4F8FC319DE008
:10537400B8F1000F15D0BAF1000F14D0DAF80030EC
:105384001E78C6F30016B9F1000F0DD02046FFF7C2
:1053940067FF9AF90620014609F11C0003F0AEF8F4
:1053A40002E0464600E02E46D4F8D0310F2D03F13A
:1053B4000103C4F8D03102BFD4F808320133C4F871
:1053C400083201A8FFF7A5F928B1D4F8D831013380
:1053D400C4F8D83104E0D4F8D4310133C4F8D4315A
:1053E400B8F1000F0BD0D4F8DC310133C4F8DC3150
:1053F40055B9D4F8E0310133C4F8E03104E0D4F80D
:10540400E4310133C4F8E4312378013B052B49D856
:10541400DFE803F003480E144841D4F8F431B4F83B
:1054240070100133C4F8F4315846FFF764F940E0D2
:10543400D4F8F0310133C4F8F0312FE0384601F0EC
:105444001CF878B146B104F124006421FFF753F944
:1054540020460521FFF71AFBD4F8EC310133C4F8D8
:10546400EC3104E0D4F8E8310133C4F8E831A06D3C
:105474008368A36503B9E365002383607B7A5B07D4
:105484005EBF94F86930013384F869304368394663
:105494002A46984702E00023C4F8CC31204600F0A5
:1054A40025F906E0FEE7013384F86A30204600F06F
:1054B40073F805B0BDE8F08F70B50546FFF7BEFC84
:1054C400437A43F008034372B5F86A300446002B6C
:1054D40040D12B78013B052B37D8DFE803F00336A6
:1054E4001526363B284610F0E7F94FF6FF711DF0FC
:1054F400EAFB95F87230637128462146FFF762FB98
:10550400236800229A700DE095F83C3043712146DF
:105514002846FFF76FFB95F868305A1C85F8682019
:10552400226893700423237210E095F83C30437191
:10553400A86D21460368984728BB637A5B0705D4A6
:10554400236895F869209A7000E0FEE72846214612
:10555400FFF7B0FB28466179FFF79FFC00B1FEE737
:1055640028462146FFF790FC00B1FEE7EB6F93B1AC
:10557400637A43F002036372EB6FD5F88010204620
:10558400BDE8704018472846214600220B23BDE899
:105594007040FFF76CBE70BD38B50446FFF7F8FDE8
:1055A40020B12046BDE83840FFF786BF94F86A3042
:1055B40094F86B501D4403351DF0C6FE052D28BF1D
:1055C40005250123AB40B0FBF3F202FB1300637823
:1055D4004FF4A0755B0605FB00F514D4204610F0CB
:1055E4006BF91DF023FC70B92046FFF75FFC0D2812
:1055F40009D01DF086F92A46014604F11800BDE8D9
:10560400384010F093BF2378013B012B03D8204688
:1056140094F8721002E094F83C102046FFF73DFC29
:10562400E7E710B50446FFF719F920B92046BDE8AD
:105634001040FFF7B1BF204610F03EF9618F1DF016
:1056440042FB606FA36F002198472046BDE81040DD
:1056540000F04CB8017830B50246002945D14378B2
:10566400C3F3401454B161F345134370052303702D
:1056740090F83C10BDE83040FFF70FBCC3F30011B5
:1056840021B164F30413437006231EE013F00105F3
:1056940008D061F30003437001230370BDE8304078
:1056A400FFF7BFBFC3F3400444B165F34103437044
:1056B40002230370BDE8304000F01CB8C3F380013E
:1056C40041B164F38203437003231370BDE8304097
:1056D400FFF762BF1C0704D561F3C30343700423BF
:1056E400F3E7BDE83040FFF7E8BB30BD00220270AD
:1056F400FFF7B0BF10B50446FFF7B0F8002842D159
:10570400B4F870309BB994F872102046FFF7C5FBCB
:10571400204610F0D1F81DF085FB01462046FFF726
:10572400A2F82046FFF79AF80028ECD02BE0204698
:1057340010F0C2F81DF078FB10F0020F204619D1CA
:1057440094F87210FFF7A9FB7F2384F87330B4F840
:10575400701004F10C00FEF7CEFF1DF0D2F8802289
:10576400014604F1180010F0E1FE2046BDE81040A7
:10577400FFF789B810F0A0F894F87210B4F870200C
:105784001DF098FB40B1606FA36F0021984720463D
:10579400BDE81040FFF7AABF10BD10B50446FFF7DF
:1057A40062F82046BDE81040FFF7A4BF4AF24C63FC
:1057B400C35C23B100F587407030FFF7EEBF70473C
:1057C40010B54378C3F380128A42044615D061F3BE
:1057D4008613437061B1DBB26FF3451343700378F2
:1057E400052B05D1243010F027FE2046FFF77EFF5D
:1057F4002046BDE81040FFF760BB10BD0378052BC1
:1058040010B504460AD1FFF771FF246E2CB163680A
:105814000BB120469847A468F8E710BDBDE81040D6
:10582400FFF74BBB08B5FEF75FFFBDE80840FFF785
:10583400E5BF08B5FEF758FFBDE80840FFF70ABF0B
:105844000378022B10B5044609D1FFF71CF804F1C4
:105854001800E1698022BDE8104010F067BEBDE881
:105864001040FFF729BE08B5FEF73EFFBDE808402B
:10587400FFF7E6BF10B54AF24C64045D34B100F59D
:1058840087407030BDE81040FFF7F1BC10BD0378CD
:10589400022B10B5044607D0042B0FD0012B15D1D1
:1058A400BDE81040FFF7BDBE183010F051FE204691
:1058B40094F97310BDE81040FFF76FBFD0F8C8111A
:1058C40000220E23BDE81040FFF7D1BCFEE708B567
:1058D400FEF70AFFBDE80840FFF7D9BF2DE9F04104
:1058E40088B000238DF810308DF81C307F238DF89C
:1058F4000530D0F80C32013304460D46C0F80C32A2
:105904001646002A40F01B81002900F082814B7A60
:1059140062F300034B72C36F43B14B7A62F34103EA
:105924004B72C36F0846D4F880109847284600F09D
:1059340081FD0646002840F0028102A9284600F0B5
:105944008AFB05A9284600F0E2FA20460FF0BDFFC5
:1059540002A900F2D45007F068FA9DF81C30012B1C
:10596400074602D0022B1FD031E028460DF1060174
:1059740000F0ACFABDF806304FF6FF72934203D044
:10598400628F9A4240F00F816378580605D505A8C6
:10599400FEF7BFFE002840F04281BDF81420238F9B
:1059A4009A4240F0008110E128460DF1060100F012
:1059B4008DFABDF80620638F9A4240F0F48005A862
:1059C40004F1300100F047FA002800F0EC809DF863
:1059D4001030012B02D0022B0AD021E0002F00F05E
:1059E4001C813868796802AB03C302238DF8103038
:1059F40002A804F1300100F02EFA002840F00B81D7
:105A040004F1840002A90DF1050200F004FA06462F
:105A1400002840F094809DF805307F2B18BFAB71AF
:105A240005A8FEF776FE28B1D4F814320133C4F881
:105A3400143204E0D4F810320133C4F81032204692
:105A4400294602AA3B46FFF763FA064628B11D28F9
:105A540073D12378052B72D141E027B39DF905302A
:105A64007F2B07F11C0802D0404602F007FD2046B8
:105A7400FFF7F6FB95F906200146404602F03EFD8D
:105A84002B681B781A070ED5BB7E03F00703062B81
:105A940003D008D8012B40F0C080284600F0EDFC6C
:105AA40008B902264BE02378022B11D0052B18D01D
:105AB400012B21D12B681B785B0709D1D4F8203244
:105AC400606F0133C4F820322946A36F984734E04D
:105AD40094F8722094F83C309A4229D10CE0002FBB
