:100000000000042059020000B1020000B302000009
:10001000B5020000B7020000B902000000000000B5
:10002000000000000000000000000000BB02000013
:10003000BD02000000000000BF020000C10200007D
:100040003D3C000025B7020051A10200CB02000098
:10005000CD020000CF0200004D460000D302000098
:10006000D5020000D7020000D9020000DB02000028
:10007000DD020000019E0200E1020000E302000038
:10008000E5020000AD260000E9020000EB020000DE
:10009000ED260000EF020000F1020000F302000074
:1000A000F5020000F7020000F9020000FB02000068
:1000B000FD020000FF020000C3020000C3020000B6
:1000C0000103000003030000050300000703000014
:1000D000759602000B0300000D0300000F030000E3
:1000E00011030000130300001503000017030000B4
:0800F000C30200001903000027
:1000F800364937480A1A02D0072291438D463549B6
:1001080035480A1A06D00722914381F3098802224A
:1001180082F3148831483249324A00F045F83248AF
:100128003249334A00F040F832483349334A00F044
:100138003BF833483349344A00F036F833483449F9
:10014800344A00F031F834483449354A00F02CF884
:1001580034483549354A00F027F8354835490022F2
:1001680000F02DF834483549002200F028F83448CA
:100178003449091A082903DB0022026004300160AF
:10018800314A90471F482049884205D00268043008
:1001980003B4904703BCF7E700208646EC460020EE
:1001A80000212A4A9047FEE7884207D0521A05D014
:1001B800037801300B700131013AF9D17047884258
:1001C80002D002700130FAE77047000000000420F6
:1001D80000E0032000000420000004200C4F04006D
:1001E80030000020FC0000201C0300001C0300005D
:1001F800D8C003000C4F040030000020300000205D
:1002080028C1030028C1030028C1030028C1030036
:1002180028C1030028C1030028C1030028C1030026
:100228000C4F0400D84F0400FC000020FC00002004
:10023800FC00002038E4002038E400203CE40020E2
:100248003CE400203CE600207D0200003557000019
:100258000F484FF00701884385460E4880470E48EF
:10026800016841F470010160BFF34F8FBFF36F8FD6
:10027800FFF73EBF09480A490A4A884207D0521A7E
:1002880005D0037801300B700131013AF9D170477C
:1002980000000420215B000088ED00E0F8C00300A6
:1002A8000000002030000020FEE7FEE7FEE7FEE742
:1002B800FEE7FEE7FEE7FEE7FEE7FEE7FEE7FEE70E
:1002C800FEE7FEE7FEE7FEE7FEE7FEE7FEE7FEE7FE
:1002D800FEE7FEE7FEE7FEE7FEE7FEE7FEE7FEE7EE
:1002E800FEE7FEE7FEE7FEE7FEE7FEE7FEE7FEE7DE
:1002F800FEE7FEE7FEE7FEE7FEE7FEE7FEE7FEE7CE
:10030800FEE7FEE7FEE7FEE7FEE7FEE7FEE7FEE7BD
:04031800FEE700BF3D
:10031C000048704730E40020FEE708B505F0D8FB34
:10032C0000BF08BD00B589B0039002910192019BFA
:10033C00002B22D0002307930A230693029A079BD3
:10034C001344019A1946002005F00EFB0590079AFC
:10035C00059B13440793019A059BD31A0193059BA4
:10036C00002B05D1069B013B0693069B002B03D06B
:10037C00019B002BE2D100E000BF00BF09B05DF88B
:10038C0004FB000000B585B003900291054B00936F
:10039C004023054A0299039800F012F800BF05B0FB
:1003AC005DF804FB31030000FC00002082B00190DA
:1003BC0000BF02B0704782B0019000BF02B070471E
:1003CC0000B5A1B00590049103920293049803F038
:1003DC00A2F8039B1593029B1693002317930023FB
:1003EC008DF8603000231993229B1A9300231F93DE
:1003FC000FA91F9B0822049803F048F908231F93A8
:10040C00119B1293109B9BB2ADF84C3000238DF8CE
:10041C0050309DF83C3003F00303DBB2012B32D19A
:10042C000F9BC3F395231D939DF83C30C3F3C2037C
:10043C00DBB28DF84E309DF83C30C3F38003DBB259
:10044C00002B14BF01230023DBB28DF84F30BDF815
:10045C003C30C3F38313DBB21C931C9B9A0009A999
:10046C001F9B049803F012F91C9B9B001F9A1344CA
:10047C001F9312AA09A915AB009313461C9A1D9839
:10048C0000F052FE3BE09DF83C3003F00303DBB27E
:10049C00022B34D1BDF83E30C3F389139BB21E93AB
:1004AC009DF83C30C3F3C203DBB28DF84E309DF89F
:1004BC003C30C3F38003DBB2002B14BF01230023B9
:1004CC00DBB28DF84F301E9B082B28BF08231B93E3
:1004DC0007A91F9B1B9A049803F0D8F81F9A1B9B23
:1004EC0013441F931E9A1B9BD31A1E9315AB12AA6F
:1004FC0007A81B9900F0BAFE1E9B002BE3D10498B1
:10050C0003F018F800BF21B05DF804FB82B0019035
:10051C00019B01225A7200BF02B0704700B583B034
:10052C004FF0FF330193FFF7F8FE0421084800F069
:10053C0035FD0190019B002B03DA0649412002F0A6
:10054C00ECF90348FFF7E2FF00BF03B05DF804FBD2
:10055C003000002034C1030000B583B0019000913D
:10056C00019B1B681B6800990198984700BF03B05A
:10057C005DF804FB00B583B00190019B1B685B68C0
:10058C000198984700BF03B05DF804FB82B001905E
:10059C000B468DF80330019B9DF803201A7200BFA7
:1005AC0002B0704782B00190019B1B7A184602B0D2
:1005BC00704782B00190019B01225A7200BF02B0B9
:1005CC00704782B00190019B5B7A184602B070476D
:1005DC0010B487B001900091019B009A53E8004F32
:1005EC0044EA020043E8000191F0000FF6D10594B3
:1005FC0004900391049B184607B05DF8044B7047B8
:10060C0010B487B001900091019B009A53E8004F01
:10061C0004EA020043E8000191F0000FF6D10594C2
:10062C0004900391059B184607B05DF8044B704786
:10063C0000B583B0019001210198FFF7C9FF034673
:10064C00184603B05DF804FB00B583B0019000219F
:10065C000198FFF7D5FF0346184603B05DF804FB7D
:10066C0000B587B001901F4BFF229A601D4B0022F2
:10067C001A601C4B00225A601A4B0022C3F8182433
:10068C00184B0022C3F81424164B002283F81C24A8
:10069C00154802F0A5FE0490049B002B01D0049B8E
:1006AC001CE0124A124BD31ADB0803930023059368
:1006BC000FE0059A13465B0013449B001A460D4B42
:1006CC0013440293059B9AB2029B1A80059B01333B
:1006DC000593059A039B9A42EBD30023184607B067
:1006EC005DF804FB0C02002088C10300F8C0030075
:1006FC00D8C0030000000020024A034BD31ADB08C9
:10070C0018467047F8C00300D8C0030000B587B086
:10071C0001900B468DF803309DF80330002B23D04D
:10072C00FFF7EAFF04900023059317E0059A1346A0
:10073C005B0013449B001A460E4B13440393039B1C
:10074C005B881A46019B1B689A4204D1019B059A4F
:10075C001A60002309E0059B01330593059A049B5D
:10076C009A42E3D3052300E00023184607B05DF856
:10077C0004FB00BF0000002000B585B001900B46C3
:10078C008DF803309DF8032001AB11461846FFF796
:10079C00BDFF0346002B07D1019BDB00054A134428
:1007AC000393039B1B6800E00023184605B05DF81B
:1007BC0004FB00BFD8C0030084B001900B468DF839
:1007CC000330019BDB00174A134402939DF803305E
:1007DC00013B032B1CD801A252F823F0F9070000AF
:1007EC0001080000090800001308000000238DF820
:1007FC000F3011E000238DF80F300DE0029B1B79B8
:10080C008DF80F3008E0029B5B798DF80F3003E018
:10081C0000238DF80F3000BF9DF80F30184604B040
:10082C00704700BFD8C0030000B589B04148FFF73E
:10083C00FFFE4148FFF7FCFE404B5B6807933F4BC4
:10084C009B680493079A049B134002339B003B4A1A
:10085C001344043306931BE0079B01330793069B59
:10086C005B88C3F389139BB21A46069B1B88C3F3A0
:10087C0089139BB213441A46079B13440793079A98
:10088C00049B134002339B002C4A134404330693FD
:10089C00069B1B7803F00303DBB2002BDCD0002398
:1008AC00059311E0059B9B006A461A44079B591C53
:1008BC00079104990B40214902339B000B445B6860
:1008CC001360059B01330593059B012BEAD99DF819
:1008DC000030C3F30103DBB2012B0CD0022B14D17B
:1008EC00BDF80230C3F389139BB203339B08079AFC
:1008FC00134407930FE0BDF80030C3F38313DBB24E
:10090C001A46079B1344079305E00D4940F24D101E
:10091C0002F003F800BF0848FFF796FE0390039B14
:10092C00002B02D0054A079B536000BF09B05DF84D
:10093C0004FB00BF24060020200600200C0200202F
:10094C00ACC1030010B586B00390029101920093E4
:10095C00009B5A1C0092089A134002339B00294AB0
:10096C00134404330593059A1378012161F30103B1
:10097C001370039B03F01003002B14BF01230023FF
:10098C00D9B2059A137861F382031370039BDBB21F
:10099C0003F00703D9B2059A137861F3C5031370FA
:1009AC00019BDBB203F00F03D9B2059A138861F3F4
:1009BC0089131380029BC3F31501059A136861F325
:1009CC009F231360039B1B0CADF81230BDF8124033
:1009DC00FFF792FE03469C4204D30B4940F2691088
:1009EC0001F09BFF009B5A1C0092089A1340BDF823
:1009FC001220044902339B000B445A60009B18469A
:100A0C0006B010BD0C020020ACC1030000B589B0CB
:100A1C0001900091019B023306930223059301235D
:100A2C008DF81330002001F031FF194B1A68009B30
:100A3C001A60174B9A68164B5968154B1B68CB1AE2
:100A4C00134401330793069A059B134403930BE05D
:100A5C00FFF7EAFE0E4B9A680D4B59680C4B1B685E
:100A6C00CB1A134401330793039A079B9A42EFD88E
:100A7C00074B1A68069B1344054A1360002001F0CB
:100A8C0019FF9DF81330184609B05DF804FB00BF40
:100A9C000C02002000B58BB00590049103920293D8
:100AAC001E4B9B68089307AB19460298FFF7AEFFE5
:100ABC000346002B23D0079A089B00931346029AF7
:100ACC0004990598FFF73EFF03460793002309930B
:100ADC0011E0079B5A1C0792089A1340099A92003E
:100AEC0003990A4412680D4902339B000B445A6067
:100AFC00099B01330993099A029B9A42E9D3074B4C
:100B0C0093F81C34002B05D000BF00F063F80346AB
:100B1C00002BFAD100BF0BB05DF804FB0C020020D7
:100B2C0000B583B001900091002300220099019838
:100B3C00FFF7B0FF00BF03B05DF804FB00B587B052
:100B4C00039002910192019B059305AA012302993E
:100B5C000398FFF79FFF00BF07B05DF804FB00B5DB
:100B6C0087B00390029101920093019B0493009B28
:100B7C00059304AA022302990398FFF78BFF00BF89
:100B8C0007B05DF804FB00B589B0039002910192A7
:100B9C000093019B0493009B05930A9B06930B9B6C
:100BAC00079304AA042302990398FFF773FF00BF6D
:100BBC0009B05DF804FB0000054B5A68044B1B6838
:100BCC009A420CBF01230023DBB21846704700BFCA
:100BDC000C02002000B597B0FFF7EEFF0346002B88
:100BEC0001D000239FE19D4B0022C3F81824BFF3D2
:100BFC004F8F9A4B5B681593984B9B680E93159A85
:100C0C000E9B134002339B00944A134404331493F9
:100C1C00002313930023129300230D931BE0159BC9
:100C2C0001331593149B5B88C3F389139BB21A464B
:100C3C00149B1B88C3F389139BB213441A46159B50
:100C4C0013441593159A0E9B134002339B00834A51
:100C5C00134404331493149B1B7803F00303DBB28B
:100C6C00002BDCD00023119311E0119B9B006A46F2
:100C7C001A44159B591C15910E990B407749023358
:100C8C009B000B445B681360119B01331193119B08
:100C9C00012BEAD99DF8003003F00303DBB2022BE1
:100CAC0040F09C80BDF80230C3F389139BB20C93C7
:100CBC00BDF80230C3F389139BB2502BA8BF50234D
:100CCC000B930B9B9BB2C3F309039AB2BDF8023092
:100CDC0062F38F13ADF802300B9B08330A939DF827
:100CEC000030C3F3C203DBB20D930A995C4802F0E7
:100CFC0082FB1390139B002B00F0D480139802F00E
:100D0C000AFC6946129B0822139802F0ADFC129B58
:100D1C0008331293159BDA430E9B134001339B004F
:100D2C0009930B9A099B9A4242D9099B002B08D034
:100D3C00159A0E9B134002339B00484A134404330C
:100D4C0000E0484B0893099B002B02D0099BDBB2B7
:100D5C0001E00B9BDBB28DF81F30099B002B01D0FF
:100D6C00404B00E000230693099B002B06D00B9B05
:100D7C00DAB2099BDBB2D31ADBB200E000238DF8A8
:100D8C0017309DF81F20129B0899139802F06CFCE9
:100D9C009DF81F30129A13441293069B002B16D009
:100DAC009DF81720129B0699139802F05DFC0EE03B
:100DBC00159A0E9B134002339B00284A13440433AC
:100DCC000493129B0B9A0499139802F04DFC0C9B04
:100DDC0003339B08159A1344159363E09DF8003078
:100DEC0003F00303DBB2012B5CD1BDF80030C3F37D
:100DFC008313DBB2062B28BF0623DBB203F00F03F1
:100E0C00DAB2BDF8003062F38913ADF80030BDF8EA
:100E1C000030C3F38313DBB2023303939DF800302D
:100E2C00C3F3C203DBB20D93039B9B0019460C4822
:100E3C0002F0E1FA1390139B002B33D0139802F0BD
:100E4C006AFB6946129B0822139802F00DFC129B58
:100E5C0008331293002311931BE000BF0C020020F7
:100E6C0088C1030018020020159B5A1C15920E9A7B
:100E7C00134002339B002E4A1344191D129B04226B
:100E8C00139802F0F1FB129B04331293119B013364
:100E9C001193BDF80030C3F38313DBB21A46119BD8
:100EAC009A42E1D8139B002B37D0214BD3F8103446
:100EBC0010931F4BD3F81834002B1AD0139802F050
:100ECC0039FB2AE000238DF83F301098FFF779FBAF
:100EDC000346002B02D001238DF83F309DF83F30A4
:100EEC00002B03D013991098FFF736FB109B5B680F
:100EFC001093109B002BE5D1139802F01BFB0020E4
:100F0C0001F0C4FC0A4BD3F81834002B02D1084A68
:100F1C00159B5360002001F0CDFCFFF74DFE0346FE
:100F2C0083F00103DBB2184617B05DF804FB00BF79
:100F3C000C02002000B585B00023039322E0164B71
:100F4C00D3F81034029301238DF807300EE0029889
:100F5C00FFF728FB03461A46039B9A4203D1002352
:100F6C008DF8073005E0029B5B680293029B002B17
:100F7C00EDD19DF80730002B01D0039B07E0039BBC
:100F8C0001330393039B092BD9DD4FF0FF33184634
:100F9C0005B05DF804FB00BF0C02002000B585B065
:100FAC0001900B468DF80330FFF7C4FF0390039BB1
:100FBC00B3F1FF3F01D1039B1EE0039BDBB219464B
:100FCC000198FFF7E3FA0E4BD3F81034002B07D13E
:100FDC000B4A019BC2F81034019B00225A600AE0B4
:100FEC00074BD3F810345A68019B5A60044BD3F862
:100FFC001034019A5A60039B184605B05DF804FB47
:10100C000C02002000B583B00C4BD3F810340193C4
:10101C000A4B012283F81C2408E00198FFF7C9FA57
:10102C000198FFF7A7FA019B5B680193019B002BCA
:10103C00F3D100BF03B05DF804FB00BF0C0200202D
:10104C0010B582B001900091019BDB7983F0010314
:10105C00DBB2002B28D0019B1B7A002B12D0019BFA
:10106C009B881A46019B9B7919461046FFF7A4FBF7
:10107C0003461A460E4B53F822301A460D49009877
:10108C0001F080FD019B9B791A460B4B53F82240D3
:10109C00019B9B8800211846FFF76EFB03462246F6
:1010AC000649009801F06EFD00BF02B010BD00BFF4
:1010BC005000002060C203003C00002064C203000A
:1010CC0000B585B00390029113468DF80730039B51
:1010DC00DB7983F00103DBB2002B0FD0039B1B7A6F
:1010EC00002B06D00D4B1B681A460D49029801F0D7
:1010FC0049FD0C49029801F045FD07E09DF80730C9
:10110C00002B03D00749029801F03CFD029801F036
:10111C0017FD00BF05B05DF804FB00BF50000020B8
:10112C0060C2030070C2030030B58BB0079006910B
:10113C00059204930E9B1B7B8DF827300E9B00228F
:10114C001A730E990498FFF77BFF059B062B7FD82B
:10115C0001A252F823F000BF811100008B11000096
:10116C009B110000AF110000CD110000F511000023
:10117C002512000007990E9801F004FD69E0069B0A
:10118C001B681A4607990E9801F0FCFC61E0069B5F
:10119C001A68069B04331B6807990E9801F0F2FC41
:1011AC0057E0069B1A68069B04331968069B0833A4
:1011BC001B6800930B4607990E9801F0E3FC48E07E
:1011CC00069B1968069B04331868069B08331B683A
:1011DC00069A0C3212680192009303460A4607994C
:1011EC000E9801F0CFFC34E0069B1868069B043384
:1011FC001C68069B08331B68069A0C321268069909
:10120C001031096802910192009323460246079916
:10121C000E9801F0B7FC1CE0069B1C68069B04337F
:10122C001D68069B08331B68069A0C3212680699D7
:10123C0010310968069814300068039002910192ED
:10124C0000932B46224607990E9801F09BFC00E078
:10125C0000BF00220E990498FFF732FF0E9B9DF8F9
:10126C0027201A7300BF0BB030BD00BF00B587B08C
:10127C000390029101920093029B082B5CD8009B77
:10128C001B7B8DF81330009B00221A730099019878
:10129C00FFF7D6FE0023059314E0059A029B9A42B1
:1012AC0009D2039A059B13441B781A4624490098CB
:1012BC0001F068FC03E02349009801F063FC059BF6
:1012CC0001330593059B072BE7D91F49009801F0C3
:1012DC0059FC0023059322E0059A029B9A4217D2EF
:1012EC00039A059B13441B788DF812309DF812302D
:1012FC00184605F0D7FD0346002B02D09DF812309E
:10130C0000E02E231A461149009801F03BFC03E043
:10131C000F49009801F036FC059B01330593059BA2
:10132C00072BD9D9012200990198FFF7C9FE009B20
:10133C009DF813201A7300E000BF07B05DF804FBA2
:10134C0074C203007CC2030080C2030084C2030089
:10135C0088C2030000B583B00190019B1B682F2B42
:10136C0004D90B494FF4E87001F0D7FA019B1B68C4
:10137C001F2B02D84FF0A04306E0019B1B6803F023
:10138C001F02019B1A60034B184603B05DF804FB67
:10139C008CC203000003005000B585B001900846D4
:1013AC0011461A4603468DF803300B468DF8023071
:1013BC0013468DF8013001AB1846FFF7CBFF0390B5
:1013CC00019A9DF803109DF802305B0019439DF8BB
:1013DC0001309B0019439DF818301B0219439DF8EE
:1013EC001C301B041943039B02F5E07243F82210D6
:1013FC0000BF05B05DF804FB00B585B00390002379
:10140C000193002300930023012201210398FFF78D
:10141C00C3FF00BF05B05DF804FB00B585B00190BB
:10142C0001AB1846FFF796FF0390019B012202FACD
:10143C0003F31946039800F069F800BF05B05DF896
:10144C0004FB00B585B0019001AB1846FFF782FF95
:10145C000390019B012202FA03F31946039800F052
:10146C005FF800BF05B05DF804FB00B585B00190D6
:10147C0001AB1846FFF76EFF0390039BD3F80435BE
:10148C000293029BDA43019B012101FA03F31A40F8
:10149C00039BC3F80825019B01229A40029B1A402A
:1014AC00039BC3F80C2500BF05B05DF804FB00B529
:1014BC0083B001900091009B002B03D10198FFF7A2
:1014CC00C0FF02E00198FFF7A8FF00BF03B05DF872
:1014DC0004FB00B585B0019001AB1846FFF73AFF4D
:1014EC000390039800F00AF80246019B22FA03F3DA
:1014FC0003F00103184605B05DF804FB82B00190BF
:10150C00019BD3F80435184602B0704782B00190A5
:10151C000091019B009AC3F8082500BF02B07047E8
:10152C0082B001900091019B009AC3F80C2500BF7A
:10153C0002B0704700B585B00190019B032B03D915
:10154C001149372001F0E9F9104A019B13441B782B
:10155C001846FFF7BEFF0346002B14BF01230023E0
:10156C008DF80F309DF80F30002B14BF0123002392
:10157C00DBB283F00103DBB203F00103DBB21846EC
:10158C0005B05DF804FB00BFC0C20300E8C2030055
:10159C0000B583B00190019B032B03D907493E2072
:1015AC0001F0BBF9064A019B13441B780021184635
:1015BC00FFF77DFF00BF03B05DF804FBC0C2030062
:1015CC00E8C2030000B583B00190019B032B03D943
:1015DC000749442001F0A1F9064A019B13441B78EA
:1015EC0001211846FFF763FF00BF03B05DF804FB51
:1015FC00C0C20300E8C2030000B583B0002301930E
:10160C0005E00198FFF7DEFF019B01330193019B7D
:10161C00032BF6D900BF03B05DF804FB00B583B013
:10162C000023019305E00198FFF7B2FF019B013302
:10163C000193019B032BF6D900BF03B05DF804FBAB
:10164C0000B583B00190019B032B03D907495C20A3
:10165C0001F063F9064A019B13441B781846FFF707
:10166C0004FF00BF03B05DF804FB00BFC0C2030061
:10167C00E8C2030000B583B00023019309E0094AD6
:10168C00019B13441B781846FFF7B6FE019B0133F0
:10169C000193019B032BF2D9FFF7AEFF00BF03B000
:1016AC005DF804FBE8C2030084B001904FF0FF33F7
:1016BC000293002303930DE00A4A039B13441B7807
:1016CC001A46019B9A4202D1039B029305E0039BAD
:1016DC0001330393039B032BEED9029B184604B0F2
:1016EC00704700BFECC203002DE9F04F8BB00190A6
:1016FC0000238DF82730A2E0564B1A689DF827304E
:10170C00DB0013440893089B1B7819464FF0010229
:10171C004FF00003A1F1200EC1F1200003FA01F9F2
:10172C0002FA0EFE49EA0E0922FA00F049EA000913
:10173C0002FA01F8CDE90689474BD3E90001DDE94E
:10174C00062302EA000203EA0103134372D0DDE927
:10175C0006236FEA02006FEA03013F4BD3E9002333
:10176C0002EA000203EA01033B49C1E90023089B9A
:10177C001B78184602F04AFF0346DAB24FF000031A
:10178C00CDE90423089B1B7819464FF001024FF05A
:10179C000003A1F1200EC1F1200003FA01F502FAB9
:1017AC000EFE45EA0E0522FA00F0054302FA01F49A
:1017BC002A4BD3E9002304EA020A05EA030B089B2F
:1017CC001B781946DDE90423A1F1200EC1F120009C
:1017DC0003FA01F702FA0EFE47EA0E0722FA00F0AE
:1017EC00074302FA01F6BB4508BFB24522D1089B5C
:1017FC005B78012B0CBF01230023DBB2D8B24FF076
:10180C000001DDE90423994206BF90420123002325
:10181C00DBB2DAB24FF00003CDE90223089B5B6820
:10182C00002B07D0089B5B68089A12789DF808106B
:10183C00104698479DF8273001338DF82730084B18
:10184C001B789DF827209A42FFF456AF00BF0BB0CF
:10185C00BDE8F08F2C060020600600205806002002
:10186C003006002070B586B001900A468DF8032032
:10187C004FF001014FF000020198A0F12006C0F1D9
:10188C00200502FA00F401FA06F6344321FA05F5B4
:10189C002C4301FA00F3CDE904342F4B184600F029
:1018AC00BBFF0390039B002B53D12C4BD3E90012AD
:1018BC00DDE9043403EA010304EA0204234337D1CB
:1018CC00019802F0A3FE0346002B0CD0244BD3E965
:1018DC000012DDE9043443EA010344EA0204204A1D
:1018EC00C2E900340FE0DDE904346FEA03016FEA6A
:1018FC0004021B4BD3E9003403EA010304EA02049B
:10190C00174AC2E90034154BD3E90012DDE904345F
:10191C0043EA010344EA0204104AC2E900340E48C7
:10192C00104B1B680022194600F044FF039011E095
:10193C00DDE904346FEA03016FEA0402074BD3E9D3
:10194C00003403EA010304EA0204044AC2E9003445
:10195C0000E000BF06B070BD380600206006002015
:10196C00580600203406002010B588B003900B46B2
:10197C0001928DF80B30019B042B01D8072359E001
:10198C0002F04CFD034683F00103DBB2002B07D0C1
:10199C0002F0FCFC0790079B002B01D0079B49E051
:1019AC00264A039B1360264A9DF80B301370254A78
:1019BC00019B1360244A4FF000034FF00004C2E96E
:1019CC000034224A4FF000034FF00004C2E9003407
:1019DC0023E09DF80B30DB00039A1344069303239A
:1019EC008DF8143000238DF8153000238DF8163047
:1019FC0000238DF81730069B9B788DF81530069BCD
:101A0C001B78184605AB124A194602F013FD0790D5
:101A1C00079B002B01D0079B0CE09DF80B305A1E46
:101A2C008DF80B20002BD4D10A4A00210A4800F073
:101A3C0091FE0346184608B010BD00BF2C060020CE
:101A4C0030060020340600205806002060060020D6
:101A5C0071180000F5160000F0C2030000B583B049
:101A6C00114B1B68002B03D11049B62000F055FF19
:101A7C00002301930CE00C4B1A68019BDB00134410
:101A8C001B780121184602F039FD019B01330193AB
:101A9C00074B1B781A46019B9A42ECD80023184638
:101AAC0003B05DF804FB00BF2C060020F4C2030059
:101ABC003006002000B589B0039002910192029B80
:101ACC009BB2ADF81430019B0693039B079305ABB7
:101ADC001A46002144F2010000F050F800BF09B092
:101AEC005DF804FB86B003900291019201238DF8FE
:101AFC0017309DF81730204A039B13601E4A029B37
:101B0C0053601D4A019B9360039B44F20102934274
:101B1C0012D044F20202934222D1019B164AD360A6
:101B2C00154BDB681B881A46134B9A61124BDB680A
:101B3C005B68114AD36113E0019B0F4A13610E4B92
:101B4C001B699B680C4A53610B4B1B691B881A461B
:101B5C00094B9A61084B1B695B68074AD36100BF4C
:101B6C0072B600BF9DF81730DBB2002BFAD162B60B
:101B7C0000BF06B0704700BF6806002030B589B0C2
:101B8C00059004910392FFF73DFA00BFFFF722F88E
:101B9C000346002BFAD1059B44F20102934213D069
:101BAC0044F2020293422DD1039B0793224B1B88D4
:101BBC001B0443F00100079B5B681A46079B1B88BC
:101BCC001E49FEF7CCFF28E0039B06931A4B1B889B
:101BDC001B0443F00104069B9D68069B9B681846FA
:101BEC0001F066FD03461946069B5B681A46069B88
:101BFC001B88019300920B462A4611492046FEF79A
:101C0C00C2FF0AE00C4B1B881B0443F00103049A2F
:101C1C000C491846FEF792FF00BF0B4B1B6803F0F4
:101C2C000103002B00D0FFDE039A04990598FFF7FF
:101C3C0059FF00BF09B030BD000000202CC30300C9
:101C4C0048C3030060C30300F0ED00E082B003461C
:101C5C008DF8073007499DF907305B099DF807207F
:101C6C0002F01F02012000FA02F241F8232000BF0B
:101C7C0002B0704700E100E082B003468DF80730F7
:101C8C0008499DF907305B099DF8072002F01F02F7
:101C9C00012000FA02F2203341F8232000BF02B0E9
:101CAC00704700BF00E100E082B003468DF80730BA
:101CBC0008499DF907305B099DF8072002F01F02C7
:101CCC00012000FA02F2403341F8232000BF02B099
:101CDC00704700BF00E100E082B003468DF807308A
:101CEC0008499DF907305B099DF8072002F01F0297
:101CFC00012000FA02F2603341F8232000BF02B049
:101D0C00704700BF00E100E082B0034600918DF8FF
:101D1C0007309DF90730002B0CDA0D499DF8073080
:101D2C0003F00F03043B009AD2B25201D2B20B441F
:101D3C001A7609E007499DF90730009AD2B2520190
:101D4C00D2B20B4483F8002300BF02B0704700BF2F
:101D5C0000ED00E000E100E084B00190244B03931F
:101D6C00019B002B40D0234B1A680399019B00BFA9
:101D7C0000BF00BF00BF00BF00BF00BF00BF8A4252
:101D8C002FD000BF00BF00BF00BF00BF00BF00BF0F
:101D9C0000BF00BF00BF00BF00BF00BF00BF00BF3F
:101DAC0000BF00BF00BF00BF00BF00BF00BF00BF2F
:101DBC0000BF00BF00BF00BF00BF00BF00BF00BF1F
:101DCC0000BF00BF00BF00BF00BF00BF00BF00BF0F
:101DDC0000BF00BF00BF00BF00BF00BF00BF00BFFF
:101DEC0000BF013BC3D1019300BF04B0704700BFDB
:101DFC000024F4007400002000B583B00190064A62
:101E0C00019BC2F8083507211120FFF77DFF00BFA9
:101E1C0003B05DF804FB00BF0010014008B50D4B8A
:101E2C004FF48032C3F844230A4B4FF48032C3F88A
:101E3C0004231120FFF750FF1120FFF707FF054B7C
:101E4C0001221A602F20FFF787FF034B01221A7023
:101E5C0000BF08BD00100140A607002008B51120E6
:101E6C00FFF70AFF0E4B4FF48032C3F848230C4B9C
:101E7C004FF48032C3F80823094B01225A602F20FB
:101E8C00FFF76AFF064B01229A60064B00221A608C
:101E9C002F20FFF761FF044B00221A7000BF08BD12
:101EAC000010014098070020A6070020024BD3F831
:101EBC0004351846704700BF0010014082B00190F5
:101ECC000091019A009BD31A23F07F43184602B06D
:101EDC007047000082B00190034A019BC2F8403564
:101EEC0000BF02B0704700BF0010014086B00190E7
:101EFC00284B1B68002B03D1264A019B136045E03D
:101F0C00019B1A68234B1B681B689A4210D8214B03
:101F1C001B68204A12681168019A12688A1A1A60A2
:101F2C001C4B1A68019BDA611A4A019B13602DE065
:101F3C00019B1B680393174B1B680593154B1B6880
:101F4C00049309E0049B1B68039AD31A0393049B24
:101F5C000593049BDB690493049B002B04D0049B26
:101F6C001A68039B9A42EDD3049B002B05D0049B6B
:101F7C001A68039BD21A049B1A60019B039A1A607D
:101F8C00019B049ADA61059B019ADA6100BF06B0E5
:101F9C00704700BF9407002000B587B001902A4B12
:101FAC001B680393284B1B680593059B049308E05F
:101FBC00049A019B9A4208D0049B0593049BDB690D
:101FCC000493049B002BF3D100E000BF049B002B77
:101FDC0001D1002333E0059A049B9A4214D11A4B89
:101FEC001B68DB69184A1360174B1B68002B0BD15D
:101FFC00164B01229A60164B00221A60154B0122D7
:10200C001A702F20FFF7A8FE049B1B680293049BF9
:10201C00DA69059BDA61059BDB690493049B002B51
:10202C0005D0049B1A68029B1A44049B1A60064B49
:10203C001B68039A9A4214BF01230023DBB2184693
:10204C0007B05DF804FB00BF9407002000100140AE
:10205C0098070020A707002008B51120FFF724FEE1
:10206C0000BF08BD08B51420FFF71EFE00BF08BD59
:10207C0000B583B00190019B5B69019A926910468F
:10208C00984700BF03B05DF804FB000000B585B0B5
:10209C002B4B1B68002B4ED000230193FFF706FF40
:1020AC000246284B1B6819461046FFF707FF0290A3
:1020BC00234B1B6803931DE0039B1A68029B9A42F7
:1020CC001CD8039B1B68029AD31A0293039B1B68B0
:1020DC00019A13440193039B0093039BDB690393C5
:1020EC00009B1B7C002B05D0009B00221A740098CF
:1020FC00FFF7BEFF039B002BDED100E000BF124BAD
:10210C001A78124B1B789A420CD1104B1B78013366
:10211C00DAB20E4B1A700D4B1B78022B02D10B4B03
:10212C0000221A70094B1B781946094A019B42F888
:10213C002130FFF797FF00BF05B05DF804FB00BF2F
:10214C009407002098070020A4070020A507002072
:10215C009C07002082B00190184B1A78184B1B7802
:10216C009A4223D0154B1B780133DAB2134B1A70F9
:10217C00124B1B78022B02D1104B00221A700F4B02
:10218C001B781A460F4B53F82220019B1A60019BB7
:10219C001A680D4B1B6813440B4A13600A4B1B68DF
:1021AC0023F07F43084A1360012303E0019B0022C4
:1021BC001A600023184602B0704700BFA407002025
:1021CC00A50700209C0700209807002088B00390EA
:1021DC00029101920023079338E0204B1B68069371
:1021EC00069B1A68039B9A4206D9069B1A68039BA6
:1021FC00D21A069B1A602DE0069B1B68039AD31A11
:10220C000393069B1B68079A13440793069B0022B3
:10221C001A60124B1B680593069BDB690F4A13600F
:10222C00069BDB68002B11D0029A079B134423F00A
:10223C007F42069B5A60069BDA68069B9A60019B5C
:10224C001A68069BDA61019B059A1A60034B1B689E
:10225C00002BC2D100BF08B0704700BF940700200C
:10226C0000B589B0019000238DF81F30664B1B68B8
:10227C000593AAE0019B002B05D0019B0693069BBE
:10228C00DB69019361E0614B1B781A4613465B00D6
:10229C001344DB005D4A1344043304935B4B1B78FB
:1022AC000133DAB2594B1A70584B1A78574B9B784A
:1022BC009A4202D1554B00221A70049B5B6806931C
:1022CC00049B1B78022B04D0032B1BD0012B1FD09B
:1022DC001DE0049B5B681846FFF75EFE0346002B6F
:1022EC0002D001238DF81F30069B00221A746CE07B
:1022FC00454B1B680393039B00221A74039BDB69F9
:10230C00414A1360404B1B68002BF1D15DE05CE04F
:10231C0000BF069B1B7C002B00D056E0049B9A68E8
:10232C00069B5A60049BDA68069B9A60049B1A69A8
:10233C00069BDA60049B5A69069B9A61344B1B78A6
:10234C00002B02D0069B00225A60069B5A68314B28
:10235C001B68D31A23F07F432F4A93420ED8069B57
:10236C005A682C4B1B6819461046FFF7A7FD02460E
:10237C00069B9B681A44069B1A6017E0254B1A684B
:10238C00069B5B6819461046FFF798FD0290069B6A
:10239C009A68029B9A4206D9069B9A68029BD21AAB
:1023AC00069B1A6002E0069B00221A60069B002224
:1023BC005A60069B00229A60069B01221A74069BA7
:1023CC000022DA610698FFF791FD019B002B7FF448
:1023DC0051AF0E4B1A780D4B5B789A427FF44AAF93
:1023EC009DF81F30002B04D1074B1A68059B9A42AD
:1023FC0001D0012300E0002303F00103DBB21846F7
:10240C0009B05DF804FB00BF94070020880600208B
:10241C00A707002098070020FEFF7F0010B588B0AA
:10242C000190274B1B68002B44D0254B1B681B6865
:10243C000793FFF73BFD0690224B1B68059305990C
:10244C000698FFF73BFD0346033304931E4B1B78A2
:10245C0083F00103DBB2002B01D0FFF7DFFC049A01
:10246C00079B934238BF1346059A13440593059B6B
:10247C0023F07F4305930598FFF72CFDFFF716FD1E
:10248C00039006990398FFF719FD0346DC1C069987
:10249C000598FFF713FD03469C420DD9FFF706FD87
:1024AC0003461846FFF716FD2F20FFF755FCFFF7E4
:1024BC00D3FD01E0FFF7D2FC00BF08B010BD00BF98
:1024CC009407002098070020A607002000B587B0CD
:1024DC000023019300238DF81730194B1B680493CC
:1024EC00184B1B6803936B461846FFF733FE0346E5
:1024FC008DF80B309DF80B30002B08D0009B01AAF7
:10250C0004991846FFF762FE01238DF81730019BE2
:10251C001846FFF7A5FE0346002B02D001238DF8C9
:10252C0017309DF81730002B02D00398FFF776FF79
:10253C00054B00221A7000BF07B05DF804FB00BF0A
:10254C009807002094070020A707002082B00346BC
:10255C008DF80730034A9DF80730537000BF02B066
:10256C00704700BF8806002084B00190144B5B7844
:10257C0001338DF80F30124B9B789DF80F209A4247
:10258C0002D100238DF80F300D4B1B789DF80F20D6
:10259C009A4201D100230FE0019B9DF80F201A7085
:1025AC00074B5B781A4613465B001344DB00044A66
:1025BC00134404330293029B184604B0704700BFC7
:1025CC008806002000B589B0039002910192009317
:1025DC0000230793002000F059F90DF1170318465A
:1025EC00FFF7C2FF0690069B002B02D10423079332
:1025FC0018E0069B01221A70069B039A5A60FFF79B
:10260C0055FC0246069B9A60069B029ADA60069B72
:10261C00019A1A61069B009A5A619DF81730184668
:10262C00FFF794FF002000F045F9079B002B01D128
:10263C00FFF718FD079B184609B05DF804FB00B5C1
:10264C0087B001900B468DF80330002305930020D2
:10265C0000F01CF90DF10F031846FFF785FF0490ED
:10266C00049B002B02D1042305930BE0049B9DF8E3
:10267C0003201A70049B019A5A609DF80F3018467B
:10268C00FFF764FF002000F015F9059B002B01D12A
:10269C00FFF7E8FC059B184607B05DF804FB00004B
:1026AC0008B50E4B0022C3F840210C4B0022C3F896
:1026BC0044210A4B0022C3F84821084B0022C3F8DE
:1026CC004C21064B0022C3F80021044B0022C3F816
:1026DC000421FFF7DBFC00BF08BD00BF0010014068
:1026EC0008B5FFF7F3FE00BF08BD000008B5FFF703
:1026FC00B5FB134B00221A70114B00225A70104B71
:10270C000B229A700F4B00221A600F4B00221A708A
:10271C000E4B00221A701420FFF7DEFA072114204A
:10272C00FFF7F2FA1420FFF791FA0020FFF764FB91
:10273C00FFF7BCFB0246064B1A600023184608BD87
:10274C008806002094070020A4070020A50700207D
:10275C009807002086B003900B4601928DF80B3041
:10276C00134B9B78002B01D108231EE0019B002BFF
:10277C0001D1072319E0039B002B01D1072314E09F
:10278C00039B1B681B7C002B01D008230DE0039BD3
:10279C001B680593059B00221A74059B9DF80B2062
:1027AC005A74059B019A5A610023184606B070476B
:1027BC008806002000B587B0039002910192039B1C
:1027CC000593144B9B78002B01D108231EE0039B2F
:1027DC00002B01D1082319E0029B042B01D80723FD
:1027EC0014E0059B5B69002B01D108230EE0059BCF
:1027FC005B7C012B01D1029B00E000230493019B25
:10280C00049A02990598FFF7DDFE0346184607B0B7
:10281C005DF804FB8806002000B585B00190019B93
:10282C0003930D4B9B78002B01D1082310E0019BE7
:10283C00002B03D0039B5B69002B01D1082307E01D
:10284C00039B00221A7402210398FFF7F8FE03463B
:10285C00184605B05DF804FB8806002072B6034BE1
:10286C001B680133014A136000BF7047A8070020A2
:10287C00054B1B68013B044A1360034B1B68002B80
:10288C0000D162B600BF7047A807002000B583B026
:10289C00019000F025F80346012B03D00449432096
:1028AC0000F03BF8FFF7DAFF00BF03B05DF804FB64
:1028BC0078C3030000B583B003468DF8073000F0F1
:1028CC000FF80346012B03D00449512000F025F8E2
:1028DC00FFF7CEFF00BF03B05DF804FB78C3030025
:1028EC0084B0EFF305830193019BC3F308030393B7
:1028FC00039B002B0DD1EFF314830093009B0293E9
:10290C00029B03F00103002B0CBF01230023DBB25D
:10291C0000E00123184604B0704700B585B00346AB
:10292C000091ADF80630BDF80630ADF80830009BCC
:10293C00039302AB1A46002144F20200FFF71EF982
:10294C0000BF05B05DF804FB00B583B001900B46E9
:10295C008DF80330019B002B03D10849AF20FFF702
:10296C00DCFF019BDA689DF803300199098A01FBB1
:10297C0003F31344184603B05DF804FBBCC3030017
:10298C0000B583B001900091019B002B03D1084945
:10299C00BC20FFF7C2FF009B019AD2689B1A019AD8
:1029AC00128AB3FBF2F3DBB2184603B05DF804FBFA
:1029BC00BCC3030000B585B00190019B002B01D175
:1029CC000E2349E0019B1B68002B03D12449C62030
:1029DC00FFF7A3FF019B5B68002B03D12049C720A5
:1029EC00FFF79BFF019B9B68002B03D11C49C82060
:1029FC00FFF793FF019BDB68002B03D11849C9201B
:102A0C00FFF78BFF019B1B8A002B03D11449CA20B3
:102A1C00FFF783FF019B9B681A46019B5B68D31AE7
:102A2C008DF80F30019B1B68019A52681A6007E001
:102A3C00019B1A681368591C11609DF80F201A70BD
:102A4C009DF80F305A1E8DF80F20002BF0D1019BF2
:102A5C001B6800221A710023184605B05DF804FBB0
:102A6C00BCC3030000B585B00190019B002B03D1C2
:102A7C001C49EC20FFF751FF002303930020FFF7C4
:102A8C0005FF019B1B681A68019B5B689A4220D961
:102A9C00019B1B681A68013A1A601B681B7819465F
:102AAC000198FFF751FF0390019B9B681A46019B0D
:102ABC001B681B68D31A8DF80B30019B1B681B79A4
:102ACC009DF80B209A4204D9019B1B689DF80B20A2
:102ADC001A710020FFF7EEFE039B184605B05DF857
:102AEC0004FB00BFBCC3030010B584B0019000917F
:102AFC00019B002B04D111494FF48870FFF70DFF97
:102B0C00009B002B04D10D4940F21110FFF705FF7B
:102B1C00009B03930020FFF7B9FE019B1B681C6808
:102B2C00621C1A6003990198FFF72AFF0346237071
:102B3C000020FFF7BFFE00BF04B010BDBCC30300F4
:102B4C0000B583B00190019B002B03D10C493120BF
:102B5C00FFF7E3FE019B9B68002B0CD0019B5B698C
:102B6C00019A1069019A1168019A92689847019B21
:102B7C0000229A6000E000BF03B05DF804FB00BFC8
:102B8C00F4C303000EB400B584B00190019B002B7C
:102B9C0003D118494220FFF7C0FE019B5B69002B53
:102BAC0003D114494320FFF7B8FE019B1B68002B8F
:102BBC0003D110494420FFF7B0FE019B5B68002B4A
:102BCC0003D10C494520FFF7A8FE059B002B0AD02A
:102BDC000023039306AB039303AB1A4605990198A4
:102BEC0000F0B0F900E000BF04B05DF804EB03B0F6
:102BFC00704700BFF4C3030000B583B001900B46CF
:102C0C008DF80330019B1A68019B9B68581C019935
:102C1C00886013449DF803201A70019B9A68019BED
:102C2C005B689A4202D30198FFF78AFF00BF03B09A
:102C3C005DF804FB00B587B00390029101920093FC
:102C4C0000230593009B03F00103002B24D00BE021
:102C5C00029B01330293059B013305939DF81330BE
:102C6C0019460398FFF7C8FF029B1B788DF81330A9
:102C7C009DF81330002BEBD106E0019B013B019337
:102C8C0020210398FFF7B8FF019A059B9A422ED991
:102C9C00019B002BF1D12AE0029B002B0BD0029858
:102CAC0004F0B0FB059006E0019B013B0193202151
:102CBC000398FFF7A1FF019A059B9A420FD9019B3C
:102CCC00002BF1D10BE0029B01330293059B0133E6
:102CDC0005939DF8133019460398FFF78DFF029B5F
:102CEC001B788DF813309DF81330002BEBD100BFFF
:102CFC0007B05DF804FB000000B589B003900291A9
:102D0C0001920093029B07930123069307E0079A15
:102D1C00019BB2FBF3F30793069B01330693079ACF
:102D2C00019B9A42F3D2009A069B9A4201D9009BCE
:102D3C0006930B9B03F00103002B22D10A9B002B63
:102D4C001FD00B9B03F00203002B06D0009B002B23
:102D5C0003D130238DF8173002E020238DF8173083
:102D6C0008E00A9B013B0A939DF81730194603981B
:102D7C00FFF742FF0A9B002B03D0069A0A9B9A424C
:102D8C00EFD301230793009B012B03D9009B013B3D
:102D9C00009309E0029A079BB2FBF3F30493049AA5
:102DAC00019B9A4200D205E0079B019A02FB03F3B8
:102DBC000793E8E7029A079BB2FBF3F30493049B97
:102DCC00079A02FB03F3029AD31A0293154A049B47
:102DDC0013441B7819460398FFF70EFF079A019BC3
:102DEC00B2FBF3F30793079B002BE3D10B9B03F090
:102DFC000103002B11D00A9B002B0ED006E00A9B7E
:102E0C00013B0A9320210398FFF7F6FE0A9B002B47
:102E1C0003D0069A0A9B9A42F1D300BF09B05DF821
:102E2C0004FB00BF54C4030000B589B005900491A5
:102E3C0003920293049B002BB8BF5B4206930123C1
:102E4C00079307E0039B069A92FBF3F30693079B09
:102E5C0001330793039B069A9A42F3DA029A079B73
:102E6C009A4201D9029B07930A9B002B0AD0049B20
:102E7C00002B04DB0B9B03F00403002B02D00A9BFA
:102E8C00013B0A930B9B03F00203002B02D0029B25
:102E9C00002B16D00B9B03F00103002B11D10A9BC6
:102EAC00002B0ED006E00A9B013B0A9320210598CB
:102EBC00FFF7A2FE0A9B002B03D0079A0A9B9A42AB
:102ECC00F1D3049B002B07DA049B5B4204932D2166
:102EDC000598FFF791FE08E00B9B03F00403002B11
:102EEC0003D02B210598FFF787FE0B9B03F0020301
:102EFC00002B19D00B9B03F00103002B14D1029B68
:102F0C00002B11D10A9B002B0ED006E00A9B013B33
:102F1C000A9330210598FFF76FFE0A9B002B03D014
:102F2C00079A0A9B9A42F1D304990B9B01930A9B33
:102F3C000093029B039A0598FFF7DEFE00BF09B0D1
:102F4C005DF804FB00B58FB0059004910392059BCE
:102F5C00002B04D1C8494FF49F70FFF7DEFC059B92
:102F6C005B69002B04D1C4494FF4A070FFF7D5FC6A
:102F7C00059B1B68002B04D1BF4940F24110FFF7A1
:102F8C00CCFC059B5B68002B04D1BB494FF4A170B2
:102F9C00FFF7C3FC049B002B00F0ED81049B1B7816
:102FAC008DF83730049B013304939DF83730002B98
:102FBC0000F0D8819DF83730252B40F0C7810023D5
:102FCC000A9301230C93049B1B788DF837309DF8E2
:102FDC0037302D2B04D0302B0AD02B2B10D017E0F0
:102FEC000A9B43F001030A93049B0133049312E000
:102FFC000A9B43F002030A93049B013304930AE0F7
:10300C000A9B43F004030A93049B0133049302E0EC
:10301C0000230C9300BF0C9B002BD4D100230993ED
:10302C009DF837302A2B0CD1039B1B68191D039A72
:10303C0011601B68099A13440993049B0133049390
:10304C001AE0049B1B788DF837309DF837302F2B06
:10305C0012D99DF83730392B0ED8049B01330493C9
:10306C00099A13469B0013445B001A469DF83730AF
:10307C001344303B0993D3E700230B93049B1B7839
:10308C008DF837309DF837302E2B1DD1049B013332
:10309C000493049B1B788DF837309DF837302F2B19
:1030AC0012D99DF83730392B0ED8049B0133049379
:1030BC000B9A13469B0013445B001A469DF837305D
:1030CC001344303B0B93E4E7049B1B788DF83730AB
:1030DC009DF837306C2B03D09DF83730682B07D117
:1030EC00049B01330493049B1B788DF83730EFE776
:1030FC009DF83730253B532B00F2238101A252F867
:10310C0023F000BF453300004F3300004F33000065
:10311C004F3300004F3300004F3300004F3300009B
:10312C004F3300004F3300004F3300004F3300008B
:10313C004F3300004F3300004F3300004F3300007B
:10314C004F3300004F3300004F3300004F3300006B
:10315C004F3300004F3300004F3300004F3300005B
:10316C004F3300004F3300004F3300004F3300004B
:10317C004F3300004F3300004F3300004F3300003B
:10318C004F3300004F3300004F3300004F3300002B
:10319C004F3300004F3300004F3300004F3300001B
:1031AC004F3300004F3300004F3300004F3300000B
:1031BC004F3300004F3300004F3300004F330000FB
:1031CC004F3300004F3300004F3300004F330000EB
:1031DC00D13200004F3300004F3300004F3300005A
:1031EC004F3300004F3300004F3300004F330000CB
:1031FC004F3300004F3300004F33000061320000AA
:10320C00893200004F3300004F3300004F33000071
:10321C004F330000893200004F3300004F33000061
:10322C004F3300004F3300004F3300004F3300008A
:10323C00113300004F3300004F330000F532000013
:10324C004F330000AD3200004F3300004F3300000D
:10325C00D1320000039B1B68191D039A11601B6877
:10326C000C930C9B8DF823309DF823301946059850
:10327C00FFF7C2FC66E000BF20C40300039B1B6881
:10328C00191D039A11601B680C930A9B0193099BEF
:10329C0000930B9B0A220C990598FFF7C5FD51E092
:1032AC00039B1B68191D039A11601B680C930C99E6
:1032BC000A9B0193099B00930B9B0A220598FFF72D
:1032CC001BFD3FE0039B1B68191D039A11601B68D3
:1032DC000C930C990A9B0193099B00930B9B102256
:1032EC000598FFF709FD2DE0039B1B68191D039A38
:1032FC0011601B6807930A9B099A07990598FFF7B9
:10330C0099FC1FE0039B1B68191D039A11601B6835
:10331C000C9330210598FFF76FFC78210598FFF787
:10332C006BFC0C99002301930823009308231022B3
:10333C000598FFF7E1FC05E025210598FFF75CFCFB
:10334C0000E000BF049B0133049305E09DF8373087
:10335C0019460598FFF750FC049B1B78002B7FF453
:10336C001DAE00E000BF059B1B7B002B04D0059815
:10337C00FFF7E6FB00E000BF0FB05DF804FB00BFF9
:10338C0010B487B001900091019B009A53E8004F54
:10339C0004EB020043E8000191F0000FF6D1059414
:1033AC0004900391049B184607B05DF8044B7047DA
:1033BC0010B487B001900091019B009A53E8004F24
:1033CC00A4EB020043E8000191F0000FF6D1059444
:1033DC0004900391049B184607B05DF8044B7047AA
:1033EC0000B583B001900198FFF7E4FA0346184644
:1033FC0003B05DF804FB00B58BB001900091019B0C
:10340C001B8A043B0793009A079B1344DA1C079B07
:10341C00B2FBF3F38DF81B300198FFF723FB0590FB
:10342C00059B002B01D1002338E0059B00221A716B
:10343C00059B01225A71079B9AB2059BDA80059B6A
:10344C0009939DF81B30013B0493099B019A1A6068
:10345C00002308931DE00198FFF704FB0390039BE6
:10346C00002B0ED0059B5B790133DAB2059B5A71A8
:10347C00099B039A1A60039B019A1A60039B099398
:10348C0004E0059800F00EF8002307E0089B0133D8
:10349C000893089A049B9A42DDD3059B18460BB0FF
:1034AC005DF804FB00B58BB00190019B0793079B63
:1034BC005B798DF81B30019B08939DF81B30013B09
:1034CC0005930023099305E0089B1B680893099B4F
:1034DC0001330993099A059B9A42F5D3089B1B6803
:1034EC000493019B0893002309930BE0089B1B6832
:1034FC00039308990498FFF7F7FA039B0893099B29
:10350C00013309939DF81B20099B9A42EED800BF0A
:10351C000BB05DF804FB00B585B00190019B0393E3
:10352C00039B043301211846FFF72AFF00BF05B0A7
:10353C005DF804FB00B587B00190019B0593059BDA
:10354C00043301211846FFF733FF0346039303AB03
:10355C000493049B1B78002B02D10198FFF7A2FF68
:10356C0000BF07B05DF804FB00B58DB0039002916D
:10357C0001920093039B0693069BDB880593039BA8
:10358C000B93009B1A1D059BB2FBF3F30A93009B54
:10359C000433059AB3FBF2F2059901FB02F29B1A74
:1035AC000993009A019B1A44059B1344DA1C059B52
:1035BC00B2FBF3F38DF81330069B5B799DF8132067
:1035CC009A420AD92749BA20FFF7A7F905E00B9BC5
:1035DC001B680B930A9B013B0A930A9B002BF6D1A9
:1035EC0000230893059A099BD31A0793079A019B0A
:1035FC00934228BF134607932DE09DF83830002BDB
:10360C000BD0029A089BD0180B9A099B13440433D5
:10361C00079A194603F04EFE0AE00B9A099B1344D5
:10362C00181D029A089B1344079A194603F042FE90
:10363C00002309930B9B1B680B93019A079BD31ACE
:10364C000193089A079B13440893059A019B934294
:10365C0028BF13460793019B002BCED100BF0DB0A2
:10366C005DF804FB64C4030000B587B005900491B9
:10367C000392029300230093029B039A04990598EA
:10368C00FFF772FF00BF07B05DF804FB00B587B011
:10369C00059004910392029301230093029B039AD9
:1036AC0004990598FFF760FF00BF07B05DF804FBB5
:1036BC0000B585B00190019800F00EF80390039BC3
:1036CC00002B01D0039B00E0024B184605B05DF8BF
:1036DC0004FB00BFA8C4030086B00190164B0593F1
:1036EC00164B04931FE0049A059BD31ADB10DA0FD8
:1036FC0013445B10DB00059A13440393039B1B6874
:10370C000293029A019B9A4202D9039B04930AE00A
:10371C00029A019B9A4203D2039B0833059302E061
:10372C00039B5B6804E0059A049B9A42DBD300235D
:10373C00184606B0704700BFC4C70300B4C80300E6
:10374C0082B001904FF08042019BC2F8043300BF5D
:10375C0002B0704782B001904FF08042019BC2F8DA
:10376C00083300BF02B0704782B003468DF80730B3
:10377C009DF8073003F1804301221A6000BF02B0AC
:10378C00704784B00346ADF80630BDF8063003F13F
:10379C00804300221A60BDF8063003F180431B6899
:1037AC000393039B00BF04B0704782B00346ADF88F
:1037BC000630BDF8063003F180431B68002B14BFA4
:1037CC0001230023DBB2184602B0704782B00346D7
:1037DC008DF807304FF080429DF8073003F003035B
:1037EC00C2F8183500BF02B070474FF08043D3F8D1
:1037FC0018341B0C03F00103002B14BF012300230E
:10380C00DBB21846704782B003468DF807304FF094
:10381C008043D3F80C3403F001129DF8073043F4C5
:10382C0080339A420CBF01230023DBB2184602B04E
:10383C007047000082B003468DF807300A4A9DF9A4
:10384C0007305B0952F823209DF8073003F01F0363
:10385C00012101FA03F31340002B14BF01230023B1
:10386C00DBB2184602B0704700E100E008B500205A
:10387C00FFF7E0FF034683F00103DBB2002B03D01C
:10388C000721002000F058FA00BF08BD08B54FF41E
:10389C008270FFF776FF0220FFF752FF0820FFF738
:1038AC0063FF00BF08BD000008B50C20FFF75CFFEC
:1038BC0000BFFFF79AFF0346002BFAD1024B002200
:1038CC009A7000BF08BD00BFAC07002008B54FF4CC
:1038DC008070FFF756FF0120FFF732FF0020FFF743
:1038EC0043FF00BF08BD000008B50420FFF73CFFF4
:1038FC0000BF0120FFF787FF0346002BF9D1024BD5
:10390C0000225A7000BF08BDAC07002000B583B080
:10391C00002301930F4B1B78002B02D085230193BE
:10392C0013E00C4B00229A600A4B00225A60094BA0
:10393C0000221A61074B0022DA60FFF797FF012083
:10394C00FFF744FF034B01221A70019B184603B08A
:10395C005DF804FBAC07002084B001900091019B42
:10396C001B68039306E0039A009B9A420DD0039BBD
:10397C001B680393039B002BF5D1019B1A68009BDA
:10398C001A60019B009A1A6000E000BF04B07047F7
:10399C0084B00190019B1B680393039B002B03D005
:1039AC00039B1A68019B1A60039B184604B070476E
:1039BC0000B583B00190224B1B78002B03D1214919
:1039CC00FC20FEF7AAFF1E4B9B78DBB2002B12D01B
:1039DC00019B002B03D0019B5B68012098470020C2
:1039EC00FEF754FF164BDB680133154AD3600020F9
:1039FC00FEF760FF17E00020FEF748FF019B002B4D
:103A0C0003D001991048FFF7A7FF0D4BDB68002B83
:103A1C0001D1FFF73BFF0A4BDB680133084AD36047
:103A2C000020FEF747FF064BDB68002B04D105494D
:103A3C004FF48C70FEF771FF00BF03B05DF804FB10
:103A4C00AC070020BCC80300BC07002008B5124B13
:103A5C001B78002B04D1114940F21D10FEF75DFFBD
:103A6C000D4BDB68002B04D10C494FF48F70FEF723
:103A7C0054FF0020FEF70AFF074BDB68013B064AA8
:103A8C00D360054BDB68002B01D1FFF70DFF002045
:103A9C00FEF710FF00BF08BDAC070020BCC8030038
:103AAC0008B5074B1B78002B04D1064940F22B10AC
:103ABC00FEF733FFFFF799FE0346184608BD00BF1B
:103ACC00AC070020BCC8030000B583B00190234BA9
:103ADC001B78002B04D1224940F23910FEF71DFF50
:103AEC001E4B5B78DBB2002B12D0019B002B03D05A
:103AFC00019B5B68002098470020FEF7C7FE174B20
:103B0C005B680133154A53600020FEF7D3FE17E0C3
:103B1C000020FEF7BBFE019B002B03D0019911483E
:103B2C00FFF71AFF0D4B5B68002B01D1FFF7CEFEA0
:103B3C000A4B5B680133094A53600020FEF7BAFE5A
:103B4C00064B5B68002B04D1054940F25510FEF77B
:103B5C00E4FE00BF03B05DF804FB00BFAC0700201F
:103B6C00BCC80300B407002008B5124B1B78002B0F
:103B7C0004D111494FF4AD70FEF7CFFE0D4B5B68CD
:103B8C00002B04D10C4940F25B10FEF7C6FE00205E
:103B9C00FEF77CFE074B5B68013B064A5360054B06
:103BAC005B68002B01D1FFF79FFE0020FEF782FE21
:103BBC0000BF08BDAC070020BCC8030008B5074B0C
:103BCC001B78002B04D106494FF4B470FEF7A5FE08
:103BDC000120FFF718FE0346184608BDAC0700206D
:103BEC00BCC8030000B585B003468DF807309DF8BE
:103BFC000730002B02D10C4B039301E00B4B0393CA
:103C0C000398FFF7C5FE0290029B002B06D0029B87
:103C1C005B689DF8072010469847F1E700BF00BF8E
:103C2C0005B05DF804FB00BFB4070020BC07002002
:103C3C0008B54FF48070FFF7B8FD0346002B0CD08D
:103C4C004FF48070FFF79DFD0120FFF783FD0E4BB5
:103C5C0001225A700020FFF7C5FF4FF48270FFF766
:103C6C00A4FD0346002B0CD04FF48270FFF789FDA6
:103C7C000220FFF76FFD044B01229A700120FFF721
:103C8C00B1FF00BF08BD00BFAC07002082B00346E7
:103C9C008DF8073007499DF907305B099DF807201F
:103CAC0002F01F02012000FA02F241F8232000BFAB
:103CBC0002B0704700E100E082B003468DF8073097
:103CCC0008499DF907305B099DF8072002F01F0297
:103CDC00012000FA02F2603341F8232000BF02B049
:103CEC00704700BF00E100E082B0034600918DF800
:103CFC0007309DF90730002B0CDA0D499DF8073081
:103D0C0003F00F03043B009AD2B25201D2B20B441F
:103D1C001A7609E007499DF90730009AD2B2520190
:103D2C00D2B20B4483F8002300BF02B0704700BF2F
:103D3C0000ED00E000E100E000B583B003460A4668
:103D4C008DF8073013468DF806309DF80630072B9A
:103D5C0004D90D494FF49270FEF7DFFD9DF8062053
:103D6C009DF9073011461846FFF7BEFF9DF9073045
:103D7C001846FFF7A1FF9DF907301846FFF786FF9D
:103D8C0000BF03B05DF804FBF8C8030000B583B0B6
:103D9C000346ADF80630BDF80630184600F026F89C
:103DAC0003461B68012B0CBF01230023DBB2184612
:103DBC0003B05DF804FB00B585B00346ADF80630E2
:103DCC00BDF80630184600F011F803461A460023D9
:103DDC001360BDF80630184600F008F803461B685F
:103DEC000393039B00BF05B05DF804FB82B0034650
:103DFC00ADF80630BDF8063003F1804303F5C0433F
:103E0C00184602B07047000082B00190034A019B33
:103E1C00C2F8043300BF02B0704700BF006000401E
:103E2C0082B00190034BD3F80423019B1340184636
:103E3C0002B070470060004082B001900849084A07
:103E4C00019B03F5A27352F8233043F00102019B4E
:103E5C0003F5A27341F8232000BF02B0704700BFE6
:103E6C000060004084B00390029113468DF8073037
:103E7C001449144A039B03F5A27352F8233023F41C
:103E8C004F3323F44073039A02F5A27241F82230A7
:103E9C000C480C4A039B03F5A27352F82320029B97
:103EAC001B0203F47C519DF807301B0403F44033D0
:103EBC000B431A43039B03F5A27340F8232000BF66
:103ECC0004B070470060004082B00190054A019B2D
:103EDC0003F5A27352F823301B0A03F03F03184674
:103EEC0002B070470060004082B00190064A019B0E
:103EFC0003F5A27352F823301B0C03F00303DBB25F
:103F0C00184602B0704700BF0060004000B583B097
:103F1C000190019B1B682F2B04D90B494FF4E870BF
:103F2C00FEF7FBFC019B1B681F2B02D84FF0A04334
:103F3C0006E0019B1B6803F01F02019B1A60034BF8
:103F4C00184603B05DF804FB34C9030000030050AD
:103F5C0000B585B00190084611461A4603468DF807
:103F6C0003300B468DF8023013468DF8013001AB4F
:103F7C001846FFF7CBFF0390019A9DF803109DF8AC
:103F8C0002305B0019439DF801309B0019439DF8EA
:103F9C0018301B0219439DF81C301B041943039B5A
:103FAC0002F5E07243F8221000BF05B05DF804FB87
:103FBC0000B585B003900B468DF80B309DF80B20A7
:103FCC000023019300230093134600220021039841
:103FDC00FFF7BEFF00BF05B05DF804FB00B585B070
:103FEC00019001AB1846FFF791FF0390019A039BD8
:103FFC0002F5E07253F8223023F002030293019A87
:10400C00039B02F5E072029943F8221000BF05B041
:10401C005DF804FB00B585B001900B468DF80330BC
:10402C0001AB1846FFF772FF0390019A0199039BAD
:10403C0001F5E07153F8213023F44031039B02F574
:10404C00E07243F82210019A0199039B01F5E0718B
:10405C0053F821309DF8031009041943039B02F512
:10406C00E07243F8221000BF05B05DF804FB00B508
:10407C0085B0019001AB1846FFF748FF03900398F9
:10408C0000F020F80246019B22FA03F303F001032F
:10409C00184605B05DF804FB00B585B0019001AB86
:1040AC001846FFF733FF0390019A039B02F5E07269
:1040BC0053F822301B0C03F00303DBB2184605B097
:1040CC005DF804FB82B00190019BD3F810351846C3
:1040DC0002B0704700B589B0039002910192174A63
:1040EC0005AB92E8030083E80300039A029B134498
:1040FC00022B04D912494FF43A70FEF70EFC039BC5
:10410C00079311E0079B9B0008AA134453F80C3C3F
:10411C001846FFF7D7FF0246019B1A60019B043338
:10412C000193079B01330793039A029B1A44079B45
:10413C009A42E7D800BF09B05DF804FB68C90300D8
:10414C0034C9030084B001900091009B0393019B40
:10415C00DB080293019B03F0070301930122019BEF
:10416C0002FA03F30399029A0A4412781340184690
:10417C0004B0704784B001900091009B0393019BA5
:10418C00DB080293019B03F007030193039A029B44
:10419C0013440399029A0A44127851B20120019AED
:1041AC0000FA02F252B20A4352B2D2B21A7000BFF3
:1041BC0004B0704782B001900C4A019B1344303319
:1041CC0093F90030002B09DB084A019B1344303370
:1041DC0093F90030072B01DC012300E0002303F0EE
:1041EC000103DBB2184602B0704700BFC0070020C5
:1041FC0082B00190064A019B1344303393F900308E
:10420C00072BCCBF01230023DBB2184602B070474A
:10421C00C007002082B00190064A019B1344303342
:10422C0093F90030DB43DBB2DB09DBB2184602B09A
:10423C00704700BFC007002084B003900291019228
:10424C008DF80330029B59B20E4A039B1344303352
:10425C000A461A700B49029B019A41F823209DF8DB
:10426C00033083F00103DBB2002B08D0029B083B28
:10427C00039A51B2034A13440A4683F8602000BFE4
:10428C0004B07047C007002082B00190044A019B23
:10429C0013443033FF221A7000BF02B0704700BFC6
:1042AC00C007002082B00190044A019B13443033B4
:1042BC0093F90030184602B0704700BFC0070020C9
:1042CC0082B00190034A019B52F82330184602B089
:1042DC00704700BFC007002000B589B00390029161
:1042EC0013468DF80730FF238DF81F309DF80730EB
:1042FC00002B01D0002300E0082305939DF8073024
:10430C00002B01D0082300E00C230493059B06939B
:10431C0014E00F4A069B52F82330B3F1FF3F0AD149
:10432C009DF80730029A06990398FFF785FF069BC4
:10433C008DF81F3006E0069B01330693069A049B0A
:10434C009A42E6D39DF91F30184609B05DF804FB7C
:10435C00C007002082B003468DF807309DF8073067
:10436C00094A4FF0FF3142F823109DF80730072B14
:10437C0007D99DF80730083B034A1344FF2283F802
:10438C00602000BF02B07047C007002000B583B0AA
:10439C00214B93F86430002B03D008230093009B2F
:1043AC0036E000238DF8073009E09DF807301846F9
:1043BC00FFF76AFF9DF8073001338DF807309DF841
:1043CC0007302F2BF1D900238DF8073009E09DF829
:1043DC0007301846FFF7BEFF9DF8073001338DF804
:1043EC0007309DF807300B2BF1D907210620FFF77A
:1043FC00A3FC4FF4BE70FFF7DEFC4FF00040FFF75C
:10440C0003FD054B012283F8642000230093009BDD
:10441C00184603B05DF804FBC0070020044B93F86A
:10442C006430002B14BF01230023DBB21846704705
:10443C00C007002000B587B0039002910192039B46
:10444C002F2B04D92B4940F2F710FEF766FA002304
:10445C0005930398FFF7DEFE0346002B02D00823DA
:10446C00059341E0029BDB781A4601990398FFF70C
:10447C0033FF03468DF813309DF91330B3F1FF3F32
:10448C0030D0029B9B78002B03D00398FFF7A6FD3E
:10449C0005E0029B5B7819460398FFF789FD029BA8
:1044AC00DB78002B08D09DF91300029B1B781A4671
:1044BC000399FFF7D7FC17E09DF91330083B9DF9E2
:1044CC001320083A0C490A4492F96010029A1278A7
:1044DC00920152B20A4351B2074A13440A4683F876
:1044EC00602001E004230593059B184607B05DF896
:1044FC0004FB00BF78C90300C007002000B587B0DB
:10450C0001900B468DF80330019B2F2B04D93D49AC
:10451C0040F22520FEF701FA0198FFF77BFE0346D7
:10452C00002B04D1374940F22620FEF7F6F901980A
:10453C00FFF75EFE0346002B2FD00198FFF7B2FE6B
:10454C000346083B304A134493F960308DF816301B
:10455C009DF816309B098DF815309DF81530032BFE
:10456C000BD10198FFF783FD0346002B01D00323E9
:10457C0000E002238DF8173008E09DF81530012B70
:10458C0001D1022300E003238DF817309DF817307A
:10459C0019460198FFF73EFD30E00198FFF70AFE3F
:1045AC000346002B2AD00198FFF77CFE03460493A8
:1045BC00049B9BB240339BB29B00ADF80E30049B26
:1045CC001846FFF739FCBDF80E301846FFF7F3FB21
:1045DC009DF80330002B11D00198FFF763FE0346C2
:1045EC001846FFF76DFE0290029B002B06D00122AD
:1045FC00049B02FA03F31846FFF706FC00BF07B052
:10460C005DF804FB78C90300C007002000B583B037
:10461C000190019B2F2B04D9084940F27220FEF720
:10462C007CF90198FFF723FD0346002B14BF0123EF
:10463C000023DBB2184603B05DF804FB78C9030015
:10464C0000B599B00023179306AB00221A605A608C
:10465C004FF48073ADF85630012314930023169356
:10466C0021E0BDF856301846FFF790FB0346002BAF
:10467C000ED01498FFF7D4FB0346002B08D0BDF8DE
:10468C0056301846FFF797FB179A149B1343179352
:10469C00149B5B001493BDF856300433ADF85630C0
:1046AC00169B01331693169B072BDAD94FF4BE7069
:1046BC00FFF76CFB0346002B0DD04FF4BE70FFF7D9
:1046CC007AFB179B43F00043179306AB1A46022163
:1046DC000020FFF7FFFC179BDBB2002B29D0012336
:1046EC0014930023169321E0149A179B1340002B6C
:1046FC0016D01698FFF7E8FB11901698FFF7F4FB0D
:10470C0003468DF843301698FFF7DAFD0F900F9B98
:10471C00002B05D09DF843200F9B1146119898470C
:10472C00149B5B001493169B01331693169B072B5B
:10473C00DAD9179B002B80F2F08000238DF84B30D8
:10474C0004AB00221A605A60002313930AE0139BF7
:10475C009B0018AA13444FF0FF3243F8582C139BBC
:10476C0001331393139B012BF1D900238DF84B309C
:10477C000023169378E06B4A169B1344603393F92D
:10478C0000308DF83B309DF83B3023F0C0030D9387
:10479C00644A169B1344603393F90030B3F1FF3F26
:1047AC005FD002AB19460D98FFF7CCFC0346002BEB
:1047BC0057D09DF83B309B098DF833300D98FFF79F
:1047CC0071FD03461846FFF77BFD0B900B9B002BEE
:1047DC0003D19DF83330032B43D19DF83330032B99
:1047EC0004D104AB19460D98FFF7C4FC0D98FFF7E4
:1047FC0053FC03468DF82B3006AB19460D98FFF78A
:10480C00A1FC0990099B002B03D09DF82B30022BA7
:10481C0006D0099B002B24D19DF82B30032B20D1E3
:10482C009DF83330032B13D19DF82B30022B01D183
:10483C00032300E002238DF823309DF82330194622
:10484C000D98FFF7E7FB9DF84B3001338DF84B309B
:10485C000B9B002B05D09DF833200B9B11460D981C
:10486C009847169B01331693169B032B83D99DF8FF
:10487C004B30002B4CD001238DF84A306B461A4636
:10488C0002210020FFF726FC0023139314E0139B56
:10489C009B0018AA134453F8602C139B9B0018A977
:1048AC000B4453F8483C9A4203D000238DF84A300D
:1048BC0005E0139B01331393139B012BE7D99DF850
:1048CC004A30002B03D000238DF84B3020E000231E
:1048DC0013931AE0139B9B0018AA134453F8602CF3
:1048EC00139B9B0018A90B4443F8482C139B9B006B
:1048FC0018AA134453F8502C139B9B0018A90B4473
:10490C0043F8582C139B01331393139B012BE1D9C0
:10491C009DF84B30002B7FF428AF00BF19B05DF829
:10492C0004FB00BFC007002000BF034BD3F80034CA
:10493C00002BFAD000BF704700E0014000B583B0F7
:10494C0001900D4B0222C3F80425BFF36F8FBFF308
:10495C004F8F094A019BC2F80835FFF7E5FF064B5C
:10496C000022C3F80425BFF36F8FBFF34F8F00BF36
:10497C0003B05DF804FB00BF00E0014000B587B058
:10498C0001900B468DF80330019B03F00303059354
:10499C00059BDA43019B13400493049B1A68059B07
:1049AC00DB00FF2101FA03F3DB43134003939DF873
:1049BC000320059BDB0002FA03F3039A13440393D1
:1049CC000C4B0122C3F80425BFF36F8FBFF34F8F3D
:1049DC00049B039A1A60FFF7A7FF064B0022C3F84B
:1049EC000425BFF36F8FBFF34F8F00BF07B05DF887
:1049FC0004FB00BF00E0014000B587B003900291BA
:104A0C000192002305930CE0039A059BD018029A9F
:104A1C00059B13441B781946FFF7B0FF059B013328
:104A2C000593059A019B9A42EED300BF07B05DF83F
:104A3C0004FB000000B587B003460A468DF807302A
:104A4C0013468DF8063000238DF81730002304939D
:104A5C009DF807301846FCF727FE0490049B032BA7
:104A6C0061D89DF80630012B04D0022B4FD0002BBF
:104A7C0030D058E03549049A13465B0013440B447C
:104A8C001B788DF817303149049A13465B00134498
:104A9C000B4401331B78002B0ED02D4B2D4A4FF4B9
:104AAC0000411846FDF786FE0390039B002B03D1B3
:104ABC00284A9DF8073013702449049A13465B006A
:104ACC0013440B4402331978234A049B13440A46BB
:104ADC001A7028E01E4B1846FDF79EFE1E4A049BDA
:104AEC00134419781948049A13465B001344034481
:104AFC0002331B78994215D11449049A13465B0072
:104B0C0013440B4402331B788DF817300AE00F491D
:104B1C00049A13465B0013440B4401331B788DF845
:104B2C00173000E000BF9DF81730002B09D00B4B5D
:104B3C001B68002B05D0094B1B689DF817201046ED
:104B4C00984700BF07B05DF804FB00BF7808002051
:104B5C0084080020A4080020A80800207408002065
:104B6C0000B583B00190019B1B7802211846FFF71A
:104B7C0061FF00BF03B05DF804FB000000B583B01B
:104B8C000C4B1B78002B0FD00023019308E0019BEA
:104B9C00022B02D00198FCF715FD019B0133019308
:104BAC00019B032BF3D901E0FCF726FD00BF03B0FA
:104BBC005DF804FB300800202DE9F04F89B0034666
:104BCC008DF817300023079300230693CB4B1B78EB
:104BDC00002B04D0C94B00221A70FFF7CFFF9DF8B1
:104BEC001730172B00F2178201A252F823F000BFE6
:104BFC005D4C00006B4C00006B4C0000ED4C000059
:104C0C006F4D0000D34D0000514E0000714E00005E
:104C1C00814E00009F4E0000BD4E0000DB4E000098
:104C2C00F94E0000154F0000154F0000154F000005
:104C3C00154F0000154F0000C54F0000D34F00006A
:104C4C00E74F0000FB4F000015500000155000000E
:104C5C00FFF794FFAA4A9DF817301370DCE100208F
:104C6C00FCF768FC0346002B0DD00020FCF7AAFCD7
:104C7C009DF81730022B02D14FF4E16301E04FF4A1
:104C8C007A6306930BE00020FCF782FC9DF817304A
:104C9C00022B01D1C82301E04FF4C8730693984A44
:104CAC009DF817301370974D069B4FF000044FEA98
:104CBC00C43B4BEA534B4FEAC33A1AF5FA704BF12B
:104CCC0000014FF47A724FF0000301F0C3FF03466A
:104CDC000C46002219462846FDF76CFD07909BE117
:104CEC000020FCF727FC0346002B0DD00020FCF71E
:104CFC0069FC9DF81730032B02D14FF4487301E087
:104D0C004FF47A6306930BE00020FCF741FC9DF80E
:104D1C001730032B01D1C82301E04FF4C87306935D
:104D2C00774A9DF817301370764D069B4FF00004B0
:104D3C004FEAC43949EA53494FEAC33818F5FA70B7
:104D4C0049F100014FF47A724FF0000301F082FF39
:104D5C0003460C46002219462846FDF72BFD07900A
:104D6C005AE10020FCF7E6FB0346002B06D000209E
:104D7C00FCF728FC4FF47A63069305E00020FCF75F
:104D8C0007FC4FF4C87306935D4A9DF817301370F7
:104D9C005C4D069B4FF00004E70347EA5347DE03E4
:104DAC0016F5FA7047F100014FF47A724FF00003D8
:104DBC0001F050FF03460C46002219462846FDF729
:104DCC00F9FC079028E10020FCF7B4FB0346002B0C
:104DDC000CD00020FCF7F6FB9DF81730052B01D109
:104DEC00C82301E04FF47A6306930BE00020FCF734
:104DFC00CFFB9DF81730052B01D1C82301E04FF4F0
:104E0C00C87306933E4A9DF8173013703D4E069BAF
:104E1C001A464FF00003DD0345EA5245D40314F55E
:104E2C00FA7045F100014FF47A724FF0000301F073
:104E3C0011FF03460C46002219463046FDF7BAFC1A
:104E4C000790E9E00020FCF7FBFB2D4A9DF817309A
:104E5C0013702C4B002240F6CD411846FDF7AAFCEE
:104E6C000790D9E00020FCF793FB254A9DF81730FA
:104E7C001370D1E0214B01221A700120FCF7E0FBEA
:104E8C00204B002240F6CD411846FDF793FC0790CD
:104E9C00C2E01A4B01221A700120FCF7D1FB194B0E
:104EAC0000224FF480411846FDF784FC0790B3E0D4
:104EBC00124B01221A700120FCF7C2FB114B00228D
:104ECC0040F6CD411846FDF775FC0790A4E00B4B5E
:104EDC0001221A700120FCF7B3FB0A4B00224FF49D
:104EEC0080411846FDF766FC079095E0FCF796FBB1
:104EFC00034A9DF8173013708EE000BF290800207C
:104F0C002808002034080020464B1846FDF784FC86
:104F1C0007909DF81730C3F111030693069B002BE5
:104F2C0043D0079B002B40D1069B012B36D93D4D1E
:104F3C00069B9BB299B24FF000020B461446DB184D
:104F4C0044EB04045B1844EB0204E000019001986C
:104F5C0040EA53700190DB000093DDE900345B18EC
:104F6C0044EB0204A2040392039A42EA93320392A2
:104F7C009B040293DDE9023413F5FA7044F100014D
:104F8C004FF47A724FF0000301F064FE03460C46B6
:104F9C00002219462846FDF70DFC07900220FCF76D
:104FAC00F7FA214B01221A7036E00220FCF70AFBBB
:104FBC001D4B00221A702FE0FFF7E0FD1B4A9DF8F5
:104FCC001730137028E0FFF7D9FD0020FCF7E0FA4A
:104FDC00164A9DF8173013701EE0FFF7CFFD012025
:104FEC00FCF7D6FA114A9DF81730137014E0FFF74E
:104FFC00C5FD0020FCF7CCFA0120FCF7C9FA0B4ADE
:10500C009DF81730137007E0FCF708FB074A9DF872
:10501C001730137000E000BF079B184609B0BDE8BD
:10502C00F08F00BF54080020300800202808002012
:10503C0000B583B00190074B1B6803F00103002BF4
:10504C0004D0054B1B781846FFF7B6FD00BF03B024
:10505C005DF804FB2C0800202808002000B583B064
:10506C0001900220FCF7ECFA00BF03B05DF804FBE2
:10507C0000B585B003468DF8073000230393084B29
:10508C001B6803F00103002B05D09DF80730184670
:10509C00FFF792FD0390039B184605B05DF804FBE7
:1050AC002C08002000B585B00190009100230393DB
:1050BC00294A019B1360294A009B1360019B03F052
:1050CC000203002B2AD00023029308E001220121C5
:1050DC00029800F053F80390029B01330293029B59
:1050EC00032B02D8039B002BF0D0039B002B06D183
:1050FC0040F2666204211A48FCF736FC0390039BCD
:10510C00002B02D1FCF7AAFC0390039B002B05D1CA
:10511C00144A00211448FDF71DFB0390019B03F07A
:10512C000103002B01D0FCF7A5FA039B002B05D142
:10513C000E4A00210E48FDF70DFB0390039B002B3C
:10514C0005D10C4A01210C48FDF704FB0390039B8D
:10515C00184605B05DF804FB2C08002074080020EC
:10516C00C0C903006D4B0000BCC903003D500000DA
:10517C00B4C9030069500000B8C9030084B00190A1
:10518C000B468DF8033013468DF802300023039341
:10519C00019B032B3CD89DF80230012B0BD19DF8C1
:1051AC000330012B04D1019BDBB20E33DBB200E0E8
:1051BC0000238DF802309DF80330012B04D0022B14
:1051CC000CD0002B15D01FE01449019A13465B003C
:1051DC0013440B449DF802201A701BE00F49019AEE
:1051EC0013465B0013440B4401339DF802201A70E4
:1051FC0010E00A49019A13465B0013440B44023336
:10520C009DF802201A7005E00723039300BF01E00C
:10521C0007230393039B184604B0704778080020BB
:10522C0070B584B003468DF8073000230393002338
:10523C0002932C4A9DF8073013709DF80730032B0E
:10524C004CD801A252F823F0655200006D520000B8
:10525C00C9520000E15200000120FCF7B3F93DE017
:10526C000120FCF767F90346002B06D00120FCF760
:10527C00A9F94FF44873029304E00120FCF788F974
:10528C00C8230293184E029B1A464FF00003DD030D
:10529C0045EA5245D40314F5FA7045F100014FF478
:1052AC007A724FF0000301F0D5FC03460C46002245
:1052BC0019463046FDF77EFA03900FE00120FCF70B
:1052CC00BFF9094B002240F6CD411846FDF772FAA2
:1052DC00039003E00120FCF75BF900BF039B184629
:1052EC0004B070BDAD080020B008002000B583B03C
:1052FC000190044B1B781846FFF792FF00BF03B0D8
:10530C005DF804FBAD08002000B583B000230193C9
:10531C001C4B1B78013BDAB21A4B1A70194B1B78D9
:10532C00002B1BD00120FCF705F90346002B06D0FF
:10533C000020FCF747F90120FCF744F905E00020B8
:10534C00FCF726F90120FCF723F90F4B002241F65C
:10535C009A111846FDF72EFA01900EE00B4B1B78B4
:10536C001846FFF75DFF0190019B002B05D1084B00
:10537C001B781846FFF77CFE0190019B184603B082
:10538C005DF804FBAE080020D0080020AD0800201A
:10539C00AC08002000B583B00190FFF7B5FF00BF4B
:1053AC0003B05DF804FB00B585B003900291019247
:1053BC000093009B1B78802B01D100F0B3F800BF49
:1053CC0005B05DF804FB00B583B001900B468DF879
:1053DC0003309DF80330002B08D0002B0ADB023B76
:1053EC00022B07D8072000F087F807E0002000F018
:1053FC0083F803E0062000F07FF800BF00BF03B085
:10540C005DF804FB00B583B001900091019B03F0A3
:10541C000403002B07D0009807F057FE03461946EB
:10542C000098FFF7D0FF00BF03B05DF804FB00004D
:10543C0000B585B0019000230393019B002B03D191
:10544C002349EE20FDF769FA224B00221A70224BF9
:10545C0000221A700C220021204801F055FF1F4B2E
:10546C001F4A1A601F4A00211F48FDF773F9039069
:10547C00039B002B05D11D4A00211D48FDF76AF93D
:10548C000390019A1B49019807F00CFB03468DF819
:10549C000B309DF80B30002B04D00D4940F2051059
:1054AC00FDF73BFA0D49019807F0ECFA03468DF82D
:1054BC000B309DF80B30002B04D005494FF4847051
:1054CC00FDF72BFA039B184605B05DF804FB00BFF3
:1054DC00E8C90300AC080020AD080020F00800204B
:1054EC00B3530000F9520000E0C90300A1530000BF
:1054FC00E4C903001154000000B583B003468DF8D5
:10550C000730074A9DF8073013709DF8073018468E
:10551C00FFF7AEFD0346184603B05DF804FB00BF71
:10552C00AC08002000B583B000230193054B082282
:10553C001A70FFF7E9FE0190019B184603B05DF865
:10554C0004FB00BFAE08002000B585B003468DF803
:10555C0007309DF807300F2B0CD0112B21D00E2BC0
:10556C0000D025E001F022FB03463221184600F062
:10557C0091FE1DE000F07AFE00F072FE0346002B57
:10558C0003D031238DF80F3002E030238DF80F302B
:10559C0001F00CFB9DF80F300122194600F012FFB0
:1055AC0006E001F003FB0346184600F0D3FF00BFF2
:1055BC0005B05DF804FB000010B582B001900091BD
:1055CC00019B03F00403002B0AD0009807F07DFD2B
:1055DC000346023B022B02D900F036FE00E000BF6E
:1055EC00019B03F08003002B01D000F02DFE084B33
:1055FC001B881B0443F00304009807F066FD034668
:10560C00019A04492046FBF7AAFA00BF02B010BD6C
:10561C000000002028CA030000B585B01149032002
:10562C00FFF740FD0390039B0293029B002B04D0D9
:10563C000D4A92210298FCF73DFA01F0B7FA0346A5
:10564C001846FFF7F5FE0390039B0193019B002B7B
:10565C0004D0054A95210198FCF72CFA00BF05B03F
:10566C005DF804FB5555000058CA030000B583B023
:10567C00FDF73CF80190019B0093009B002B04D09C
:10568C00044A9E210098FCF715FA00BF03B05DF8A0
:10569C0004FB00BF58CA030000B583B00020FAF722
:1056AC00DFFF0190019B0093009B002B04D0054A67
:1056BC00A7210098FCF7FEF9FAF730FF00BF03B002
:1056CC005DF804FB58CA030000B585B001AB00229D
:1056DC001A605A609A6001238DF8063001AB1846A7
:1056EC0001F0DEF801F00CFA034801F065FA00BF96
:1056FC0005B05DF804FB00BFC555000000B583B0D4
:10570C0000238DF8043001238DF8053000238DF82B
:10571C00063000238DF8073001AB184600F030FD41
:10572C0000BF03B05DF804FB00B583B0019000919D
:10573C00FFF7B2FFFFF79AFFFFF7C6FFFFF7DEFF99
:10574C00FFF76AFF01F0F6F9FBF744FA034683F022
:10575C000103DBB2002BF5D001F00CFAF2E70000EC
:10576C0000B583B01F4B0193019B02221A61019B70
:10577C0002225A61019B1C4A9A61019B1B4ADA6105
:10578C00019B4FF400721A62019B00229A62019BEA
:10579C0000225A62019B0022DA62019B124A9A642F
:1057AC00019B134ADA64019B10221A65019B0022AB
:1057BC009A65019B00225A65019B0022DA65019BC8
:1057CC0007330C49184601F0D3FD019B0A491846D2
:1057DC0001F0CEFD019B20229A7100BF03B05DF851
:1057EC0004FB00BFFC0800209CCA030074090020C5
:1057FC00740B0020A8CA0300ACCA030000B589B022
:10580C0003900291019200230693039BDB6805939E
:10581C00039B1B690493049A059B9A4205D9049A2D
:10582C00059BD31A013B079307E0039B9A680499E5
:10583C00059BCB1A1344013B0793039B9A68059B6A
:10584C00D31A079A934228BF13460793079A019BD2
:10585C00934228BF13460793039B5A68059B134436
:10586C00079A0299184601F025FD069A079B1344E6
:10587C000693029A079B13440293019A079BD31A2F
:10588C000193059A079B13440593039B9A68059B08
:10589C009A4201D100230593039B059ADA60019B80
:1058AC00002BB5D1069B184609B05DF804FB00B57A
:1058BC0089B0039002910192039BDB680793039BD1
:1058CC009A68079BD31A0693069A019B9A420ED9A3
:1058DC00039B5A68079B1344019A0299184601F0DE
:1058EC00E9FC079A019B1A44039BDA601AE0069BB9
:1058FC000593039B5A68079B1344059A0299184613
:10590C0001F0D8FC019A069BD31A0593039B5868A7
:10591C00029A069B1344059A194601F0CBFC039B93
:10592C00059ADA6000BF09B05DF804FB86B00190FF
:10593C00019B1B690493019BDB680393049A039BF3
:10594C009A4208D8019B9A68039BD21A049B134471
:10595C00013B059304E0049A039BD31A013B059386
:10596C00059B184606B0704700B589B003900291AC
:10597C000192029B0693039B5A1C13465B00134433
:10598C00DB001F4A13440593059B5B69012B17D061
:10599C00012B02D3022B23D029E00598FFF7C6FF79
:1059AC000490049A019B9A4202D20023079321E0AF
:1059BC00019B0793019A06990598FFF778FF19E068
:1059CC000598FFF7B3FF0490019A049B934228BFFC
:1059DC0013460793079A06990598FFF768FF09E0A5
:1059EC00019A06990598FFF709FF079002E000233A
:1059FC00079300BF079B184609B05DF804FB00BF76
:105A0C00FC08002000B587B003900291019200932E
:105A1C002E4B1B78002B01D1FFF7A2FE2B4B1B69E1
:105A2C001A46039B9A4248D90020FCF72FFF039B90
:105A3C00002B32D02549039B5A1C13465B001344A0
:105A4C00DB000B44029A1A602049039B5A1C134634
:105A5C005B001344DB000B440433019A1A601B49AE
:105A6C00039A13465B001344DB000B442033009A6B
:105A7C001A601649039A13465B001344DB000B446F
:105A8C00283300221A601149039A13465B00134411
:105A9C00DB000B44243300221A600C49039A134692
:105AAC005B001344DB000B442C33089A1A60002073
:105ABC00FCF700FF0023059302E04FF0FF33059342
:105ACC00059B184607B05DF804FB00BFFC080020DE
