:10000000000004207903000061030000D91C0000F7
:1000100065030000670300006903000000000000A2
:100020000000000000000000000000006B03000062
:100030006D030000000000006F030000710300006A
:100040002909000073030000690900003909000054
:100050004509000073030000A10400003D0C0000EE
:10006000CD0E0000E10E0000F50E0000050C0000B2
:1000700073030000290B00007303000073030000EA
:10008000310F0000A9110000450A00005D090000C1
:10009000451200005D0E0000630E0000690E0000B6
:1000A0006F0E0000750E0000090F00001D0F00000C
:1000B000050A0000610700000000000000000000C9
:1000C00073030000150A0000250A00005109000012
:1000D000150C0000450600007303000073030000C8
:1000E00073030000090B00001D4300000000000026
:1000F00000000000350A000000000000290E00008A
:1001000000000000000000000000000000000000EF
:1001100000000000000000000000000000000000DF
:1001200000000000000000000000000000000000CF
:1001300000000000000000000000000000000000BF
:1001400000000000000000000000000000000000AF
:10015000000000000000000000000000000000009F
:10016000000000000000000000000000000000008F
:10017000000000000000000000000000000000007F
:10018000000000000000000000000000000000006F
:10019000000000000000000000000000000000005F
:1001A000000000000000000000000000000000004F
:1001B000000000000000000000000000000000003F
:1001C000000000000000000000000000000000002F
:1001D000000000000000000000000000000000001F
:1001E000000000000000000000000000000000000F
:1001F00000000000000000000000000000000000FF
:10020000364937480A1A02D0072291438D463549AC
:1002100035480A1A06D00722914381F30988022241
:1002200082F3148831483249324A00F045F83248A6
:100230003249334A00F040F832483349334A00F03B
:100240003BF833483349344A00F036F833483449F0
:10025000344A00F031F834483449354A00F02CF87B
:1002600034483549354A00F027F8354835490022E9
:1002700000F02DF834483549002200F028F83448C1
:100280003449091A082903DB0022026004300160A6
:10029000314A90471F482049884205D002680430FF
:1002A00003B4904703BCF7E700208646EC460020E5
:1002B00000212A4A9047FEE7884207D0521A05D00B
:1002C000037801300B700131013AF9D1704788424F
:1002D00002D002700130FAE77047000000000420ED
:1002E00000E00320000004200000042094580000D7
:1002F0003000002048000020D8030000D803000090
:10030000BC4A00009458000030000020300000205B
:10031000444B0000444B0000444B0000444B0000A1
:10032000444B0000444B0000444B0000444B000091
:1003300094580000AC5800004800002048000020FD
:1003400048000020142D0020142D0020142D002022
:10035000142D0020144D0020A1030000550F0000B3
:10036000FEE7FEE7FEE7FEE7FEE7FEE7FEE7FEE765
:10037000FEE7FEE7704700BF1048804710484FF087
:100380000701884385460F4880470F48016841F4BC
:1003900070010160BFF34F8FBFF36F8FFFF730BF66
:1003A0000A480B490B4A884207D0521A05D00378F5
:1003B00001300B700131013AF9D17047750300002B
:1003C00000000420B930000088ED00E0144B00006C
:0803D0000000002030000020B5
:1003D800154B07B51A687AB100221A601B6800939A
:1003E800009B4FF080430122C3F808230F4B587934
:1003F80010B95A711B6898470D4B1A6882B10022D0
:100408001A601B680193019B4FF080430222C3F8D6
:100418000823064B1B68012003B05DF804EB18475E
:1004280003B05DF804FB00BF000100409800002005
:100438000401004000F1804000F5C040002382B074
:10044800036003680193019B02B0704703681F2B88
:1004580083BF03F01F03036001484FF0A0407047BB
:100468000003005007B502AB43F8040D1846FFF728
:10047800EDFF019B00EB8300D0F8003723F44033F5
:10048800C0F80037D0F8003743EA0141C0F8001738
:1004980003B05DF804FB00002DE9F04F002489B09B
:1004A800CDE902445F4A604E604D01211368A2F510
:1004B800C040012B80B206D1D6F804330B4202D0DB
:1004C800FFF7B8FF0C430432AA424FEA4101EDD1CD
:1004D800574B1B68012B0ED14FF4BE70FFF7AAFFD4
:1004E8004FF0A04344F00044D3F810350293514B29
:1004F800D3F81035039314F0FF0F1AD04E4F01268E
:100508000025264210D0AB0003F1804303F5C04319
:10051800D3F81005D3F8101557F82530C0F3052087
:10052800C1F3014103B198470135082D4FEA46064A
:10053800E7D1002C72DA04AE0023049373604FF005
:10054800FF33CDE906333C4F4FF001080024254620
:100558007B1993F96020531C47D0D2B222F0C0090E
:1005680008A84FEAD90300EB030B02F007011BF8B8
:10057800080C08FA01F1084237D007EB0900920984
:1005880090F9300057F820A0BAF1000F05D1032ADE
:100598002BD1F05C0843F05401E0032AF9D001A8FC
:1005A800CDF80490FFF752FF019B03F5E07350F874
:1005B80023301BF8180C0842C3F3014305D0022B63
:1005C80013D1032A0BD1114604E0032B0DD1032AC2
:1005D80005D102214846FFF745FF0134E4B2BAF1DC
:1005E800000F02D011464846D0470135042DAFD13F
:1005F800A4B14FF0A0430299D3F8102503F5407336
:100608009142D3F8103502D10399994206D002924B
:100618000393049A059B0692079397E709B0BDE8F0
:10062800F08F00BF00610040006000402061004082
:100638007C61004000030050A0000020F0B5394B59
:10064800394C1A6885B07AB100221A601B68009389
:10065800009B637943F0080303F01202122A6371C6
:1006680004BF43F020036371304B1A687AB100224B
:100678001A601B680193019B637943F0040303F03C
:100688001102112A637104BF43F020036371284BE0
:100698001A68B2B100251D601B680293029B254BA6
:1006A80025480422C3F808232946C3F800552368BF
:1006B800984723682148294698470123237105B0A4
:1006C800F0BD637903F00F020F2A08D0D80701D4D0
:1006D800190704D462799207F1D45B07EFD56379DF
:1006E800266803F0F30313F0200708D003F0D303C0
:1006F80043F01003637101210020B047DFE70E4A81
:1007080092E8030002AD85E8030012E9030043F014
:10071800100382E80300C4E90277637101212846C7
:10072800EBE700BF145102400C01002004510240C5
:1007380008510240005002401C0100201401002012
:1007480000F1804000F5E830002382B003600368C0
:100758000193019B02B070471FB53D4B3D4C1A6891
:10076800002A4AD04FF48070FFF7EAFFA37CDA43EF
:1007780002F0010204EB8201496811B9617C022987
:100788002ED1607C022818BF04EB83034FF00001D0
:100798001ABF58680290012304A80CBF63745960FB
:1007A8004FF0010300F80C3D23688DF80C10E1743C
:1007B8000CBF0291A2749847637C022B01D10123DC
:1007C8006374237D53B101238DF804300023029311
:1007D8008DF80C30237501A82368984704B010BD24
:1007E800E37C002BE8D18DF80430029301238DF8C7
:1007F8000C30E37401A82368DDE7174B1B68002B56
:10080800DFD04FF48270FFF79BFF144BC3F800252D
:10081800A37C627404EB83038DF80C2059688DF86F
:10082800042021B15A600291236801A89847A37C4B
:10083800DB4303F0010304EB83035A682AB10292F5
:1008480000225A6001A8236898470023A374B8E7D8
:1008580000D101402401002004D1014000D0014012
:1008680000F1804382B01A68002A14BF01200020DA
:1008780004D000221A601B680193019B02B07047E4
:100888004FF0804310B5D3F80443620707D54FF4FF
:100898008470FFF7E5FF10B11E4B1B689847A3064D
:1008A80008D54FF48A70FFF7DBFF18B11A4B002008
:1008B8001B689847600608D54FF48C70FFF7D0FF87
:1008C80018B1154B01201B689847210608D54FF42D
:1008D8008E70FFF7C5FF18B1104B00201B689847B2
:1008E800E20508D54FF49070FFF7BAFF18B10B4B2B
:1008F80001201B689847A3050AD54FF49270FFF7AB
:10090800AFFF28B1054B02201B68BDE8104018470F
:1009180010BD00BF3C010020400100204401002020
:1009280008B5FFF7ADFFBDE80840FFF751BD00006F
:10093800014B1B68184700BF48010020014B1B688A
:10094800184700BF50010020014B1B68184700BF23
:1009580058010020014B1B68184700BF60010020A8
:10096800014B1B68184700BF680100200023435053
:1009780082B043580193019B02B07047D0F8103100
:1009880070B505460C4653B14FF48871FFF7EEFF7A
:1009980063795A0703D523680BB101209847D5F826
:1009A80014315BB14FF48A712846FFF7DFFF637992
:1009B8001B0703D523680BB102209847D5F81C31D3
:1009C8005BB128464FF48E71FFF7D0FF607910F0C5
:1009D800100002D1236803B19847D5F8043163B1F8
:1009E8004FF482712846FFF7C1FF01232371236862
:1009F8001BB10320BDE87040184770BD014902488B
:100A0800FFF7BCBF7001002000C001400149024847
:100A1800FFF7B4BF780100200010024001490248E6
:100A2800FFF7ACBF800100200020024001490248C6
:100A3800FFF7A4BF8801002000D002407FB52B4BF0
:100A48001A68BAB12A4AD2F80413C80712D5002185
:100A580019601B680193019B4FF48073ADF8103047
:100A6800D2F80C358DF81230224B06AA1B6812E911
:100A780003009847204A1368DBB11D4BD3F80413D1
:100A8800890716D50021116012680292029A4FF464
:100A98008272ADF81020D3F81825D3F84835ADF890
:100AA8001430144BADF8122006AA1B6812E9030093
:100AB8009847124B1A68B2B10D4AD2F8042352076C
:100AC80011D500221A601B680393039B06AB4FF4F1
:100AD800847223F8082D074A93E80300126807B0C8
:100AE8005DF804EB104707B05DF804FB00210140F6
:100AF800002001409001002004210140082101400C
:100B0800054A136833B1054B002058719968106085
:100B18001A681047704700BF0091024094010020F6
:100B2800074B00221A6082B01B680193019B054B9A
:100B3800D3F80805044B1B68C0B202B0184700BFC1
:100B480000D1004000D00040A00100200023435005
:100B580082B043580193019B02B070472DE9F047DA
:100B6800DFF8948004460F4691464FF480360025FE
:100B780000F5A07AD4F8043305F150018900334216
:100B880089B20DD05AF8253053B1C4F848632046CD
:100B9800C4F80863FFF7DAFF58F82730E8B2984737
:100BA8000135A9454FEA4606E4D1D4F80433DA07FB
:100BB8000CD5D4F800314BB120464FF48071FFF7C3
:100BC800C5FF0D4B042053F827309847D4F8043359
:100BD8009B070ED5D4F804315BB120464FF48271DF
:100BE800FFF7B4FF044B052053F82730BDE8F04762
:100BF8001847BDE8F08700BFA401002003220021A8
:100C08000148FFF7ABBF00BF00B00040042201213C
:100C18000148FFF7A3BF00BF0040024000F1804039
:100C280000F5E040002382B0036003680193019B54
:100C380002B07047F0B5514B514C1B6885B0DBB121
:100C48004FF4827094F82E20FFF7E8FF12B194F861
:100C58002F30A3B1636802932389ADF80C30E368A1
:100C680000218DF80410002B44D12374236801A8B7
:100C78009847002384F82F3094F82E3003B3414B63
:100C88001B68EBB14FF48070FFF7C8FF94F82D2074
:100C9800638B91B28B4238D95B1A21899BB26383EB
:100CA800CB1A616801EB4301374BC3F82C16C3F824
:100CB80030264FF48270FFF7B1FF344B01221A60DF
:100CC800334B1B685BB14FF48870FFF7A7FF002315
:100CD80004A82374022300F80C3D236898472D4B81
:100CE8001B6813B34FF48A70FFF798FF002323742F
:100CF80005B0F0BD208B608363602081E160002A2D
:100D0800B4D1214B01221A60B0E7D2D1E3680121A6
:100D180084F82F103BB1002161831B49C1F82C36A0
:100D2800C1F83026C5E76383C3E766694FF000471B
:100D38000125002EDCD0B6FA86F227FA02F34632F5
:100D4800920026EA030602F1804303F5E0431B689C
:100D5800002BEED01046FFF761FFA2F58C72D30886
:100D680082F00402C2F380028DF808308DF8045036
:100D78008DF80920236801A89847DAE70471004034
:100D8800AC01002000710040007000400470004079
:100D980010710040147100401F2886BF00F01F002A
:100DA800044A4FF0A042012303FA00F0C2F80805F4
:100DB800704700BF000300501F2886BF00F01F00C7
:100DC800044A4FF0A042012303FA00F0C2F80C05D0
:100DD800704700BF00030050D0F8183107B5DBB1E9
:100DE8000023C0F81831D0F81831C87F0193FF28C4
:100DF800019B03D08B7F63B1FFF7DEFF084600231A
:100E08004B7700F8083FD1E9003103B05DF804EBF7
:100E18001847FFF7C1FFF1E703B05DF804FB0000D6
:100E280001490248FFF7D8BF4802002000F00240FD
:100E380030B4064A52F82040054A002532F810100E
:100E480022F81050234630BC184700BF7802002013
:100E58006C0200200120FFF7EBBF0220FFF7E8BF7C
:100E68000320FFF7E5BF0420FFF7E2BF0520FFF7E7
:100E7800DFBF2DE9F347002406460F46904600F5EC
:100E8800A0754FF48039A24604F150002B68800009
:100E980080B26BB1D6F8043309FA04F21A4207D0CB
:100EA800C5F800A02B680193019BD7E9003198474A
:100EB8000134E3B2984505F10405E5D802B0BDE870
:100EC800F0870000042202490248FFF7D2BF00BFA2
:100ED8009002002000800040042202490248FFF7E7
:100EE800C8BF00BF9C0200200090004004220249B5
:100EF8000248FFF7BEBF00BFA802002000A00040C4
:100F0800062202490248FFF7B4BF00BFB40200201E
:100F180000A00140062202490248FFF7AABF00BF0D
:100F2800C002002000B0014013B5064C23683BB155
:100F3800054B1B6898470023236023680193019B96
:100F480002B010BD00010140CC020020FEE7000005
:100F5800002138B5084602F061F8044638B9054D55
:100F68000123C5F8003503F0B5F8C5F8004520465B
:100F780038BD00BF00A0025038B50A4B00251D60DF
:100F8800BFF35F8F084C0123C4F8003503F076F8EF
:100F9800C4F80055014618B9BDE8384002F03EB81B
:100FA800032038BDD002002000A00250374B9842E1
:100FB8002FD8023B98425DD20B3B984213D8013B95
:100FC80098425AD2043B984247D003D808B148F215
:100FD800165070472E4B984218D002339842F6D1DB
:100FE80048F2105070472B4B98424CD008D8023B1F
:100FF80098421CD001339842E9D148F271507047A9
:10100800254B984202D002339842E0D148F203506F
:101018007047224B984233D015D8033B9842DFD013
:1010280008D8023B9842DBD001339842CFD148F22E
:10103800145070471A4B98421FD001339842C6D1BA
:1010480048F217507047174B9842F0D008D80A3B1F
:10105800984215D009339842B9D148F213507047D5
:10106800114B984209D0A0F57000A0F63440012831
:10107800CCD9ACE748F27050704748F2115070472D
:1010880048F20150704748F202507047120CF000C5
:10109800010CF000080CF0000D0CF000250CF0001D
:1010A800230CF000310CF000320CF00008B50121DF
:1010B800044800F07EFEBFF35F8FB0FA80F040096D
:1010C80008BD00BFD002002038B502680F4B9A4215
:1010D80004460D4614D0FFF7E9FF98B100F01AF85E
:1010E8002946201D02F006FBFFF760FF044600F0CA
:1010F8001FF8BFF35F8F064B00221A60204638BDE9
:101108000024FBE748F20454F8E700BF6169614D29
:10111800D0020020044A13680133012B136004BF76
:10112800024AC2F800357047D402002000A00250DD
:10113800044A1368013B136013B9034AC2F8003527
:10114800704700BFD402002000A00250024B4FF4A9
:101158003C6043F001031847504B000038B50C4B76
:101168000C4C4FF40032C3F8802001254FF4803333
:10117800C4F84833C4F808336560FFF7E7FF064B47
:10118800A56000241C60FFF7E1FF044B1C7038BD0C
:1011980000E100E000100140F4030020E503002016
:1011A800F8B51F4B1F491B680025C1F84051C1F80D
:1011B8004451C1F84851C1F84C51C1F80051C1F827
:1011C80004514BB3D1F8044517490968641A24F04F
:1011D8007F442F461A68A24209D8A41A15441A7CDB
:1011E800DE691AB11F74D3E905209047AEB90F4BD9
:1011F8000F4A197813788B4205D10133DBB2022BE1
:1012080008BF0023137012780A4B43F822500A4B88
:101218004FF48012C3F80021F8BD3346DAE700BF67
:10122800F803002000100140F4030020F003002020
:10123800F1030020E803002000E100E02DE9F74F6A
:101248009E4A9F49137809789E4D99423CD00133B4
:10125800DBB2022B08BF002313709B4912789B4B0B
:101268000F6853F822003B1823F07F4300220B60DD
:101278002B6816461446944613B942B12B6006E013
:10128800196881420ED902B12B60091A19604FF012
:1012980001082B68DFF83CA200930027BEB9DFF8ED
:1012A8003CB260E0401A0C44D968C3F800C0D3F8D7
:1012B8001CE031B13A1922F07F42C3E90121DE6115
:1012C8001E4601227346D7E70026B046E1E73446BA
:1012D800F6697D4A63681268DFF804C2A068991A43
:1012E80021F07F41614500F2A5800144216001227F
:1012F80022742A680023C4E90133E361002A40F01C
:10130800A2802C60CAE75A1C9BF80210D2B2914204
:101318008BF8002004BF00228BF80020182202FB63
:1013280003B32A6819799C68022974D003297ED0EE
:10133800012918D1217CB1B9DA6862601A69A26002
:101348005A699B69A361624BE2601B78002BC0D08D
:101358006160BEE79C4200F093809946DB69002BF0
:10136800F8D1002323749BF800309BF801209A429F
:10137800C9D12B682FB9009A934202D1B8F1000F56
:1013880043D0002B79D0D3F800A0524D4E4BD5F85E
:1013980004751C68DFF84C813E1B98F8003026F075
:1013A8007F4603369BB94FF48033C5F84433C5F8FC
:1013B8000433494B4FF400324FF00109C3F8802140
:1013C8001A60C5F80090FFF7C1FE88F80090B24592
:1013D8002CBF5444A41924F07F44C5F84045D5F8DF
:1013E8000435DB1B23F07F43E41B033324F07F44E5
:1013F800A3420AD9D5F80435C5F84035FFF7A6FE4B
:10140800354B4FF40032C3F80021314B00221A70DB
:1014180003B0BDE8F08F13469146A0E71174D26976
:101428000123002AFAD1002B9DD02A609BE70023D4
:101438001946F6E7D31A23F07F43834234BFC31A11
:101448000023236053E721681368994213D8591A77
:101458001160E26155E7091AD8691A4638B103469E
:1014680018688842F7D3401A186018461346216056
:10147800E061DC6112E71346F2E7FFF76FFEC4E7AD
:101488004C450DD1D3692B6053B90F480192012106
:10149800CAF8081003600E4B1970FFF757FE019A3F
:1014A800E1692368C9F81C1011B1086803440B608E
:1014B8002B689A4218BF012753E700BFF0030020AA
:1014C800F1030020F8030020F4030020E8030020C3
:1014D800E40300200010014000E100E0D8020020F1
:1014E800FEFF7F00E503002072B6024A136801334D
:1014F80013607047FC030020034A1368013B136024
:1015080003B962B6704700BFFC030020FFF7ECBFC9
:10151800FFF7F2BF70B5064E0546002456F8243092
:101528000BB1284698470134042CF7D170BD00BF91
:101538000C0400200B4A0C4B5188142000FB01318D
:10154800CB6833B90420496810700122074801F0BC
:10155800B8BB05230649137002238B8001220023A0
:101568000968F3E7240400203C0400200000002060
:101578007804002007B5002305490093054A096847
:101588000548082301F06FFB03B05DF804FB00BFBA
:1015980078040020644B00000000002007B50023F9
:1015A800009301460823034A034801F05CFB03B09B
:1015B8005DF804FB5C4B00000000002013B500231D
:1015C8000C46009301460423074A084801F04BFBE8
:1015D80038B9074B142202FB04340123237402B0E8
:1015E80010BD0E20FBE700BF584B00000000002094
:1015F8003C04002037B50A480A4B42689C881968A1
:1016080053880325033305709BB2002000909B008C
:1016180001EB8401044801F026FB03B030BD00BF94
:1016280024040020780400200000002043880333AD
:1016380000EB8303994209D382884FF6FF739A42DD
:1016480006D00088B0FA80F0400970470220704741
:1016580001207047144A142303FB002070B50B685F
:1016680044680D4604F580569BB15C88033403EB4F
:101678008404B4420BD22368013308D03146204693
:10168800FFF7D4FF012809D005D30228F1D10020A3
:1016980003E00834EDE72C60012070BD6388033354
:1016A80004EB8304E5E700BF3C040020436873B5FE
:1016B80005460C466BB3254AD1688B4229D312697B
:1016C800934226D813F0030223D1214900890989BE
:1016D80088421ED12868996888421AD11D494868ED
:1016E800834203D900F5805083420ED38A6993421E
:1016F8000DD902F58052934209D20123238000209C
:10170800B0FA80F0400902B070BD1346F6E70A202F
:10171800F6E7002323801E462388012B01D90020E9
:10172800F1E7019601A92088FFF794FF18B92388EB
:1017380001332380F0E7019B2A6899689142F1D12F
:101748006B60034B1B892B81DDE700BF0000002085
:10175800240400203C0400202DE9F8431C461E4BBD
:101768001B7806460F461546002B30D0002A30D08D
:101778007CB3DFF86C804FF01409A388012B01D9E2
:101788000A201AE009FB03F318F80330BBB1A38859
:101798000133A380F1E723681EB19988328891420A
:1017A8000DD11FB119883A88914208D19A68C5E9C4
:1017B80000230A4B1B892B810020BDE8F8832146B2
:1017C800A088FFF747FF0028E5D12060DFE7022067
:1017D800F3E70520F1E700BF1C04002024040020E3
:1017E8003C04002008B5074B191D5888FFF732FF45
:1017F80018B1BDE80840FFF7FDBEBDE80840FFF797
:1018080099BE00BF240400202DE9F04FA04FDFF857
:10181800A49289B00646B8463B6823B949469D4814
:1018280000F08CFA3860D8F8005029784B1E052B48
:1018380000F21281DFE813F0060076007600060158
:1018480006015D0126B1944B00225A60012424E070
:101858002B79032B1DD8DFE803F01502424D8F4981
:101868000B78022B084631D00B7D022B4FF0010379
:101878002ED114225343C2180020C8545068FFF7D1
:101888008DFE03E001232B71FFF774FE002800F0A2
:10189800D380814B00225A600E241422002103A811
:1018A80001F068FD41F61D539C4208BF0024D8F89A
:1018B800003004941A78023A042A00F2D381DFE84F
:1018C80012F0B401C001E301EB01F2010023D0E7FB
:1018D800714A13700023536041F61D54DDE77049C7
:1018E8007048002302222B718A800122096801F0C6
:1018F800E8F9CBE76A4C00262E712068674DFFF7A0
:101908004DFE694BD4F800C05A8814235343EA1893
:10191800EE5451682160A188C2F804C011810222E6
:10192800A280B3E7B5F814A0AA7DDFF870B1AEB114
:10193800022AEB8806D9142101FB0AB1DA1C0889AE
:1019480002440A81142202FB0ABAC3F57F43BAF89B
:101958000A20FD331344AAF80A3077E7142303FB5F
:101968000AB318895C6804EB8004062A05D8DFE806
:1019780002F0264C34421C5866000F24AA7DEB88DE
:10198800022A06D9142101FB0AB1DA1C088902448B
:101998000A81142202FB0ABAC3F57F43BAF80A2067
:1019A800FD331344AAF80A3077E74048404900233A
:1019B8004360AB690360FFF779FE00285AD0022321
:1019C800AB75002300930423EA182146354801F03B
:1019D8004AF9002830D00E24D0E72B69002B0CBF21
:1019E80001230323AB750023009305F10C020423A4
:1019F80004F10801EAE70123AB750022EB880092A5
:101A08009B002A6904F10C01E0E7032914BF0623AF
:101A18000523AB7500230093042305F10802E118A0
:101A2800D4E70623AB75224B1988204B5868FFF77B
:101A3800C5FD04460028A1D109B0BDE8F08F41F6E4
:101A48001D549BE7002E7FF401AF2B79012B33D077
:101A580004D3022B3FF440AF0F241EE702232B715F
:101A68000DF10A01EB68039303A8CDE90466FFF7BB
:101A78001DFE08B90A2410E70498BDF80A108388E7
:101A8800EB8003882B81FFF799FD044627E000BF10
:101A980038040020640400201C0400203C040020BA
:101AA8007804002000000020240400200004002006
:101AB8008004002034040020DFF808A203AA53465B
:101AC8003146A81DFFF748FE044660B9BAF804106D
:101AD8000498FFF773FD04460A2C3FF4FDAE002C72
:101AE8007FF4DBAEA8E708223146504601F042FCFD
:101AF800F2E7002E7FF4AAAE6D4B1A7BB2B11E73CB
:101B08001A78013A062AA7D801A151F822F000BF95
:101B1800BF1B0000E51B0000031C0000091C00009F
:101B2800611A00000F1C0000251C00001A78072A03
:101B3800E6D801A151F822F0611B0000091B000042
:101B4800091B0000871B00009B1B0000BB1B00003B
:101B5800BB1B0000831B00001A89564901321A81F9
:101B680000225A801A730A78B2FA82F252099A72DB
:101B78000A7DB2FA82F25209DA72012207E04E496E
:101B880058688A884088033202448A8002221A7080
:101B9800B6E7484C5A884849142505FB02420868AC
:101BA800546850608888108102228A800C6006225E
:101BB800EDE70722EBE79A7A32B9DA7A8AB9002296
:101BC8001A705A805A6087E63A4900229A72CA689F
:101BD800002AF2D1097C0029EFD05A80FFF702FED3
:101BE80053E70022DA72334A116A0029E7D192F8E2
:101BF8002420002AE3D00122EFE7FFF7FBFC44E7AB
:101C0800FFF798FC41E706221A702A4A5B881421DC
:101C180001FB03235868FFF7C1FC36E707221A7057
:101C280000225A60FFF7A6FC2FE701228DF80C204E
:101C38001A89ADF818209A88DB68ADF81A20059340
:101C480010E002228DF80C201A89ADF818209A8825
:101C5800ADF81A20DA689B7D05929A1F53425341CA
:101C68008DF81C3003A8FFF755FC00264946134899
:101C7800C8F8006000F08DF80121114800F0A3F8C1
:101C880000287FF4C9ADD7E603228DF80C20DA8846
:101C9800ADF818201A89CFE70422DB888DF80C20CC
:101CA800ADF81830DEE705238DF80C30DAE700BF11
:101CB800240400203C040020780400206404002050
:101CC80074040020840400204068FFF79DBD0000D4
:101CD8001EF0040F1CBFEFF309800AE0EFF3088041
:101CE8000549064A884201D8904202D88D464FF0ED
:101CF8000000034B184700000000042000E0032008
:101D0800311D0000BFF34F8F0549064BCA6802F426
:101D1800E0621343CB60BFF34F8F00BFFDE700BF06
:101D280000ED00E00400FA0508B5034B9A6ADB6A87
:101D3800FFF7E8FF08BD00BF00ED00E037B550E849
:101D4800023F1FFAA3F5C488A54202BFBFF32F8F35
:101D580000220DE0C48925448489A54228BF2D1B93
:101D6800C3EA054540E80254002CE8D14FF00102CF
:101D78008DF803200193019B9DF803200B6002F06E
:101D8800FF0322B14B880068184403B030BD1846E1
:101D9800FBE70A884B889A4209D150E8022FC2EA29
:101DA800224240E80223002BF7D10120704700208F
:101DB800704750E8002F0B4640E8003C9CF0000FAD
:101DC800F7D11046704750E8003FA3EB010240E806
:101DD800002C9CF0000FF6D1104670472DE9F04317
:101DE8008368D3F84861C6F3400689B0074636B120
:101DF8000022114609B0BDE8F04300F063BA01299A
:101E080006D91E4A022109B0BDE8F04300F024BA01
:101E18001B4C1C4DDFF870901823E2182D1B4FF057
:101E28006408B5FBF3F503FB05251834AC4202D171
:101E380009B0BDE8F08354F8180C54E9052301797A
:101E480000689A1A1B1ADBB2039308FB03F3B3FB6F
:101E5800F2F3CDE9016334F8043C0093CDE90612AE
:101E680054F8083C11FB08F13846B1FBF2F1CDE912
:101E780004214A46082100F0EFF9D6E7944B000008
:101E8800D44A0000D44A0000A74B000008B101F072
:101E9800CBBA70472DE9F047089C1E4609BB1B4F7B
:101EA8001B4CE41BE4089442B94606D91948E500DE
:101EB80000EB82080C46A54201D100230EE009EB95
:101EC8000403D8F800005B68196801F086FA07EB8C
:101ED800040A08340028EED1DAF804303360BDE88B
:101EE800F0870028E9D00178436839B121461046C7
:101EF80098472368002BE0D03460F0E71201991866
:101F08009B58002BD9D03160E9E700BFDC4A0000BC
:101F1800144B00001400002007B58368B9B1DA7EBD
:101F28008A4211D00B4A009233228DF8042001F125
:101F38002F028DF805206D22ADF80620D9766A4665
:101F48000549006900F0D5FC03B05DF804FBD976BB
:101F5800024AF5E71B5B313BBE4F00009A4C00007C
:101F6800836807B51A7F8A4213D045F61B32ADF84D
:101F7800002034228DF8022001F12F028DF8032071
:101F88006D22ADF8042019776A460349006900F00C
:101F9800B0FC03B05DF804FBBE4F0000014900F03F
:101FA800A8BC00BF334C00000A460068014900F095
:101FB800A0BC00BFC24C000009B1FFF7F5BF7047D5
:101FC8002DE9F34106460F461446002514B902B020
:101FD800BDE8F081706803682246D3F80C8079194F
:101FE80001ABC047019B1D44E41A002BEED1B36836
:101FF8001A78032AEAD0D3F848219206FBD5B3F819
:1020080048216FF34512A3F84821DFE72DE9F04F87
:10201800054685B017460E46002979D00C46A4EB34
:10202800060A14F8010B01F077F90028F7D1BB1B59
:1020380001935FFA87F83046FFF728FFAB685C7EAC
:10204800A0EB0A00E41BA04206EB0A095ED9019B3B
:10205800CB46A3EB0A02ABEB09039BF80000039203
:10206800029301F059F9039A28B19BF80000029BEA
:102078000A281C4607D0A868407E02EB0B0398424A
:102088000BF1010BE7D8286900F028FC22464946E5
:102098002846FFF795FF54443444A4EB060A14F885
:1020A800010B01F039F90028F7D12C4654F8100F2C
:1020B800FFF774FF41462046FFF77EFFBBE7013478
:1020C800A04218D019F804300A2B0AEB0408F6D1FC
:1020D800286900F003FC22462C4649462846FFF7AB
:1020E8006FFF54F8100FFFF759FFF9B2204608F1B7
:1020F800010AFFF761FF286906EB0A0100F0F9FB06
:10210800286905B0BDE8F04FFFF748BF0024D7E7BE
:1021180005B0BDE8F08F00000A4619B10249006811
:1021280000F0E7BB704700BFBC4C00000A4619B17D
:102138000249006800F0DDBB704700BFC84C0000D2
:102148002DE9F34106468068414F0024802221464C
:10215800A0308DF8034001F00DF93E49306900F0D8
:10216800C8FB306900F0BAFB4FF47A7547F00107F5
:10217800706803680122D3F810800DF1030101ABE8
:10218800C047019B5BB94FF6C010B847019B002BB5
:10219800EED1013DADB2002DEAD10D2034E09DF81D
:1021A8000320B3681B2A47D093F8A0101B29EDD150
:1021B800522A41D11C44002284F8A02093F8A1108F
:1021C8005B291ED103F1A200022510F8011B01357D
:1021D800EDB23B296CB21AD1002C20DB05F19F042B
:1021E8001C44002114F8010FD8B9FA2988BFFA2134
:1021F800FA2A88BFFA22002019759A7583F8A00078
:1022080002E083F8A0200B2002B0BDE8F08102EBC9
:10221800820201EB4202303A802D92B2D5D10C20D5
:10222800F2E70135303801EB8101EDB200EB4101F5
:10223800280689B2F3D4D5E719190134E4B2092C78
:1022480081F8A020A2D9002283F8A0200420DBE78F
:10225800D04C0000AD4C00000CB4F7B508AB02AD93
:1022680053F8046B45F8043D0F468168D1F84831AE
:102278005B07044620D5CB7EBB421DD002221B3112
:10228800684601F04EF839462046FFF745FE2A46D3
:102298003146206900F0A2FB9DF800102046FFF7A8
:1022A8003BFE9DF8011011B12046FFF759FE03B01F
:1022B800BDE8F04002B070472A463146206900F078
:1022C8008DFBF4E72DE9F04F044689B08048DFF82C
:1022D800249217460E4601F0A7F805467D4801F0FE
:1022E800A3F8A368CDF800907B4A5B6808212D1AF3
:1022F8002046FFF7B1FFA3685868FFF7C7FD80467F
:10230800484601F091F8A36808EB000292B2996878
:102318002046FFF77BFE714A00212046ADB2FFF749
:102328009BFF3FB136B14FF00C09B04609FB076976
:10233800C14527D1674801F077F802300544ADB2AE
:10234800634B009305F10308654A082120462B4694
:102358001FFA88F8FFF780FF424662492046FFF7D8
:1023680055FE36B10C23DFF8789103FB0767BE42B0
:1023780022D1A368D3F80C90B9F1000F5AD109B053
:10238800BDE8F08FD8F80400FFF780FD8246D8F842
:102398000000FFF77BFD5044A8420AD9D8F8040092
:1023A800FFF774FD0546D8F80000FFF76FFD0544F8
:1023B800ADB208F10C08BBE7D6E9002393B34AB3E2
:1023C8000192444A00920821474A2046FFF744FFF9
:1023D8007068FFF75BFD83463068FFF757FD82465C
:1023E8003C4801F021F8A5EB0B03A3EB0A031B1AE9
:1023F800D9B204F11000FFF7DFFD3A223B4920690A
:1024080000F077FAB16889B142462046FFF7FEFD31
:102418000C36ACE700932B464A4608212046FFF7C6
:102428001BFFEFE7002AEDD00092F4E72069FFF7E1
:10243800B5FDEDE70DF12008002248F8142D1646E9
:1024480004AF009743460121484602F1010AFFF70D
:1024580021FD039D5DB12868FFF718FDB04204D93E
:10246800039B1868FFF712FD86B25246E9E7BAF1F6
:10247800010F84D01E4A29462046FFF7EDFE06F1DB
:10248800020A2A46164D1FFA8AFA43460097012186
:10249800484602F1010BFFF7FDFC039B002B3FF4BC
:1024A8006EAF1B680093082153462A462046FFF763
:1024B800D3FE039B596831B1721D92B22046FFF7D3
:1024C800A5FD5A46E1E72069FFF768FDF9E700BF77
:1024D800D64C0000D44F0000B84F0000E94E000071
:1024E800F34E0000FB4E00000E4F0000974C00001A
:1024F800174F0000B24C0000022910B504460AD15B
:102508008368D3F848319B0705D500221146BDE8FA
:102518001040FFF7D7BE2069054A064900F0E9F9DF
:102528002069054A0349BDE8104000F0E2B900BF40
:102538009E4C0000BE4F0000A24C000010B58368FE
:10254800D3F8482192070C4606D500221146FFF71A
:10255800B9FE0124204610BD0029FBD05B68024A61
:102568000221FFF779FEF5E7FC4D0000012937B598
:102578000546144606D10022114603B0BDE8304096
:10258800FFF7A0BE023918BF0121FFF7D7FF48B9EE
:1025980063680193044B0093044A23680221284688
:1025A800FFF75AFE03B030BD784E00006F4E0000B2
:1025B80011F1FF3110B518BF01210446FFF7BEFF26
:1025C80040B9054A0549206900F093F9A36845F226
:1025D80018021A8310BD00BFA74C0000BE4F0000B0
:1025E80001292DE9F3410446154637D18668FFF7DE
:1025F800A7FD38BBA36804F11005FA21284693F813
:1026080014809F7DFFF7D0FC20691E49FA2200F054
:1026180070F92046FFF794FDA0B9A368197D71767B
:10262800A368A1EB08019B7D33762846C9B2FFF762
:1026380073FD317EC91BC9B2284602B0BDE8F0411E
:10264800FFF774BDA36845F218021A830E4A0421E5
:10265800204602B0BDE8F041FFF7FEBD022994BF55
:1026680000210121FFF76AFF48B96B680193074B06
:1026780000932B68064A02212046FFF7EDFD02B0C1
:10268800BDE8F081B64C0000AF4E0000784E000067
:102698006F4E00002DE9F04111F1FF3186B018BFEF
:1026A80001210546FFF74AFF40BBAB68DFF85480BD
:1026B800D3F840610446EEB1082C1BD03046002305
:1026C800092203A900F064FB9DF81420A96830468C
:1026D80009230132A03100F05BFBAB68049EA033F4
:1026E8000093671C2346424600212846FFF7B4FDA5
:1026F8003C46E0E7AB68002283F8A02006B0BDE8BE
:10270800F08100BFA54E000011F1FF3110B518BFD0
:1027180001210446FFF712FF30B9A368B3F8482136
:1027280060F38202A3F8482110BD11F1FF3110B502
:1027380018BF01210446FFF701FF30B9A268B2F8BB
:10274800483143F00403A2F8483110BD11F1FF31BC
:1027580010B518BF01210446FFF7F0FE30B9A36891
:10276800B3F8482160F3C302A3F8482110BD11F162
:10277800FF3110B518BF01210446FFF7DFFE30B95D
:10278800A268B2F8483143F00803A2F8483110BDF6
:10279800022973B50D4694BF00210121044616464F
:1027A800FFF7CCFE014658B9022D0BD1736801938F
:1027B8000C4B00930C4A336829462046FFF74CFD22
:1027C80002B070BDA368094AD3F8483113F0080F66
:1027D800074B18BF1346074A204602B0BDE87040B1
:1027E800FFF73ABD784E00006F4E00008D4E000096
:1027F800904E0000944E000011F1FF3110B518BF43
:1028080001210446FFF79AFE48B9A368C3F83801C6
:10281800E3685B68BDE81040186800F044BB10BD71
:102828007FB511F1FF3118BF01210446FFF786FE7D
:102838000546B8B9E3685B681E68304600F030FBAF
:10284800B368A268C1B2CDE9011364204843B0FB64
:10285800F3F0C0B20090D2F83831034A2946204636
:10286800FFF7FAFC04B070BD384E0000012906D00D
:10287800022908D18368D3F848319B0703D5002281
:102888001146FFF71FBD024A0221FFF7E5BC00BF52
:102898006A4F0000012907B506D10022114603B08E
:1028A8005DF804EBFFF70EBD02290AD153680193C6
:1028B800084B00931368084AFFF7CEFC03B05DF895
:1028C80004FB8CBF0121002103B05DF804EBFFF786
:1028D80035BE00BF784E00006F4E0000826810B50C
:1028E80004462AB143690168006998470023A36038
:1028F80010BD0EB403B5039929B102AA04AB42F87E
:10290800043D00F06BF802B05DF804EB03B07047CB
:10291800826830B40468551C8560A154D0E901323E
:102928009A4202D330BCFFF7D9BF30BC70470000D1
:102938002DE9F84F9946DDE90A431746824688464D
:102948000A460126BA420FD24E4538BF4E4613F00A
:10295800010B01D164B900240125B9F1010F1AD97D
:1029680009F1FF397D43F8E7B2FBF7F20136E9E7F1
:102978009B070ED5B9F1000F0CBF30252025A642C4
:10298800EAD2013C29465046FFF7C2FF002CF6D197
:10299800E1E72025F3E7B8FBF5F39F42E2D9DFF83A
:1029A8003890B8FBF5F3504619F8031005FB138867
:1029B800FFF7AEFFB5FBF7F5002DF2D1BBF1000F25
:1029C80002D00CB1A64201D3BDE8F88F20215046B1
:1029D800013CFFF79DFFF4E7665200002DE9F74F31
:1029E800054690460E46002900F03A8116F8011B6C
:1029F800002958D0252940F0D180002702E047F06F
:102A080001071646324612F8013B2D2BF7D0302B22
:102A180004D02B2B05D147F00407F2E747F0020753
:102A2800EFE700242A2B06F101021BD1D8F8003069
:102A3800191D1B68C8F800101C44164633782E2B45
:102A48001CD101364FF0000A314611F8012BA2F1D2
:102A58003000092814D80A2303FB0A23A3F1300AFB
:102A68000E46F1E712F8013CA3F130010929E5D837
:102A78000A2101FB0434303C1646D3E74FF0000A24
:102A8800324612F8011B01F0FB0068281646F8D000
:102A9800692916D054D8582970D00ED825297DD048
:102AA8003378002BA2D12B7B002B00F0D98028464D
:102AB80003B0BDE8F04FFFF711BF632968D0642960
:102AC800EED1D8F80020D2F80090111D89EAE972F9
:102AD800C8F80010A2EBE9724FF0010B092A61DC7B
:102AE800D34538BFD3462CB1B9F1000F01DB7907C4
:102AF80000D5013CBA0702D5BAF1000F04D0FB0794
:102B080002D4002C54D10024B9F1000F58DAC9F1CD
:102B180000092D212846FFF7FBFE07F00302022AD1
:102B280005D1BAF1000F02D1002C4DD10024CDE916
:102B3800004753460A2249462846FFF7F9FEAFE701
:102B4800732954D016D87029AAD1D8F800301A1D84
:102B5800C8F80020302128461C68FFF7D9FE7821E4
:102B68002846FFF7D5FE00220823CDE9003221468A
:102B78001022E1E775292FD0782991D1D8F80010D3
:102B88000A1DC8F80020CDE90047534610222CE062
:102B9800D8F800301A1D1978C8F800202846FFF721
:102BA800B7FE7DE70A230BF1010B92FBF3F295E7E1
:102BB800A345A9D220212846013CFFF7A9FEA0E79A
:102BC8007807AAD52B21A5E7A345B0D230212846FE
:102BD800013CFFF79DFEA7E7D8F80010CDE90047B4
:102BE8000A1DC8F8002053460A220968A4E7D8F845
:102BF80000301A1DC8F80020F907D3F8009012D544
:102C08004F46A7EB090B17F8011B41B9A345BFF4C1
:102C180047AF20212846013CFFF77AFEF6E7284611
:102C2800FFF776FEEDE7B9F1000F17D0484600F040
:102C3800FBFB0746BC4200D954B909F1FF3919F822
:102C4800011F00293FF42CAF2846FFF761FEF6E785
:102C580020212846013CFFF75BFEEBE74F46E9E7FA
:102C680003B0BDE8F08F2DE9F04108B302B3D0F806
:102C780000E0BEF1000F1ED0FBB14768D7F8048012
:102C8800B3FBF8F708FB1737BFB942EA010C1CF091
:102C9800030F14D1C768B94211D34C1E05691C44EF
:102CA800AC420CD8DEF80C40A446BDE8F0416047C1
:102CB8000E20BDE8F0810820FBE70920F9E7102085
:102CC800F7E7F0B5D8B1D0F800C0BCF1000F18D0C4
:102CD800CAB14768D7F800E00EF1FF370F4214D1A8
:102CE800C768B94211D34C1E05690EFB0244AC42B9
:102CF8000BD8DCF81040A446BDE8F04060470E2031
:102D0800F0BD0820FCE70920FAE71020F8E72DE9D4
:102D1800F047B0F806904479D2F800A09DF82080DA
:102D280009FB04F4043C06460AEB0300A0420F46E4
:102D380088BFA4EB030A191DC2F800A0B1FBF9F57E
:102D480009FB15114DB9A9EB0104544528BF544698
:102D5800BAF1000F04D1BDE8F0873668013DF1E70C
:102D680004317B1970182246B8F1000F0ED00146C5
:102D78001846AAEB040A00F0D4FAD145254436686F
:102D88004C464FF0000128BF5446E1E71946F0E7EA
:102D98001FB504AC44F8042D012200922246FFF727
:102DA800B6FF04B010BD026813685268934291BF21
:102DB800D01A80680130801888BFC01A704710B5D3
:102DC80004460020FEF7A2FB2046FFF7ECFF04466E
:102DD8000020FEF79DFB204610BD00002DE9F04FB6
:102DE8008368D3F848319B078BB0064606D5002286
:102DF80011460BB0BDE8F04FFFF764BA012906D9B8
:102E0800214A02210BB0BDE8F04FFFF725BA1F4C4D
:102E18001F4D204FDFF88080DFF8809018232D1B8E
:102E2800B5FBF3F503FB0545AC4202D10BB0BDE899
:102E3800F08FE36809932368D4F808A0D3F808B0A2
:102E48002046FFF7BCFF94F810C0642303FB00F191
:102E5800BCF1000F0CBF3A46424603FB0BF3B3FB31
:102E6800FAF3CDE9043BB1FBFAF1099B0191CDE9F5
:102E780006A2CDE9020A00934A4663690821304652
:102E8800FFF7EAF91834CFE7944B0000BC4A00007A
:102E9800D44A0000B0520000B9520000C5520000E8
:102EA800036898687047036800229A6070470000BA
:102EB8004FF4A06310B500FB033308480849C21853
:102EC800A3F5806303444FF48060934200D310BDA0
:102ED80053F8044B8C42FAD10438F6E70005002079
:102EE8000ED0ADDE2DE9FF47374F06460024B94620
:102EF8000020FEF70BFB0C2363435FFA84F8DD59CF
:102F08002DB13B445D68314B002D08BF1D460020A4
:102F1800FEF7FEFA002D47D04046FFF7C9FF2346CB
:102F28002B4A082182463046FFF796F92B46294A54
:102F380008213046FFF790F94FF4A06202FB04F134
:102F4800254A531802F2FF320A44BAF1000F31D071
:102F58004FF48061CDE902A1642101FB0AFA4FEA2E
:102F68009A21CDE9002130461C4A0821FFF774F95F
:102F78001B4B1B78434524D01A4B1A684FF000436B
:102F8800E3401342184A194B18BF1346184A082140
:102F98003046FFF761F90C2303FB0493154A9B683D
:102FA80008213046FFF758F90134032CA0D104B0AA
:102FB800BDE8F087009208210F4A3046FFF74CF928
:102FC800D6E70E4BE2E700BF00140020D253000002
:102FD800F4530000FF530000000600200D540000C9
:102FE8008C04002090040020EB530000D95300000B
:102FF8005F5400006C54000047540000E353000085
:10300800054B1A78022A04D01878431E58425841B2
:1030180070470120704700BF2414002070B5154B7D
:103028006A469A4206460D4619D3FFF7E9FFC8B12A
:10303800114C236823B1114B1A68114B9A4214D0D2
:10304800AEB9A5B90F4810492060FEF73DF828B978
:103058000A4B0B4A1A6023680C4A1A6070BD48F282
:103068001950FBE74FF40540F8E70020F6E748F26F
:103078001750F3E700E00320F42C0020101500207F
:103088006572E54B28140020141500206169614D14
:10309800054B1B68082B01BF044B1868B0FA80F079
:1030A800400918BF0020704730010010340100109B
:1030B80008B54FF080430022C3F80C21C3F8102153
:1030C800C3F838254FF0805203F54043D2F8041472
:1030D800C3F82015D2F80814C3F82415D2F80C1434
:1030E800C3F82815D2F81014C3F82C15D2F8141404
:1030F800C3F83015D2F81814C3F83415D2F81C14D4
:10310800C3F84015D2F82014C3F84415D2F8241493
:10311800C3F84815D2F82814C3F84C15D2F82C1463
:10312800C3F85015D2F83014C3F85415D2F8341433
:10313800C3F86015D2F83814C3F86415D2F83C14F3
:10314800C3F86815D2F84014C3F86C15D2F84424B3
:10315800C3F87025FFF79CFF10B1384B384A1A6046
:10316800FFF796FF18B1374BFB22C3F81825FFF776
:103178008FFF48B13449354B0A681B6822F00F02AB
:1031880003F00F0313430B60FFF782FF18B1304BB6
:103198004FF400721A604FF08043D3F80024D2072E
:1031A80044BF6FF00102C3F800242A4AD2F88830DD
:1031B80043F47003C2F88830BFF34F8FBFF36F8FAB
:1031C8004FF01023D3F80022002A03DBD3F804328F
:1031D800002B2FDA204B0122C3F80425D3F8002452
:1031E800002AFBD04FF010221221C2F80012D3F8A7
:1031F8000024002AFBD04FF010231222C3F8042227
:10320800154B1A46D3F800140029FBD00021C3F847
:103218000415D2F80034002BFBD0BFF34F8F0D49B3
:103228000E4BCA6802F4E0621343CB60BFF34F8FC2
:1032380000BFFDE70A4B0B4A1A6008BD8C560040D8
:103248004881030000F00040E40E004058020010DE
:103258004096024000ED00E000E001400400FA055D
:10326800300000200090D0037F2805D8034B185C5D
:10327800034B5B5C18407047002070478054000087
:1032880000550000A0F16103192B98BF2038704742
:10329800A0F14103192B98BF203070477F2805D82B
:1032A800034B185C034B5B5C184070470020704769
:1032B8008054000000550000A0F16103192B98BF4D
:1032C80020387047A0F14103192B98BF2030704770
:1032D8007F299ABF017001206FF02E0070475AB104
:1032E8000A787F2A0AD800B1026000211960596063
:1032F800501A18BF01207047002070476FF02E0049
:103308007047000008B5034B5B689B681B689847CB
:1033180008BD00BF3400002008B50821FFF7F2FF00
:1033280008BD844640EA010313F0030F18D1844610
:10333800202A0BD32DE9F007B1E8F807A0E8F80731
:10334800A2F12002202AF7D2BDE8F007042A07D309
:1033580051F8043B40F8043BA2F10402042AF7D2D6
:10336800002A05D011F8013B00F8013B013AF9D1D8
:10337800604670478446002A2DD010F0030F04D011
:1033880000F8011B013A26D0F7E7C9B241EA01214A
:1033980041EA0141202A12D3A2F120022DE9F003CB
:1033A8000B460C460D460E460F4688468946A0E851
:1033B800FA03203AFBD2BDE8F00320320BD0042AEE
:1033C80005D340F8041B043A05D0042AF9D200F8C2
:1033D800011B013AFBD16046704710F0030F19D169
:1033E80011F0030F16D12DE970004FF001364FF0A0
:1033F800803350F8044B51F8045BAC4205D1A4EB80
:10340800060525EA04051D40F3D0A0F10400A1F14A
:10341800040170BC10F8012B11F8013BD21A01D13C
:10342800002BF7D11046704700F1010110F0030F8F
:1034380011D010F8012B002A23D010F0030F0AD066
:1034480010F8012B002A1CD010F0030F03D010F83D
:10345800012B002A15D02DE970004FF001324FF0F2
:10346800803350F8044BA4EB020525EA04051D40FF
:1034780000D1F6E7A0F1040070BC10F8012B002A77
:10348800FBD1A0EB01007047F0B51F4699B00023AF
:103498000E461546D0F8D040194605A8032200F07C
:1034A80073FA48BBA4000146082303AA05A8CDE97E
:1034B800035400F0A9FAF8B9291905A800F0CAFAC6
:1034C800D0B937B92B461022314605A800F0DAFAF0
:1034D80090B918A904F1100341F8583D32460191FA
:1034E8000095194605A800F013FB054B002814BFEA
:1034F8001846002019B0F0BD014819B0F0BD00BF52
:10350800360CF0002DE9F04F764C804689469446FB
:103518009E460FCCB7B007AF3D460FC594E80F00E5
:1035280004F1100685E80F000FCE0FAD0FC596E821
:103538000F00303485E80F000FCC17AD0FC50FCC46
:103548000FC594E80F00D8F8D040042C85E80F0088
:1035580001D0082C08D1251D409BAD009D4207D005
:10356800614837B0BDE8F08F604837B0BDE8F08FEC
:1035780009EB0C019CFA8CF30CF118080CF109000A
:10358800C9F800302EBA802328F00F08A8EB0002F3
:10359800C9F8046048440B720021CDF80CE000F033
:1035A8001BFE409B1B09A5F1100508BF23AC6DD07D
:1035B800042CDDF80CA04FF0000623ACAB461FD15D
:1035C80053E02046CDE9057B00F01EFA294630BBC2
:1035D800204600F03FFA36AD4FF0100C43464A46FD
:1035E8004146E0B945F8C8CD2046CDE900A500F030
:1035F8008FFA0AF1100A90B9409BB6EB131F44D218
:10360800002319460222204600F0BEF9014617A8F9
:1036180000EB0615082305AA01360029D1D0344845
:1036280037B0BDE8F08F2046CDE9057B00F0ECF916
:1036380029460028F3D1204600F00CFA36AD4FF0A9
:10364800100C43464A4641460028E8D145F8C8CD03
:103658002046CDE900A500F05BFA0AF1100A00281F
:10366800DDD1409BB6EB131F0FD20023194602226F
:10367800204600F089F901460FA800EB061508233B
:1036880005AA01360029CED0C9E75D460023039E6E
:10369800194601222046CDE9056500F075F9002894
:1036A800BDD10146082305AA204600F0ADF900283F
:1036B800B5D17119204600F0CDF90028AFD10146E7
:1036C800409A304600F088FD409B009640A9019141
:1036D80032462046194600F01BFA00283FF441AF55
:1036E8009DE700BFC0560000230CF000210CF0003D
:1036F800360CF0002DE9F0478EB0002800F0C680A7
:10370800002900F0B68004460D46E42100F066FD6D
:1037180007A9204600F074FC20B1614E30460EB077
:10372800BDE8F0875F4F4FF0FF31386800F076FD55
:10373800002840F0A7802A4607A9204600F05EFC32
:103748000646386800F08CFD002840F09780002E6F
:10375800E3D1E421204600F041FD4FF0FF31386805
:1037680000F05CFD002840F0968007A9204600F094
:1037780047FC002874D1D4F8D030042B01D0082B92
:103788006ED1D4F8C4200C2A6AD803F1040A0EAB0F
:103798004FEA4A1243F8242D06A804AACDE90020CE
:1037A800029507A90022204600F0ACFA00284ED165
:1037B800069B0498D4F8C42023F00303083304F1CB
:1037C800840818449200414600F004FDD4F8C4204F
:1037D800069B049903EB82064FEA8A0ACDF800A0FB
:1037E8003246434620460696FFF78CFE814670BB5C
:1037F8005146204600F0F2FC4B4622464146204600
:10380800FFF742FE064610BBD4F8D430C4F8C40013
:1038180023F4803343F001030122C4F8D430224B4F
:10382800C4F8CC204046C4F8DC30402100F0D6FC77
:1038380028464FF4BF5100F0D1FC386800F010FD65
:1038480000283FF46BAF194800F0AEFC66E720464D
:10385800E42100F0C3FC28464FF4BF5100F0BEFC41
:10386800386800F0FDFC10B1104800F09DFC104EC7
:1038780054E7104E30460EB0BDE8F0870B4800F014
:1038880093FC64E70C4800F08FFC54E70B4E30467D
:103898000EB0BDE8F087084800F086FC65E700BF79
:1038A800110CF0000C2D0020CDAB2301485700006F
:1038B800120CF000200CF00030570000250CF0002E
:1038C80038B504464FF4806000F0F0FC054D06481A
:1038D8000649074A00232B6003600B6823601360C6
:1038E80038BD00BFC8B102502CB1025004B102501B
:1038F80008B102500138072815D8DFE800F0100C8D
:103908001408141414048B698B60002070474B69E9
:103918008B60002070470B698B6000207047CB6874
:103928008B60002070470148704700BF310CF100E0
:103938000B6802E0082B0B6006D8426813424FEA76
:103948004303F7D00020704700487047310CF1005E
:10395800084B094A002119601368002BFCD107485D
:103968000749084A03604FF480604FF0FF3308604E
:10397800136070472CB1025010B90250C4B1025004
:1039880008BA025008B1025060B1032A01D9052AC9
:1039980006D1012902D843B1164870471648704726
:1039A800164870474FF470007047022A70B50446F5
:1039B80015460E4612D0052A10D04C2100F00EFCF8
:1039C800052D88BF4FF0FF320DD900200123C4E92F
:1039D8000826C4E90B00C4E90D3370BD3EB94C217B
:1039E800204600F0FBFB064B53F82520EDE7054881
:1039F80070BD00BF0E00F0000600F0000200F000ED
:103A0800605700001200F000D0B1AAB191B9082B9C
:103A180012D15368102B11D113686BB110B513462E
:103A2800012282620C461030D3E9001200F0D2FB6A
:103A3800204610BD04487047044870470448704742
:103A48004FF47000704700BF0500F0000400F0005C
:103A58000300F00070B108B5036A013B022B05D8DA
:103A680031B1102200F0B6FB002008BD034808BDA4
:103A7800034808BD4FF47000704700BF0200F00013
:103A88000100F00020B331B3C2B138B512F00F0411
:103A98001CD1056A25F00405032D01D0FBB11C4695
:103AA8001346224600F056FC124B98421FD007D806
:103AB800B0F5710F18D010D898B938BD0E487047B6
:103AC8000E4B984209D9013398420AD10A4838BDA9
:103AD8004FF4700070470A4870470A4838BD0A48D2
:103AE80038BD4FF4750038BD4FF4700038BD074835
:103AF80038BD00BF0200F1000A00F0000400F10028
:103B08000800F0000200F0000900F0000600F000D4
:103B180000284AD0AAB1994211D870B5059B002B4C
:103B280038D0036A23F00404032C049C0DD0002C25
:103B380032D0059C24688C420CD2274870BD274897
:103B480070470029E9D0264870473CB3059C246893
:103B58000F2CF2D90C0703D0012B21D9032B1FD02E
:103B68000E4633461146049A044600F033FD0546D6
:103B780038B9236A23F00403032B20D0059B1E6069
:103B880070BDA0F57100052823D8DFE800F01311F7
:103B98001611110C134870BD0029E1D0124870BDF0
:103BA800C36A002BDCD1114870BD4FF47000704718
:103BB8000F4870BD4FF4700070BD0E4870BD04987A
:103BC8002146102200F006FB059A102313602846B0
:103BD80070BD4FF4750070BD0D00F0000C00F000D2
:103BE8000800F0001100F0000900F0000A00F000E1
:103BF8000200F0000600F000002867D0002965D018
:103C0800002B63D02DE9F04722B1012400221C606B
:103C1800C0F8D8201A68002A55D00D46064619461D
:103C280028461C46FFF784FE00284DD12946206807
:103C3800FFF760FE002847D12368082B48D0042BE3
:103C480049D0A3F10208B8FA88F84FEA5818234F68
:103C58002349244B01223A6094460A609646C7F8E5
:103C680000E0A96819601968AA689142F7D11E4A4C
:103C7800DFF888901D49DFF888E01D4F00234FF0DA
:103C8800FF3A1360C9F800A06FF01309CEF800904E
:103C9800C7F800800B60AB6803EB43031B049B0968
:103CA800C1F8A030C2F800C0D6F8D830226823F096
:103CB8007F4343EA0263C6F8D830226843EA022306
:103CC800C6F8D83000E00B48BDE8F0870A487047CE
:103CD8004FF00308BBE74FF00208B8E7C4B1025041
:103CE80040B1025030B102502CB1025038B10250EC
:103CF8000CB10250310CF100350CF10008B1025042
:103D080000B102502DE9F04F93B080460C4616469C
:103D180006A830220021DDE91C59FFF72BFB1E9B6A
:103D280003F5C16200232A60C9F80030D8F8D430FE
:103D380013F4407F13D02B681B68C9F80030002BA0
:103D480000F0AE80D8F8D40010F4007040F08880FD
:103D58000390FFF7FDFD039813B0BDE8F08F002E28
:103D680000F088809349944A0868A16812689142D3
:103D780040F09A80002840F0978098F8DB30049350
:103D88008E4E8F4DDFF848B24FF0040A002305939A
:103D980001270CE09A0700F18980DB0600F19A8080
:103DA800A36803EB43031B049B0933602F6005A83A
:103DB800FFF786FD059BD907ECD54FF0FF33CBF80D
:103DC8000030804B1B6806937F4B1A6807925A682D
:103DD800089208337D4A1B680993A36811680A9101
:103DE80003EB430351680B91203A1B049B091268AB
:103DF8003360012700232F6005930AE0990755D403
:103E0800DA0667D4A36803EB43031B049B093360FA
:103E18002F6005A8FFF754FD059BD807EED56C4A1F
:103E2800684B4FF0FF3111601A680C925A680D9276
:103E38009A680E92DA680F921A6910925A6911926A
:103E4800103B1B681E9B06A903F5C260302200F0D8
:103E5800C1F93023C9F80030D8F8D430002019E06F
:103E68002B685C485A685C4B002A08BF184613B098
:103E7800BDE8F08F23F00F03C8F8D4300122009674
:103E880004AB21464046FFF7B7FE00283FF478AF61
:103E9800D8F8D4309B057FF55BAF13B0BDE8F08F41
:103EA8004D4813B0BDE8F08F4C48F3E74FF0FF33AF
:103EB800CBF80030049B082B72D05B000493E4B16C
:103EC80083B9D8F8D43061684548464A002918BFF4
:103ED8001046DFE710224FF0FF33CBF80020CBF875
:103EE8000030E7E704A92046FFF722FD48B13C4A25
:103EF800D8F8D4309042CDD1E5E7D8F8D4303A4854
:103F0800C8E721460498FFF7F5FC0028EFD1049B89
:103F1800082B49D0042B4AD0A3F1020EBEFA8EFE1C
:103F28004FEA5E1E3148324F234A01230360194687
:103F38003B6084461F46CCF80070A3681360136882
:103F4800A0688342F7D100231A4A2A4F2A482B60D7
:103F58004FF0FF3CCBF800C06FF0130CC7F800C05F
:103F6800C0F800E01360A36803EB43031B049B093C
:103F780033602960049AD8F8D810130243EA026320
:103F880021F07F421A43130A03F47F03134323F0FB
:103F98007F43BAF1010AC8F8D8307FF4F7AE51E789
:103FA800D8F8D4300F4875E74FF0030EBAE74FF052
:103FB800020EB7E738B1025030B10250D8B1025002
:103FC8002CB1025014B1025018B1025024B1025061
:103FD80008B10250340CF000330CF000300CF10042
:103FE800310CF100320CF100350CF100C4B1025073
:103FF80040B1025000B102500CB10250002070478D
:1040080030B5042385B00122C0F8D03000230A60FF
:1040180068460C46CDE90033CDE9023300F022F8BA
:104028000546C8B9DDE90030DDE90212E360003376
:1040380018BF0123C4E90401A26108B143F00203D7
:1040480009B143F004030AB143F0080300222846EB
:104058006360A26005B030BD014800F0A5F8E1E753
:104068007857000003464FF4FA714FF47A72002033
:104078009960C3E90022D860704700BF10B500F00E
:1040880031F898B900F0FEF898B90E4B1B681B0E72
:10409800F02B10D10C4A0D4B12689A420DD0062411
:1040A80000F0F6F800F05CF8204610BD0424204625
:1040B80010BD0324F6E70524F2E7054B0446186013
:1040C800F5E700BF28B9025024BA02500000E020EA
:1040D8000CBA025008B500F0DBF8BDE8084000F063
:1040E8003FB800BF08B500214FF4004000F06EF85B
:1040F80008B1012008BD124800F074F878B91148D9
:1041080000F070F898B9104B0E4A10481A6000F089
:1041180069F880B90E4B0D4A1A60002008BD0D4899
:1041280000F042F8074800F05DF80028EBD00A4894
:1041380000F03AF8E7E7094800F036F8EAE700BF88
:10414800102D0020042D00200C2D0020082D00200B
:10415800FC2C0020A8570000C4570000E0570000BE
:1041680070B50E4E0E4D0F4C00F032F8304600F090
:1041780047F83046042100F031F8284600F040F8AE
:104188002846042100F02AF8204600F039F8204695
:104198000421BDE8704000F021B800BF102D0020B8
:1041A800042D0020082D0020BFF34F8F0549064B32
:1041B800CA6802F4E0621343CB60BFF34F8F00BFBD
:1041C800FDE700BF00ED00E00400FA05002070479D
:1041D800704700BFFFF7A5B8FFF7CCB80A46002123
:1041E800FFF7C8B810B5044610B10020206010BD14
:1041F8000248FFF7D9FF0020206010BD00580000DA
:1042080010B5044610B10020206010BD0248FFF729
:10421800CBFF0020206010BD0058000010B50446F8
:10422800B8B1BFF35B8F2368BFF35B8F012BF8D066
:104238000122BFF35B8F54E8003F44E800210029C6
:10424800F9D1BFF35B8F012BF3D1BFF35F8F002050
:1042580010BD0248FFF7A8FFE3E700BF245800009D
:1042680010B5044620B1BFF35F8F0020206010BD59
:104278000348FFF799FFBFF35F8F0020206010BD50
:1042880044580000014B002018607047F82C0020AB
:1042980000207047014B1860704700BF08BA0250F1
:1042A800014B1860704700BF04BA025010B50446AD
:1042B80082B0C0B11249134AC3430B60136801931B
:1042C800019B18420AD1104A20BFBFF35B8F1368C5
:1042D800BFF35B8F0193019B2342F5D00B4B1C600E
:1042E800019802B010BD0A48FFF75EFF044A054B6B
:1042F8004FF0FF3111601B680193019BE3E700BF9A
:1043080004BA025000BA0250F82C002008BA025031
:10431800645800000B490C4B0C4A4FF0FF30086002
:104328001B68BFF35B8F52E8001F42E8003000288B
:10433800F9D1BFF35B8F9942F3D1BFF35F8F044A82
:104348001360704704BA025000BA0250F82C0020DB
:1043580008BA0250002800F0A080F0B5446B83B082
:10436800002C72D0012C02D1B3F5803F70D20446E4
:104378000E467A484FF0FF311D461746FFF74EFFAD
:10438800002840F08680764B01221A60236A072BAA
:104398006ED802FA03F313F08F0F69D0636A934261
:1043A80066D8636B934263D8A36B934260D86D4B16
:1043B8006D491A600B68002BFCD16C4A1368002BFE
:1043C800FCD16B4A1368002BFCD16A4A1368002B96
:1043D800FCD1694A1368002BFCD14FF0FF300193E0
:1043E800FFF758FF226A22F00402032A14BF402074
:1043F8008020FFF755FF614A019B1360226A22F073
:104408000401032918BF636A5D494FEA820218BF95
:1044180003F0010302F01C0213430B60236A072B0D
:1044280002D1584B01221A60A36A012B00F0868042
:104438007ED3022B7CD0236A5A1E062A3AD8DFE89C
:1044480002F02F672F3939392F00B3F5805F8ED3EB
:104458004D4803B0F0BD4D4A4D4B126822601A68B2
:1044680062605A68A26008331B68E3600123236313
:10447800484B1C68002CFCD1394B38481C60FFF7AE
:10448800EFFE0028E5D04448FFF78EFE204603B033
:10449800F0BD4248FFF788FE75E74FF4710070479A
:1044A8003F4B22681A6062685A60A2689A60E268A4
:1044B800DA60236A23F00403032B2ED0A36B012BAD
:1044C80046D0384A384B176020201D60636B012B9B
:1044D80029D0364A364B16601D60FFF7E7FE2D4A95
:1044E8001368002BFCD1236A013B062BBED801A21E
:1044F80052F823F01D4500005F4400001D450000F0
:104508007544000075440000754400001D45000016
:104518001E4BC6E7224A274B9FE7636B012B01D04E
:104528001020D6E74020244A244B16601D60D4E7AB
:104538002349244A0B60012313607CE7224B22693C
:104548001A6062695A60A2699A60E269DA6072E781
:104558001E4A1F4B176080201D60B7E7102D0020F2
:1045680010B8025000B9025070B4025020BD025079
:1045780020BC025038BD025038BC0250BCB40250B6
:10458800C0B402507CB402500500F10060B402507F
:1045980064B4025010B90250485700003057000068
:1045A80040B4025030BD025034BD025030BC0250FD
:1045B80034BC025044B4025028BC02502CBC0250F7
:1045C80038BA025078B4025000B4025028BD0250E4
:1045D8002CBD0250F0B583B0002800F037811D468D
:1045E800036A072B0E4604460AD01746002D40F0F2
:1045F8008780032B00F094800024204603B0F0BD90
:10460800436B002B00F08780012B02D1B5F5803F6A
:104618007DD215B9236B002B79D14FF0FF319C481F
:10462800FFF7FCFD002840F0CE819A4B01221A606A
:10463800236A072B00F2178102FA03F313F08F0F96
:1046480000F01181636A934200F21F81636B934209
:1046580000F2E381A36B934200F2FD818E4B8F49F8
:104668001A600B68002BFCD18D4A1368002BFCD113
:104678008C4A1368002BFCD18B4A1368002BFCD1A1
:104688008A4B1F68002FFCD14FF0FF30FFF702FE66
:10469800236A23F00403032B14BF40208020FFF774
:1046A800FFFD834B1F60236A23F00402032A18BF0F
:1046B800676A804A4FEA830318BF07F0010703F0CF
:1046C8001C031F431760236A072B02D17A4B012270
:1046D8001A60A36A012B00F0A881C0F0A081022B08
:1046E80000F09D81236A013B062B00F23F81DFE841
:1046F80013F03401560134013D013D013D013401FF
:10470800436B002B40F0A780B5F5805F13D36B4C4B
:10471800204603B0F0BDB5F5805FFFF47AAFF6E749
:10472800036B002B7FF468AFC0E90F55C0E9115542
:1047380000F13C0610254FF0FF315548FFF76EFD9C
:10474800002840F09E80534B01221A60236A072BF1
:104758006AD802FA03F313F08F0F65D0636A9342A5
:1047680062D8636B93425FD8A36B93425CD84A4B81
:104778004A491A600B68002BFCD1494A1368002B80
:10478800FCD1484A1368002BFCD1474A1368002B18
:10479800FCD1464A1368002BFCD14FF0FF3001933F
:1047A800FFF778FD226A22F00402032A14BF402092
:1047B8008020FFF775FD3E4A019B1360226A22F0B4
:1047C8000401032918BF636A3A494FEA820218BFF5
:1047D80003F0010302F01C0213430B60236A072B4A
:1047E80002D1354B01221A60A36A012B00F00B811C
:1047F800C0F00381022B00F00081236A5A1E062AAA
:1048080076D8DFE802F06BA56B7575756B002C4ADE
:104818002C4B126822601A6862605A68A2600833DA
:104828001B68E36001232363274B1C68002CFCD121
:10483800184B17481C60FFF713FD00283FF4DCAE47
:104848002248FFF7B1FC204603B0F0BD4FF47104D5
:10485800204603B0F0BD012B7FF46DAFB5F5803F66
:10486800BFF455AF67E71A4C174A1368002BFCD101
:10487800084A07481360FFF7F3FC00283FF4BDAE71
:10488800DEE71448FFF790FC5DE7134CECE700BF48
:10489800102D002010B8025000B9025070B4025018
:1048A80020BD025020BC025038BD025038BC025016
:1048B800BCB40250C0B402507CB402500500F100F0
:1048C80060B4025064B4025010B902504857000056
:1048D8000100F100305700000200F1005F4B226830
:1048E8001A6062685A60A2689A60E268DA60236AAD
:1048F80023F00403032B6AD0A36B012B00F0A580DF
:10490800574A584B176020201D60636B012B6FD0EE
:10491800554A564B16601D60FFF7C8FC544A136889
:10492800002BFCD1236A013B062B3FF67BAF01A28B
:1049380052F823F05D490000174800005D49000067
:104948002D4800002D4800002D4800005D4900005A
:10495800484BC4E7414A484B5BE7404B22681A6022
:1049680062685A60A2689A60E268DA604349444A19
:1049780001230B601560002D2ED1226B0AB9414A24
:1049880013603B4A1368002BFCD1236A013B062BBA
:1049980007D8DFE803F01508150606061500354B9D
:1049A800DCE7002460E7334A374B126822601A6854
:1049B80062605A68A26008331B68E360002453E70A
:1049C800264A2D4BF1E73148FFF7EEFB2DE6636BE6
:1049D800012B0CD010209BE7636B012B2FD0224AB0
:1049E800224B166010201D60FFF760FCC9E74020CD
:1049F800274A284B16601D608EE72749274A0B6017
:104A080001231360F9E6264B22691A6062695A602D
:104A1800A2699A60E269DA60EFE6224C24E71E494F
:104A28001E4A0B60012313605CE61D4B22691A6065
:104A380062695A60A2699A60E269DA6052E6144AC9
:104A4800144B166040201D60CEE7174A174B1760BD
:104A580080201D6059E7164C06E700BF40B402509D
:104A680030BD025034BD025030BC025034BC02503C
:104A780010B9025060B4025044B402507CB40250E1
:104A8800BCB4025024B5025064B402503057000040
:104A980028BC02502CBC025038BA025078B40250DC
:104AA80000B402500300F10028BD02502CBD025092
:044AB8000400F10005
:104ABC008C00002048000020400000000100000095
:084ACC0000000000444B000053
:084AD400810F0000590F0000E2
:104ADC0000000000384C000000000000C44F000033
:104AEC0000000000284F000000000000284E0000CD
:104AFC0000000000184E000000000000785200007A
:084B0C000000000090530000BE
:104B14000000000000000000D11C000000000000A4
:044B2400000000008D
:104B2800000000000000000000000000000000007D
:0C4B380000000000000000000000000071
:104B44006D5F72616E645F706F6F6C000338FDD8C7
:104B5400704700000000FFFFDEC0ADDEFE011EF165
:104B6400DEC0ADDEFF011EF100000000744B00004A
:104B74006E4C0000754C000000000000E51D0000B4
:104B84000000000000000000000000000000000021
:104B940042616420617267756D656E7420636F7520
:104BA4006E740025730D0A092D20456C656D656EC4
:104BB400742073697A653A092564202B20256420C2
:104BC4006279746573206F66206465627567206915
:104BD4006E666F726D6174696F6E0D0A092D2055D2
:104BE400736167653A092575252520282575206F89
:104BF4007574206F6620257520656C656D656E740F
:104C040073290D0A092D204D6178696D756D3A0976
:104C14002575252520282575206F7574206F66203D
:104C2400257520656C656D656E7473290D0A0D0A12
:104C340000000000484C00004F4C00006C4B00008A
:104C4400E51D000062616C6C6F6300436F6D6D6104
:104C54006E647320666F722042414C4C4F43206D4A
:104C6400616E6167656D656E7400737461747573EC
:104C7400005072696E7420737461747573206F666A
:104C84002062616C6C6F6320696E7374616E63651E
:104C9400732E002563001B5B6D001B5B48001B5BD0
:104CA400324A001B5B3F336C001B5B366E00202DC9
:104CB40020001B5B256442001B5B256444001B5BD6
:104CC400256443001B5B2564410000000338FDD8C4
:104CD40070472D682C202D2D68656C700000000035
:104CE40000000000EC4C00001F51000026510000A1
:104CF400644D0000752500003D5100004251000044
:104D04009C4D0000992700005351000059510000A8
:104D14002C4D00009D280000000000000000000051
:104D2400000000000000000000000000344D0000FE
:104D3400695100006F5100000000000001280000CC
:104D44009B510000A0510000000000002928000031
:104D5400000000000000000000000000000000004F
:104D6400000000006C4D0000904E0000375200001F
:104D740000000000112700008D4E00004F5200007B
:104D840000000000332700000000000000000000C5
:104D9400000000000000000000000000A44D00001E
:104DA400904E0000CA51000000000000552700008A
:104DB4008D4E0000265200000000000077270000FE
:104DC40000000000000000000000000000000000DF
:104DD40000000000DC4D0000D3500000DB50000058
:104DE40000000000B92500000000000000000000E1
:104DF400000000000000000025733A2077726F6EF7
:104E04006720706172616D6574657220636F756E81
:104E1400740A0000BF500000C550000000000000EC
:104E240001250000975000009B500000E44C000056
:104E3400752800004C6F7374206C6F67733A2025DB
:104E4400750A4D6178206C6F6720717565756520F2
:104E54007574696C697A6174696F6E3A2025752579
:104E640025205B25752F25755D0A0025733A25736A
:104E740025730A0020756E6B6E6F776E20706172F9
:104E8400616D657465723A20006F6E006F6666002E
:104E94004563686F207374617475733A2025730ACF
:104EA400005B2533645D2025730A004E6F20726514
:104EB40073706F6E73652066726F6D207468652001
:104EC4007465726D696E616C2C20617373756D65A8
:104ED400642038307832342073637265656E2073D1
:104EE400697A650A004F7074696F6E733A0A00201C
:104EF40020252D2A733A0053686F7720636F6D6DF8
:104F0400616E642068656C702E0020202573257303
:104F1400257300537562636F6D6D616E64733A0A35
:104F2400000000007E5000008650000000000000D9
:104F34009D2600006E6F74207465726D696E6174D5
:104F440065643A2025630A003A20636F6D6D616ED3
:104F540064206E6F7420666F756E64002D68002D7A
:104F64002D68656C7000506C6561736520737065A5
:104F740063696679206120737562636F6D6D616E1C
:104F8400642E0A005461622066756E6374696F6EE4
:104F94003A20636F6D6D616E647320636F756E7418
:104FA4006572206F766572666C6F7765642E0A0091
:104FB4002020000A25732573000A257300000000D1
:104FC400D74F0000DE4F0000D44D0000E92500005B
:104FD4002C2000726573697A6500436F6E736F6C81
:104FE400652067657473207465726D696E616C20E9
:104FF40073637265656E2073697A65206F722061D0
:105004007373756D657320383020696E2063617326
:10501400652074686520726561646F7574206661CB
:10502400696C732E204974206D7573742062652039
:10503400657865637574656420616674657220655E
:10504400616368207465726D696E616C2077696450
:105054007468206368616E676520746F20656E7381
:1050640075726520636F72726563742074657874F9
:1050740020646973706C61792E00686973746F724F
:105084007900436F6D6D616E6420686973746F722B
:10509400792E00636C690055736566756C2C206EFF
:1050A4006F7420556E69782D6C696B6520434C498B
:1050B40020636F6D6D616E64732E00636C65617245
:1050C40000436C6561722073637265656E2E0064C3
:1050D400656661756C7400417373756D6520383055
:1050E4002063686172732073637265656E207769EB
:1050F40064746820616E642073656E6420746869EA
:10510400732073657474696E6720746F20746865A6
:10511400207465726D696E616C2E00636F6C6F72C2
:105124007300546F67676C6520636F6C6F7265649E
:105134002073796E7461782E006563686F00546F14
:1051440067676C6520434C49206563686F2E007364
:105154007461747300434C4920737461746973748B
:105164006963732E007265736574005265736574A8
:1051740020434C49207374617469737469637320A8
:10518400666F7220746865204C6F67676572206D66
:105194006F64756C652E0073686F770047657420C3
:1051A400434C492073746174697374696373206632
:1051B4006F7220746865204C6F67676572206D6F2D
:1051C40064756C652E0044697361626C6520434CA0
:1051D40049206563686F2E204172726F7773206176
:1051E4006E6420627574746F6E733A204261636BEF
:1051F40073706163652C2044656C6574652C20456F
:105204006E642C20486F6D652C20496E7365727432
:1052140020617265206E6F742068616E646C6564D1
:105224002E00456E61626C6520434C4920656368BD
:105234006F2E0044697361626C6520636F6C6F72DA
:1052440065642073796E7461782E00456E61626CBA
:105254006520636F6C6F7265642073796E74617816
:105264002E003031323334353637383941424344F5
:1052740045460000415300004F4C00008852000096
:10528400E52D000000000000905200006E4C00006C
:105294004753000000000000E52D0000000000005E
:1052A4000000000000000000000000004F7665725E
:1052B400666C6F77004E6F206F766572666C6F77E1
:1052C4000025730D0A092D20456C656D656E7420EB
:1052D40073697A653A0925640D0A092D20557361AD
:1052E40067653A092575252520282575206F75746D
:1052F400206F6620257520656C656D656E74732955
:105304000D0A092D204D6178696D756D3A09257571
:10531400252520282575206F7574206F6620257536
:1053240020656C656D656E7473290D0A092D204D19
:105334006F64653A090925730D0A0D0A00717565D4
:105344007565005072696E7420737461747573208E
:105354006F6620717565756520696E7374616E631F
:1053640065732E000000000070530000CD53000050
:10537400C753000000000000ED2E000000000000F4
:10538400000000000000000000000000A053000026
:10539400AD53000068530000000000007461736B9B
:1053A4005F6D616E6167657200636F6D6D616E64E0
:1053B4007320666F72207461736B206D616E616718
:1053C4006572007461736B7320696E666F003C4E86
:1053D400554C4C3E0053757370656E6465640052A1
:1053E400756E6E696E670052756E6E61626C6500F3
:1053F4005461736B2025753A0D0A00094E616D6581
:105404003A09272573270D0A0009537461636B3A1F
:10541400093078253038582D3078253038582075A3
:1054240073656420696E202575252520282575203F
:105434006F7574206F6620257520627974657329F1
:105444000D0A0009537461636B3A093078253038CA
:10545400582D3078253038580D0A0009537461747A
:10546400653A0925730D0A0009466C6167733A09A8
:105474003078253038580D0A0D0A000020202020ED
:1054840020202020206828282828202020202020B0
:105494002020202020202020202020204810101010
:1054A4001010101010101010101010108484848428
:1054B40084848484848410101010101010818181DD
:1054C4008181810101010101010101010101010148
:1054D40001010101010101101010101010828282DB
:1054E4008282820202020202020202020202020218
:1054F4000202020202020210101010200007032010
:10550400041702010857104080000000B456000040
:10551400785500008C56000053756E004D6F6E0078
:1055240054756500576564005468750046726900D7
:1055340053617400000000004A616E004665620019
:105544004D617200417072004D6179004A756E00C0
:105554004A756C0041756700536570004F637400B1
:105564004E6F76004465630000000000414D00501A
:105574004D000000B0560000AC560000AC560000D0
:10558400AC560000AC560000AC560000AC5600000F
:10559400AC560000AC560000AC560000FFFFFFFF05
:1055A400FFFFFFFFFFFFFFFFFFFF0000EC550000C0
:1055B4001C550000285600003C55000070550000A2
:1055C400D055000080560000DC550000256D2F25C5
:1055D400642F2579000000002561202562202565BF
:1055E400202554202559000053756E646179004DBF
:1055F4006F6E6461790054756573646179005765F1
:10560400646E65736461790054687572736461795A
:1056140000467269646179005361747572646179DA
:10562400000000004A616E7561727900466562721D
:1056340075617279004D6172636800417072696CC2
:10564400004D6179004A756E65004A756C790041B8
:1056540075677573740053657074656D6265720067
:105664004F63746F626572004E6F76656D6265722A
:1056740000446563656D62657200000025483A2543
:105684004D3A255300000000713200008D320000B5
:1056940099320000A5320000C1320000CD32000072
:1056A400D9320000E7320000000000002E000000A4
:1056B40043000000504F534958000000000102030A
:1056C4000405060708090A0B0C0D0E0F101112131E
:1056D4001415161718191A1B1C1D1E1FC6A13B37BB
:1056E400878F5B826F4F8162A1C8D8799503E3A24B
:1056F400245A2BE43C9874EDFE1BED9EF29000B608
:105704002A499FD0A9F39A6ADD2E77809DBA41A7D2
:1057140077F3B46A37B7AAAE49D6DF8D2F7A3C60E7
:105724000708D124ACD3C5DE3B6584474661696C68
:1057340020746F2061637175697265206D7574657D
:10574400780A00004661696C20746F2072656C658C
:10575400617365206D757465780A000000000000AF
:10576400010000000300000002000000FFFFFFFF33
:10577400070000004661696C20746F20676574201F
:1057840054524E4720636861726163746572697A2A
:105794006174696F6E20706172616D657465727396
:1057A400200A00004661696C20746F206372656191
:1057B40074652053594D206D757465780A00000096
:1057C4004661696C20746F20637265617465204161
:1057D40053594D206D757465780A00004661696CF3
:1057E40020746F206372656174652047656E566529
:1057F40063206D757465780A0000000043616E27AC
:105804007420696E697469616C697A65206D757458
:1058140065782C20776173204E554C4C0D0A00009E
:1058240043616E2774206C6F636B206D75746578AB
:105834002C20776173204E554C4C0D0A000000005B
:1058440043616E277420756E6C6F636B206D757485
:1058540065782C20776173204E554C4C0D0A00005E
:10586400536153695F48616C57616974496E74652B
:1058740072727570742063616E742077616974202C
:10588400666F72206E6F7468696E670A00000000AC
:105894000090D00310550000105500001055000072
:0858A400105500001055000032
:04000003000003797D
:00000001FF
